:04000000D1EF04F048
:08000800046ED8CF05F0E0CF33
:1000100006F00001E9CF0CF0EACF07F0E1CF08F0DD
:10002000E2CF09F0D9CF0AF0DACF0BF0F3CF12F01C
:10003000F4CF13F0FACF14F000C00EF001C00FF0AF
:1000400002C010F003C011F09DA22AEF00F09EB292
:1000500082EF01F09DAA30EF00F09EBAC5EF01F0EB
:100060009DA636EF00F09EB604EF02F00EC000F041
:100070000FC001F010C002F011C003F00CC0E9FF86
:1000800007C0EAFF078E08C0E1FF09C0E2FF0AC00F
:10009000D9FF0BC0DAFF12C0F3FF13C0F4FF14C086
:1000A000FAFF045006C0E0FF05C0D8FF100007AEFD
:1000B00003D0F2CF0DF0F29EF76AD00FF66E000E6D
:1000C000F7220900F55007AE02D00DBEF28E1200E5
:1000D00000C1814001C0804101C0804100C1814018
:1000E00001C0804100C1814000C1814001C0804108
:1000F00001C0804100C1814000C1814001C08041F8
:1001000000C1814001C0804101C0804100C18140E7
:1001100001C0804100C1814000C1814001C08041D7
:1001200000C1814001C0804101C0804100C18140C7
:1001300000C1814001C0804101C0804100C18140B7
:1001400001C0804100C1814000C1814001C08041A7
:1001500001C0804100C1814000C1814001C0804197
:1001600000C1814001C0804101C0804100C1814087
:1001700000C1814001C0804101C0804100C1814077
:1001800001C0804100C1814000C1814001C0804167
:1001900000C1814001C0804101C0804100C1814057
:1001A00001C0804100C1814000C1814001C0804147
:1001B00001C0804100C1814000C1814001C0804137
:1001C00000C1814001C0804101C0804100C1814027
:1001D00007AE03D0F2CF0DF0F29EF76AF20FF66E83
:1001E000010EF7220900F55007AE02D00DBEF28EC7
:1001F000120000C0C101C30302C2C60607C705C57D
:10020000C404CC0C0DCD0FCFCE0E0ACACB0BC9093E
:1002100008C8D81819D91BDBDA1A1EDEDF1FDD1D4E
:100220001CDC14D4D515D71716D6D21213D311D17E
:10023000D010F03031F133F3F23236F6F737F535CE
:1002400034F43CFCFD3DFF3F3EFEFA3A3BFB39F9FE
:10025000F83828E8E929EB2B2AEAEE2E2FEF2DEDCE
:10026000EC2CE42425E527E7E62622E2E323E1213E
:1002700020E0A06061A163A3A26266A6A767A5654E
:1002800064A46CACAD6DAF6F6EAEAA6A6BAB69A9BE
:10029000A86878B8B979BB7B7ABABE7E7FBF7DBDCE
:1002A000BC7CB47475B577B7B67672B2B373B171FE
:1002B00070B05090915193535292965657975595CE
:1002C00094549C5C5D9D5F9F9E5E5A9A9B5B99597E
:1002D0005898884849894B8B8A4A4E8E8F4F8D4D4E
:1002E0004C8C4484854587474686824243834181BE
:1002F00080409D920501095303E0CC6A9E929D8245
:100300000001000C1D5002080AE11E5208E11F52B4
:1003100006E11CB004D0020E215E1C8001D01C90AE
:10032000FF0E1F6E1E6E1D6A0501096B0001E1DFE5
:100330009E9236EF00F09EAAFED7ABCF17F0AECF5D
:1003400001F017A202D0AB98AB88000C1F5005013A
:1003500009190A6F036A0A51F2CF0BF5F29E0001E8
:10036000A6DE05010BBFF28E016E1E5001181F6E36
:10037000036A0A51F2CF0BF5F29E000129DF050155
:100380000BBFF28E1E6E0001000CD5DF01C008F518
:100390001CB025D01D5209E1FF0E1F6E1E6E08C550
:1003A00020F01D2A216A236A12D01D2C04D008C512
:1003B00022F01D2A0CD01D50020809E1240E212430
:1003C000E96EEA6AD8B0EA2A08C5EFFF212A08C513
:1003D00009F5BCDF010E0501096F00018ADF1B6A08
:1003E0001A6A270E196E100E186E9E9A36EF00F0DC
:1003F000C9500AC5C9FFC6889E96C7B0FED7016A14
:10040000C6B8012A1EEF02F0C7BA04D00401F86B87
:10041000C7B4F88F0401F851F82B386F38518008B1
:100420000FE1036A39516C0FE96E040E0320EA6E86
:10043000EFCF09F509C50AF50001DAD71BD0040191
:10044000C69C9EA6FED7C950C6880501086F040148
:10045000382D03D008C539F40CD03851020809E111
:10046000036A3951C60FE96E040E0320EA6E08C50F
:10047000EFFF00019E9636EF00F09EAA02D05BDFF0
:10048000FCD79D8A000C93948A94F7DF200E06090E
:10049000CA6EF90ECB6EC00EF21230EF05F00401F9
:1004A000F951FB03F3CF01F0F4CF00F0FC03F3505C
:1004B0000026FA51FB03F3500020026E0001000CED
:1004C000C6C423F4C7C424F4C8C425F4C9C426F49C
:1004D0000401FA6B26C4F9F4010EFC6FFB6B0001FA
:1004E000DEDF040125510124326F000E0220336F3C
:1004F000CAC428F4CBC429F4CCC42AF4CDC42BF448
:10050000FA6B29C4F9F4010EFC6FFB6B0001C7DF25
:10051000040128510124346F000E0220356FFA6B5C
:100520002BC4F9F4010EFC6FFB6B0001B8DF040172
:100530002A510124366F000E0220376FCEC42CF4EE
:10054000CFC42DF40001000C040E0501055F09E382
:10055000050EEA6EE96EEF5004E001D00000EF2EC8
:10056000FDD70001000C9EA8FED7AD6EBCEF02F0D7
:10057000050104510001F7D7166AF2BE168EF29EED
:1005800004C509F5E3DE16BEF28E8A0E006E002E5B
:10059000FED70000000CFF0E1F6E1E6E1C909D9A71
:1005A00093948A84020E0501046FB50E056F000155
:1005B000CBDF0501042FF9D702C504F50001D8DF10
:1005C00003C504F5D5DF000C1FC003F51EC002F5FE
:1005D00003C504F5CDDF02C504F5CADFACA2FED722
:1005E000020E0501046FB50E056F0001ADDF0501B8
:1005F000042FF9D7000141DF93948A94FF0E1F6EF8
:100600001E6E000C1CB004D0000E016E0AD006D085
:1006100022AE04D024C023F0010E216E1C90010EE6
:10062000016E000CFBC402F5030E0501036F00010F
:10063000B2DFFDC400F5FDC404F59ADFFCC400F58B
:10064000FCC404F595DFFFC400F5FFC404F590DF9A
:10065000FEC400F5FEC404F58BDFB6DF0401FB53D6
:1006600022E00001CFDF015213E1FF0E1826D8A0CF
:100670001926D8A01A26D8A01B26185206E119520E
:1006800004E11A5202E11B5203E000D000D0EAD785
:10069000185208E1195206E11A5204E11B5202E114
:1006A0000C0E236E04011B6A1A6A270E196E100EB7
:1006B000186E23C001F00001000C010E0401FB6F55
:1006C000FD6BF9C4FCF4FF6BFAC4FEF40001AADF71
:1006D000015234E125C06DF426C06EF427C06FF4DA
:1006E00028C070F42BC071F42CC072F42FC073F4C6
:1006F00030C074F431C075F432C076F433C077F48E
:1007000034C078F439C079F43AC07AF44BC07BF441
:100710004CC07CF44DC07DF44EC07EF44FC07FF4DD
:1007200050C080F451C081F452C082F453C083F4AD
:1007300054C084F404012E6B15D0000104012E2B4B
:100740002E5114080FE2010E276F275118080AE3F3
:10075000036A27516C0FE96E040E0320EA6EEF6AFC
:10076000272BF3D7020EFB6FFD6BF9C4FCF4FF6B74
:10077000FAC4FEF4000156DF015234E125C085F4CD
:1007800026C086F427C087F428C088F42BC089F4DB
:100790002CC08AF42FC08BF430C08CF431C08DF49F
:1007A00032C08EF433C08FF434C090F439C091F469
:1007B0003AC092F44BC093F44CC094F44DC095F4FD
:1007C0004EC096F44FC097F450C098F451C099F4BD
:1007D00052C09AF453C09BF454C09CF404012F6B94
:1007E00015D0000104012F2B2F5114080FE2190E10
:1007F000276F275130080AE3036A27516C0FE96E0F
:10080000040E0320EA6EEF6A272BF3D7030EFB6F6B
:10081000FD6BF9C4FCF4FF6BFAC4FEF4000102DFC7
:10082000015234E125C09EF426C09FF427C0A0F4F5
:1008300028C0A1F42BC0A2F42CC0A3F42FC0A4F4B0
:1008400030C0A5F431C0A6F432C0A7F433C0A8F478
:1008500034C0A9F439C0AAF43AC0ABF44BC0ACF42C
:100860004CC0ADF44DC0AEF44EC0AFF44FC0B0F4C8
:1008700050C0B1F451C0B2F452C0B3F453C0B4F498
:1008800054C0B5F40401306B15D000010401302BC5
:10089000305114080FE2320E276F275149080AE33E
:1008A000036A27516C0FE96E040E0320EA6EEF6AAB
:1008B000272BF3D700017CEF05F0FDC402F5060EEF
:1008C0000501036F000167DEFFC402F5FFC404F5F4
:1008D0004FDEFEC402F5FEC404F54ADE01C502F592
:1008E00001C504F545DE00C502F500C504F540DE8E
:1008F0006BDE0401FD5322E0000184DE015213E1AE
:10090000FF0E1826D8A01926D8A01A26D8A01B2674
:10091000185206E1195204E11A5202E11B5203E097
:1009200000D000D0EAD7185208E1195206E11A5255
:1009300004E11B5202E10C0E236E04011B6A1A6AC9
:10094000270E196E100E186E23C001F00001000C66
:10095000010E0401FD6FFAC4FFF4F9C4FEF4FCC4F7
:1009600001F5FBC400F50001A8DF020E0401FD6FD4
:10097000FAC4FFF4F9C4FEF4FCC401F5FBC400F5AD
:1009800000019BDF030E0401FD6FFAC4FFF4F9C4FC
:10099000FEF4FCC401F5FBC400F500018EDF89EF15
:1009A00005F0F86AD09E078EEA6AE96A938293801E
:1009B000B00EC86E360EC66E93988A88B886A00EA2
:1009C000AF6E010EB06EA60EAC6E900EAB6E1B6AD3
:1009D0001A6A270E196E100E186E1C901D6A0401FB
:1009E000236B246B256B266B276B286B296B2A6B7B
:1009F0002B6B2C6B2D6B2E6B2F6B306B316B336B2A
:100A0000326B356B346B376B366BC150C00B0F09D3
:100A1000C16E070EB46E176A030EF86F386B396B30
:100A200039510F081AE3036A39513A0FE96E040E7F
:100A30000320EA6EEF6A036A39516C0FE96E040E07
:100A40000320EA6EEF6A036A3951C60FE96E040E9D
:100A50000320EA6EEF6A392BE3D79D86000113D598
:100A6000D180780E0609CA6EFF0ECB6E94948B94DB
:100A70000C0EBD6E94928B92BA6EBE6ABB6AC00EAB
:100A8000F2121EDD04000A0E04016C6F800E9D6FD1
:100A900035C402F034C401F00232013202320132B4
:100AA000023201C0BEFF02320230300B006EBD5078
:100AB000CF0B0010BD6E37C402F036C401F0023215
:100AC000013202320132023201C0BBFF0232023077
:100AD000300B006EBA50CF0B0010BA6E6C512C5D0B
:100AE00019E19D512D5D16E12351030806E1F96BD3
:100AF000190EFA6F0001E1D50401235105080AE13E
:100B0000FA6B24C4F9F433C4FCF432C4FBF40001DE
:0C0B10001FD704010001D4DCB5D703009E
:020000040030CA
:0E00000038023915000180000FC00FE00F40DC
:00000001FF
;PIC18F2550
;CRC=76BB  CREATED="26-feb.-21 07:41"
