:04000000E3EF04F036
:08000800046ED8CF05F0E0CF33
:1000100006F00001E9CF0CF0EACF07F0E1CF08F0DD
:10002000E2CF09F0D9CF0AF0DACF0BF0F3CF12F01C
:10003000F4CF13F0FACF14F000C00EF001C00FF0AF
:1000400002C010F003C011F09DA22AEF00F09EB292
:1000500070EF01F09DAA30EF00F09EBAB4EF01F00E
:100060009DA636EF00F09EB6F3EF01F00EC000F053
:100070000FC001F010C002F011C003F00CC0E9FF86
:1000800007C0EAFF078E08C0E1FF09C0E2FF0AC00F
:10009000D9FF0BC0DAFF12C0F3FF13C0F4FF14C086
:1000A000FAFF045006C0E0FF05C0D8FF1000F76A51
:1000B000BE0FF66E000EF7220900F550120000C1C7
:1000C000814001C0804101C0804100C1814001C028
:1000D000804100C1814000C1814001C0804101C018
:1000E000804100C1814000C1814001C0804100C108
:1000F000814001C0804101C0804100C1814001C0F8
:10010000804100C1814000C1814001C0804100C1E7
:10011000814001C0804101C0804100C1814000C1D7
:10012000814001C0804101C0804100C1814001C0C7
:10013000804100C1814000C1814001C0804101C0B7
:10014000804100C1814000C1814001C0804100C1A7
:10015000814001C0804101C0804100C1814000C197
:10016000814001C0804101C0804100C1814001C087
:10017000804100C1814000C1814001C0804100C177
:10018000814001C0804101C0804100C1814001C067
:10019000804100C1814000C1814001C0804101C057
:1001A000804100C1814000C1814001C0804100C147
:1001B000814001C0804101C0804100C18140F76A97
:1001C000CE0FF66E010EF7220900F550120000C0A6
:1001D000C101C30302C2C60607C705C5C404CC0CCF
:1001E0000DCD0FCFCE0E0ACACB0BC90908C8D8183F
:1001F00019D91BDBDA1A1EDEDF1FDD1D1CDC14D44F
:10020000D515D71716D6D21213D311D1D010F0307E
:1002100031F133F3F23236F6F737F53534F43CFC8E
:10022000FD3DFF3F3EFEFA3A3BFB39F9F83828E83E
:10023000E929EB2B2AEAEE2E2FEF2DEDEC2CE4240E
:1002400025E527E7E62622E2E323E12120E0A0607E
:1002500061A163A3A26266A6A767A56564A46CAC4E
:10026000AD6DAF6F6EAEAA6A6BAB69A9A86878B8BE
:10027000B979BB7B7ABABE7E7FBF7DBDBC7CB474CE
:1002800075B577B7B67672B2B373B17170B050907E
:1002900091519353529296565797559594549C5C0E
:1002A0005D9D5F9F9E5E5A9A9B5B995958988848BE
:1002B00049894B8B8A4A4E8E8F4F8D4D4C8C44848E
:1002C00085458747468682424383418180409D928F
:1002D0000401D05303E0CC6A9E929D820001000C81
:1002E0001D5002080AE11E5208E11F5206E11CB02F
:1002F00004D0020E215E1C8001D01C90FF0E1F6EE8
:100300001E6E1D6A0401D06B0001E1DF9E9236EF84
:1003100000F09EAAFED7ABCF17F0AECF01F017A228
:1003200002D0AB98AB88000C1F500401D019D16FDC
:10033000036AD151F2CFD2F4F29E0001B8DE04017B
:10034000D2BFF28E016E1E5001181F6E036AD1518A
:10035000F2CFD2F4F29E000132DF0401D2BFF28E5E
:100360001E6E0001D9EF01F0D4DF01C0CFF41CB044
:1003700025D01D5209E1FF0E1F6E1E6ECFC420F066
:100380001D2A216A236A12D01D2C04D0CFC422F06A
:100390001D2A0CD01D50020809E1240E2124E96E0B
:1003A000EA6AD8B0EA2ACFC4EFFF212ACFC4D0F43A
:1003B000BBD7010E0401D06F000189DF1B6A1A6AE6
:1003C000270E196E100E186E9E9A36EF00F0C95067
:1003D000D1C4C9FFC6889E96C7B0FED7016AC6B809
:1003E000012A0DEF02F0C7BA04D00401C26BC7B4F2
:1003F000C28F0401C251C22B2A6F2A5180080FE11B
:10040000036A2B515E0FE96E040E0320EA6EEFCFF4
:10041000D0F4D0C4D1F40001DAD719D00401C69CBD
:100420009EA6FED7C950C688CF6F2A2D03D0CFC451
:100430002BF40CD02A51020809E1036A2B51900FCA
:10044000E96E040E0320EA6ECFC4EFFF00019E9612
:1004500036EF00F00D0A5069636B20636F6D6D61BC
:100460006E6420746F2073656E640D0A312E205205
:1004700065616420616C6C20636F696C732E0D0A7A
:100480000000322E205265616420616C6C20696E20
:10049000707574732E0D0A332E20526561642061CD
:1004A0006C6C20686F6C64696E6720726567697335
:1004B000746572732E0D0A00342E2052656164201B
:1004C000616C6C20696E70757420726567697374F5
:1004D0006572732E0D0A352E205475726E20636F6F
:1004E000696C2036206F6E2E0D0A362E2000577252
:1004F0006974652030783434343420746F20726528
:1005000067697374657220307830330D0A372E2096
:10051000536574203820636F696C73207573696E3E
:10052000672030783530206173206D61736B0D0A60
:100530000000382E2053657420322072656769737D
:100540007465727320746F203078313131312C2012
:100550003078323232320D0A392E2053656E6420E3
:10056000756E6B6E6F776E20636F6D6D616E640D6F
:100570000A00436F696C733A0D0A000044617461AC
:100580003A2000000D0A0D0A00003C2D2A2A457869
:1005900063657074696F6E2025582A2A2D3E0D0AF6
:1005A0000D0A0000496E707574733A0D0A004461BB
:1005B00074613A2000000D0A0D0A00003C2D2A2A21
:1005C000457863657074696F6E2025582A2A2D3E20
:1005D0000D0A0D0A0000486F6C64696E6720526551
:1005E000676973746572733A0D0A0000446174613F
:1005F0003A2000000D0A0D0A00003C2D2A2A4578F9
:1006000063657074696F6E2025582A2A2D3E0D0A85
:100610000D0A0000496E7075742052656769737425
:100620006572733A0D0A0000446174613A2000005B
:100630000D0A0D0A00003C2D2A2A45786365707466
:10064000696F6E2025582A2A2D3E0D0A0D0A0000DA
:1006500057726974696E672053696E676C652043D1
:100660006F696C3A0D0A0000446174613A20000021
:100670000D0A0D0A00003C2D2A2A45786365707426
:10068000696F6E2025582A2A2D3E0D0A0D0A00009A
:1006900057726974696E672053696E676C65205282
:1006A000656769737465723A0D0A0000446174618C
:1006B0003A2000000D0A0D0A00003C2D2A2A457838
:1006C00063657074696F6E2025582A2A2D3E0D0AC5
:1006D0000D0A000057726974696E67204D756C745D
:1006E00069706C6520436F696C733A0D0A00446150
:1006F00074613A2000000D0A0D0A00003C2D2A2AE0
:10070000457863657074696F6E2025582A2A2D3EDE
:100710000D0A0D0A000057726974696E67204D75E5
:100720006C7469706C652052656769737465727367
:100730003A0D0A00446174613A2000000D0A0D0A66
:1007400000003C2D2A2A457863657074696F6E201D
:1007500025582A2A2D3E0D0A0D0A00005472796987
:100760006E6720756E6B6E6F776E2066756E637444
:10077000696F6E0D0A00446961676E6F7374696317
:100780003A0D0A00446174613A000D0A0D0A000036
:100790003C2D2A2A457863657074696F6E20255850
:1007A0002A2A2D3E0D0A0D0A00000D0A496E6974B1
:1007B00069616C697A696E672E2E2E002E2E2E725C
:1007C000656164790D0A0000416464726573733A6F
:1007D00020253032750D0A200000496E73743A20CE
:1007E000253032750D0A2000040EEA6ECA0EE96E3D
:1007F000EF500EE0050E016E006A002EFED7012EAE
:10080000FBD72E0E006E002EFED700D0EF2EF2D7B3
:10081000000C93988A98080E016E00D00000018E9B
:1008200010D0019E0401CD330001D8B08A88D8A031
:100830008A98018C06D0019C012EF4D700D00000CC
:100840008A88840EE96EE92EFED700D0000001BE32
:10085000E8D701BCF0D7000C0900F5520CE0F6CF48
:10086000CAF4F7CFCBF4F5CFCDF4D3DFCAC4F6FF8B
:10087000CBC4F7FFF1D7000C9EAA02D04ADDFCD70B
:100880009D8A46EF04F094928B92F6D7200E0609CB
:10089000CA6EF90ECB6EC00EF21247EF05F00401DE
:1008A000CA51CC03F3CF01F0F4CF00F0CD03F350E5
:1008B0000026CB51CC03F3500020026E000172EFF2
:1008C00004F090C423F491C424F492C425F493C496
:1008D00026F40401CB6B26C4CAF4010ECD6FCC6B99
:1008E0000001DDD7040125510124286F000E0220EC
:1008F000296F0001000C0900F6CFCBF4F7CFCCF440
:10090000F5CFCDF486DFCBC4F6FFCCC4F7FF0401EE
:10091000CA2F01D002D00001EED70001000C040163
:10092000CD51016ACC5D03E2CCC400F00CD0006A6A
:10093000080ECE6FCC370036CD51005CD8B0006EBB
:100940000136CE2FF7D70001000C0150CAC4CCF4F9
:10095000640E0401CD6F0001E2DF00C0CAF4015053
:10096000300E08E10401CBA30FD0CBB70DD0CBB92B
:10097000200E04D00401CB97CB99CB81012601C076
:10098000CDF4000146DF0401CAC4CCF40A0ECD6FD9
:100990000001C5DF00C0CAF40150300E08E10401B7
:1009A000CBB70AD0CBA108D0CBB9200E00010126CD
:1009B00001C0CDF42EDF0401300ECA27CAC4CDF425
:1009C000000127DF000CF86AD09E078EEA6AE96A08
:1009D00093829380B00EC86E360EC66E93988A8846
:1009E000B886A00EAF6E010EB06EA60EAC6E900E65
:1009F000AB6E1B6A1A6A270E196E100E186E1C90C9
:100A00001D6A0401236B246B256B266B276B296BF6
:100A1000286BC150C00B0F09C16E070EB46E176A68
:100A2000030EC26FC491C56BC66BC76BC86BC96B35
:100A30002A6B2B6B2B510F081AE3036A2B512C0FD7
:100A4000E96E040E0320EA6EEF6A036A2B515E0F13
:100A5000E96E040E0320EA6EEF6A036A2B51900FD1
:100A6000E96E040E0320EA6EEF6A2B2BE3D7060E25
:100A7000CA6F0001B9DEC150C00B0F09C16E8A8672
:100A80009396AA0EF66E070EF76EE6DEFCD6BC0E47
:100A9000F66E070EF76EE0DE14DF9D86640E04012D
:100AA000CA6F0001A1DE0401C72BC80EF66E070E47
:100AB000F76E090ECA6F00011EDF24C4CAF4010ECE
:100AC0000401CB6F000141DF0D0E0401CD6F000169
:100AD000A0DE0A0E0401CD6F00019BDE200E040192
:100AE000CD6F000196DEDA0EF66E070EF76E060E7B
:100AF0000401CA6F0001FFDE23C4CAF4010E040121
:100B0000CB6F000122DF0D0E0401CD6F000181DEED
:100B10000A0E0401CD6F00017CDE200E0401CD6FB2
:100B2000000177DECEDE04016B2B0001B7D7030096
:020000040030CA
:0E0000003802391E000180000FC00FE00F40D3
:00000001FF
;PIC18F2550
;CRC=A6EC  CREATED="05-feb.-21 16:55"
