:100000008CEF44F027EF0CF057EF00F000000000F9
:100010000000000000000000046ED8CF05F0E0CF23
:1000200006F00001E9CF0CF0EACF07F0E1CF08F0CD
:10003000E2CF09F0D9CF0AF0DACF0BF0F3CF12F00C
:10004000F4CF13F0FACF14F0FBCF15F000C00EF090
:1000500001C00FF002C010F003C011F09DAA34EFF0
:1000600000F09EBA4FEF02F00EC000F00FC001F09A
:1000700010C002F011C003F00CC0E9FF07C0EAFF96
:10008000078E08C0E1FF09C0E2FF0AC0D9FF0BC01C
:10009000DAFF12C0F3FF13C0F4FF14C0FAFF15C05B
:1000A000FBFF045006C0E0FF05C0D8FF1000176E2C
:1000B000D8CF18F0E0CF19F00001E9CF1FF0EACF58
:1000C0001AF0E1CF1BF0E2CF1CF0D9CF1DF0DACF50
:1000D0001EF0F3CF25F0F4CF26F0FACF27F0FBCFB8
:1000E00028F000C021F001C022F002C023F003C0BC
:1000F00024F09DA07FEF00F09EB0D3EF01F021C06F
:1001000000F022C001F023C002F024C003F01FC0A1
:10011000E9FF1AC0EAFF1A8E1BC0E1FF1CC0E2FF14
:100120001DC0D9FF1EC0DAFF25C0F3FF26C0F4FFB3
:1001300027C0FAFF28C0FBFF175019C0E0FF18C006
:10014000D8FF10006A302E76616C3D2575006A314B
:100150002E76616C3D3000006A322E76616C3D3047
:1001600000006A332E76616C3D3000006A312E76D5
:10017000616C3D2575006A302E76616C3D31303002
:1001800000006A322E76616C3D3000006A332E76B4
:10019000616C3D3000006A322E76616C3D25750041
:1001A0006A302E76616C3D31303000006A312E7637
:1001B000616C3D31303000006A332E76616C3D3029
:1001C00000006A332E76616C3D2575006A302E760C
:1001D000616C3D31303000006A312E76616C3D310A
:1001E000303000006A322E76616C3D3130300000D4
:1001F0006A342E76616C3D2575006A352E76616C09
:100200003D3000006A362E76616C3D3000006A3762
:100210002E76616C3D3000006A352E76616C3D258E
:1002200075006A342E76616C3D31303000006A36DC
:100230002E76616C3D3000006A372E76616C3D3061
:1002400000006A362E76616C3D2575006A342E7684
:10025000616C3D31303000006A352E76616C3D3185
:10026000303000006A372E76616C3D3000006A370E
:100270002E76616C3D2575006A342E76616C3D31B9
:10028000303000006A352E76616C3D313030000030
:100290006A362E76616C3D313030000066656368E9
:1002A000612E62636F3D254C750065737461646FE8
:1002B0002E62636F3D254C7500006665782E626383
:1002C0006F3D254C750066646F776E2E62636F3DDF
:1002D000254C75007476656E74616E612E62636F75
:1002E0003D254C7500007466696C74726F2E6263F4
:1002F0006F3D254C75007466322E62636F3D254C50
:10030000750070616765205072696E636970616C19
:10031000000070616765204D616E74656E696D697E
:10032000656E746F00007061676520436C6176656F
:10033000000070616765205469656D706F7300001F
:100340007061676520486F72610070616765204366
:100350006C617665000062302E7069633D35330054
:1003600062302E7069633D35320062332E706963EE
:100370003D35370062332E7069633D353600623299
:100380002E7069633D35390062322E7069633D35E8
:10039000380062312E7069633D35350062312E7050
:1003A00069633D353400F30ECF6ECB0ECE6E93886D
:1003B00081B805D00201782BD8B4792B03D0020183
:1003C000796B786B938A81BA04D07A2BD8B47B2B63
:1003D00002D07B6B7A6B938C81BC04D07C2BD8B41D
:1003E0007D2B02D07D6B7C6B938E81BE04D07E2BE7
:1003F000D8B47F2B02D07F6B7E6B762BD8B4772B53
:10040000775303E17651C7083AE2776B766B0001C8
:100410007D818085825305E1AC5303E10201842B89
:1004200000017DA303D0CC2BD8B4CD2B7DBF02D04F
:1004300081A306D0B12BB1513B0802E2B16BB32BC3
:1004400080A706D0B52BB5513B0802E2B56BB72BA0
:100450007EAF09D0C62BD8B4C72BB92BB9513B08F6
:1004600002E2B96BBA2B81A107D0C02BC0513B0867
:1004700002E2C06BC12B02D0C06BC16B02019E9027
:1004800000017FEF00F09EAAFED7ABCF2AF0AECFDF
:1004900001F02AA202D0AB98AB8850EF02F0F3D75C
:1004A00001C0AAF0AA51650803E1010EAB6F476ACB
:1004B000AB2D0AD0036A47503C0FE96E000E0320B3
:1004C000EA6EAAC0EFFF472A4750090802E2476ACE
:1004D000AB6B475210E13C5065080BE13D3C09D045
:1004E0003E3C07D0445205E1453C03D0050E996FD0
:1004F00002D00A0E996F9E9A34EF00F07061676522
:10050000204F666600007061676520436C61766508
:10051000000070616765204F666600007061676566
:10052000205072696E636970616C00007469747543
:100530006C6F2E7478743D22436C617665204E7525
:10054000657661220000646F6576656E74730000E5
:10055000746974756C6F2E7478743D22436C617687
:10056000652041637475616C2200646F6576656E09
:1005700074730000746974756C6F2E7478743D2206
:10058000436C617665205465636E69636F22000079
:10059000646F6576656E74730000746974756C6F52
:1005A0002E7478743D22496E677265736520436FBF
:1005B0006E7472617365F161220070616765204F2E
:1005C000666600007061676520436C617665436F05
:1005D00072726563746100007061676520436C61CD
:1005E0007665426164007061676520436F6E66697D
:1005F000670070616765205072696E636970616C35
:1006000000007061676520436C6176650000746965
:1006100074756C6F2E7478743D22436C617665201E
:100620004E756576612200007061676520507269C1
:100630006E636970616C0000746974756C6F2E7400
:1006400078743D22436C617665204E756576612233
:10065000000070616765205072696E636970616C3B
:1006600000007061676520436C61766542616400DB
:1006700066656368612E7478743D224665636861BF
:100680003A253032752F253032752F3230253032F1
:100690007520202020486F72613A20253032753A4B
:1006A000253032753A253032752020543A253032C3
:1006B00075B04322000070616765205469656D70F4
:1006C0006F507572676100007061676520546965DD
:1006D0006D706F506F7374500000706167652054C7
:1006E00069656D706F555600706167652054696566
:1006F0006D706F53696C656E63696F0066656368E2
:10070000612E7478743D2246656368613A25303203
:10071000752F253032752F3230253032752020204C
:1007200020486F72613A20253032753A2530327593
:100730003A253032752020543A25303275B04322A4
:10074000000070616765205469656D706F7300000B
:10075000746D696E6573742E7478743D2225303221
:1007600075220000747365636573742E7478743D2C
:10077000222530327522000066656368612E747828
:10078000743D2246656368613A253032752F253005
:1007900032752F32302530327520202020486F727C
:1007A000613A20253032753A253032753A2530329B
:1007B000752020543A25303275B043220000706114
:1007C0006765205469656D706F730000746D696EA4
:1007D0006573742E7478743D2225303275220000C2
:1007E000747365636573742E7478743D222530329A
:1007F00075220000746974756C6F2E7478743D22D4
:1008000050757267612200006D696E507572676184
:100810002E7478743D222530327522007365635042
:10082000757267612E7478743D222530327522000E
:1008300066656368612E7478743D224665636861FD
:100840003A253032752F253032752F32302530322F
:100850007520202020486F72613A20253032753A89
:10086000253032753A253032752020543A25303201
:1008700075B04322000070616765205072696E6335
:100880006970616C000070616765205072696E6309
:100890006970616C00006665782E7478743D225032
:1008A0002E205072652D46696C74726F3A20253285
:1008B0002E3266696E483230220066646F776E2E83
:1008C0007478743D22502E2046696C74726F2048F3
:1008D0004550413A2025322E3266696E4832302228
:1008E000000066656368612E7478743D2246656316
:1008F00068613A253032752F253032752F32302518
:1009000030327520202020486F72613A2025303225
:10091000753A253032753A253032752020543A2503
:10092000303275B0432200007466322E7478743D04
:10093000222530337525252200007466332E747805
:10094000743D2225303375252522000062302E703B
:1009500069633D35330062302E7069633D35320086
:1009600065737461646F2E7478743D225265766984
:100970007365205661726961646F7265732200004D
:1009800069636F6E2E7069633D38360069636F6E00
:10099000322E7069633D3834000069636F6E332E08
:1009A0007069633D3834000069636F6E342E70697E
:1009B000633D3834000069636F6E352E7069633DA6
:1009C00038340000636162696E612E7069633D387E
:1009D000390065737461646F2E7478743D22466CBF
:1009E000756A6F2042616A6F220069636F6E2E70B4
:1009F00069633D38370069636F6E322E7069633DFD
:100A00003835000069636F6E332E7069633D383589
:100A1000000069636F6E342E7069633D38350000E5
:100A200069636F6E352E7069633D38350000636110
:100A300062696E612E7069633D38390069636F6E5B
:100A40002E7069633D38380065737461646F2E746D
:100A500078743D22416C61726D612053696C656EE2
:100A6000636961646120253032753A253032752220
:100A70000000636162696E612E7069633D38390000
:100A800069636F6E352E7069633D3835000065739C
:100A90007461646F2E7478743D2250726F67726156
:100AA0006D652043616D62696F2064652046696CE5
:100AB00074726F73220069636F6E2E7069633D38C4
:100AC000370069636F6E342E7069633D38350000FE
:100AD00065737461646F2E7478743D224C696D7017
:100AE0006965205072652D46696C74726F732200BF
:100AF00069636F6E2E7069633D38370069636F6E8E
:100B00002E7069633D38380065737461646F2E74AC
:100B100078743D22416C61726D612053696C656E21
:100B2000636961646120253032753A25303275225F
:100B30000000636162696E612E7069633D39300047
:100B400065737461646F2E7478743D2243616D62C5
:100B50006965206C6F732046696C74726F73220034
:100B600069636F6E2E7069633D38360069636F6E1E
:100B7000352E7069633D38340000636162696E61CF
:100B80002E7069633D39300065737461646F2E7433
:100B900078743D224C696D706965205072652D46F0
:100BA000696C74726F73220069636F6E2E70696373
:100BB0003D38360069636F6E342E7069633D38349A
:100BC0000000636162696E612E7069633D383900AF
:100BD00069636F6E2E7069633D37340069636F6EB1
:100BE000352E7069633D3735000069636F6E342EB2
:100BF0007069633D3735000069636F6E322E70692E
:100C0000633D3735000069636F6E332E7069633D55
:100C10003735000065737461646F2E7478743D22FB
:100C20004F706572616369F36E204E6F726D616C17
:100C30002200636162696E612E7069633D39310023
:100C4000636162696E612E7069633D3437006232A0
:100C50002E7069633D35390062322E7069633D350F
:100C6000380062312E7069633D35350062312E7077
:100C700069633D3534007061676520506F7374504F
:100C80007572676100006D696E50757267612E74D0
:100C900078743D2225303275220073656350757279
:100CA00067612E7478743D222530327522007061A0
:100CB0006765205072696E636970616C00006665DB
:100CC0006368612E7478743D2246656368613A25D5
:100CD0003032752F253032752F3230253032752065
:100CE000202020486F72613A20253032753A253035
:100CF00032753A253032752020543A25303275B09D
:100D00004322000070616765204F666600006665DB
:100D10006368612E7478743D2246656368613A2584
:100D20003032752F253032752F3230253032752014
:100D3000202020486F72613A20253032753A2530E4
:100D400032753A253032752020543A25303275B04C
:100D500043220000746469612E70636F3D3635353F
:100D600033350000746D65732E70636F3D30000085
:100D700074796561722E70636F3D300074686F72B4
:100D8000612E70636F3D3000746D696E75746F73A2
:100D90002E70636F3D300000746469612E70636F64
:100DA0003D300000746D65732E70636F3D363535D0
:100DB0003335000074796561722E70636F3D3000C9
:100DC00074686F72612E70636F3D3000746D696E70
:100DD00075746F732E70636F3D30000074646961C9
:100DE0002E70636F3D300000746D65732E70636FFD
:100DF0003D30000074796561722E70636F3D363549
:100E00003533350074686F72612E70636F3D30004A
:100E1000746D696E75746F732E70636F3D30000072
:100E2000746469612E70636F3D300000746D65738A
:100E30002E70636F3D30000074796561722E7063AF
:100E40006F3D300074686F72612E70636F3D363590
:100E500035333500746D696E75746F732E70636F02
:100E60003D300000746469612E70636F3D30000096
:100E7000746D65732E70636F3D3000007479656129
:100E8000722E70636F3D300074686F72612E7063F4
:100E90006F3D3000746D696E75746F732E70636F83
:100EA0003D3635353335000074686F72612E7478C5
:100EB000743D2225303275220000746D696E7574A0
:100EC0006F732E7478743D2225303275220074645D
:100ED00069612E7478743D22253032752200746D5C
:100EE00065732E7478743D22253032752200747932
:100EF0006561722E7478743D2225303275220000AF
:100F000070616765204269656E76656E696461002F
:100F100066656368612E7478743D22466563686116
:100F20003A253032752F253032752F323025303248
:100F30007520202020486F72613A20253032753AA2
:100F4000253032753A253032752020543A2530321A
:100F500075B043220000747365636573742E70630B
:100F60006F3D363535333500746D696E6573742E9B
:100F700070636F3D3000747365636573742E7063C6
:100F80006F3D3000746D696E6573742E70636F3DD4
:100F900036353533350070616765205469656D708D
:100FA0006F730000746D696E6573742E7478743D90
:100FB0002225303275220000747365636573742EC8
:100FC0007478743D222530327522000066656368AE
:100FD000612E7478743D2246656368613A2530322B
:100FE000752F253032752F32302530327520202074
:100FF00020486F72613A20253032753A25303275BB
:101000003A253032752020543A25303275B04322CB
:1010100000006230302E7478743D22555628686F77
:10102000726173293A2530354C7522006236302EB4
:101030007478743D2246696C74726F28686F7261AF
:1010400073293A2530354C7522006365726F496EFD
:101050002E7478743D2252343A2530354C75202058
:1010600052353A2530354C7522006365726F446EF7
:101070002E7478743D2252363A2530354C75202036
:1010800052373A2530354C752200616A75737465A4
:10109000496E2E7478743D2252373A2530354C759E
:1010A000202052383A2530354C752200616A75731C
:1010B0007465446E2E7478743D2252393A25303569
:1010C0004C7520205231303A2530354C75220000C5
:1010D000696E666C6F772E7478743D2274785B301D
:1010E0005D3A253033752074785B34395D3A2530AC
:1010F00033752200646F776E666C6F772E74787428
:101100003D22446F776E466C6F773A2025322E323F
:10111000662050643A25322E32662200616463698B
:101120006E2E7478743D22414443496E3A20253036
:10113000344C75202200616463646E2E7478743DB3
:1011400022414443446E3A202530344C7520643AA1
:1011500025322E3266220000706167652050726968
:101160006E636970616C0000706167652050726920
:101170006E636970616C0000706167652050757204
:10118000676100007061676520436C6176650000EF
:1011900066656368612E7478743D22466563686194
:1011A0003A253032752F253032752F3230253032C6
:1011B0007520202020486F72613A20253032753A20
:1011C000253032753A253032752020543A25303298
:1011D00075B04322000070616765205469656D70C9
:1011E0006F730000746D696E6573742E7478743D4E
:1011F0002225303275220000747365636573742E86
:101200007478743D2225303275220000436F6E667B
:1012100069672E7432632E7478743D2256656C6F44
:1012200063696461642200007433632E7478743DD2
:101230002225303375220000436F6E6669672E7475
:1012400032632E7478743D225020496E696369615F
:101250006C205072652D46696C2200007433632E39
:101260007478743D2225322E32662200436F6E66FA
:1012700069672E7432632E7478743D225020496E53
:10128000696369616C20446F776E466C6F772200EA
:101290007433632E7478743D2225322E3266220018
:1012A000436F6E6669672E7432632E7478743D22C4
:1012B0004365726F2050446F776E466C6F772200E3
:1012C0007433632E7478743D2225322E30662200EA
:1012D000436F6E6669672E7432632E7478743D2294
:1012E0004365726F205072652D46696C74726F731E
:1012F00022007433632E7478743D2225322E3066BA
:101300002200436F6E6669672E7432632E747874A0
:101310003D2256656C6F636964616420496E696340
:1013200069616C2200007433632E7478743D222549
:10133000303275220000436F6E6669672E74326327
:101340002E7478743D22502061746D6F73666572DF
:101350006963612200007433632E7478743D222522
:10136000322E30662200436F6E6669672E743263D8
:101370002E7478743D2248756D65646164220000A6
:101380007433632E7478743D2225322E3066220029
:10139000436F6E6669672E7432632E7478743D22D3
:1013A0004C696D6974652050446F776E466C6F7739
:1013B00022007433632E7478743D2225322E3166F8
:1013C0002200436F6E6669672E7432632E747874E0
:1013D0003D224C696D6974652050205072652D4620
:1013E000696C22007433632E7478743D2225322E8A
:1013F00031662200436F6E6669672E7432632E7405
:1014000078743D22416A75737465205020446F776B
:101410006E666C6F772200007433632E7478743DAF
:101420002225322E31662200706167652050726974
:101430006E636970616C000066656368612E747824
:10144000743D2246656368613A253032752F253038
:1014500032752F32302530327520202020486F72AF
:10146000613A20253032753A2530327522009BC012
:1014700088F29CC089F29DC08AF29EC08BF29FC008
:101480008CF2A0C08DF2A1C08EF2A2C08FF2A8C2D1
:1014900090F2D9C291F2B6EF0AF0080E016E050E75
:1014A000006E002EFED78C9C959C060E006E002EC2
:1014B000FED7070165378C9ED8B0958ED8A0959E33
:1014C000958C83ACFED7012E01D002D00001E7D766
:1014D000050E006E002EFED78C9C959C0000958E0C
:1014E000060E006E002EFED7060E006E002EFED7F2
:1014F000958C83ACFED7016A060E006E002EFED7D7
:1015000083BE01808C9C959C8C9E959E0001000C56
:10151000958E050E006E002EFED7958C060E006E81
:10152000002EFED78C9E959E050E006E002EFED7D7
:101530008C9C959C62C765F7B0DF63C765F7ADDF2C
:1015400064C765F7AADF959E0000958C83ACFED733
:10155000050E006E002EFED700D00000958E050E01
:10156000006E002EFED7D0EF0AF081D70201806B0B
:101570008051090818E3B00E03010D6F036A0201E0
:101580008051880FE96E020E0320EA6EEFCF61F7FB
:101590000DC362F780C263F761C764F70001B8D773
:1015A0000201802BE5D70001000C070EEA6E6C0EDD
:1015B000E96EEF500DE0060E016E006A002EFED7B8
:1015C000012EFBD77B0E006E002EFED7EF2EF3D739
:1015D000000C080E0701656F00C066F7958E060EB9
:1015E000006E002EFED7958C83ACFED783BED880CC
:1015F00083AED8900136050E006E002EFED7959C66
:101600008C9C652FEBD7958E060E006E002EFED7B4
:101610008C9E6651D8A4959E0000958C83ACFED715
:10162000050E006E002EFED78C9C959C060E006E5B
:10163000002EFED78C9E959E0001000CB00E070177
:10164000616F626B958E050E006E002EFED7958C35
:10165000060E006E002EFED78C9E959E050E006E27
:10166000002EFED78C9C959C61C765F7000115DFA5
:1016700062C765F712DF958E050E006E002EFED74D
:10168000958C060E006E002EFED783ACFED78C9E86
:10169000959E050E006E002EFED78C9C959C010E2B
:1016A00007016125636F656F0001F7DE006A91DF56
:1016B00001C00CF3959E0000958C83ACFED7050EFF
:1016C000006E002EFED700D00000958E050E006E35
:1016D000002EFED70CC3A8F2B00E0701616F310EC9
:1016E000626F958E050E006E002EFED7958C060E4D
:1016F000006E002EFED78C9E959E050E006E002E6D
:10170000FED78C9C959C61C765F70001C6DE62C759
:1017100065F7C3DE958E050E006E002EFED7958C04
:10172000060E006E002EFED783ACFED78C9E959ED3
:10173000050E006E002EFED78C9C959C010E0701B5
:101740006125636F656F0001A8DE006A42DF01C09A
:101750000CF3959E0000958C83ACFED7050E006EB1
:10176000002EFED700D00000958E050E006E002ED4
:10177000FED70CC3D9F20201A8510A0869E1D95178
:10178000800866E1010E806F805149085DE3B00E6C
:1017900003010D6F80C20EF30DC361F70EC362F734
:1017A000958E050E006E002EFED7958C060E006EEF
:1017B000002EFED78C9E959E050E006E002EFED745
:1017C0008C9C959C61C765F7000167DE62C765F771
:1017D00064DE958E050E006E002EFED7958C060EEB
:1017E000006E002EFED783ACFED78C9E959E050E14
:1017F000006E002EFED78C9C959C010E0701612582
:10180000636F656F000149DE006AE3DE01C00CF31F
:10181000959E0000958C83ACFED7050E006E002EC1
:10182000FED700D00000958E050E006E002EFED76C
:10183000036A02018051A80FE96E020E0320EA6ECE
:101840000CC3EFFF802BA0D7000102EF00F00201D4
:101850000001000C030E9B6F010E9C6F9D6B9E6B35
:1018600084DEC80E07016C6F00019FDEE7DE000C0E
:101870005DC79BF05EC79CF05FC79DF0000160C72D
:101880009EF0000172DEDADE000C8E0E006E9DC747
:1018900001F09CC702F0036A015209E102C001F0A5
:1018A000026A080E005E015202E1006A08D0D89078
:1018B00001BE04D0023601360006F9D7019E000CA5
:1018C00007019851D8B4A5D0A46F9C51D8B4A1D029
:1018D000A45F05E37F0EA427D8B09BD006D0810E6D
:1018E000A45FD8A096D0D8B494D0A4C700F0016A61
:1018F000026A036AA36B99C7A2F7A28F9AC7A1F7DE
:101900009BC7A0F7190EA46F9F51A05F0DE2010EB7
:10191000A15F0AE2A25F08E2A35F06E2A32BA22B6B
:10192000A12B9F51A02728D09E51A15F12E2010E4A
:10193000A25F0FE2A35F0DE2A32BA22B9E51A12772
:101940009F51A02719E3A12B17E1A22B15E1A32B8F
:1019500013D09D518009A25F0EE2010EA35F0BE23E
:10196000A32B9D518009A2279E51A127E9E3A22B19
:10197000E7E1A32BE5D70380A42F01D00BD0D890AB
:10198000A037A137A237A337D890033602360136E5
:10199000A537BAD7A5A106D0D890013202320332BA
:1019A000A53302D0000635E0A5BF1ED0D890A037E1
:1019B000A137A237A3379F51A05F07E2010EA15FB5
:1019C00004E2A25F02E2A35F1AE39E51A15F05E277
:1019D000010EA25F02E2A35F12E39D518009A25FA4
:1019E00003E2010EA35F0BE3032A09E1022A07E1E8
:1019F000012A05E1002A0DE001320232033299C7C3
:101A0000A4F79D51A41BA4AF02D0018E06D0019E65
:101A100004D0006A016A026A036A0001000C07012F
:101A20009851D8B471D0006E9C51D8B46DD00026B6
:101A300004E3810E002668E204D07F0E005E64E3BA
:101A400063E099C7A0F79D51A01B998F9D8F9B5173
:101A50009F03F4CFA2F79A519E03F4CF03F0F3CF84
:101A6000A1F79F03F350A227F450A123000E0322F5
:101A70009B519E03F350A227F450A123000E026A4B
:101A80000322022299519F03F350A127F45003220D
:101A9000000E022299519E03F3500326F4500222B5
:101AA000000E016A01229B519D03F350A127F450BF
:101AB0000322000E022201229A519D03F3500326B5
:101AC000F4500222000E012299519D03F350022688
:101AD000F4500122002A01BE05D0A1370336023698
:101AE00001360006000EA1AF0AD0032A022201220D
:101AF000015005E1025003E1035001E1002AA0BFBB
:101B0000018EA0AF019E04D0006A016A026A036AD6
:101B10000001000C8E0E006E07019851005E99C7FF
:101B200002F09AC701F0028E005209E0D8900252EA
:101B300002E1015204E002320132002EF7D799AFE0
:101B400005D0011E021E012AD8B4022A0001000C91
:101B50000701585339E18B9694968B949494000125
:101B600079DEA9C25EF7AAC25DF707015D5310E1F5
:101B70005E530EE1ABC203F00201AC510001D85D2F
:101B8000D8B402D0070104D00350D95D0FE007019B
:101B9000050E5D6F5E6B606B5F6B000169DEAF2BE6
:101BA0008081AF510F0801E27F8F0CD080A10AD055
:101BB0008091AF6B7F9F07015D6B5E6B606B5F6BAE
:101BC000000156DEC0D007018B8694969D6B58C7E6
:101BD0009CF700015ADE00C05DF701C05EF702C04D
:101BE0005FF703C060F703C09BF702C09AF701C01C
:101BF00099F700C098F7550E07019F6F9E6F9D6F74
:101C00007F0E9C6F00015CDE00C05DF701C05EF7D7
:101C100002C05FF703C060F703C09BF702C09AF7EA
:101C200001C099F700C098F707019F6B9E6B200ECB
:101C30009D6F820E9C6F0001F2DE03C05CF702C054
:101C40005BF701C05AF700C059F704DE5CC79BF789
:101C50005BC79AF75AC799F759C798F75BDF02C075
:101C6000D9F001C0D8F0A9C25EF7AAC25DF707019A
:101C70005D2D10D05E530EE1ABC203F00201AC51FA
:101C80000001D85DD8B402D0070104D00350D95D5B
:101C90004AE00701050E5D6F5E6B606B010E5F6FC2
:101CA0000001E6DDAF2B8081AF510F0801E27F8F8D
:101CB000ABC203F00201AC510001D85D03E1035057
:101CC000D95D30E0050E07015D6F010E5E6FD9C072
:101CD00060F7D8C05FF70001CBDD0A0E07016C6F1B
:101CE000000163DC050E07015D6F010E5E6FD9C058
:101CF00060F7D8C05FF70001BBDD0A0E07016C6F0B
:101D0000000153DC050E07015D6F010E5E6FD9C047
:101D100060F7D8C05FF70001ABDD0A0E07016C6FFA
:101D2000000143DC10D08B9094908C84959480A11A
:101D30000AD08091AF6B7F9F07015D6B5E6B606B1C
:101D40005F6B000195DD000C0701626B62510708B3
:101D50000DE3D890613302E28B9801D08B88949880
:101D6000949A8B8A949A8B9A622BF0D70001000C7C
:101D700095968C865FC761F7E7DF60C761F7E4DFA0
:101D800095968C96000C95968C865CC761F7DCDF87
:101D90009488100E006E002EFED7000007015D6BC8
:101DA0005D51070815E3948882B802D0D89001D01D
:101DB000D8805E33949A8B8A210E006E002EFED757
:101DC000949A8B9A210E006E002EFED75D2BE8D7D9
:101DD00095968C965EC701F00001000C95968C9646
:101DE000210E006E002EFED7949A8B9A8E0E07015C
:101DF0005F6F606B0001BCDF900E07015F6FA40E88
:101E0000606F0001B5DF810E07015C6F0001BBDF71
:101E100001C058F707015851800B06E0800E5F6F34
:101E2000606B0001A5DF070100014CEF47F00900DE
:101E3000F55211E0F6CF58F7F7CF59F7F8CF5AF728
:101E4000F5509EA8FED7AD6E58C7F6FF59C7F7FFED
:101E50005AC7F8FFECD7000C9EA8FED7AD6E000C59
:101E6000100E006E002EFED70000FF0EF5DF100EE4
:101E7000006E002EFED70000FF0EEEDF100E006E8B
:101E8000002EFED70000FF0EE7DF100E006E002EC2
:101E9000FED70000000C800ED8A202D00701A11BC3
:101EA0000701A66BA76B9DC7A5F7A151A51B9C5168
:101EB000D8B4DFD0A46F006EA051D8B4E3D0A45F33
:101EC000D8B483D03EE3A1C7AAF7AA8FA2C7A9F7C7
:101ED000A3C7A8F7A76BD890AA33A933A833A73311
:101EE000A42FF8D7A5AF03D0A681E0D0A691A491E6
:101EF000A689070EEA6E9F0EE96EEBD0A699A5BFE4
:101F00000AD0A4A113D0AA33A933A833A733002A37
:101F1000D8B4C7D00BD0AABF0CD0D890A737A83759
:101F2000A937AA370006D8B4BCD0F5D7A68D6DD096
:101F3000A69D9DC7A5F79DAF02D0AA8FABD0AA9F43
:101F4000A9D0A0C7A4F7A0C700F09C51A45F9DC76B
:101F5000AAF7AA8F9EC7A9F79FC7A8F7A76BD89023
:101F6000AA33A933A833A733A42FF8D7A5AF03D03A
:101F7000A6839CD0A693A491A68B070EEA6EA30E0F
:101F8000E96EA7D0A69BA5BF0AD0A4A113D0AA33FF
:101F9000A933A833A733002AD8B483D00BD0AABF63
:101FA0000CD0D890A737A837A937AA370006D8B4DD
:101FB00078D0F5D7A68F29D0A69FA1C7A5F7A1AF46
:101FC00002D0AA8F67D0AA9F65D0A1C7AAF7AA8F0F
:101FD000A2C7A9F7A3C7A8F7A5AF04D0AA9FA68553
:101FE00065D0A695A76BA491070EEA6E9F0EE96EC9
:101FF00070D0A5BF1CD09DC7A5F7A4A106D0AA3359
:10200000A933A833A733002A4CE0A7AF0BD0A82BE5
:1020100009E1A92B07E1AA2B05E1AA33A933A833CB
:10202000002A3FE0A6BD84D7A6BFC6D71CD0800E2D
:10203000AA1BAAAF04D03AD0A1C7A5F70AD09DC762
:10204000A5F7AA5306E1A95304E1A85302E1006AE7
:1020500021D0AABF08D0D890A737A837A937AA3768
:10206000002EF7D71ED0A5AF02D0AA8F13D0AA9FFB
:1020700011D0A0C700F0A1C7AAF7A2C7A9F7A3C7AC
:10208000A8F708D09CC700F09DC7AAF79EC7A9F77C
:102090009FC7A8F7AAC701F0A9C702F0A8C703F015
:1020A00034D0006A016A026A036A2FD0A76BA81FA6
:1020B000A91FAA1FA71FA72B05E1A82B03E1A92B86
:1020C00001E1AA2BA6B112D7A6B354D7A6B589D7DA
:1020D000B3D7EF50A82705E3A92B03E1AA2BD8B467
:1020E000A481ED52EF50A92703E3AA2BD8B4A48111
:1020F000ED52EF50EFBE01D0800AAA27D8B0A481DC
:10210000A6B9FCD6A6BB3ED774D70001000CF2CF0F
:1021100058F7F29CF29EAA6AA96AA69CA69EA6807F
:10212000A850070158BDF28C58BFF28E0001E26F33
:102130000A0E07016C6F0001D5EC0AF0F2CF58F7D8
:10214000F29CF29EAA6A010EA96EA69CA69EA6808B
:10215000A850070158BDF28C58BFF28E0001E36F02
:102160000A0E07016C6F0001D5EC0AF0F2CF58F7A8
:10217000F29CF29EAA6A020EA96EA69CA69EA6805A
:10218000A850070158BDF28C58BFF28E0001E46FD1
:102190000A0E07016C6F0001D5EC0AF0F2CF58F778
:1021A000F29CF29EAA6A030EA96EA69CA69EA68029
:1021B000A850070158BDF28C58BFF28E0001E56FA0
:1021C0000A0E07016C6F0001D5EC0AF0F2CF58F748
:1021D000F29CF29EAA6A040EA96EA69CA69EA680F8
:1021E000A850070158BDF28C58BFF28E0001B46FA1
:1021F0000A0E07016C6F0001D5EC0AF0F2CF58F718
:10220000F29CF29EAA6A050EA96EA69CA69EA680C6
:10221000A850070158BDF28C58BFF28E0001B26F72
:102220000A0E07016C6F0001D5EC0AF0F2CF58F7E7
:10223000F29CF29EAA6A060EA96EA69CA69EA68095
:10224000A850070158BDF28C58BFF28E0001B86F3C
:102250000A0E07016C6F0001D5EC0AF0F2CF58F7B7
:10226000F29CF29EAA6A070EA96EA69CA69EA68064
:10227000A850070158BDF28C58BFF28E0001B66F0E
:102280000A0E07016C6F0001D5EC0AF0F2CF58F787
:10229000F29CF29EAA6A080EA96EA69CA69EA68033
:1022A000A850070158BDF28C58BFF28E0001BC6FD8
:1022B0000A0E07016C6F0001D5EC0AF0F2CF58F757
:1022C000F29CF29EAA6A090EA96EA69CA69EA68002
:1022D000A850070158BDF28C58BFF28E0001BB6FA9
:1022E0000A0E07016C6F0001D5EC0AF0F2CF58F727
:1022F000F29CF29EAA6A0C0EA96EA69CA69EA680CF
:10230000A850070158BDF28C58BFF28E0001DA6F59
:102310000A0E07016C6F0001D5EC0AF0F2CF58F7F6
:10232000F29CF29EAA6A0D0EA96EA69CA69EA6809D
:10233000A850070158BDF28C58BFF28E0001DB6F28
:102340000A0E07016C6F0001D5EC0AF0F2CF58F7C6
:10235000F29CF29EAA6A0E0EA96EA69CA69EA6806C
:10236000A850070158BDF28C58BFF28E0001DC6FF7
:102370000A0E07016C6F0001D5EC0AF0F2CF58F796
:10238000F29CF29EAA6A0F0EA96EA69CA69EA6803B
:10239000A850070158BDF28C58BFF28E0001DD6FC6
:1023A0000A0E07016C6F0001D5EC0AF0F2CF58F766
:1023B000F29CF29EAA6A100EA96EA69CA69EA6800A
:1023C000A850070158BDF28C58BFF28E0001DE6F95
:1023D0000A0E07016C6F0001D5EC0AF0F2CF58F736
:1023E000F29CF29EAA6A110EA96EA69CA69EA680D9
:1023F000A850070158BDF28C58BFF28E0001DF6F64
:102400000A0E07016C6F0001D5EC0AF0F2CF58F705
:10241000F29CF29EAA6A120EA96EA69CA69EA680A7
:10242000A850070158BDF28C58BFF28E0001E06F32
:102430000A0E07016C6F0001D5EC0AF0F2CF58F7D5
:10244000F29CF29EAA6A130EA96EA69CA69EA68076
:10245000A850070158BDF28C58BFF28E0001E16F01
:102460000A0E07016C6F0001D5EC0AF00A0E070195
:102470006C6F0001D5EC0AF0F2CF58F7F29CF29E97
:10248000AA6A190EA96EA69CA69EA680A85007014E
:1024900058BDF28C58BFF28E0001B06F0A0E0701D2
:1024A0006C6F0001D5EC0AF00A0E07016C6F000199
:1024B000D5EC0AF0F2CF58F7F29CF29EAA6A1D0EF4
:1024C000A96EA69CA69EA680A850070158BDF28CB6
:1024D00058BFF28E00018B6F0A0E07016C6F00016E
:1024E000D5EC0AF0F2CF58F7F29CF29EAA6A1E0EC3
:1024F000A96EA69CA69EA680A850070158BDF28C86
:1025000058BFF28E9D6B9C6F000145EC0CF003C030
:1025100019F102C018F101C017F100C016F10A0E3E
:1025200007016C6F0001D5EC0AF019C19BF718C1C7
:102530009AF717C199F716C198F707019F6B9E6B21
:10254000200E9D6F820E9C6F000160EC0CF003C0AA
:1025500019F102C018F101C017F100C016F107010E
:102560009D6B8BC09CF7000145EC0CF0D89203C02A
:102570009FF702C09EF701C09DF700C09CF719C1EC
:10258000A3F718C1A2F717C1A1F716C1A0F783DC02
:1025900003C0F3F602C0F2F601C0F1F600C0F0F697
:1025A000F2CF58F7F29CF29EAA6A1F0EA96EA69C63
:1025B000A69EA680A850070158BDF28C58BFF28E87
:1025C00000018B6F0A0E07016C6F0001D5EC0AF059
:1025D000F2CF58F7F29CF29EAA6A200EA96EA69C32
:1025E000A69EA680A850070158BDF28C58BFF28E57
:1025F0009D6B9C6F000145EC0CF003C019F102C00B
:1026000018F101C017F100C016F10A0E07016C6F36
:102610000001D5EC0AF019C19BF718C19AF717C150
:1026200099F716C198F707019F6B9E6B200E9D6F5F
:10263000820E9C6F000160EC0CF003C019F102C027
:1026400018F101C017F100C016F107019D6B8BC096
:102650009CF7000145EC0CF0D89203C09FF702C034
:102660009EF701C09DF700C09CF719C1A3F718C1E0
:10267000A2F717C1A1F716C1A0F70DDC03C083F6BE
:1026800002C082F601C081F600C080F6F2CF58F792
:10269000F29CF29EAA6A220EA96EA69CA69EA68015
:1026A000A850070158BDF28C58BFF28E596FF2CF77
:1026B0005AF7F29CF29EAA6A210EA96EA69CA69ECB
:1026C000A680A8505ABDF28C5ABFF28E5B6F59C7D4
:1026D00003F05B519C6F03C09DF7000145EC0CF0CB
:1026E00003C07BF302C07AF301C079F300C078F332
:1026F0000A0E07016C6F0001D5EC0AF0F2CF58F713
:10270000F29CF29EAA6A240EA96EA69CA69EA680A2
:10271000A850070158BDF28C58BFF28E596FF2CF06
:102720005AF7F29CF29EAA6A230EA96EA69CA69E58
:10273000A680A8505ABDF28C5ABFF28E5B6F59C763
:1027400003F05B519C6F03C09DF7000145EC0CF05A
:1027500003C0E4F302C0E3F301C0E2F300C0E1F31D
:102760000A0E07016C6F0001D5EC0AF0F2CF58F7A2
:10277000F29CF29EAA6A260EA96EA69CA69EA68030
:10278000A850070158BDF28C58BFF28E596FF2CF96
:102790005AF7F29CF29EAA6A250EA96EA69CA69EE6
:1027A000A680A8505ABDF28C5ABFF28E5B6F59C7F3
:1027B000CDF05BC7CCF00A0E6C6F0001D5EC0AF0CF
:1027C000F2CF58F7F29CF29EAA6A270EA96EA69C39
:1027D000A69EA680A850070158BDF28C58BFF28E65
:1027E0000001CB6BCA6F0A0E07016C6F0001D5ECBC
:1027F0000AF0F2CF58F7F29CF29EAA6A280EA96E50
:10280000A69CA69EA680A850070158BDF28C58BF72
:10281000F28E0001906F0A0E07016C6F0001D5EC7B
:102820000AF0F2CF58F7F29CF29EAA6A290EA96E1E
:10283000A69CA69EA680A850070158BDF28C58BF42
:10284000F28E0001916F0A0E07016C6F0001D5EC4A
:102850000AF0F2CF58F7F29CF29EAA6A2B0EA96EEC
:10286000A69CA69EA680A850070158BDF28C58BF12
:10287000F28E596FF2CF5AF7F29CF29EAA6A2A0E94
:10288000A96EA69CA69EA680A8505ABDF28C5ABFDF
:10289000F28E5B6F59C703F05B519C6F03C09DF7CD
:1028A000000145EC0CF003C07FF302C07EF301C0D1
:1028B0007DF300C07CF30A0E07016C6F0001D5ECBC
:1028C0000AF0F2CF58F7F29CF29EAA6A2D0EA96E7A
:1028D000A69CA69EA680A850070158BDF28C58BFA2
:1028E000F28E596FF2CF5AF7F29CF29EAA6A2C0E22
:1028F000A96EA69CA69EA680A8505ABDF28C5ABF6F
:10290000F28E5B6F59C703F05B519C6F03C09DF75C
:10291000000145EC0CF003C0E8F302C0E7F301C08E
:10292000E6F300C0E5F30A0E07016C6F0001D5EC79
:102930000AF0F2CF58F7F29CF29EAA6A2F0EA96E07
:10294000A69CA69EA680A850070158BDF28C58BF31
:10295000F28E596FF2CF5AF7F29CF29EAA6A2E0EAF
:10296000A96EA69CA69EA680A8505ABDF28C5ABFFE
:10297000F28E5B6F59C703F05B519C6F03C09DF7EC
:10298000000145EC0CF003C0E5F602C0E4F601C01E
:10299000E3F600C0E2F60A0E07016C6F0001D5EC09
:1029A0000AF0F2CF58F7F29CF29EAA6A310EA96E95
:1029B000A69CA69EA680A850070158BDF28C58BFC1
:1029C000F28E596FF2CF5AF7F29CF29EAA6A300E3D
:1029D000A96EA69CA69EA680A8505ABDF28C5ABF8E
:1029E000F28E5B6F59C703F05B519C6F03C09DF77C
:1029F000000145EC0CF003C075F602C074F601C08E
:102A000073F600C072F60A0E07016C6F0001D5EC78
:102A10000AF0F2CF58F7F29CF29EAA6A320EA96E23
:102A2000A69CA69EA680A850070158BDF28C58BF50
:102A3000F28E0301826F0A0E07016C6F0001D5EC64
:102A40000AF0F2CF58F7F29CF29EAA6A330EA96EF2
:102A5000A69CA69EA680A850070158BDF28C58BF20
:102A6000F28E0301EB6F0A0E07016C6F0001D5ECCB
:102A70000AF0F2CF58F7F29CF29EAA6A340EA96EC1
:102A8000A69CA69EA680A850070158BDF28C58BFF0
:102A9000F28E00018B6F0A0E07016C6F0001D5ECFE
:102AA0000AF0F2CF58F7F29CF29EAA6A350EA96E90
:102AB000A69CA69EA680A850070158BDF28C58BFC0
:102AC000F28E9D6B9C6F000145EC0CF003C019F178
:102AD00002C018F101C017F100C016F10A0E07017B
:102AE0006C6F0001D5EC0AF019C19BF718C19AF779
:102AF00017C199F716C198F707019F6B9E6B480E97
:102B00009D6F850E9C6F000160EC0CF003C019F105
:102B100002C018F101C017F100C016F107019D6B4A
:102B20008BC09CF7000145EC0CF0D89203C09FF7D6
:102B300002C09EF701C09DF700C09CF719C1A3F722
:102B400018C1A2F717C1A1F716C1A0F74BEC0FF0FF
:102B500003C045F202C044F201C043F200C042F299
:102B6000F2CF58F7F29CF29EAA6A360EA96EA69C86
:102B7000A69EA680A850070158BDF28C58BFF28EC1
:102B800000018B6F0A0E07016C6F0001D5EC0AF093
:102B9000F2CF58F7F29CF29EAA6A370EA96EA69C55
:102BA000A69EA680A850070158BDF28C58BFF28E91
:102BB0009D6B9C6F000145EC0CF003C019F102C045
:102BC00018F101C017F100C016F10A0E07016C6F71
:102BD0000001D5EC0AF019C19BF718C19AF717C18B
:102BE00099F716C198F707019F6B9E6B480E9D6F72
:102BF000850E9C6F000160EC0CF003C019F102C05F
:102C000018F101C017F100C016F107019D6B8BC0D0
:102C10009CF7000145EC0CF0D89203C09FF702C06E
:102C20009EF701C09DF700C09CF719C1A3F718C11A
:102C3000A2F717C1A1F716C1A0F74BEC0FF003C024
:102C400031F102C030F101C02FF100C02EF1F2CFFE
:102C500058F7F29CF29EAA6A380EA96EA69CA69E10
:102C6000A680A850070158BDF28C58BFF28E000113
:102C70008B6F0A0E07016C6F0001D5EC0AF0F2CFE2
:102C800058F7F29CF29EAA6A390EA96EA69CA69EDF
:102C9000A680A850070158BDF28C58BFF28E9D6BDC
:102CA0009C6F000145EC0CF003C019F102C018F153
:102CB00001C017F100C016F10A0E07016C6F000188
:102CC000D5EC0AF019C19BF718C19AF717C199F70B
:102CD00016C198F707019F6B9E6B480E9D6F850E7E
:102CE0009C6F000160EC0CF003C019F102C018F1F8
:102CF00001C017F100C016F107019D6B8BC09CF756
:102D0000000145EC0CF0D89203C09FF702C09EF77B
:102D100001C09DF700C09CF719C1A3F718C1A2F725
:102D200017C1A1F716C1A0F74BEC0FF003C035F1A6
:102D300002C034F101C033F100C032F1F2CF58F7D4
:102D4000F29CF29EAA6A3A0EA96EA69CA69EA68046
:102D5000A850070158BDF28C58BFF28E9D6B9C6F36
:102D6000000145EC0CF003C075F202C074F201C022
:102D700073F200C072F20A0E07016C6F0001D5EC0D
:102D80000AF0F2CF58F7F29CF29EAA6A3B0EA96EA7
:102D9000A69CA69EA680A850070158BDF28C58BFDD
:102DA000F28E9D6B9C6F000145EC0CF003C05DF250
:102DB00002C05CF201C05BF200C05AF20A0E0701C9
:102DC0006C6F0001D5EC0AF0F2CF58F7F29CF29E3E
:102DD000AA6A3C0EA96EA69CA69EA680A8500701D2
:102DE00058BDF28C58BFF28E0001C36F0A0E070166
:102DF0006C6F0001D5EC0AF0F2CF58F7F29CF29E0E
:102E0000AA6A3D0EA96EA69CA69EA680A8500701A0
:102E100058BDF28C58BFF28E0001C26F0A0E070136
:102E20006C6F0001D5EC0AF00A0E07016C6F00010F
:102E3000D5EC0AF0F2CF58F7F29CF29EAA6A3E0E49
:102E4000A96EA69CA69EA680A850070158BDF28C2C
:102E500058BFF28E00018B6F0A0E07016C6F0001E4
:102E6000D5EC0AF0F2CF58F7F29CF29EAA6A3F0E18
:102E7000A96EA69CA69EA680A850070158BDF28CFC
:102E800058BFF28E9D6B9C6F000145EC0CF003C0A7
:102E900019F102C018F101C017F100C016F10A0EB5
:102EA00007016C6F0001D5EC0AF019C19BF718C13E
:102EB0009AF717C199F716C198F707019F6B9E6B98
:102EC000200E9D6F820E9C6F000160EC0CF003C021
:102ED00019F102C018F101C017F100C016F1070185
:102EE0009D6B8BC09CF7000145EC0CF0D89203C0A1
:102EF0009FF702C09EF701C09DF700C09CF719C163
:102F0000A3F718C1A2F717C1A1F716C1A0F74BECA0
:102F10000FF003C0F7F602C0F6F601C0F5F600C0E8
:102F2000F4F660EF47F099C7A0F707019D51A01B89
:102F3000A0AF05D0D894D89099BFD8802FD099C78A
:102F4000A0F79CC7A1F79851A15F06E0A0AF26D0DB
:102F5000D850010AD86E22D09DC7A1F79951A15F20
:102F600006E0A0AF1BD0D850010AD86E17D09EC77C
:102F7000A1F79A51A15F06E0A0AF10D0D850010A86
:102F8000D86E0CD09FC7A1F79B51A15F06E0A0AF00
:102F900005D0D850010AD86E01D0D8900001000C9D
:102FA000E2BF03D0E251090803E3E2BF01D017D02A
:102FB000E26BAA6AA96AA86AA69CA69EA684F25099
:102FC000006EF29CF29E0F01550EA76EAA0EA76E20
:102FD000A682A6B2FED7A6940050F2120001E3BF6B
:102FE00003D0E351090803E3E3BF01D018D0E36B3A
:102FF000AA6A010EA96EA86AA69CA69EA684F25093
:10300000006EF29CF29E0F01550EA76EAA0EA76EDF
:10301000A682A6B2FED7A6940050F2120001E4BF29
:1030200003D0E451090803E3E4BF01D018D0E46BF6
:10303000AA6A020EA96EA86AA69CA69EA684F25051
:10304000006EF29CF29E0F01550EA76EAA0EA76E9F
:10305000A682A6B2FED7A6940050F2120001E5BFE8
:1030600003D0E551090803E3E5BF01D018D0E56BB3
:10307000AA6A030EA96EA86AA69CA69EA684F25010
:10308000006EF29CF29E0F01550EA76EAA0EA76E5F
:10309000A682A6B2FED7A6940050F2120001B45147
:1030A00063081AE2010EB46FAA6A040EA96E010E3B
:1030B000A86EA69CA69EA684F250006EF29CF29E7C
:1030C0000F01550EA76EAA0EA76EA682A6B2FED756
:1030D000A6940050F2120001B2513B0818E2B26B04
:1030E000AA6A050EA96EA86AA69CA69EA684F2509E
:1030F000006EF29CF29E0F01550EA76EAA0EA76EEF
:10310000A682A6B2FED7A6940050F2120001B851D2
:1031100063081AE2010EB86FAA6A060EA96E010EC4
:10312000A86EA69CA69EA684F250006EF29CF29E0B
:103130000F01550EA76EAA0EA76EA682A6B2FED7E5
:10314000A6940050F2120001B6513B0818E2B66B8B
:10315000AA6A070EA96EA86AA69CA69EA684F2502B
:10316000006EF29CF29E0F01550EA76EAA0EA76E7E
:10317000A682A6B2FED7A6940050F2120001BC515E
:1031800063081AE2010EBC6FAA6A080EA96E010E4E
:10319000A86EA69CA69EA684F250006EF29CF29E9B
:1031A0000F01550EA76EAA0EA76EA682A6B2FED775
:1031B000A6940050F2120001BB513B0818E2BB6B11
:1031C000AA6A090EA96EA86AA69CA69EA684F250B9
:1031D000006EF29CF29E0F01550EA76EAA0EA76E0E
:1031E000A682A6B2FED7A6940050F2120001DABF62
:1031F00003D0DA51090803E3DABF01D018D0DA6B43
:10320000AA6A0C0EA96EA86AA69CA69EA684F25075
:10321000006EF29CF29E0F01550EA76EAA0EA76ECD
:10322000A682A6B2FED7A6940050F2120001DBBF20
:1032300003D0DB51090803E3DBBF01D018D0DB6BFF
:10324000AA6A0D0EA96EA86AA69CA69EA684F25034
:10325000006EF29CF29E0F01550EA76EAA0EA76E8D
:10326000A682A6B2FED7A6940050F2120001DCBFDF
:1032700003D0DC51090803E3DCBF01D018D0DC6BBC
:10328000AA6A0E0EA96EA86AA69CA69EA684F250F3
:10329000006EF29CF29E0F01550EA76EAA0EA76E4D
:1032A000A682A6B2FED7A6940050F2120001DDBF9E
:1032B00003D0DD51090803E3DDBF01D018D0DD6B79
:1032C000AA6A0F0EA96EA86AA69CA69EA684F250B2
:1032D000006EF29CF29E0F01550EA76EAA0EA76E0D
:1032E000A682A6B2FED7A6940050F2120001DEBF5D
:1032F00003D0DE51090803E3DEBF01D018D0DE6B36
:10330000AA6A100EA96EA86AA69CA69EA684F25070
:10331000006EF29CF29E0F01550EA76EAA0EA76ECC
:10332000A682A6B2FED7A6940050F2120001DFBF1B
:1033300003D0DF51090803E3DFBF01D018D0DF6BF2
:10334000AA6A110EA96EA86AA69CA69EA684F2502F
:10335000006EF29CF29E0F01550EA76EAA0EA76E8C
:10336000A682A6B2FED7A6940050F2120001E0BFDA
:1033700003D0E051090803E3E0BF01D018D0E06BAF
:10338000AA6A120EA96EA86AA69CA69EA684F250EE
:10339000006EF29CF29E0F01550EA76EAA0EA76E4C
:1033A000A682A6B2FED7A6940050F2120001E1BF99
:1033B00003D0E151090803E3E1BF01D018D0E16B6C
:1033C000AA6A130EA96EA86AA69CA69EA684F250AD
:1033D000006EF29CF29E0F01550EA76EAA0EA76E0C
:1033E000A682A6B2FED7A6940050F2120001B051F8
:1033F0005F0803E3B051130819E3320EB06FAA6AF5
:10340000190EA96E320EA86EA69CA69EA684F25036
:10341000006EF29CF29E0F01550EA76EAA0EA76ECB
:10342000A682A6B2FED7A6940050F21207019B6BAB
:103430009A6B400E996F800E986F83C69FF782C675
:103440009EF781C69DF780C69CF700016CDD10E2F7
:1034500083C69BF782C69AF781C699F780C698F70C
:1034600007019F6B9E6B9D6B9C6B00015CDD32E1E5
:103470000601836B826B816B7F0E806FAA6A1F0EC1
:10348000A96E010EA86EA69CA69EA684F250006EA0
:10349000F29CF29E0F01550EA76EAA0EA76EA68291
:1034A000A6B2FED7A6940050F212AA6A200EA96E08
:1034B000A86AA69CA69EA684F250006EF29CF29E7C
:1034C000550EA76EAA0EA76EA682A6B2FED7A69428
:1034D0000050F21207019B6B9A6B996B800E986FEC
:1034E000F3C69FF7F2C69EF7F1C69DF7F0C69CF7AC
:1034F000000119DD10E2F3C69BF7F2C69AF7F1C698
:1035000099F7F0C698F707019F6B9E6B9D6B9C6BBC
:10351000000109DD32E10601F36BF26BF16B7F0E06
:10352000F06FAA6A1D0EA96E010EA86EA69CA69E3B
:10353000A684F250006EF29CF29E0F01550EA76E0B
:10354000AA0EA76EA682A6B2FED7A6940050F212CB
:10355000AA6A1E0EA96EA86AA69CA69EA684F25010
:10356000006EF29CF29E550EA76EAA0EA76EA68262
:10357000A6B2FED7A6940050F21207019B6B9A6B7D
:103580000C0E996F870E986F7BC39FF77AC39EF7D7
:1035900079C39DF778C39CF70001C5DC12E27BC3B9
:1035A0009BF77AC39AF779C399F778C398F707011D
:1035B0009F6B9E6B340E9D6F860E9C6F0001B3DC7B
:1035C00033E303017B6B7A6B4B0E796F860E786F5A
:1035D000AA6A210EA96ECB0EA86EA69CA69EA684F2
:1035E000F250006EF29CF29E0F01550EA76EAA0ECD
:1035F000A76EA682A6B2FED7A6940050F212AA6ABF
:10360000220EA96EA86AA69CA69EA684F250006E01
:10361000F29CF29E550EA76EAA0EA76EA682A6B2C7
:10362000FED7A6940050F21207019B6B9A6B0C0E0A
:10363000996F870E986FE4C39FF7E3C39EF7E2C3C9
:103640009DF7E1C39CF700016EDC12E2E4C39BF737
:10365000E3C39AF7E2C399F7E1C398F707019F6BB9
:103660009E6B340E9D6F860E9C6F00015CDC34E314
:103670000301E46BE36B4B0EE26F860EE16FAA6A07
:10368000230EA96ECB0EA86EA69CA69EA684F25011
:10369000006EF29CF29E0F01550EA76EAA0EA76E49
:1036A000A682A6B2FED7A6940050F212AA6A240EF1
:1036B000A96EA86AA69CA69EA684F250006EF29CF3
:1036C000F29E550EA76EAA0EA76EA682A6B2FED7D0
:1036D000A6940050F2120001CD510D0833E2FF0A0A
:1036E00003E1CC5110082EE2CD6BCC6BAA6A250EFB
:1036F000A96EA86AA69CA69EA684F250006EF29CB3
:10370000F29E0F01550EA76EAA0EA76EA682A6B254
:10371000FED7A6940050F212AA6A260EA96EA86AD5
:10372000A69CA69EA684F250006EF29CF29E550EB8
:10373000A76EAA0EA76EA682A6B2FED7A6940050C8
:10374000F2120001CB5303E1CA513C0819E2CB6BE2
:10375000CA6BAA6A270EA96EA86AA69CA69EA68412
:10376000F250006EF29CF29E0F01550EA76EAA0E4B
:10377000A76EA682A6B2FED7A6940050F212000150
:103780009051640803E3905113081AE3320E906FCE
:10379000AA6A280EA96E320EA86EA69CA69EA684C2
:1037A000F250006EF29CF29E0F01550EA76EAA0E0B
:1037B000A76EA682A6B2FED7A6940050F212000110
:1037C0009151640803E39151130819E3320E916F8C
:1037D000AA6A290EA96E320EA86EA69CA69EA68481
:1037E000F250006EF29CF29E0F01550EA76EAA0ECB
:1037F000A76EA682A6B2FED7A6940050F2120701C9
:103800009B6B9A6B480E996F840E986F7FC39FF7DE
:103810007EC39EF77DC39DF77CC39CF7000193ECAC
:1038200017F030E303017F6B7E6B7D6B7C6BAA6AC4
:103830002A0EA96EA86AA69CA69EA684F250006EC7
:10384000F29CF29E0F01550EA76EAA0EA76EA682DD
:10385000A6B2FED7A6940050F212AA6A2B0EA96E49
:10386000A86AA69CA69EA684F250006EF29CF29EC8
:10387000550EA76EAA0EA76EA682A6B2FED7A69474
:103880000050F21207019B6B9A6B480E996F840EE1
:10389000986FE8C39FF7E7C39EF7E6C39DF7E5C3BC
:1038A0009CF7000193EC17F030E30301E86BE76B42
:1038B000E66BE56BAA6A2C0EA96EA86AA69CA69E6A
:1038C000A684F250006EF29CF29E0F01550EA76E78
:1038D000AA0EA76EA682A6B2FED7A6940050F21238
:1038E000AA6A2D0EA96EA86AA69CA69EA684F2506E
:1038F000006EF29CF29E550EA76EAA0EA76EA682CF
:10390000A6B2FED7A6940050F21207019B6B9A6BE9
:10391000160E996F870E986FE5C69FF7E4C69EF75F
:10392000E3C69DF7E2C69CF7000193EC17F013E2A3
:10393000E5C69BF7E4C69AF7E3C699F7E2C698F79F
:1039400007019F6B9E6B160E9D6F860E9C6F00018C
:1039500093EC17F033E30601E56BE46B7A0EE36F4B
:10396000860EE26FAA6A2E0EA96EFA0EA86EA69CAB
:10397000A69EA684F250006EF29CF29E0F01550E98
:10398000A76EAA0EA76EA682A6B2FED7A694005076
:10399000F212AA6A2F0EA96EA86AA69CA69EA684F9
:1039A000F250006EF29CF29E550EA76EAA0EA76E04
:1039B000A682A6B2FED7A6940050F21207019B6B16
:1039C0009A6B160E996F870E986F75C69FF774C61F
:1039D0009EF773C69DF772C69CF7000193EC17F033
:1039E00013E275C69BF774C69AF773C699F772C649
:1039F00098F707019F6B9E6B160E9D6F860E9C6F4E
:103A0000000193EC17F033E30601756B746B7A0ECB
:103A1000736F860E726FAA6A300EA96EFA0EA86EC8
:103A2000A69CA69EA684F250006EF29CF29E0F0108
:103A3000550EA76EAA0EA76EA682A6B2FED7A694B2
:103A40000050F212AA6A310EA96EA86AA69CA69E20
:103A5000A684F250006EF29CF29E550EA76EAA0E3E
:103A6000A76EA682A6B2FED7A6940050F21203015A
:103A7000825114081AE20A0E826FAA6A320EA96EE7
:103A80000A0EA86EA69CA69EA684F250006EF29C1A
:103A9000F29E0F01550EA76EAA0EA76EA682A6B2C1
:103AA000FED7A6940050F2120301EB51140819E25C
:103AB0000A0EEB6FAA6A330EA96E0A0EA86EA69CB8
:103AC000A69EA684F250006EF29CF29E0F01550E47
:103AD000A76EAA0EA76EA682A6B2FED7A694005025
:103AE000F2129A0E07019B6F990E9A6F190E996F39
:103AF0007E0E986F31C19FF730C19EF72FC19DF7A1
:103B00002EC19CF7000193EC17F015E231C19BF731
:103B100030C19AF72FC199F72EC198F7CD0E070142
:103B20009F6FCC0E9E6F4C0E9D6F7B0E9C6F0001A5
:103B300093EC17F035E39A0E0101316F990E306F57
:103B4000190E2F6F7D0E2E6FAA6A360EA96EA86A07
:103B5000A69CA69EA684F250006EF29CF29E0F01D7
:103B6000550EA76EAA0EA76EA682A6B2FED7A69481
:103B70000050F212AA6A370EA96E010EA86EA69C1A
:103B8000A69EA684F250006EF29CF29E550EA76E81
:103B9000AA0EA76EA682A6B2FED7A6940050F21275
:103BA00007019B6B9A6B996B810E986F35C19FF7DC
:103BB00034C19EF733C19DF732C19CF7000193ECED
:103BC00017F015E235C19BF734C19AF733C199F765
:103BD00032C198F7CD0E07019F6FCC0E9E6F4C0E31
:103BE0009D6F7B0E9C6F000193EC17F032E3010197
:103BF000316B306B2F6B7F0E2E6FAA6A380EA96E59
:103C0000010EA86EA69CA69EA684F250006EF29CA1
:103C1000F29E0F01550EA76EAA0EA76EA682A6B23F
:103C2000FED7A6940050F212AA6A390EA96EA86AAD
:103C3000A69CA69EA684F250006EF29CF29E550EA3
:103C4000A76EAA0EA76EA682A6B2FED7A6940050B3
:103C5000F21207019B6B9A6B5C0E996F850E986F41
:103C600075C29FF774C29EF773C29DF772C29CF72C
:103C7000000193EC17F013E275C29BF774C29AF738
:103C800073C299F772C298F707019F6B9E6B700E13
:103C90009D6F840E9C6F000193EC17F01EE30201F0
:103CA000756B746B0E0E736F850E726FAA6A3A0E87
:103CB000A96E470EA86EA69CA69EA684F250006E22
:103CC000F29CF29E0F01550EA76EAA0EA76EA68259
:103CD000A6B2FED7A6940050F21207019B6B9A6B16
:103CE000480E996F850E986F5DC29FF75CC29EF774
:103CF0005BC29DF75AC29CF7000193EC17F013E2E8
:103D00005DC29BF75CC29AF75BC299F75AC298F7FB
:103D100007019F6B9E6B200E9D6F830E9C6F0001B1
:103D200093EC17F01FE302015D6B5C6B700E5B6F31
:103D3000840E5A6FAA6A3B0EA96E3C0EA86EA69C12
:103D4000A69EA684F250006EF29CF29E0F01550EC4
:103D5000A76EAA0EA76EA682A6B2FED7A6940050A2
:103D6000F2120001C35163081AE2010EC36FAA6A7E
:103D70003C0EA96E010EA86EA69CA69EA684F250CB
:103D8000006EF29CF29E0F01550EA76EAA0EA76E52
:103D9000A682A6B2FED7A6940050F2120001C2512C
:103DA0003B0817E2C26BAA6A3D0EA96EA86AA69CE0
:103DB000A69EA684F250006EF29CF29E0F01550E54
:103DC000A76EAA0EA76EA682A6B2FED7A694005032
:103DD000F21207019B6B9A6B996B810E986FF7C675
:103DE0009FF7F6C69EF7F5C69DF7F4C69CF700014F
:103DF00093EC17F011E2F7C69BF7F6C69AF7F5C6F3
:103E000099F7F4C698F707019F6B9E6B9D6B9C6BAF
:103E1000000193EC17F032E10601F76BF66BF56BDE
:103E20007F0EF46FAA6A3E0EA96E010EA86EA69CC4
:103E3000A69EA684F250006EF29CF29E0F01550ED3
:103E4000A76EAA0EA76EA682A6B2FED7A6940050B1
:103E5000F212AA6A3F0EA96EA86AA69CA69EA68424
:103E6000F250006EF29CF29E550EA76EAA0EA76E3F
:103E7000A682A6B2FED7A6940050F21275C29BF796
:103E800074C29AF773C299F772C298F707019F6BD1
:103E90009E6B7A0E9D6F880E9C6F00010FEC0DF0EB
:103EA00003C051F202C050F201C04FF200C04EF206
:103EB00062EF47F00201795303E178511D0803E2F4
:103EC00000017F8702017B5303E17A511D0803E261
:103ED00000017F8902017D5303E17C511D0803E24B
:103EE00000017F8B02017F5303E17E511D0803E235
:103EF00000017F8D02010001000C99510508D8A432
:103F0000C6D03CC031F03DC032F03EC033F03FC0BF
:103F100034F040C035F041C036F042C037F043C005
:103F200038F044C039F045C03AF0342C07D0826BE9
:103F300082519A5D02E082C09AF0A8D03450020803
:103F400008E1010E826F82519A5D02E082C09AF010
:103F50009DD03450030808E1020E826F82519A5DB1
:103F600002E082C09AF092D03450040808E1030EB7
:103F7000826F82519A5D02E082C09AF087D03450FD
:103F8000050808E1040E826F82519A5D02E082C04A
:103F90009AF07CD03450060808E1050E826F8251F9
:103FA0009A5D02E082C09AF071D03450070808E1AF
:103FB000060E826F82519A5D02E082C09AF066D04E
:103FC0003450080808E1070E826F82519A5D02E0C2
:103FD00082C09AF05BD03450090808E1080E826F65
:103FE00082519A5D02E082C09AF050D034500A08A3
:103FF00008E1090E826F82519A5D02E082C09AF058
:1040000045D034500F0801E141D034501A0808E17E
:104010000A0E826F82519A5D02E082C09AF036D019
:1040200034501B0808E10F0E826F82519A5D02E046
:1040300082C09AF02BD034501C0808E1100E826F19
:1040400082519A5D02E082C09AF020D034501D085F
:1040500008E1110E826F82519A5D02E082C09AF0EF
:1040600015D034502C0808E1640E826F82519A5D9D
:1040700002E082C09AF00AD03450CC0807E1F00E7A
:10408000826F9A51F00802E082C09AF006D0A96BC4
:10409000A951090802E3A92BFBD77EEF47F05DC7C2
:1040A0005EF707015E39006E0F0E001600500A0D14
:1040B000F3CF5DF75E39006EF00E00160050003A47
:1040C0000F0E001600505D275DC701F00001000CC7
:1040D000070166516803F3CF01F0F4CF00F06903E4
:1040E000F350002667516803F3500020026E000170
:1040F000000C07016935006E0036FC0E001600C08A
:1041000001F0C250C30B0010C26E010E6C6F0001B3
:10411000D5EC0AF0C282C2B2FED7C4CF6BF707015A
:10412000C3CF6AF76AC701F06BC702F00001000C49
:10413000070197918BC790F78AC78FF789C78EF7CA
:1041400088C78DF78BC79BF78AC79AF789C799F7F6
:1041500088C798F79F6B9E6B9D6B9C6B000193ECDF
:1041600017F005E3070197818E51800A8E6F90C783
:104170009BF78FC79AF78EC799F78DC798F70701F6
:104180009F6B9E6B9D6B8E0E9C6F000193EC17F0E6
:1041900001E219E190C79BF78FC79AF78EC799F78D
:1041A0008DC798F78AEC0DF002C09DF701C09CF70F
:1041B00045EC0CF003C094F702C093F701C092F7EE
:1041C00000C091F7D3D090C79BF78FC79AF78EC7DF
:1041D00099F78DC798F7800E07019F6F960E9E6F17
:1041E000180E9D6F960E9C6F000193EC17F0D8A0EF
:1041F000B5D090C79BF78FC79AF78EC799F78DC731
:1042000098F707019F6B9E6B9D6B8E0E9C6F000154
:1042100060EC0CF003C09BF702C09AF701C099F75D
:1042200000C098F78AEC0DF002C096F701C095F730
:1042300090C79BF78FC79AF78EC799F78DC798F7E6
:1042400007019F6B9E6B9D6B8E0E9C6F000160EC57
:104250000CF000C098F701C099F702C09AF703C0AC
:104260009BF796C79DF795C79CF745EC0CF0D88255
:104270009BC79FF79AC79EF799C79DF798C79CF76A
:1042800003C0A3F702C0A2F701C0A1F700C0A0F7C6
:104290004BEC0FF007019B6B9A6B996B8E0E986F2E
:1042A00003C09FF702C09EF701C09DF700C09CF7B6
:1042B00000010FEC0DF003C090F702C08FF701C0B2
:1042C0008EF700C08DF796C79DF795C79CF745EC14
:1042D0000CF007019B6B9A6B996B8E0E986F03C065
:1042E0009FF702C09EF701C09DF700C09CF7000138
:1042F0000FEC0DF003C094F702C093F701C092F7E2
:1043000000C091F790C79BF78FC79AF78EC799F7B0
:104310008DC798F78AEC0DF002C09DF701C09CF79D
:1043200045EC0CF0D89294C79FF793C79EF792C7BD
:104330009DF791C79CF703C0A3F702C0A2F701C085
:10434000A1F700C0A0F74BEC0FF003C094F702C038
:1043500093F701C092F700C091F708D090C794F787
:104360008FC793F78EC792F78DC791F790C79BF7CA
:104370008FC79AF78EC799F78DC798F78AEC0DF01B
:1043800002C09DF701C09CF745EC0CF0D88290C7A5
:104390009FF78FC79EF78EC79DF78DC79CF703C009
:1043A000A3F702C0A2F701C0A1F700C0A0F74BEC31
:1043B0000FF003C090F702C08FF701C08EF700C066
:1043C0008DF7070197A103D09251800A926F90C791
:1043D0009BF78FC79AF78EC799F78DC798F79F6B92
:1043E0009E6B9D6B9C6B000193EC17F03CE007010A
:1043F00097A11CD08C531AE1D88294C79FF793C71A
:104400009EF792C79DF791C79CF7A36BA26BA16B18
:104410007F0EA06F00014BEC0FF003C094F702C0B9
:1044200093F701C092F700C091F7070197B11CD034
:104430008C2D1AD0D89294C79FF793C79EF792C736
:104440009DF791C79CF7A36BA26BA16B7F0EA06F2A
:1044500000014BEC0FF003C094F702C093F701C0CA
:1044600092F700C091F707018BC79BF78AC79AF7AD
:1044700089C799F788C798F79F6B9E6B9D6B9C6B5C
:10448000000193EC17F006E10701946B936B926BBC
:10449000916B000191C700F092C701F093C702F041
:1044A00094C703F0000C87C78BF786C78AF785C7C8
:1044B00089F784C788F7010E07018C6F000138DE89
:1044C000D0EF22F087C78BF786C78AF785C789F7B1
:1044D00084C788F707018C6B00012ADEF4EF22F015
:1044E0007BC79BF77AC79AF779C799F778C798F788
:1044F00007019F6B9E6B9D6B9C6B000193EC17F00B
:10450000D8B4A1D077C79BF776C79AF775C799F744
:1045100074C798F77BC79FF77AC79EF779C79DF74F
:1045200078C79CF760EC0CF000C080F701C081F701
:1045300002C082F703C083F703C09BF702C09AF75B
:1045400001C099F700C098F707019F6B9E6B9D6BA8
:104550009C6B000193EC17F024E377C79BF776C7B9
:104560009AF775C799F774C798F77BC79FF77AC70B
:104570009EF779C79DF778C79CF760EC0CF000C0F8
:1045800080F701C081F702C082F703C083F703C040
:1045900087F702C086F701C085F700C084F783D78C
:1045A00023D077C79BF776C79AF775C799F774C773
:1045B00098F77BC79FF77AC79EF779C79DF778C7AB
:1045C0009CF760EC0CF000C080F701C081F702C0DE
:1045D00082F703C083F703C087F702C086F701C0E4
:1045E00085F700C084F76ED703C07FF702C07EF75F
:1045F00001C07DF700C07CF77FC79BF77EC79AF7A5
:104600007DC799F77CC798F77BC79FF77AC79EF756
:1046100079C79DF778C79CF70FEC0DF0D88277C764
:104620009FF776C79EF775C79DF774C79CF703C0C1
:10463000A3F702C0A2F701C0A1F700C0A0F74BEC9E
:104640000FF001D000D0000C8E0E006E8FC701F06D
:104650008EC702F0036A01AE05D0011E021E022AB7
:1046600001E1012A015209E102C001F0026A080ECB
:10467000005E015202E1006A0DD0D89001BE04D064
:10468000023601360006F9D707018FAF02D00001CC
:1046900001D0019E0001000C7BC77FF77AC77EF72F
:1046A00079C77DF778C77CF77FC79BF77EC79AF7F6
:1046B0007DC799F77CC798F707019F6B9E6B9D6B31
:1046C0007F0E9C6F000193EC17F0D8B446D2070E12
:1046D00007018E6F7C0EE96E8EC7EAFF7E0EEF6ECD
:1046E000D8827FC79FF77EC79EF77DC79DF77CC79F
:1046F0009CF7A36BA26BA16B7F0EA06F00014BEC2C
:104700000FF000C08DF701C08EF702C08FF703C015
:1047100090F7D8927FC79FF77EC79EF77DC79DF71A
:104720007CC79CF70701A36BA26BA16B7F0EA06FE8
:1047300000014BEC0FF090C79BF78FC79AF78EC71D
:1047400099F78DC798F703C09FF702C09EF701C085
:104750009DF700C09CF760EC0CF003C07FF702C02F
:104760007EF701C07DF700C07CF77FC79BF77EC74F
:104770009AF77DC799F77CC798F77FC79FF77EC7E1
:104780009EF77DC79DF77CC79CF70FEC0DF003C02B
:104790008BF702C08AF701C089F700C088F7BC0E0A
:1047A00007019B6F240E9A6F670E996F7D0E986FAD
:1047B0008BC79FF78AC79EF789C79DF788C79CF765
:1047C00000010FEC0DF000C08DF701C08EF702C0A4
:1047D0008FF703C090F7D89203C09FF702C09EF7EF
:1047E00001C09DF700C09CF7E30E0701A36FE40E24
:1047F000A26F900EA16F820EA06F00014BEC0FF024
:1048000003C083F702C082F701C081F700C080F7C0
:1048100083C79BF782C79AF781C799F780C798F734
:104820008BC79FF78AC79EF789C79DF788C79CF7F4
:104830000FEC0DF000C08DF701C08EF702C08FF7AE
:1048400003C090F7D89203C09FF702C09EF701C043
:104850009DF700C09CF71C0E0701A36F870EA26F87
:10486000570EA16F830EA06F00014BEC0FF003C039
:1048700083F702C082F701C081F700C080F783C7C9
:104880009BF782C79AF781C799F780C798F78BC7BC
:104890009FF78AC79EF789C79DF788C79CF70FECDB
:1048A0000DF000C08DF701C08EF702C08FF703C076
:1048B00090F7D89203C09FF702C09EF701C09DF702
:1048C00000C09CF7AB0E0701A36FE10EA26F9E0E16
:1048D000A16F830EA06F00014BEC0FF003C083F7B4
:1048E00002C082F701C081F700C080F707019B6B0F
:1048F0009A6B996B7F0E986F8BC79FF78AC79EF74D
:1049000089C79DF788C79CF700010FEC0DF000C028
:104910008DF701C08EF702C08FF703C090F7D892D1
:1049200003C09FF702C09EF701C09DF700C09CF72F
:10493000B40E0701A36F2A0EA26F820EA16FA06FA3
:1049400000014BEC0FF003C087F702C086F701C0EF
:1049500085F700C084F787C79BF786C79AF785C796
:1049600099F784C798F78BC79FF78AC79EF789C7BF
:104970009DF788C79CF70FEC0DF000C08DF701C0C4
:104980008EF702C08FF703C090F7D89203C09FF74D
:1049900002C09EF701C09DF700C09CF7800E070182
:1049A000A36F3E0EA26F060EA16F830EA06F0001D3
:1049B0004BEC0FF003C087F702C086F701C085F704
:1049C00000C084F787C79BF786C79AF785C799F712
:1049D00084C798F78BC79FF78AC79EF789C79DF74B
:1049E00088C79CF70FEC0DF000C08DF701C08EF763
:1049F00002C08FF703C090F7D89203C09FF702C0A0
:104A00009EF701C09DF700C09CF7AB0E0701A36F96
:104A1000E10EA26F9E0EA16F820EA06F00014BEC03
:104A20000FF003C087F702C086F701C085F700C00A
:104A300084F77FC79BF77EC79AF77DC799F77CC736
:104A400098F783C79FF782C79EF781C79DF780C7F6
:104A50009CF70FEC0DF000C08DF701C08EF702C07F
:104A60008FF703C090F703C09BF702C09AF701C00D
:104A700099F700C098F787C79FF786C79EF785C745
:104A80009DF784C79CF760EC0CF003C083F702C06D
:104A900082F701C081F700C080F7070E07018E6F13
:104AA000780EE96E8EC7EAFF7E0EEF5C8C6F8CBFCE
:104AB00001D014D0000ED8808C558F6B8E6F8EBFB6
:104AC0008F070001C1DD00C084F70150800A070193
:104AD000856F02C086F703C087F710D08F6B8CC735
:104AE0008EF78EBF8F070001AFDD03C087F702C0CE
:104AF00086F701C085F700C084F7070187C79BF7D9
:104B000086C79AF785C799F784C798F7180E9F6FDD
:104B1000720E9E6F310E9D6F7E0E9C6F00010FEC2A
:104B20000DF0D89283C79FF782C79EF781C79DF784
:104B300080C79CF703C0A3F702C0A2F701C0A1F78A
:104B400000C0A0F74BEC0FF003C083F702C082F760
:104B500001C081F700C080F706D00701836B826B2C
:104B6000816B806B000180C700F081C701F082C7B4
:104B700002F083C703F0000C7BC79BF77AC79AF754
:104B800079C799F778C798F7180E07019F6F720ECB
:104B90009E6F310E9D6F7E0E9C6F000160EC0CF0DD
:104BA00003C09BF702C09AF701C099F700C098F7BD
:104BB0008AEC0DF001C088F7070189917BC77FF768
:104BC0007AC77EF779C77DF778C77CF77BC79BF7F5
:104BD0007AC79AF779C799F778C798F79F6B9E6B52
:104BE0009D6B9C6B000193EC17F006E30701898134
:104BF000886D7D51800A7D6F0701836B826B816BAD
:104C0000806B070E8B6F800EE96E8BC7EAFF7F0EFD
:104C10008825EF6E7FC79BF77EC79AF77DC799F708
:104C20007CC798F7180E9F6F720E9E6F310E9D6FA6
:104C30007E0E9C6F000160EC0CF000C08AF701C092
:104C40008BF702C08CF703C08DF707018F6B88C705
:104C50008EF78EBF8F070001F7DCD8828DC79FF7D4
:104C60008CC79EF78BC79DF78AC79CF703C0A3F735
:104C700002C0A2F701C0A1F700C0A0F74BEC0FF0F3
:104C800003C07FF702C07EF701C07DF700C07CF74C
:104C90007C0E07019B6F880E9A6F590E996F720EEA
:104CA000986F7FC79FF77EC79EF77DC79DF77CC72C
:104CB0009CF700010FEC0DF000C08AF701C08BF7E4
:104CC00002C08CF703C08DF7D89203C09FF702C0D3
:104CD0009EF701C09DF700C09CF7E00E0701A36F8F
:104CE000970EA26F260EA16F750EA06F00014BEC00
:104CF0000FF003C087F702C086F701C085F700C038
:104D000084F787C79BF786C79AF785C799F784C743
:104D100098F77FC79FF77EC79EF77DC79DF77CC733
:104D20009CF70FEC0DF000C08AF701C08BF702C0B2
:104D30008CF703C08DF7D89203C09FF702C09EF78F
:104D400001C09DF700C09CF7C40E0701A36F1D0EA4
:104D5000A26F1E0EA16F780EA06F00014BEC0FF03A
:104D600003C087F702C086F701C085F700C084F74B
:104D700087C79BF786C79AF785C799F784C798F7BF
:104D80007FC79FF77EC79EF77DC79DF77CC79CF7BF
:104D90000FEC0DF000C08AF701C08BF702C08CF752
:104DA00003C08DF7D89203C09FF702C09EF701C0E1
:104DB0009DF700C09CF75E0E0701A36F500EA26F17
:104DC000630EA16F7A0EA06F00014BEC0FF003C0D1
:104DD00087F702C086F701C085F700C084F787C750
:104DE0009BF786C79AF785C799F784C798F77FC757
:104DF0009FF77EC79EF77DC79DF77CC79CF70FEC9A
:104E00000DF000C08AF701C08BF702C08CF703C019
:104E10008DF7D89203C09FF702C09EF701C09DF79F
:104E200000C09CF71A0E0701A36FFE0EA26F750E4D
:104E3000A16F7C0EA06F00014BEC0FF003C087F751
:104E400002C086F701C085F700C084F787C79BF7CB
:104E500086C79AF785C799F784C798F77FC79FF7E2
:104E60007EC79EF77DC79DF77CC79CF70FEC0DF0C2
:104E700000C08AF701C08BF702C08CF703C08DF722
:104E8000D89203C09FF702C09EF701C09DF700C0F3
:104E90009CF7180E0701A36F720EA26F310EA16F5F
:104EA0007E0EA06F00014BEC0FF003C087F702C02D
:104EB00086F701C085F700C084F77FC79BF77EC7E0
:104EC0009AF77DC799F77CC798F787C79FF786C77A
:104ED0009EF785C79DF784C79CF70FEC0DF0D8921D
:104EE00007019F6B9E6B9D6B7F0E9C6F03C0A3F7AA
:104EF00002C0A2F701C0A1F700C0A0F700014BEC6F
:104F00000FF083C79BF782C79AF781C799F780C7CD
:104F100098F703C09FF702C09EF701C09DF700C03D
:104F20009CF70FEC0DF003C083F702C082F701C0BD
:104F300081F700C080F7070189A119D09B6B9A6B9C
:104F4000996B7F0E986F83C79FF782C79EF781C7C3
:104F50009DF780C79CF7000160EC0CF003C083F75D
:104F600002C082F701C081F700C080F7070180C747
:104F700000F081C701F082C702F083C703F000018F
:104F8000000C6FC79BF76EC79AF76DC799F76CC790
:104F900098F707019F6B9E6B9D6B9C6B000193ECD8
:104FA00017F0D8A0D9D073C777F772C776F771C753
:104FB00075F770C774F707017B6B7A6B796B7F0E9F
:104FC000786F000170EC22F000C074F701C075F733
:104FD00002C076F703C077F703C09BF702C09AF7C9
:104FE00001C099F700C098F707019F6B9E6B9D6BFE
:104FF0009C6B000193EC17F0D8A4AED073C777F781
:1050000072C776F771C775F770C774F707017B6BC6
:105010007A6B796B800E786F000170EC22F000C023
:1050200074F701C075F702C076F703C077F703C0C5
:105030009BF702C09AF701C099F700C098F70701E3
:105040009F6B9E6B9D6B9C6B000193EC17F041E195
:105050006CC774F707016D51800A756F6EC776F7DC
:105060006FC777F76FC77BF76EC77AF7796F6CC733
:1050700078F700014CEC23F000C074F701C075F71D
:1050800002C076F703C077F703C09BF702C09AF718
:1050900001C099F700C098F773C79FF772C79EF7D2
:1050A00071C79DF770C79CF70FEC0DF000C074F747
:1050B00001C075F702C076F703C077F703C07BF72E
:1050C00002C07AF701C079F700C078F755DDDED06D
:1050D00042D06CC774F707016D51800A756F6EC7B7
:1050E00076F76FC777F76FC77BF76EC77AF7796F79
:1050F0006CC778F700014CEC23F000C074F701C0D6
:1051000075F702C076F703C077F703C09BF702C0BC
:105110009AF701C099F700C098F773C79FF772C755
:105120009EF771C79DF770C79CF70FEC0DF000C09C
:1051300074F701C075F702C076F703C077F703C0B4
:105140007BF702C07AF701C079F700C078F714DD69
:10515000800E011A9BD09AD06FC79BF76EC79AF743
:105160006DC799F76CC798F707019F6B9E6B9D6B96
:105170009C6B000193EC17F030E373C777F772C7AD
:1051800076F771C775F770C774F707017B6B7A6B99
:10519000796B7F0E786F000170EC22F000C074F71D
:1051A00001C075F702C076F703C077F703C09BF71D
:1051B00002C09AF701C099F700C098F707019F6BEA
:1051C0009E6B9D6B9C6B000193EC17F006E0006AF0
:1051D000016A026A036A5AD059D06FC79BF76EC73B
:1051E0009AF76DC799F76CC798F707019F6B9E6B8D
:1051F0009D6B9C6B000193EC17F012E173C79BF75A
:1052000072C79AF771C799F770C798F707019F6B34
:105210009E6B9D6B9C6B000193EC17F001E236E1F5
:105220006FC77BF76EC77AF76DC779F76CC778F7EA
:105230004CEC23F000C074F701C075F702C076F79C
:1052400003C077F703C09BF702C09AF701C099F734
:1052500000C098F773C79FF772C79EF771C79DF795
:1052600070C79CF70FEC0DF000C074F701C075F724
:1052700002C076F703C077F703C07BF702C07AF766
:1052800001C079F700C078F777DC00D0000C070187
:105290005D6B5C6B5B6B5A6B676B59C766F7696BD1
:1052A000690E686F000168EC20F001C05EF7080E1F
:1052B00007010124016E000E0220036E01500F0F42
:1052C000016E030E032201C05EF703C05FF759C7EA
:1052D00069F7000179EC20F05FC7EAFF5EC7E9FFDC
:1052E00002C0ECFFED5201C0EFFF0701676B59C729
:1052F00066F7696B690E686F000168EC20F002C008
:105300005FF701C05EF70F0E07010124E96E030E7F
:105310000220EA6EEFCF00F0ECCF01F0ECCF02F00C
:10532000ECCF03F0EACF5FF7E9CF5EF7D8823DC25A
:105330009FF73CC29EF73BC29DF73AC29CF703C061
:10534000A3F702C0A2F701C0A1F700C0A0F70001B7
:105350004BEC0FF05FC7EAFF5EC7E9FF03C05DF7E4
:1053600002C05CF701C05BF700C05AF70701676B2A
:1053700059C766F7696B690E686F000168EC20F029
:1053800001C05EF7080E07010124016E000E022025
:10539000036E01500F0FE96E030E0320EA6EECCF8F
:1053A0005FF7ED52EFCF5EF75FC79DF75EC79CF7E3
:1053B000000145EC0CF0EACF61F7E9CF60F7D89235
:1053C00003C09FF702C09EF701C09DF700C09CF785
:1053D0005DC7A3F75CC7A2F75BC7A1F75AC7A0F7E1
:1053E0004BEC0FF061C7EAFF60C7E9FF03C009F1AA
:1053F00002C008F101C007F100C006F109C19BF726
:1054000008C19AF707C199F706C198F707019F6B82
:10541000C00E9E6F7F0E9D6F880E9C6F000160EC2A
:105420000CF000C05EF701C05FF702C060F703C078
:1054300061F703C09BF702C09AF701C099F700C05B
:1054400098F707019F6B9E6B200E9D6F810E9C6FDE
:1054500000010FEC0DF003C009F102C008F101C01A
:1054600007F100C006F10701676B59C766F7696B62
:10547000690E686F000168EC20F001C05EF70B0E4A
:1054800007010124016E000E0220036E01500F0F70
:10549000016E030E032201C05EF703C05FF709C16E
:1054A0006FF708C16EF707C16DF706C16CF7736B34
:1054B000726B716B810E706F000163DD00C060F76D
:1054C00001C061F702C062F703C063F703C09BF736
:1054D00002C09AF701C099F700C098F741C19FF741
:1054E00040C19EF73FC19DF73EC19CF70FEC0DF008
:1054F00000C060F701C061F702C062F703C063F744
:1055000009C16FF708C16EF707C16DF706C16CF7E7
:105510000701736B726B400E716F800E706F00012C
:1055200030DD00C064F701C065F702C066F703C054
:1055300067F703C09BF702C09AF701C099F700C054
:1055400098F745C19FF744C19EF743C19DF742C1FB
:105550009CF70FEC0DF0EACF65F7E9CF64F7D8922E
:1055600063C79FF762C79EF761C79DF760C79CF747
:1055700003C0A3F702C0A2F701C0A1F700C0A0F7C3
:105580004BEC0FF065C7EAFF64C7E9FF00C060F7A6
:1055900001C061F702C062F703C063F709C16FF78A
:1055A00008C16EF707C16DF706C16CF70701736B91
:1055B000726B716B800E706F0001E3DC00C066F7E8
:1055C00001C067F702C068F703C069F703C09BF723
:1055D00002C09AF701C099F700C098F749C19FF738
:1055E00048C19EF747C19DF746C19CF70FEC0DF0EF
:1055F000EACF67F7E9CF66F7D89263C79FF762C72C
:105600009EF761C79DF760C79CF703C0A3F702C070
:10561000A2F701C0A1F700C0A0F74BEC0FF067C7DD
:10562000EAFF66C7E9FF00C060F701C061F702C08A
:1056300062F703C063F709C19BF708C19AF707C176
:1056400099F706C198F74DC19FF74CC19EF74BC122
:105650009DF74AC19CF70FEC0DF0EACF69F7E9CF4F
:1056600068F7D89263C79FF762C79EF761C79DF737
:1056700060C79CF703C0A3F702C0A2F701C0A1F75F
:1056800000C0A0F74BEC0FF069C7EAFF68C7E9FF5D
:1056900000C060F701C061F702C062F703C063F7A2
:1056A000EACF6BF7E9CF6AF7D89203C09FF702C041
:1056B0009EF701C09DF700C09CF751C1A3F750C1F0
:1056C000A2F74FC1A1F74EC1A0F74BEC0FF06BC78B
:1056D000EAFF6AC7E9FF5FC7EAFF5EC7E9FF00C0EC
:1056E000EFFF01C0ECFF02C0ECFF03C0ECFF0701BD
:1056F000676B59C766F7696B690E686F000168ECE4
:1057000020F001C05EF70B0E07010124016E000EB0
:105710000220036E01500F0FE96E030E0320EA6EA4
:10572000EFCF5EF7ECCF5FF7ECCF60F7ECCF61F730
:1057300061C79BF760C79AF75FC799F75EC798F78D
:105740009F6B9E6B9D6B9C6B000193EC17F01DE3B0
:105750000701676B59C766F7696B690E686F0001CF
:1057600068EC20F001C05EF70B0E07010124016E0A
:10577000000E0220036E01500F0FE96E030E03208E
:10578000EA6EEF6AEC6AEC6AEC6A0701676B59C76C
:1057900066F7696B690E686F000168EC20F002C063
:1057A0005FF701C05EF70F0E07010124016E000EC6
:1057B0000220036E01500F0FE96E030E0320EA6E04
:1057C000EFCF5EF7010E585D5E5D1AE019E3676B7F
:1057D00059C766F7696B690E686F000168EC20F0C5
:1057E00001C05EF70F0E07010124016E000E0220BA
:1057F000036E01500F0FE96E030E0320EA6EEF6A8D
:10580000676B59C766F7696B690E686F000168ECD2
:1058100020F002C05FF701C05EF7190E07015E2796
:10582000000E5F23676B59C766F7696B690E686F77
:10583000000168EC20F002C061F701C060F70F0EB4
:1058400007010124016E000E0220036E01500F0FAC
:10585000E96E030E0320EA6E676BEFCF66F7696BA4
:10586000040E686F000168EC20F002C003F00150E4
:1058700007015E25016E5F51032201500F0F016E7B
:10588000030E032201C05EF703C05FF7676B59C7C1
:1058900066F7696B690E686F000168EC20F002C062
:1058A00061F701C060F70B0E07010124016E000EC5
:1058B0000220036E01500F0FE96E030E0320EA6E03
:1058C000EFCF00F0ECCF01F0ECCF02F0ECCF03F023
:1058D0005FC7EAFF5EC7E9FF00C0EFFF01C0ECFF52
:1058E00002C0ECFF03C0ECFF676B59C766F7696B3A
:1058F000690E686F000168EC20F001C05EF70F0EC2
:1059000007010124016E000E0220036E01500F0FEB
:10591000E96E030E0320EA6EEF2A676B59C766F73C
:10592000696B690E686F000168EC20F001C05EF7DA
:10593000110E07010124016E000E0220036E0150BA
:105940000F0FE96E030E0320EA6EEF6AEC6AEC6A51
:10595000EC6A0001876B010E0701585D0001875D4D
:1059600002E0D8B083D00701676B59C766F7696B4F
:10597000690E686F000168EC20F001C05EF7110E3F
:1059800007010124016E000E0220036E01500F0F6B
:10599000016E030E032201C05EF703C05FF703C070
:1059A000EAFF01C0E9FFEFCF60F7ECCF61F7ECCF82
:1059B00062F7ECCF63F7676B59C766F7696B690EDF
:1059C000686F000168EC20F002C065F701C064F761
:1059D000190E07016427000E6523676B87C066F701
:1059E000696B040E686F000168EC20F002C003F0E0
:1059F000015007016425016E6551032201500F0F0C
:105A0000E96E030E0320EA6EEFCF00F0ECCF01F059
:105A1000ECCF02F0ECCF03F0EACF65F7E9CF64F703
:105A2000D89263C79FF762C79EF761C79DF760C7AB
:105A30009CF703C0A3F702C0A2F701C0A1F700C002
:105A4000A0F700014BEC0FF065C7EAFF64C7E9FF60
:105A50005FC7EAFF5EC7E9FF00C0EFFF01C0ECFFD0
:105A600002C0ECFF03C0ECFF872B75D70701676B03
:105A700059C766F7696B690E686F000168EC20F022
:105A800001C05EF7110E07010124016E000E022015
:105A9000036E01500F0F016E030E032201C05EF76B
:105AA00003C05FF7676B59C766F7696B690E686F6C
:105AB000000168EC20F001C060F7110E070101241D
:105AC000016E000E0220036E01500F0FE96E030EEF
:105AD0000320EA6EEFCF60F7ECCF61F7ECCF62F70F
