:100000002AEF30F087EF0CF0046ED8CF05F0E0CF88
:1000100006F00001E9CF0CF0EACF07F0E1CF08F0DD
:10002000E2CF09F0D9CF0AF0DACF0BF0F3CF12F01C
:10003000F4CF13F0FACF14F000C00EF001C00FF0AF
:1000400002C010F003C011F09DA02AEF00F09EB096
:10005000CEEF09F00EC000F00FC001F010C002F0AA
:1000600011C003F00CC0E9FF07C0EAFF078E08C00B
:10007000E1FF09C0E2FF0AC0D9FF0BC0DAFF12C0DE
:10008000F3FF13C0F4FF14C0FAFF045006C0E0FFF2
:1000900005C0D8FF1000F2CF0DF0F29EF76AB00F46
:1000A000F66E000EF7220900F5500DBEF28E12001A
:1000B000000000000000005F0000000300030014C7
:1000C0003E143E14242A7F2A1243330866613649BF
:1000D0005522500005030000001C2241000041226F
:1000E0001C0014083E081408083E080800503000A0
:1000F00000080808080800606000002010080402DA
:100100003E5149453E0004027F004261514946226A
:10011000414949361814127F1027454545393E4953
:100120004949320101710907364949493626494989
:10013000493E0036360000005636000008142241C1
:100140000014141414140041221408020151090669
:100150003E4159555E7E0909097E7F494949363E2F
:10016000414141227F4141413E7F494949417F0907
:100170000909013E4141493A7F0808087F00417F53
:100180004100304040403F7F081422417F404040C2
:10019000407F020C027F7F0204087F3E4141413EC6
:1001A0007F090909061E2121215E7F0909097600C0
:1001B000F2CF0DF0F29EF76ACA0FF66E010EF7222B
:1001C0000900F5500DBEF28E120026494949320150
:1001D000017F01013F4040403F1F2040201F7F2002
:1001E00010207F41221C22410708700807615149F5
:1001F0004543007F41000002040810200000417FB9
:10020000000402010204404040404000010204009A
:1002100020545454787F4444443838444444443847
:100220004444447F385454541804047E050508544B
:1002300054543C7F0804047800447D40002040442E
:100240003D007F1028440000417F40007C0478047A
:10025000787C0804047838444444387C1414140826
:10026000081414147C007C080404485454542004DA
:10027000043F44443C4040207C1C2040201C3C4027
:1002800030403C44281028440C5050503C446454A6
:100290004C44000836414100007F000041413608CF
:1002A000000201020402F2CF0DF0F29EBE0FF66EC4
:1002B000020EF7220900F5500DBEF28E120000006A
:1002C000000000000000000000000000000000002E
:1002D000000000000000000000000000000000001E
:1002E000000000000000000000000000000000000E
:1002F00000000000000000000000000000000000FE
:1003000000000000000000000000000000000000ED
:1003100000000000000000000000000000000000DD
:1003200000000000000000000000000000000000CD
:1003300000000000000000000000000000000000BD
:1003400000000000000000000000000000000000AD
:10035000000000000000000000000000000000009D
:10036000000000000000000000000000000000008D
:10037000000000000000000000000000000000007D
:10038000000000000000000000000000000000006D
:10039000000000000000000000000000000000005D
:1003A000000000000000000000000000000000004D
:1003B00000000000000000000000000800800000B5
:1003C0000000000000000000000000040100000028
:1003D0000000000000000000000000020200000019
:1003E0000000000000000000000000007800000095
:1003F0000000000000000000000000008400000079
:1004000000000000000000000000000102000000E9
:100410000000000000000000000000F902F80000E9
:1004200000000000000000000000000102000000C9
:1004300000000000000000000000000102000000B9
:1004400000000000000000000000000484800000A4
:1004500000000000000000000000000878400000DC
:100460000000000000000000000000104820000014
:100470000000000000000000000000204810000004
:1004800000000000000000000000000078000000F4
:10049000000000000000000000000000000000005C
:1004A000000000000000000000000000000000004C
:1004B000000000000000000000000000000000003C
:1004C000000000000000000000000000000000002C
:1006B0000000000000000000000000000000F2CF79
:1006C0000DF0F29ED60FF66E060EF7220900F550D9
:1006D0000DBEF28E120000000000000000000000BD
:1006E000000000000000000000000000000000000A
:1006F00000000000000000000000000000000000FA
:1007000000000000000000000000000000000000E9
:1007100000000000000000000000000000000000D9
:1007200000000000000000000000000000000000C9
:1007300000000000000000000000000000000000B9
:1007400000000000000000000000000000000000A9
:100750000000000000000000000000000000000099
:100760000000000000000000000000000000000089
:100770000000000000000000000000000000000079
:100780000000000000000000000000000000000069
:100790000000000000000000000000000000000059
:1007A0000000000000000000000000000000000049
:1007B0000000000000000000000000000000000039
:1007C0000000000000000000000000000000000029
:1007D0000000000000000000000000000000000019
:1007E0000000000000000000000000000000000009
:1007F00000000000000000000000000000000000F9
:1008000000000000000000000000000000000000E8
:1008100000000000000000000000000000000000D8
:1008200000000000000000000000000000000000C8
:1008300000000000000000000000000000000000B8
:1008400000000000000000000000000000000000A8
:100850000000000000000000000000000000000098
:100860000000000000000000000000000000000088
:100870000000000000000000000000000000000078
:100880000000000000000000000000000000000068
:100890000000000000000000000000000000000058
:1008A0000000000000000000000000000000000048
:1008B0000000000000000000000000000000000038
:1008C0000000007FFFF800000000000000000000B2
:1008D00000000040000800000000000000000000D0
:1008E0000000004703880000000000000000000036
:1008F0000000004502880000000000000000000029
:100900000000004502880000000000000000000018
:100910000000004502880000000000000000000008
:1009200000000045028800000000000000000000F8
:1009300000000047038800000000000000000000E5
:10094000000000400008000000000000000000005F
:1009500000000040FC080000000000000000000053
:1009600000000040840800000000000000000000BB
:1009700000000040840800000000000000000000AB
:1009800000000040FC080000000000000000000023
:10099000000000400008000000000000000000000F
:1009A0000000007FFFF800000000000000000000D1
:1009B0000000000000000000000000000000000037
:1009C0000000000000000000000000000000000027
:1009D0000000000000000000000000000000000017
:1009E0000000000000000000000000000000000007
:1009F00000000000000000000000000000000000F7
:100A000000000000000000000000000000000000E6
:100A100000000000000000000000000000000000D6
:100A200000000000000000000000000000000000C6
:100A300000000000000000000000000000000000B6
:100A400000000000000000000000000000000000A6
:100A50000000000000000000000000000000000096
:100A60000000000000000000000000000000000086
:100A70000000000000000000000000000000000076
:100A80000000000000000000000000000000000066
:100A90000000000000000000000000000000000056
:100AA0000000000000000000000000000000000046
:100AB0000000000000000000000000000000000036
:100AC0000000000000000000000000000000000026
:100AD000000000000000F2CF0DF0F29EEE0FF66E67
:100AE0000A0EF7220900F5500DBEF28E120000002A
:100AF00000000000000000000000000000000000F6
:100B000000000000000000000000000000000000E5
:100B100000000000000000000000000000000000D5
:100B200000000000000000000000000000000000C5
:100DD00000000000000000000000000060000000B3
:100DE000000000000000000000000000F000000013
:100DF000000000000000000000000001F8000000FA
:100E0000000000000000000000000001F8000000E9
:100E1000000000000000000000000001F8000000D9
:100E2000000000000000000000000000F0000000D2
:100E300000000000000000000000003871C0000049
:100E400000000000000000000000007C93E00000B3
:100E50000000000000000000000000FF0FF0000094
:100E60000000000000000000000000FF0FF0000084
:100E700000000000000000000000007D93E0000082
:100E800000000000000000000000003861C0000009
:100E9000000000000000000000000000F000000062
:100EA000000000000000000000000001F800000049
:100EB000000000000000000000000001F800000039
:100EC000000000000000000000000001F800000029
:100ED000000000000000000000000000F000000022
:100EE0000000000000000000000000006000F2CFE1
:100EF0000DF0F29EF76A080FF66E0F0EF72209004A
:100F0000F5500DBEF28E1200436C61766500F2CF93
:100F10000DF0F29EF76A280FF66E0F0EF722090009
:100F2000F5500DBEF28E1200436F727265637461EC
:100F30000000F2CF0DF0F29EF76A4C0FF66E0F0E26
:100F4000F7220900F5500DBEF28E1200496E636F54
:100F50007272656374610000F2CF0DF0F29EF76A61
:100F6000720FF66E0F0EF7220900F5500DBEF28ECD
:100F700012004A504345474831323050502D544FAB
:100F800050410000F2CF0DF0F29EF76A9E0FF66E10
:100F90000F0EF7220900F5500DBEF28E12004D65BE
:100FA0006E750000F2CF0DF0F29EF76ABE0FF66E7E
:100FB0000F0EF7220900F5500DBEF28E1200416AA5
:100FC000757374657300F2CF0DF0F29EF76AE00F4F
:100FD000F66E0F0EF7220900F5500DBEF28E1200CC
:100FE00043616D62696F20646520436C61766500C2
:100FF000F2CF0DF0F29EF76A0A0FF66E100EF7228E
:101000000900F5500DBEF28E12004D6F646F0000A6
:10101000F2CF0DF0F29EF76A2A0FF66E100EF7224D
:101020000900F5500DBEF28E12005469656D706FA7
:101030002050757267610000F2CF0DF0F29EF76AE2
:10104000520FF66E100EF7220900F5500DBEF28E0B
:1010500012005469656D706F20506F73742D507558
:1010600072676100F2CF0DF0F29EF76A7E0FF66EA6
:10107000100EF7220900F5500DBEF28E12004C75CD
:101080007A2055560000F2CF0DF0F29EF76AA00FBD
:10109000F66E100EF7220900F5500DBEF28E12000A
:1010A0004D616E74656E696D69656E746F00F2CF27
:1010B0000DF0F29EF76AC80FF66E100EF7220900C7
:1010C000F5500DBEF28E1200536572766963696F3A
:1010D0000000F2CF0DF0F29EF76AEC0FF66E100EE4
:1010E000F7220900F5500DBEF28E12005556204F22
:1010F00066660000F2CF0DF0F29EF76A0E0FF66EF4
:10110000110EF7220900F5500DBEF28E1200555651
:10111000204F6E00F2CF0DF0F29EF76A2E0FF66EA2
:10112000110EF7220900F5500DBEF28E1200542E5A
:101130002050757267610000F2CF0DF0F29EF76AE1
:10114000520FF66E110EF7220900F5500DBEF28E09
:101150001200542E20506F73742D50757267610009
:10116000F2CF0DF0F29EF76A7A0FF66E110EF722AB
:101170000900F5500DBEF28E1200436C61766520B9
:101180004E7565766100F2CF0DF0F29EF76AA00F02
:10119000F66E110EF7220900F5500DBEF28E120008
:1011A0004D616E74656E69656E746F00F2CF0DF0FF
:1011B000F29EF76AC60FF66E110EF7220900F5507F
:1011C0000DBEF28E120054726162616A6F20466930
:1011D0006C74726F2868293A0000F2CF0DF0F29E0D
:1011E000F76AF40FF66E110EF7220900F5500DBEE6
:1011F000F28E120053656E736F7220646520466C28
:10120000756A6F00F2CF0DF0F29EF76A1E0FF66E50
:10121000120EF7220900F5500DBEF28E1200536532
:101220006E736F722064652050726573696F6E0013
:10123000F2CF0DF0F29EF76A4A0FF66E120EF72209
:101240000900F5500DBEF28E120056656C6F636991
:101250006461642056656E74696C61646F7200002D
:10126000F2CF0DF0F29EF76A7A0FF66E120EF722A9
:101270000900F5500DBEF28E12005661726961646C
:101280006F720000F2CF0DF0F29EF76A9E0FF66EBD
:10129000120EF7220900F5500DBEF28E120020202A
:1012A0004170616761723F00F2CF0DF0F29EF76A04
:1012B000C20FF66E120EF7220900F5500DBEF28E27
:1012C000120053490000F2CF0DF0F29EF76AE00FD2
:1012D000F66E120EF7220900F5500DBEF28E1200C6
:1012E0004E4F0000F2CF0DF0F29EF76AFE0FF66E41
:1012F000120EF7220900F5500DBEF28E1200536552
:101300006C656363696F6E2056656C00F2CF0DF0FB
:10131000F29EF76A260FF66E130EF7220900F550BB
:101320000DBEF28E120056656C6F636964616400D5
:10133000F2CF0DF0F29EF76A4A0FF66E130EF72207
:101340000900F5500DBEF28E12004775617264619E
:1013500064610000F2CF0DF0F29EF76A6E0FF66E38
:10136000130EF7220900F5500DBEF28E12005469DB
:10137000656D706F0000F2CF0DF0F29EF76A900F6E
:10138000F66E130EF7220900F5500DBEF28E120014
:10139000506F73742D507572676100009E0ECF6E92
:1013A000580ECE6E0501D32BD8B4D42B928A80BAB6
:1013B00005D00401E72BD8B4E82B03D00401E86B77
:1013C000E76B968084B004D0E92BD8B4EA2B02D026
:1013D000EA6BE96B968284B204D0EB2BD8B4EC2B89
:1013E00002D0EC6BEB6B968484B404D0ED2BD8B4B4
:1013F000EE2B02D0EE6BED6B0501D45303E1D3511C
:10140000C7084AE2D46BD36B04012C8D2E85CD2BFB
:101410002CAF03D0E32BD8B4E42B2DBB02D02EABE2
:101420001CD0F32BF3BF05D0F351090802E2F36B94
:10143000F42BF4BF05D0F451050802E2F46BF52B50
:10144000F5BF05D0F551090802E2F56BF62BF6BFA2
:1014500004D0F651050801E2F66B2EA11CD0FB2B3F
:10146000FBBF05D0FB51090802E2FB6BFC2BFCBF64
:1014700005D0FC51050802E2FC6BFD2BFDBF05D039
:10148000FD51090802E2FD6BFE2BFEBF04D0FE51A8
:10149000050801E2FE6B05019E9000012AEF00F0B5
:1014A000060EEA6E800EE96EEF500DE0060E016E3C
:1014B000006A002EFED7012EFBD77B0E006E002E99
:1014C000FED7EF2EF3D7000C0601845303E093966A
:1014D0008A8602D093948A84939C8A9C956A85C656
:1014E0008CFF0000939E8A8E00D000D00000939E57
:1014F0008A9E93948A9493968A960001000C060122
:10150000766B160E756F020E786F160E776F73512D
:10151000FF0DF3CF74F67A6B796B7A5101081AE3F9
:1015200076C603F07551752BD8B4762BE96E03C0DF
:10153000EAFF74C6EFFF78C603F07751772BD8B473
:10154000782BE96E03C0EAFF74C6EFFF792BD8B49D
:101550007A2BE3D70001000C0601806B160E7F6F1B
:10156000020E826F160E816F7D6B7D5107084EE370
:10157000939A8A9A846B400E856F0001A5DF010E55
:101580000601846F400E856F00019EDF06017D51CC
:10159000B809836F846B856F000196DF06017D516A
:1015A000B809836F010E846F83C685F600018CDF56
:1015B000939A8A8A06017E6B7E513F0825E380C696
:1015C00003F07F517F2BD8B4802BE96E03C0EAFF74
:1015D000EFCF83F6846B83C685F6000175DF0601C5
:1015E00082C603F08151812BD8B4822BE96E03C0EF
:1015F000EAFFEFCF83F6010E846F83C685F6000104
:1016000063DF06017E2BD8D77D2BAFD70001000CFE
:1016100093988A88939E8A9E93948A9493968A96A6
:10162000939A8A9A0601846BC00E856F00014CDF85
:10163000010E0601846FC00E856F000145DF0601B3
:10164000846B400E856F00013FDF010E0601846F41
:10165000400E856F000138DF0601846BB80E856F80
:10166000000132DF010E0601846FB80E856F0001A4
:101670002BDF06016C2D0ED0846B3F0E856F0001B1
:1016800023DF010E0601846F3F0E856F00011CDF12
:101690000DD00601846B3E0E856F000115DF010E33
:1016A0000601846F3E0E856F00010EDF0601736B2D
:1016B000000125DF51DF000C080E016E050E006EE3
:1016C000002EFED78B969496060E006E002EFED747
:1016D000060178378B98D8B09488D8A094989486CF
:1016E00082A6FED7012E01D002D00001E7D7050E59
:1016F000006E002EFED78B96949600009488060EFE
:10170000006E002EFED7060E006E002EFED79486C9
:1017100082A6FED7016A060E006E002EFED782B8A2
:1017200001808B9694968B9894980001000C080E7B
:101730000601776F00C078F69488060E006E002EC2
:10174000FED7948682A6FED782B8D88082A8D89089
:101750000136050E006E002EFED794968B96772FDD
:10176000EBD79488060E006E002EFED78B9878512A
:10177000D8A494980000948682A6FED7050E006E29
:10178000002EFED78B969496060E006E002EFED786
:101790008B9894980001000CB00E0601736F746B67
:1017A0009488050E006E002EFED79486060E006EFD
:1017B000002EFED78B989498050E006E002EFED753
:1017C0008B96949673C678F6000176DF74C678F629
:1017D00073DF9488050E006E002EFED79486060EE9
:1017E000006E002EFED782A6FED78B989498050E29
:1017F000006E002EFED78B969496010E060173257F
:10180000756F786F000158DF006A91DF01C069F6DB
:1018100094980000948682A6FED7050E006E002ED6
:10182000FED700D000009488050E006E002EFED773
:1018300069C605F606010551640801E2056B010E53
:101840000501D56F060105510501D55D5DE2B00EBC
:1018500006016A6FD5C56BF66AC673F66BC674F679
:101860009488050E006E002EFED79486060E006E3C
:10187000002EFED78B989498050E006E002EFED792
:101880008B96949673C678F6000116DF74C678F6C8
:1018900013DF9488050E006E002EFED79486060E88
:1018A000006E002EFED782A6FED78B989498050E68
:1018B000006E002EFED78B969496010E06017325BE
:1018C000756F786F0001F8DE006A31DF01C069F6DC
:1018D00094980000948682A6FED7050E006E002E16
:1018E000FED700D000009488050E006E002EFED7B3
:1018F000036A0501D551050FE96E060E0320EA6E55
:1019000069C6EFFFD52B9ED7000102EF00F0000C57
:10191000060173517503F3CF01F0F4CF00F07603A5
:10192000F350002674517503F3500020026E00013D
:10193000000C8E0E006EA2C601F0A1C602F0036A72
:10194000015209E102C001F0026A080E005E015274
:1019500002E1006A08D0D89001BE04D002360136F8
:101960000006F9D7019E000C06019D51D8B4A5D000
:10197000A96FA151D8B4A1D0A95F05E37F0EA92713
:10198000D8B09BD006D0810EA95FD8A096D0D8B48D
:1019900094D0A9C600F0016A026A036AA86B9EC6C9
:1019A000A7F6A78F9FC6A6F6A0C6A5F6190EA96F23
:1019B000A451A55F0DE2010EA65F0AE2A75F08E24F
:1019C000A85F06E2A82BA72BA62BA451A52728D0F9
:1019D000A351A65F12E2010EA75F0FE2A85F0DE21E
:1019E000A82BA72BA351A627A451A52719E3A62B03
:1019F00017E1A72B15E1A82B13D0A2518009A75FEF
:101A00000EE2010EA85F0BE2A82BA2518009A727C6
:101A1000A351A627E9E3A72BE7E1A82BE5D703808D
:101A2000A92F01D00BD0D890A537A637A737A83754
:101A3000D890033602360136AA37BAD7AAA106D003
:101A4000D890013202320332AA3302D0000635E0C8
:101A5000AABF1ED0D890A537A637A737A837A4515C
:101A6000A55F07E2010EA65F04E2A75F02E2A85F9E
:101A70001AE3A351A65F05E2010EA75F02E2A85F89
:101A800012E3A2518009A75F03E2010EA85F0BE3F6
:101A9000032A09E1022A07E1012A05E1002A0DE0F3
:101AA0000132023203329EC6A9F6A251A91BA9AF88
:101AB00002D0018E06D0019E04D0006A016A026A3B
:101AC000036A0001000C06019D51D8B471D0006E6C
:101AD000A151D8B46DD0002604E3810E002668E23F
:101AE00004D07F0E005E64E363E09EC6A5F6A251BB
:101AF000A51B9E8FA28FA051A403F4CFA7F69F51E0
:101B0000A303F4CF03F0F3CFA6F6A403F350A72763
:101B1000F450A623000E0322A051A303F350A727DD
:101B2000F450A623000E026A032202229E51A4034F
:101B3000F350A627F4500322000E02229E51A30365
:101B4000F3500326F4500222000E016A0122A05134
:101B5000A203F350A627F4500322000E0222012212
:101B60009F51A203F3500326F4500222000E0122DB
:101B70009E51A203F3500226F4500122002A01BE16
:101B800005D0A6370336023601360006000EA6AF92
:101B90000AD0032A02220122015005E1025003E18A
:101BA000035001E1002AA5BF018EA5AF019E04D01C
:101BB000006A016A026A036A0001000C9EC6A5F66B
:101BC0000601A251A51BA5AF05D0D894D8909EBF01
:101BD000D8802FD09EC6A5F6A1C6A6F69D51A65FB9
:101BE00006E0A5AF26D0D850010AD86E22D0A2C6F2
:101BF000A6F69E51A65F06E0A5AF1BD0D850010AFD
:101C0000D86E17D0A3C6A6F69F51A65F06E0A5AF73
:101C100010D0D850010AD86E0CD0A4C6A6F6A05198
:101C2000A65F06E0A5AF05D0D850010AD86E01D056
:101C3000D8900001000C8E0E006E06019D51005ED2
:101C40009EC602F09FC601F0028E005209E0D890B5
:101C5000025202E1015204E002320132002EF7D7B3
:101C60009EAF05D0011E021E012AD8B4022A00012F
:101C7000000CD5C4E5F5D6C4E6F5D7C4E7F5D8C45D
:101C8000E8F571EF0EF09488050E006E002EFED779
:101C90009486060E006E002EFED78B989498050E43
:101CA000006E002EFED78B96949675C678F604DDEE
:101CB00076C678F601DD77C678F6FEDC94980000EB
:101CC000948682A6FED7050E006E002EFED700D0A9
:101CD00000009488050E006E002EFED795EF0EF0E2
:101CE000C8D704012E97000E2EB7010E030820E37B
:101CF000B00E06016A6F000E04012EB7010E060138
:101D0000736F000E04012EB7010E036AE50FE96E32
:101D1000050E0320EA6EEFCF74F66AC675F673C639
:101D200076F674C677F60001AED704012E77DBD7BE
:101D30000001000C06016C5303E18B82949285D064
:101D400000012ADD0601746B07C673F6010E766F7B
:101D5000756B0001DDDD060108510124716F000E75
:101D60000220726F8B929492A26B6CC6A1F6000156
:101D7000E0DD00C073F601C074F602C075F603C062
:101D800076F603C0A0F602C09FF601C09EF600C022
:101D90009DF6550E0601A46FA36FA26F7F0EA16F73
:101DA0000001E2DD00C073F601C074F602C075F6F2
:101DB00003C076F603C0A0F602C09FF601C09EF6EF
:101DC00000C09DF60601A46BA36B200EA26F820ECD
:101DD000A16F000178DE03C070F602C06FF601C08B
:101DE0006EF600C06DF672C6A2F671C6A1F6A1DD50
:101DF00070C6A0F66FC69FF66EC69EF66DC69DF6BF
:101E000003C0A4F602C0A3F601C0A2F600C0A1F66A
:101E1000D5DE1AE0050E0401D56F640ED66F70C6CC
:101E2000A0F66FC69FF66EC69EF66DC69DF60001C3
:101E300002DF02C0F2F401C0F1F40401F1C4D7F4EE
:101E4000F2C4D8F400014CDF06010001000C800E42
:101E5000D8A202D00601A61B0601AB6BAC6BA2C6D2
:101E6000AAF6A651AA1BA151D8B4DFD0A96F006E63
:101E7000A551D8B4E3D0A95FD8B483D03EE3A6C6B9
:101E8000AFF6AF8FA7C6AEF6A8C6ADF6AC6BD890CE
:101E9000AF33AE33AD33AC33A92FF8D7AAAF03D0ED
:101EA000AB81E0D0AB91A991AB89060EEA6EA40E8E
:101EB000E96EEBD0AB99AABF0AD0A9A113D0AF337A
:101EC000AE33AD33AC33002AD8B4C7D00BD0AFBFDC
:101ED0000CD0D890AC37AD37AE37AF370006D8B49A
:101EE000BCD0F5D7AB8D6DD0AB9DA2C6AAF6A2AF84
:101EF00002D0AF8FABD0AF9FA9D0A5C6A9F6A5C61B
:101F000000F0A151A95FA2C6AFF6AF8FA3C6AEF68F
:101F1000A4C6ADF6AC6BD890AF33AE33AD33AC33B3
:101F2000A92FF8D7AAAF03D0AB839CD0AB93A991CC
:101F3000AB8B060EEA6EA80EE96EA7D0AB9BAABFCC
:101F40000AD0A9A113D0AF33AE33AD33AC33002ADE
:101F5000D8B483D00BD0AFBF0CD0D890AC37AD374E
:101F6000AE37AF370006D8B478D0F5D7AB8F29D0CD
:101F7000AB9FA6C6AAF6A6AF02D0AF8F67D0AF9F21
:101F800065D0A6C6AFF6AF8FA7C6AEF6A8C6ADF6AB
:101F9000AAAF04D0AF9FAB8565D0AB95AC6BA991D0
:101FA000060EEA6EA40EE96E70D0AABF1CD0A2C6BF
:101FB000AAF6A9A106D0AF33AE33AD33AC33002AB5
:101FC0004CE0ACAF0BD0AD2B09E1AE2B07E1AF2B52
:101FD00005E1AF33AE33AD33002A3FE0ABBD84D76C
:101FE000ABBFC6D71CD0800EAF1BAFAF04D03AD06A
:101FF000A6C6AAF60AD0A2C6AAF6AF5306E1AE5309
:1020000004E1AD5302E1006A21D0AFBF08D0D890FF
:10201000AC37AD37AE37AF37002EF7D71ED0AAAFEB
:1020200002D0AF8F13D0AF9F11D0A5C600F0A6C6C7
:10203000AFF6A7C6AEF6A8C6ADF608D0A1C600F0AA
:10204000A2C6AFF6A3C6AEF6A4C6ADF6AFC601F003
:10205000AEC602F0ADC603F034D0006A016A026A6F
:10206000036A2FD0AC6BAD1FAE1FAF1FAC1FAC2BE4
:1020700005E1AD2B03E1AE2B01E1AF2BABB112D7E4
:10208000ABB354D7ABB589D7B3D7EF50AD2705E382
:10209000AE2B03E1AF2BD8B4A981ED52EF50AE27A0
:1020A00003E3AF2BD8B4A981ED52EF50EFBE01D0BE
:1020B000800AAF27D8B0A981ABB9FCD6ABBB3ED75D
:1020C00074D70001000CF2CF6CF6F29EAA6AA96ADE
:1020D000A69CA69EA680A85006016CBFF28E0501A4
:1020E000136F0A0E0601806F000150EC0AF0F2CF68
:1020F0006CF6F29EAA6A010EA96EA69CA69EA68008
:10210000A85006016CBFF28E0501146F0A0E06017D
:10211000806F000150EC0AF0F2CF6CF6F29EAA6AD2
:10212000020EA96EA69CA69EA680A85006016CBFB2
:10213000F28E0501156F0A0E0601806F000150EC4A
:102140000AF0F2CF6CF6F29EAA6A030EA96EA69C64
:10215000A69EA680A85006016CBFF28E0501166FE0
:102160000A0E0601806F000150EC0AF0F2CF6CF607
:10217000F29EAA6A040EA96EA69CA69EA680A850EE
:1021800006016CBFF28E0401F76F0A0E0601806F24
:10219000000150EC0AF0F2CF6CF6F29EAA6A050E2E
:1021A000A96EA69CA69EA680A85006016CBFF28EC2
:1021B0000401F86F0A0E0601806F000150EC0AF06E
:1021C000F2CF6CF6F29EAA6A060EA96EA69CA69E97
:1021D000A680A85006016CBFF28E0401F96F0A0EAA
:1021E0000601806F000150EC0AF0F2CF6CF6F29E0F
:1021F000AA6A070EA96EA69CA69EA680A8500601F4
:102200006CBFF28E0401FA6F0A0E0601806F0001A6
:1022100050EC0AF0F2CF6CF6F29EAA6A080EA96E94
:10222000A69CA69EA680A85006016CBFF28E040153
:10223000FF6F0A0E0601806F000150EC0AF0F2CF2A
:102240006CF6F29EAA6A090EA96EA69CA69EA680AE
:10225000A85006016CBFF28E0501006F0A0E060140
:10226000806F000150EC0AF0F2CF6CF6F29EAA6A81
:102270000A0EA96EA69CA69EA680A85006016CBF59
:10228000F28E0501016F0A0E0601806F000150EC0D
:102290000AF0F2CF6CF6F29EAA6A0B0EA96EA69C0B
:1022A000A69EA680A85006016CBFF28E0501026FA3
:1022B0000A0E0601806F000150EC0AF0F2CF6CF6B6
:1022C000F29EAA6A0C0EA96EA69CA69EA680A85095
:1022D00006016CBFF28E0501036F0A0E0601806FC6
:1022E000000150EC0AF0F2CF6CF6F29EAA6A0D0ED5
:1022F000A96EA69CA69EA680A85006016CBFF28E71
:102300000501046F0A0E0601806F000150EC0AF00F
:10231000F2CF6CF6F29EAA6A0E0EA96EA69CA69E3D
:10232000A680A85006016CBFF28E0501056F0A0E4B
:102330000601806F000150EC0AF0F2CF6CF6F29EBD
:10234000AA6A0F0EA96EA69CA69EA680A85006019A
:102350006CBFF28E0501066F0A0E0601806F000148
:1023600050EC0AF0F2CF6CF6F29EAA6A100EA96E3B
:10237000A69CA69EA680A85006016CBFF28E050101
:102380000B6F0A0E0601806F000150EC0AF0F2CFCD
:102390006CF6F29EAA6A110EA96EA69CA69EA68055
:1023A000A85006016CBFF28E05010C6F0A0E0601E3
:1023B000806F000150EC0AF0F2CF6CF6F29EAA6A30
:1023C000120EA96EA69CA69EA680A85006016CBF00
:1023D000F28E05010D6F0A0E0601806F000150ECB0
:1023E0000AF0F2CF6CF6F29EAA6A130EA96EA69CB2
:1023F000A69EA680A85006016CBFF28E05010E6F46
:102400000A0E0601806F000150EC0AF0F2CF6CF664
:10241000F29EAA6A150EA96EA69CA69EA680A8503A
:1024200006016CBFF28E0501076F0A0E0601806F70
:10243000000150EC0AF0F2CF6CF6F29EAA6A160E7A
:10244000A96EA69CA69EA680A85006016CBFF28E1F
:102450000501086F0A0E0601806F000150EC0AF0BA
:10246000F2CF6CF6F29EAA6A170EA96EA69CA69EE3
:10247000A680A85006016CBFF28E0501096F0A0EF6
:102480000601806F000150EC0AF0F2CF6CF6F29E6C
:10249000AA6A180EA96EA69CA69EA680A850060140
:1024A0006CBFF28E05010A6F0A0E0601806F0001F3
:1024B00050EC0AF0F2CF6CF6F29EAA6A190EA96EE1
:1024C000A69CA69EA680A85006016CBFF28E0401B1
:1024D000D26F0A0E0601806F000150EC0AF0F2CFB5
:1024E0006CF6F29EAA6A1A0EA96EA69CA69EA680FB
:1024F000A85006016CBFF28EA26BA16F000199EC8F
:102500000CF003C042F502C041F501C040F500C027
:102510003FF50A0E0601806F000150EC0AF042C53B
:10252000A0F641C59FF640C59EF63FC59DF6060143
:10253000A46BA36B200EA26F820EA16F0001B4ECFE
:102540000CF003C042F502C041F501C040F500C0E7
:102550003FF50601A26BD2C4A1F6000199EC0CF084
:10256000D89203C0A4F602C0A3F601C0A2F600C030
:10257000A1F642C5A8F641C5A7F640C5A6F63FC5D7
:10258000A5F665DC03C03AF502C039F501C038F59F
:1025900000C037F5F2CF6CF6F29EAA6A1B0EA96E48
:1025A000A69CA69EA680A85006016CBFF28E0401D0
:1025B000D26F0A0E0601806F000150EC0AF0F2CFD4
:1025C0006CF6F29EAA6A1C0EA96EA69CA69EA68018
:1025D000A85006016CBFF28EA26BA16F000199ECAE
:1025E0000CF003C042F502C041F501C040F500C047
:1025F0003FF50A0E0601806F000150EC0AF042C55B
:10260000A0F641C59FF640C59EF63FC59DF6060162
:10261000A46BA36B200EA26F820EA16F0001B4EC1D
:102620000CF003C042F502C041F501C040F500C006
:102630003FF50601A26BD2C4A1F6000199EC0CF0A3
:10264000D89203C0A4F602C0A3F601C0A2F600C04F
:10265000A1F642C5A8F641C5A7F640C5A6F63FC5F6
:10266000A5F627EC0FF003C03EF502C03DF501C012
:102670003CF500C03BF5F2CF6CF6F29EAA6A1E0E46
:10268000A96EA69CA69EA680A85006016CBFF28EDD
:102690006D6FF2CF6EF6F29EAA6A1D0EA96EA69C11
:1026A000A69EA680A8506EBFF28E6F6F6DC603F017
:1026B0006F51A16F03C0A2F6000199EC0CF003C0AA
:1026C000C2F502C0C1F501C0C0F500C0BFF50A0ED9
:1026D0000601806F000150EC0AF0F2CF6CF6F29E1A
:1026E000AA6A220EA96EA69CA69EA680A8500601E4
:1026F0006CBFF28E6D6FF2CF6EF6F29EAA6A210E5B
:10270000A96EA69CA69EA680A8506EBFF28E6F6F83
:102710006DC6E4F46FC6E3F40A0E806F000150EC5E
:102720000AF0F2CF6CF6F29EAA6A1F0EA96EA69C62
:10273000A69EA680A85006016CBFF28E0401E26B33
:10274000E16F0A0E0601806F000150EC0AF0F2CF33
:102750006CF6F29EAA6A200EA96EA69CA69EA68082
:10276000A85006016CBFF28E0501DC6F0A0E06014F
:10277000806F000150EC0AF0F2CF6CF6F29EAA6A6C
:102780003D0EA96EA69CA69EA680A85006016CBF11
:10279000F28E6D6FF2CF6EF6F29EAA6A3C0EA96EB3
:1027A000A69CA69EA680A8506EBFF28E6F6F6DC6C7
:1027B00003F06F51A16F03C0A2F6000199EC0CF079
:1027C00003C026F502C025F501C024F500C023F59D
:1027D0000A0E0601806F000150EC0AF0F2CF6CF691
:1027E000F29EAA6A3F0EA96EA69CA69EA680A8503D
:1027F00006016CBFF28E6D6FF2CF6EF6F29EAA6A82
:102800003E0EA96EA69CA69EA680A8506EBFF28E14
:102810006F6F6DC603F06F51A16F03C0A2F6000188
:1028200099EC0CF003C0CEF502C0CDF501C0CCF59B
:1028300000C0CBF50A0E0601806F000150EC0AF0D3
:10284000F2CF6CF6F29EAA6A320EA96EA69CA69EE4
:10285000A680A85006016CBFF28E0401CA6F0A0E52
:102860000601806F000150EC0AF0F3EF32F0050131
:1028700013BF03D01351090803E313BF01D016D0CF
:10288000136BAA6AA96AA86AA69CA69EA684F2509F
:10289000006EF29E0F01550EA76EAA0EA76EA682BD
:1028A000A6B2FED7A6940050F212050114BF03D0C1
:1028B0001451090803E314BF01D017D0146BAA6A9E
:1028C000010EA96EA86AA69CA69EA684F250006E70
:1028D000F29E0F01550EA76EAA0EA76EA682A6B293
:1028E000FED7A6940050F212050115BF03D0155172
:1028F000090803E315BF01D017D0156BAA6A020EB1
:10290000A96EA86AA69CA69EA684F250006EF29EAE
:102910000F01550EA76EAA0EA76EA682A6B2FED70D
:10292000A6940050F212050116BF03D016510908F3
:1029300003E316BF01D016D0166BAA6A030EA96E68
:10294000A86AA69CA69EA684F250006EF29E0F0175
:10295000550EA76EAA0EA76EA682A6B2FED7A694A3
:102960000050F2120401F7BF03D0F751090803E346
:10297000F7BF01D017D0F76BAA6A040EA96EA86A38
:10298000A69CA69EA684F250006EF29E0F01550EE4
:10299000A76EAA0EA76EA682A6B2FED7A694005076
:1029A000F2120401F8BF03D0F851090803E3F8BF9D
:1029B00001D017D0F86BAA6A050EA96EA86AA69C6A
:1029C000A69EA684F250006EF29E0F01550EA76ED1
:1029D000AA0EA76EA682A6B2FED7A6940050F21247
:1029E0000401F9BF03D0F951090803E3F9BF01D08D
:1029F00019D0020EF96FAA6A060EA96E020EA86E11
:102A0000A69CA69EA684F250006EF29E0F01550E63
:102A1000A76EAA0EA76EA682A6B2FED7A6940050F5
:102A2000F2120401FABF03D0FA51090803E3FABF16
:102A300001D017D0FA6BAA6A070EA96EA86AA69CE5
:102A4000A69EA684F250006EF29E0F01550EA76E50
:102A5000AA0EA76EA682A6B2FED7A6940050F212C6
:102A60000401FFBF03D0FF51090803E3FFBF01D0FA
:102A700016D0FF6BAA6A080EA96EA86AA69CA69E2D
:102A8000A684F250006EF29E0F01550EA76EAA0E9C
:102A9000A76EA682A6B2FED7A6940050F212050138
:102AA00000BF03D00051090803E300BF01D017D0D5
:102AB000006BAA6A090EA96EA86AA69CA69EA684A7
:102AC000F250006EF29E0F01550EA76EAA0EA76E71
:102AD000A682A6B2FED7A6940050F212050101BF4D
:102AE00003D00151090803E301BF01D019D0020E40
:102AF000016FAA6A0A0EA96E020EA86EA69CA69E77
:102B0000A684F250006EF29E0F01550EA76EAA0E1B
:102B1000A76EA682A6B2FED7A6940050F2120501B7
:102B200002BF03D00251090803E302BF01D017D04E
:102B3000026BAA6A0B0EA96EA86AA69CA69EA68422
:102B4000F250006EF29E0F01550EA76EAA0EA76EF0
:102B5000A682A6B2FED7A6940050F212050103BFCA
:102B600003D00351090803E303BF01D017D0036B5F
:102B7000AA6A0C0EA96EA86AA69CA69EA684F2500C
:102B8000006EF29E0F01550EA76EAA0EA76EA682CA
:102B9000A6B2FED7A6940050F212050104BF03D0DE
:102BA0000451090803E304BF01D017D0046BAA6ADB
:102BB0000D0EA96EA86AA69CA69EA684F250006E71
:102BC000F29E0F01550EA76EAA0EA76EA682A6B2A0
:102BD000FED7A6940050F212050105BF03D005519F
:102BE000090803E305BF01D017D0056BAA6A0E0ED2
:102BF000A96EA86AA69CA69EA684F250006EF29EBC
:102C00000F01550EA76EAA0EA76EA682A6B2FED71A
:102C1000A6940050F212050106BF03D00651090820
:102C200003E306BF01D017D0066BAA6A0F0EA96E88
:102C3000A86AA69CA69EA684F250006EF29E0F0182
:102C4000550EA76EAA0EA76EA682A6B2FED7A694B0
:102C50000050F21205010BBF03D00B51090803E32A
:102C60000BBF01D017D00B6BAA6A100EA96EA86A11
:102C7000A69CA69EA684F250006EF29E0F01550EF1
:102C8000A76EAA0EA76EA682A6B2FED7A694005083
:102C9000F21205010CBF03D00C51090803E30CBF6D
:102CA00001D017D00C6BAA6A110EA96EA86AA69C57
:102CB000A69EA684F250006EF29E0F01550EA76EDE
:102CC000AA0EA76EA682A6B2FED7A6940050F21254
:102CD00005010DBF03D00D51090803E30DBF01D05D
:102CE00017D00D6BAA6A120EA96EA86AA69CA69EA2
:102CF000A684F250006EF29E0F01550EA76EAA0E2A
:102D0000A76EA682A6B2FED7A6940050F2120501C5
:102D10000EBF03D00E51090803E30EBF01D017D038
:102D20000E6BAA6A130EA96EA86AA69CA69EA6841C
:102D3000F250006EF29E0F01550EA76EAA0EA76EFE
:102D4000A682A6B2FED7A6940050F212050107BFD4
:102D500003D00751090803E307BF01D017D0076B61
:102D6000AA6A150EA96EA86AA69CA69EA684F25011
:102D7000006EF29E0F01550EA76EAA0EA76EA682D8
:102D8000A6B2FED7A6940050F212050108BF03D0E8
:102D90000851090803E308BF01D017D0086BAA6ADD
:102DA000160EA96EA86AA69CA69EA684F250006E76
:102DB000F29E0F01550EA76EAA0EA76EA682A6B2AE
:102DC000FED7A6940050F212050109BF03D00951A5
:102DD000090803E309BF01D017D0096BAA6A170ECF
:102DE000A96EA86AA69CA69EA684F250006EF29ECA
:102DF0000F01550EA76EAA0EA76EA682A6B2FED729
:102E0000A6940050F21205010ABF03D00A51090826
:102E100003E30ABF01D018D0010E0A6FAA6A180E88
:102E2000A96E010EA86EA69CA69EA684F250006E06
:102E3000F29E0F01550EA76EAA0EA76EA682A6B22D
:102E4000FED7A6940050F2120601A06B9F6B480EAD
:102E50009E6F830E9D6F3AC5A4F639C5A3F638C59B
:102E6000A2F637C5A1F60001DEEC0DF032E3050154
:102E70003A6B396B400E386F7F0E376FAA6A190EA6
:102E8000A96E010EA86EA69CA69EA684F250006EA6
:102E9000F29E0F01550EA76EAA0EA76EA682A6B2CD
:102EA000FED7A6940050F212AA6A1A0EA96E050E59
:102EB000A86EA69CA69EA684F250006EF29E550EA9
:102EC000A76EAA0EA76EA682A6B2FED7A694005041
:102ED000F2120601A06B9F6B480E9E6F830E9D6FD2
:102EE0003EC5A4F63DC5A3F63CC5A2F63BC5A1F67A
:102EF0000001DEEC0DF030E305013E6B3D6B3C6BF9
:102F00007F0E3B6FAA6A1B0EA96E010EA86EA69CCF
:102F1000A69EA684F250006EF29E0F01550EA76E7B
:102F2000AA0EA76EA682A6B2FED7A6940050F212F1
:102F3000AA6A1C0EA96EA86AA69CA69EA684F25038
:102F4000006EF29E550EA76EAA0EA76EA682A6B2BE
:102F5000FED7A6940050F2120601A06B9F6B160ECE
:102F60009E6F870E9D6FC2C5A4F6C1C5A3F6C0C5EE
:102F7000A2F6BFC5A1F60001DEEC0DF031E30501BC
:102F8000C26BC16B4B0EC06F860EBF6FAA6A1D0E5F
:102F9000A96ECB0EA86EA69CA69EA684F250006ECB
:102FA000F29E0F01550EA76EAA0EA76EA682A6B2BC
:102FB000FED7A6940050F212AA6A1E0EA96EA86A45
:102FC000A69CA69EA684F250006EF29E550EA76E99
:102FD000AA0EA76EA682A6B2FED7A6940050F21241
:102FE0000401E25303E1E1513C0817E2E26BE16BBB
:102FF000AA6A1F0EA96EA86AA69CA69EA684F25075
:10300000006EF29E0F01550EA76EAA0EA76EA68245
:10301000A6B2FED7A6940050F2120501DC510608B4
:1030200018E2020EDC6FAA6A200EA96E020EA86ECC
:10303000A69CA69EA684F250006EF29E0F01550E2D
:10304000A76EAA0EA76EA682A6B2FED7A6940050BF
:10305000F2120401E4510D0830E2FF0A03E1E351EA
:1030600010082BE2E46BE36BAA6A210EA96EA86A32
:10307000A69CA69EA684F250006EF29E0F01550EED
:10308000A76EAA0EA76EA682A6B2FED7A69400507F
:10309000F212AA6A220EA96EA86AA69CA69EA6840F
:1030A000F250006EF29E550EA76EAA0EA76EA68273
:1030B000A6B2FED7A6940050F2120601A06B9F6B39
:1030C000480E9E6F860E9D6F26C5A4F625C5A3F6F5
:1030D00024C5A2F623C5A1F60001DEEC0DF02EE317
:1030E0000501266B256B246B236BAA6A3C0EA96E27
:1030F000A86AA69CA69EA684F250006EF29E0F01BE
:10310000550EA76EAA0EA76EA682A6B2FED7A694EB
:103110000050F212AA6A3D0EA96EA86AA69CA69E4D
:10312000A684F250006EF29E550EA76EAA0EA76EF0
:10313000A682A6B2FED7A6940050F2120601A06B9A
:103140009F6B610E9E6F880E9D6FCEC5A4F6CDC598
:10315000A3F6CCC5A2F6CBC5A1F60001DEEC0DF0BE
:1031600031E30501CE6BCD6B700ECC6F860ECB6F4D
:10317000AA6A3E0EA96EF00EA86EA69CA69EA68414
:10318000F250006EF29E0F01550EA76EAA0EA76EAA
:10319000A682A6B2FED7A6940050F212AA6A3F0EEB
:1031A000A96EA86AA69CA69EA684F250006EF29E06
:1031B000550EA76EAA0EA76EA682A6B2FED7A6943B
:1031C0000050F2120401CA51140819E20A0ECA6F23
:1031D000AA6A320EA96E0A0EA86EA69CA69EA684A6
:1031E000F250006EF29E0F01550EA76EAA0EA76E4A
:1031F000A682A6B2FED7A6940050F21204010001E6
:10320000F5EF32F006017D35006E0036FC0E00163B
:1032100000C001F0C250C30B0010C26E010E806FDF
:10322000000150EC0AF0C282C2B2FED7C4CF7FF6D2
:103230000601C3CF7EF67EC601F07FC602F0000114
:10324000000C06019C9190C695F68FC694F68EC62A
:1032500093F68DC692F690C6A0F68FC69FF68EC6E0
:103260009EF68DC69DF6A46BA36BA26BA16B0001AD
:10327000DEEC0DF005E306019C819351800A936F0B
:1032800095C6A0F694C69FF693C69EF692C69DF686
:103290000601A46BA36BA26B8E0EA16F0001DEEC86
:1032A0000DF001E219E195C6A0F694C69FF693C60B
:1032B0009EF692C69DF61BEC0EF002C0A2F601C06F
:1032C000A1F699EC0CF003C099F602C098F601C083
:1032D00097F600C096F6D3D095C6A0F694C69FF692
:1032E00093C69EF692C69DF6800E0601A46F960EBA
:1032F000A36F180EA26F960EA16F0001DEEC0DF009
:10330000D8A0B5D095C6A0F694C69FF693C69EF6F3
:1033100092C69DF60601A46BA36BA26B8E0EA16FE5
:103320000001B4EC0CF003C0A0F602C09FF601C08F
:103330009EF600C09DF61BEC0EF002C09BF601C08D
:103340009AF695C6A0F694C69FF693C69EF692C6C8
:103350009DF60601A46BA36BA26B8E0EA16F0001FC
:10336000B4EC0CF000C09DF601C09EF602C09FF6C2
:1033700003C0A0F69BC6A2F69AC6A1F699EC0CF083
:10338000D882A0C6A4F69FC6A3F69EC6A2F69DC686
:10339000A1F603C0A8F602C0A7F601C0A6F600C0B9
:1033A000A5F627EC0FF00601A06B9F6B9E6B8E0EAF
:1033B0009D6F03C0A4F602C0A3F601C0A2F600C030
:1033C000A1F6000163EC0DF003C095F602C094F67F
:1033D00001C093F600C092F69BC6A2F69AC6A1F66B
:1033E00099EC0CF00601A06B9F6B9E6B8E0E9D6F8F
:1033F00003C0A4F602C0A3F601C0A2F600C0A1F665
:10340000000163EC0DF003C099F602C098F601C00C
:1034100097F600C096F695C6A0F694C69FF693C69A
:103420009EF692C69DF61BEC0EF002C0A2F601C0FD
:10343000A1F699EC0CF0D89299C6A4F698C6A3F61A
:1034400097C6A2F696C6A1F603C0A8F602C0A7F6D4
:1034500001C0A6F600C0A5F627EC0FF003C099F650
:1034600002C098F601C097F600C096F608D095C63F
:1034700099F694C698F693C697F692C696F695C6B0
:10348000A0F694C69FF693C69EF692C69DF61BECD8
:103490000EF002C0A2F601C0A1F699EC0CF0D882A1
:1034A00095C6A4F694C6A3F693C6A2F692C6A1F654
:1034B00003C0A8F602C0A7F601C0A6F600C0A5F694
:1034C00027EC0FF003C095F602C094F601C093F606
:1034D00000C092F606019CA103D09751800A976F15
:1034E00095C6A0F694C69FF693C69EF692C69DF624
:1034F000A46BA36BA26BA16B0001DEEC0DF03CE0B2
:1035000006019CA11CD091531AE1D88299C6A4F659
:1035100098C6A3F697C6A2F696C6A1F6A86BA76BA7
:10352000A66B7F0EA56F000127EC0FF003C099F684
:1035300002C098F601C097F600C096F606019CB14D
:103540001CD0912D1AD0D89299C6A4F698C6A3F68D
:1035500097C6A2F696C6A1F6A86BA76BA66B7F0EC0
:10356000A56F000127EC0FF003C099F602C098F692
:1035700001C097F600C096F6060190C6A0F68FC669
:103580009FF68EC69EF68DC69DF6A46BA36BA26BAE
:10359000A16B0001DEEC0DF006E10601996B986B62
:1035A000976B966B000196C600F097C601F098C61F
:1035B00002F099C603F0000C8CC690F68BC68FF60D
:1035C0008AC68EF689C68DF6010E0601916F00013E
:1035D00038DE59EF1BF08CC690F68BC68FF68AC684
:1035E0008EF689C68DF60601916B00012ADE7DEF0D
:1035F0001BF080C6A0F67FC69FF67EC69EF67DC6EF
:103600009DF60601A46BA36BA26BA16B0001DEEC1F
:103610000DF0D8B4A1D07CC6A0F67BC69FF67AC6C2
:103620009EF679C69DF680C6A4F67FC6A3F67EC632
:10363000A2F67DC6A1F6B4EC0CF000C085F601C080
:1036400086F602C087F603C088F603C0A0F602C063
:103650009FF601C09EF600C09DF60601A46BA36B09
:10366000A26BA16B0001DEEC0DF024E37CC6A0F69A
:103670007BC69FF67AC69EF679C69DF680C6A4F6EE
:103680007FC6A3F67EC6A2F67DC6A1F6B4EC0CF00A
:1036900000C085F601C086F602C087F603C088F632
:1036A00003C08CF602C08BF601C08AF600C089F612
:1036B00083D723D07CC6A0F67BC69FF67AC69EF63B
:1036C00079C69DF680C6A4F67FC6A3F67EC6A2F68E
:1036D0007DC6A1F6B4EC0CF000C085F601C086F6FC
:1036E00002C087F603C088F603C08CF602C08BF6D2
:1036F00001C08AF600C089F66ED703C084F602C006
:1037000083F601C082F600C081F684C6A0F683C6A7
:103710009FF682C69EF681C69DF680C6A4F67FC639
:10372000A3F67EC6A2F67DC6A1F663EC0DF0D882A4
:103730007CC6A4F67BC6A3F67AC6A2F679C6A1F625
:1037400003C0A8F602C0A7F601C0A6F600C0A5F601
:1037500027EC0FF001D000D0000C8E0E006E94C646
:1037600001F093C602F0036A01AE05D0011E021EED
:10377000022A01E1012A015209E102C001F0026AB4
:10378000080E005E015202E1006A0DD0D89001BE21
:1037900004D0023601360006F9D7060194AF02D0F4
:1037A000000101D0019E0001000C80C684F67FC696
:1037B00083F67EC682F67DC681F684C6A0F683C6F1
:1037C0009FF682C69EF681C69DF60601A46BA36B8A
:1037D000A26B7F0EA16F0001DEEC0DF0D8B446D2D3
:1037E000060E0601936F810EE96E93C6EAFF7E0E08
:1037F000EF6ED88284C6A4F683C6A3F682C6A2F66C
:1038000081C6A1F6A86BA76BA66B7F0EA56F000102
:1038100027EC0FF000C092F601C093F602C094F6B8
:1038200003C095F6D89284C6A4F683C6A3F682C6D2
:10383000A2F681C6A1F60601A86BA76BA66B7F0E48
:10384000A56F000127EC0FF095C6A0F694C69FF671
:1038500093C69EF692C69DF603C0A4F602C0A3F6D8
:1038600001C0A2F600C0A1F6B4EC0CF003C084F6CF
:1038700002C083F601C082F600C081F684C6A0F6BD
:1038800083C69FF682C69EF681C69DF684C6A4F6C0
:1038900083C6A3F682C6A2F681C6A1F663EC0DF03C
:1038A00003C090F602C08FF601C08EF600C08DF600
:1038B000BC0E0601A06F240E9F6F670E9E6F7D0EDB
:1038C0009D6F90C6A4F68FC6A3F68EC6A2F68DC6CF
:1038D000A1F6000163EC0DF000C092F601C093F672
:1038E00002C094F603C095F6D89203C0A4F602C0B5
:1038F000A3F601C0A2F600C0A1F6E30E0601A86F70
:10390000E40EA76F900EA66F820EA56F000127EC44
:103910000FF003C088F602C087F601C086F600C02B
:1039200085F688C6A0F687C69FF686C69EF685C62B
:103930009DF690C6A4F68FC6A3F68EC6A2F68DC6D7
:10394000A1F663EC0DF000C092F601C093F602C040
:1039500094F603C095F6D89203C0A4F602C0A3F66D
:1039600001C0A2F600C0A1F61C0E0601A86F870ECA
:10397000A76F570EA66F830EA56F000127EC0FF0FF
:1039800003C088F602C087F601C086F600C085F63F
:1039900088C6A0F687C69FF686C69EF685C69DF6A3
:1039A00090C6A4F68FC6A3F68EC6A2F68DC6A1F663
:1039B00063EC0DF000C092F601C093F602C094F6DD
:1039C00003C095F6D89203C0A4F602C0A3F601C0C6
:1039D000A2F600C0A1F6AB0E0601A86FE10EA76F1C
:1039E0009E0EA66F830EA56F000127EC0FF003C09B
:1039F00088F602C087F601C086F600C085F606018B
:103A0000A06B9F6B9E6B7F0E9D6F90C6A4F68FC6BA
:103A1000A3F68EC6A2F68DC6A1F6000163EC0DF0EA
:103A200000C092F601C093F602C094F603C095F66A
:103A3000D89203C0A4F602C0A3F601C0A2F600C04B
:103A4000A1F6B40E0601A86F2A0EA76F820EA66F0C
:103A5000A56F000127EC0FF003C08CF602C08BF6B7
:103A600001C08AF600C089F68CC6A0F68BC69FF608
:103A70008AC69EF689C69DF690C6A4F68FC6A3F6A2
:103A80008EC6A2F68DC6A1F663EC0DF000C092F6CC
:103A900001C093F602C094F603C095F6D89203C015
:103AA000A4F602C0A3F601C0A2F600C0A1F6800EE3
:103AB0000601A86F3E0EA76F060EA66F830EA56FB8
:103AC000000127EC0FF003C08CF602C08BF601C09A
:103AD0008AF600C089F68CC6A0F68BC69FF68AC609
:103AE0009EF689C69DF690C6A4F68FC6A3F68EC62E
:103AF000A2F68DC6A1F663EC0DF000C092F601C0EF
:103B000093F602C094F603C095F6D89203C0A4F6CB
:103B100002C0A3F601C0A2F600C0A1F6AB0E0601DA
:103B2000A86FE10EA76F9E0EA66F820EA56F000113
:103B300027EC0FF003C08CF602C08BF601C08AF6AA
:103B400000C089F684C6A0F683C69FF682C69EF69C
:103B500081C69DF688C6A4F687C6A3F686C6A2F6D9
:103B600085C6A1F663EC0DF000C092F601C093F695
:103B700002C094F603C095F603C0A0F602C09FF6FB
:103B800001C09EF600C09DF68CC6A4F68BC6A3F6B7
:103B90008AC6A2F689C6A1F6B4EC0CF003C088F67A
:103BA00002C087F601C086F600C085F6060E060143
:103BB000936F7D0EE96E93C6EAFF7E0EEF5C916F08
:103BC00091BF01D014D0000ED8809155946B936FA3
:103BD00093BF94070001C1DD00C089F60150800A3F
:103BE00006018A6F02C08BF603C08CF610D0946B6E
:103BF00091C693F693BF94070001AFDD03C08CF626
:103C000002C08BF601C08AF600C089F606018CC698
:103C1000A0F68BC69FF68AC69EF689C69DF6180E3C
:103C2000A46F720EA36F310EA26F7E0EA16F000102
:103C300063EC0DF0D89288C6A4F687C6A3F686C6B4
:103C4000A2F685C6A1F603C0A8F602C0A7F601C079
:103C5000A6F600C0A5F627EC0FF003C088F602C058
:103C600087F601C086F600C085F606D00601886B8F
:103C7000876B866B856B000185C600F086C601F0F8
:103C800087C602F088C603F0000C80C6A0F67FC687
:103C90009FF67EC69EF67DC69DF6180E0601A46FA1
:103CA000720EA36F310EA26F7E0EA16F0001B4ECF5
:103CB0000CF003C0A0F602C09FF601C09EF600C043
:103CC0009DF61BEC0EF001C08DF606018E9180C6AC
:103CD00084F67FC683F67EC682F67DC681F680C6F0
:103CE000A0F67FC69FF67EC69EF67DC69DF6A46BA7
:103CF000A36BA26BA16B0001DEEC0DF006E30601E5
:103D00008E818D6D8251800A826F0601886B876B70
:103D1000866B856B060E906F850EE96E90C6EAFF86
:103D20007F0E8D25EF6E84C6A0F683C69FF682C6F1
:103D30009EF681C69DF6180EA46F720EA36F310E0B
:103D4000A26F7E0EA16F0001B4EC0CF000C08FF6E4
:103D500001C090F602C091F603C092F60601946B82
:103D60008DC693F693BF94070001F7DCD88292C604
:103D7000A4F691C6A3F690C6A2F68FC6A1F603C01C
:103D8000A8F602C0A7F601C0A6F600C0A5F627EC6B
:103D90000FF003C084F602C083F601C082F600C0B3
:103DA00081F67C0E0601A06F880E9F6F590E9E6FE4
:103DB000720E9D6F84C6A4F683C6A3F682C6A2F6D1
:103DC00081C6A1F6000163EC0DF000C08FF601C0C2
:103DD00090F602C091F603C092F6D89203C0A4F602
:103DE00002C0A3F601C0A2F600C0A1F6E00E0601D3
:103DF000A86F970EA76F260EA66F750EA56F000110
:103E000027EC0FF003C08CF602C08BF601C08AF6D7
:103E100000C089F68CC6A0F68BC69FF68AC69EF6B1
:103E200089C69DF684C6A4F683C6A3F682C6A2F60A
:103E300081C6A1F663EC0DF000C08FF601C090F6CC
:103E400002C091F603C092F6D89203C0A4F602C055
:103E5000A3F601C0A2F600C0A1F6C40E0601A86F29
:103E60001D0EA76F1E0EA66F780EA56F000127EC22
:103E70000FF003C08CF602C08BF601C08AF600C0BA
:103E800089F68CC6A0F68BC69FF68AC69EF689C6B2
:103E90009DF684C6A4F683C6A3F682C6A2F681C6A2
:103EA000A1F663EC0DF000C08FF601C090F602C0E1
:103EB00091F603C092F6D89203C0A4F602C0A3F60E
:103EC00001C0A2F600C0A1F65E0E0601A86F500E5A
:103ED000A76F630EA66F7A0EA56F000127EC0FF097
:103EE00003C08CF602C08BF601C08AF600C089F6CA
:103EF0008CC6A0F68BC69FF68AC69EF689C69DF62E
:103F000084C6A4F683C6A3F682C6A2F681C6A1F62D
:103F100063EC0DF000C08FF601C090F602C091F680
:103F200003C092F6D89203C0A4F602C0A3F601C063
:103F3000A2F600C0A1F61A0E0601A86FFE0EA76F2A
:103F4000750EA66F7C0EA56F000127EC0FF003C065
:103F50008CF602C08BF601C08AF600C089F68CC6CA
:103F6000A0F68BC69FF68AC69EF689C69DF684C6C5
:103F7000A4F683C6A3F682C6A2F681C6A1F663ECB8
:103F80000DF000C08FF601C090F602C091F603C09C
:103F900092F6D89203C0A4F602C0A3F601C0A2F61E
:103FA00000C0A1F6180E0601A86F720EA76F310EA1
:103FB000A66F7E0EA56F000127EC0FF003C08CF6F4
:103FC00002C08BF601C08AF600C089F684C6A0F64E
:103FD00083C69FF682C69EF681C69DF68CC6A4F661
:103FE0008BC6A3F68AC6A2F689C6A1F663EC0DF0CD
:103FF000D8920601A46BA36BA26B7F0EA16F03C0C6
:10400000A8F602C0A7F601C0A6F600C0A5F60001FA
:1040100027EC0FF088C6A0F687C69FF686C69EF6E8
:1040200085C69DF603C0A4F602C0A3F601C0A2F6A1
:1040300000C0A1F663EC0DF003C088F602C087F65D
:1040400001C086F600C085F606018EA119D0A06BCE
:104050009F6B9E6B7F0E9D6F88C6A4F687C6A3F6E6
:1040600086C6A2F685C6A1F60001B4EC0CF003C02A
:1040700088F602C087F601C086F600C085F6060104
:1040800085C600F086C601F087C602F088C603F038
:104090000001000C74C6A0F673C69FF672C69EF6A9
:1040A00071C69DF60601A46BA36BA26BA16B000108
:1040B000DEEC0DF0D8A0D9D078C67CF677C67BF6BA
:1040C00076C67AF675C679F60601806B7F6B7E6BD5
:1040D0007F0E7D6F0001F9EC1AF000C079F601C087
:1040E0007AF602C07BF603C07CF603C0A0F602C0DD
:1040F0009FF601C09EF600C09DF60601A46BA36B5F
:10410000A26BA16B0001DEEC0DF0D8A4AED078C696
:104110007CF677C67BF676C67AF675C679F6060122
:10412000806B7F6B7E6B800E7D6F0001F9EC1AF067
:1041300000C079F601C07AF602C07BF603C07CF6B7
:1041400003C0A0F602C09FF601C09EF600C09DF617
:104150000601A46BA36BA26BA16B0001DEEC0DF05A
:1041600041E171C679F606017251800A7A6F73C611
:104170007BF674C67CF674C680F673C67FF67E6FD7
:1041800071C67DF60001D5EC1BF000C079F601C0C8
:104190007AF602C07BF603C07CF603C0A0F602C02C
:1041A0009FF601C09EF600C09DF678C6A4F677C6BD
:1041B000A3F676C6A2F675C6A1F663EC0DF000C0B4
:1041C00079F601C07AF602C07BF603C07CF603C024
:1041D00080F602C07FF601C07EF600C07DF655DD98
:1041E000DED042D071C679F606017251800A7A6F2C
:1041F00073C67BF674C67CF674C680F673C67FF60B
:104200007E6F71C67DF60001D5EC1BF000C079F61B
:1042100001C07AF602C07BF603C07CF603C0A0F6AC
:1042200002C09FF601C09EF600C09DF678C6A4F6B7
:1042300077C6A3F676C6A2F675C6A1F663EC0DF0B6
:1042400000C079F601C07AF602C07BF603C07CF6A6
:1042500003C080F602C07FF601C07EF600C07DF686
:1042600014DD800E011A9BD09AD074C6A0F673C6D6
:104270009FF672C69EF671C69DF60601A46BA36BEF
:10428000A26BA16B0001DEEC0DF030E378C67CF68A
:1042900077C67BF676C67AF675C679F60601806B28
:1042A0007F6B7E6B7F0E7D6F0001F9EC1AF000C012
:1042B00079F601C07AF602C07BF603C07CF603C033
:1042C000A0F602C09FF601C09EF600C09DF6060152
:1042D000A46BA36BA26BA16B0001DEEC0DF006E0FA
:1042E000006A016A026A036A5AD059D074C6A0F6FD
:1042F00073C69FF672C69EF671C69DF60601A46B44
:10430000A36BA26BA16B0001DEEC0DF012E178C68D
:10431000A0F677C69FF676C69EF675C69DF6060190
:10432000A46BA36BA26BA16B0001DEEC0DF001E2AC
:1043300036E174C680F673C67FF672C67EF671C625
:104340007DF6D5EC1BF000C079F601C07AF602C00C
:104350007BF603C07CF603C0A0F602C09FF601C046
:104360009EF600C09DF678C6A4F677C6A3F676C67C
:10437000A2F675C6A1F663EC0DF000C079F601C097
:104380007AF602C07BF603C07CF603C080F602C05A
:104390007FF601C07EF600C07DF677DC00D0000C11
:1043A000010E06017D6F000102EC19F002C0DAF483
:1043B00001C0D9F40401CA510A0823E1DAC4A2F603
:1043C000D9C4A1F6000199EC0CF0D89203C0A4F670
:1043D00002C0A3F601C0A2F600C0A1F626C5A8F649
:1043E00025C5A7F624C5A6F623C5A5F627EC0FF02C
:1043F00003C02EF502C02DF501C02CF500C02BF531
:104400000401CA51140822E1DAC4A2F6D9C4A1F603
:10441000000199EC0CF0D88203C0A4F602C0A3F608
:1044200001C0A2F600C0A1F626C5A8F625C5A7F6CC
:1044300024C5A6F623C5A5F627EC0FF003C02EF57C
:1044400002C02DF501C02CF500C02BF52EC574F669
:104450002DC573F62CC572F62BC571F60601786B67
:10446000776B400E766F800E756F000113DE00C013
:104470006DF601C06EF602C06FF603C070F603C0A1
:10448000A0F602C09FF601C09EF600C09DF64AC588
:10449000A4F649C5A3F648C5A2F647C5A1F663EC44
:1044A0000DF000C06DF601C06EF602C06FF603C0DD
:1044B00070F62EC574F62DC573F62CC572F62BC595
:1044C00071F60601786B776B766B800E756F000165
:1044D000E1DD00C071F601C072F602C073F603C0E0
:1044E00074F603C0A0F602C09FF601C09EF600C09D
:1044F0009DF64EC5A4F64DC5A3F64CC5A2F64BC518
:10450000A1F663EC0DF0EACF72F6E9CF71F6D8921E
:1045100070C6A4F66FC6A3F66EC6A2F66DC6A1F667
:1045200003C0A8F602C0A7F601C0A6F600C0A5F613
:1045300027EC0FF072C6EAFF71C6E9FF00C06DF606
:1045400001C06EF602C06FF603C070F62EC5A0F66D
:104550002DC59FF62CC59EF62BC59DF652C5A4F61B
:1045600051C5A3F650C5A2F64FC5A1F663EC0DF0F8
:10457000EACF74F6E9CF73F6D89270C6A4F66FC688
:10458000A3F66EC6A2F66DC6A1F603C0A8F602C0D9
:10459000A7F601C0A6F600C0A5F627EC0FF074C67A
:1045A000EAFF73C6E9FF00C06DF601C06EF602C0F7
:1045B0006FF603C070F6EACF76F6E9CF75F6D892BB
:1045C00003C0A4F602C0A3F601C0A2F600C0A1F683
:1045D00056C5A8F655C5A7F654C5A6F653C5A5F603
:1045E00027EC0FF076C6EAFF75C6E9FF03C02AF58F
:1045F00002C029F501C028F500C027F52AC5A0F69C
:1046000029C59FF628C59EF627C59DF60601A46B11
:10461000A36BA26BA16B0001DEEC0DF005E30501BD
:104620002A6B296B286B276B06016C510401D05D46
:1046300001E3D06BD051040DF350036A570FE96EBC
:10464000050E0320EA6E27C5EFFF28C5ECFF29C53C
:10465000ECFF2AC5ECFFD02B0501BA6BB96BB86B28
:10466000B76B0401D16B010E06016C5D0401D15DD5
:1046700001E038E2D151040DF350036A570FE96E9F
:10468000050E0320EA6EEFCF00F0ECCF01F0ECCF87
:1046900002F0ECCF03F0EACF6EF6E9CF6DF6D892D8
:1046A000BAC5A4F6B9C5A3F6B8C5A2F6B7C5A1F6B2
:1046B00003C0A8F602C0A7F601C0A6F600C0A5F682
:1046C000000127EC0FF06EC6EAFF6DC6E9FF03C0DC
:1046D000BAF502C0B9F501C0B8F500C0B7F50401DC
:1046E000D12BC1D70601A26B6CC6A1F6000199ECD3
:1046F0000CF0BAC5A0F6B9C59FF6B8C59EF6B7C509
:104700009DF603C0A4F602C0A3F601C0A2F600C045
:10471000A1F6B4EC0CF000C06DF601C06EF602C05C
:104720006FF603C070F603C0A0F602C09FF601C08A
:104730009EF600C09DF63AC5A4F639C5A3F638C565
:10474000A2F637C5A1F663EC0DF003C0BAF502C0BE
:10475000B9F501C0B8F500C0B7F5B7C500F0B8C5E8
:1047600001F0B9C502F0BAC503F001EF33F006015C
:10477000706B6F6B6E6B6D6B746B736B726B716B5D
:10478000786B776B766B756B7C6B7B6B7A6B796B0D
:10479000020E7D6F000102EC19F002C0A2F601C00A
:1047A000A1F699EC0CF003C070F602C06FF601C0E0
:1047B0006EF600C06DF60601A06B9F6B200E9E6F1B
:1047C000810E9D6F70C6A4F66FC6A3F66EC6A2F6E4
:1047D0006DC6A1F6000163EC0DF000C07DF601C0CE
:1047E0007EF602C07FF603C080F603C0A0F602C0CA
:1047F0009FF601C09EF600C09DF60601A46BC00E98
:10480000A36F7F0EA26F880EA16F0001B4EC0CF0B5
:1048100003C074F602C073F601C072F600C071F6F0
:1048200074C6A0F673C69FF672C69EF671C69DF654
:104830000A0E0601A46FD70EA36F230EA26F780E87
:10484000A16F0001B4EC0CF003C078F602C077F65B
:1048500001C076F600C075F60501D65106016C5D03
:1048600002E20501D66B0501D651040DF350036A2F
:10487000770FE96E050E0320EA6E75C6EFFF76C668
:10488000ECFF77C6ECFF78C6ECFFD62B06017C6BFD
:104890007B6B7A6B796B0501D76B010E06016C5D42
:1048A0000501D75D01E038E2D751040DF350036AEA
:1048B000770FE96E050E0320EA6EEFCF00F0ECCF24
:1048C00001F0ECCF02F0ECCF03F0EACF7EF6E9CFB7
:1048D0007DF6D8927CC6A4F67BC6A3F67AC6A2F66D
:1048E00079C6A1F603C0A8F602C0A7F601C0A6F6D5
:1048F00000C0A5F6000127EC0FF07EC6EAFF7DC6DA
:10490000E9FF03C07CF602C07BF601C07AF600C066
:1049100079F60501D72BC1D70601A26B6CC6A1F6AB
:10492000000199EC0CF07CC6A0F67BC69FF67AC617
:104930009EF679C69DF603C0A4F602C0A3F601C098
:10494000A2F600C0A1F6B4EC0CF00FEF33F00601B4
:104950008951016A885D03E288C600F00CD0006AC4
:10496000080E8A6F883700368951005CD8B0006E17
:1049700001368A2FF7D70001000C2BC4EAFF2AC4A6
:10498000E9FF06018EC6EFFFE92AD8B4EA2AEF6AEA
:1049900004012A2BD8B42B2B0001000C200E060199
:1049A00083A9300E846F82C600F082AF07D0001E4C
:1049B000002A00C082F62D0E846F838F015082C6BC
:1049C00088F6640E896F0001C2DF00C082F6300EE7
:1049D00001240601856F82C688F60A0E896F0001E0
:1049E000B6DF300E00240601876F300E0124866F7B
:1049F00084C600F083A702D083AF839583B90BD020
:104A000083AF22D083B520D000C085F683B31CD0FD
:104A100000C086F619D0300E855D16E100C085F61F
:104A2000200E846F83A704D08395838383AF839301
:104A3000300E865D09E100C086F6200E856F83A7E3
:104A4000F7D7839383AF839183A505D084C68EF671
:104A5000000193DF060183A305D085C68EF6000111
:104A60008CDF060183A104D086C68EF6000185DFA7
:104A700087C68EF6000181DF000C0601A56BA03110
:104A8000A46FA433A4331F0EA417A437A537A437EB
:104A9000A537A437A537A437A537A437A537A4373A
:104AA000A537C00EA4179F51A427000EA5239F5120
:104AB0003F080DE2160EA425A66F020EA521A76FD2
:104AC000400EA65DA26F000EA759A36F06D0160E6A
:104AD000A425A26F000EA521A36FA15315E0A3C6C4
:104AE00003F0A2C6E9FFA3C6EAFFA051070BA66F19
:104AF000010E006EA651016E04E0D8900036012E22
:104B0000FCD70050EF1215D0A3C603F0A2C6E9FFF0
:104B1000A3C6EAFFA051070BA66F010E006EA651B7
:104B2000016E04E0D8900036012EFCD70050FF0A39
:104B3000EF160001000C010E0601986F996F9E6B35
:104B40008F51915D9F6F9F519FAF03D0000ED88012
:104B50009F55036A966F03C097F69051925D9F6FC1
:104B60009F519FAF03D0000ED8809F55036A946F6A
:104B700003C095F68F51915D02E2FF0E986F905140
:104B8000925D02E2FF0E996F9551975D3BE303E161
:104B90009451965D37E3D890943795379651945D4C
:104BA000006E9751955900C09AF69B6F96519A5D89
:104BB0009C6F97519B599D6F975303E19E51965D52
:104BC00020E38FC69FF690C6A0F693C6A1F600011B
:104BD00054DF06019BBF01D008D094519A2795510C
:104BE0009B2398518F258F6F0AD09C519A279D51F6
:104BF0009B2398518F258F6F99519025906F9E2BF5
:104C0000DBD736D0D890963797379451965D006EA3
:104C10009551975900C09AF69B6F94519A5D9C6F7D
:104C200095519B599D6F955303E19E51945D20E3EF
:104C30008FC69FF690C6A0F693C6A1F600011DDFB1
:104C400006019BBF01D008D096519A2797519B230C
:104C500099519025906F0AD09C519A279D519B2382
:104C600098518F258F6F99519025906F9E2BDBD790
:104C70000001000C060188532EE08651845D05E298
:104C800084C68BF686C68CF604D086C68BF684C6A0
:104C90008CF68751855D05E285C68DF687C68EF652
:104CA00004D087C68DF685C68EF68B518C5D12E3D7
:104CB0008DC68AF68A518E5D0BE38BC69FF68AC637
:104CC000A0F689C6A1F60001D8DE06018A2BF2D72C
:104CD0008B2BEBD72ED084C68FF685C690F686C672
:104CE00091F685C692F689C693F6000124DF84C644
:104CF0008FF687C690F686C691F687C692F689C665
:104D000093F619DF84C68FF685C690F684C691F6B1
:104D100087C692F689C693F60EDF86C68FF685C6DD
:104D200090F686C691F687C692F689C693F603DF9B
:104D300006010001000C87C603F0060186C6E9FFE4
:104D400087C6EAFFEF52D8B4D0D087C603F086C634
:104D5000E9FF87C6EAFFEF50520827E387C603F052
:104D600086C6E9FF87C6EAFF200EEF5C050DF3500B
:104D7000036A936F060EEA6E8E0EE96E976B93C60A
:104D800096F6F2CF94F6F29E050E016EF76A9351F5
:104D900000014BEC00F00A000900F5CFEEFF012EF8
:104DA000FBD7060194BFF28E35D087C603F086C6C6
:104DB000E9FF87C6EAFFEF507E0827E387C603F0C6
:104DC00086C6E9FF87C6EAFF530EEF5C050DF35078
:104DD000036A936F060EEA6E8E0EE96E976B93C6AA
:104DE00096F6F2CF94F6F29E050E016EF76A935195
:104DF0000001D8EC00F00A000900F5CFEEFF012E0B
:104E0000FBD7060194BFF28E05D08E6B8F6B906B33
:104E1000916B926B87C603F08651E96E03C0EAFF7F
:104E2000EF500A0A000103E0070A09E00BD006016F
:104E30008851070DF350010F852750D0000106015E
:104E4000846B4CD006018851050DF35084257F08F2
:104E500006E2846B8851070DF350010F85278A6B9A
:104E60008A5104083BE38B6B8B51060833E3036ADA
:104E70008A518E0FE96E060E0320EA6EEFCF93F68D
:104E800093C600F08B51016E04E0D8900032012EE1
:104E9000FCD700A01DD08C6B88518C5D19E28D6B06
:104EA00088518D5D13E28D518425936F8B5188035A
:104EB000F35085258C25946F93C69FF6A06F89C605
:104EC000A1F60001DADD06018D2BEAD78C2BE4D7A1
:104ED0008B2BCAD78A2B88518427C2D7862BD8B46C
:104EE000872B842B000127D706010001000C060E3A
:104EF00004012B6F790E2A6F75C682F61F0E06010C
:104F0000836F00014BDD0601782D27D0120E762528
:104F1000826F180E7725836F76C684F677C685F67E
:104F200082C686F6876F010E886F896F0001A2DE48
:104F3000020E06017625826F010E7725836F82C6E9
:104F400084F6856F060E876F790E866F020E886F66
:104F5000896B0001F0DE26D00601120E7625826FE5
:104F6000180E7725836F76C684F677C685F682C6D7
:104F700086F6876F886B896B00017CDE020E060166
:104F80007625826F010E7725836F82C684F6856F42
:104F9000060E876F790E866F020E886F010E896F7D
:104FA0000001C9DE000C060173C601F074C603F0EF
:104FB00073C679F674C67AF6040EEA6E160EE96EBA
:104FC00074C6E2FF73C6E1FFE752E6CFEEFFFCE1F5
:104FD000772D25D07851080DF3507625796F846BA5
:104FE00076C685F67F0E866F79C687F6010E886FC6
:104FF000896F00013FDE010E06017525796F010EF4
:1050000076257A6F79C684F6856F040E876F160E43
:10501000866F78C688F6896B00018DDE06017753AE
:1050200026E17851080DF3507625796F846B76C6AA
:1050300085F67F0E866F79C687F6010E886F896BBD
:10504000000118DE010E06017525796F010E762527
:105050007A6F79C684F6856F040E876F160E866F99
:1050600078C688F6010E896F000165DE0601000131
:10507000000C04012EB74BD00FC575F6140E0601B7
:10508000766F1E0E776F010E786F000130DF10C54E
:1050900075F6280E0601766F1E0E776F786B00018D
:1050A00026DF11C575F63C0E0601766F1E0E776F72
:1050B000786B00011CDF0FC575F6500E0601766F88
:1050C0001E0E776F786B000112DF040EEA6E160E6B
:1050D000E96EF2CF73F6F29E000E77EC07F00A004D
:1050E0000900F550EE6E0009FBE1060173BFF28E78
:1050F000040E746F160E736F140E756F766B010EBF
:10510000776F030E786F00014EDF04012E87928ABD
:1051100080BA6FD02D9FE06BDF6B2CB169D02C81F2
:10512000050E0601806F000150EC0AF0010E05012A
:10513000D56FD55104085BE3D5510401C85D3BE14F
:10514000010E0501D55D036A0F0FE96E050E032000
:10515000EA6EEF2A010ED55D036A0F0FE96E050EA8
:105160000320EA6EEFBE0CD0EF50090809E2010EF1
:10517000D55D036A0F0FE96E050E0320EA6EEF6A34
:10518000010ED55D036A0F0FE96E050E0320EA6E6E
:10519000EFCF73F6D551140DF3CF74F6060173C635
:1051A00075F674C676F61E0E776F010E786F0001E5
:1051B0009EDE1AD00401010E0501D55D036A0F0FB2
:1051C000E96E050E0320EA6EEFCF73F6D551140D8C
:1051D000F3CF74F6060173C675F674C676F61E0E26
:1051E000776F786B000183DE0501D52BA2D7040110
:1051F00001D02C91968084B06ED02D9FE06BDF6B38
:105200002CB568D02C85050E0601806F000150EC8E
:105210000AF0010E0501D56FD55104085AE3D551A6
:105220000401C85D3AE1010E0501D55D036A0F0F67
:10523000E96E050E0320EA6EEF06010ED55D036AE6
:105240000F0FE96E050E0320EA6EEFBE01D00AD003
:10525000010ED55D036A0F0FE96E050E0320EA6E9D
:10526000090EEF6E010ED55D036A0F0FE96E050E94
:105270000320EA6EEFCF73F6D551140DF3CF74F619
:10528000060173C675F674C676F61E0E776F010EAC
:10529000786F00012CDE1AD00401010E0501D55DE6
:1052A000036A0F0FE96E050E0320EA6EEFCF73F667
:1052B000D551140DF3CF74F6060173C675F674C696
:1052C00076F61E0E776F786B000111DE0501D52B87
:1052D000A3D7040101D02C95968284B252D02D9F81
:1052E000E06BDF6B2CB34CD02C83050E0601806F76
:1052F000000150EC0AF00401C82B010E0501D56F26
:10530000D55104083CE3D5510401C85D1CE1010EF0
:105310000501D55D036A0F0FE96E050E0320EA6EE5
:10532000EFCF73F6D551140DF3CF74F6060173C6A3
:1053300075F674C676F61E0E776F010E786F000153
:10534000D6DD1AD00401010E0501D55D036A0F0FE9
:10535000E96E050E0320EA6EEFCF73F6D551140DFA
:10536000F3CF74F6060173C675F674C676F61E0E94
:10537000776F786B0001BBDD0501D52BC1D7040128
:1053800001D02C93968484B425D0640E0601806FDE
:10539000000150EC0AF0968484B41BD06CC6C7F4AC
:1053A0000601736B00017FEC0AF004012E97010ED9
:1053B000C96FC86F05010F6B106B116B126B060183
:1053C000736B00017FEC0AF0ACEC0AF0010E016E89
:1053D000D6D10401C8510408D8B0D2D10601736BEC
:1053E00000017FEC0AF0010E0401C86F2D9FE06BF5
:1053F000DF6B05010F510308D8A47CD010510808B9
:10540000D8A478D01151090875E11251020872E14F
:1054100006016D53D8B402D005016CD0AA6AA96AFE
:10542000A86AA69CA69EA684F250006EF29E0F016A
:10543000550EA76EAA0EA76EA682A6B2FED7A69498
:105440000050F212140E0601806F000150EC0AF0B9
:10545000AA6A010EA96EA86AA69CA69EA684F2500E
:10546000006EF29E0F01550EA76EAA0EA76EA682C1
:10547000A6B2FED7A6940050F212140E0601806F59
:10548000000150EC0AF0AA6A020EA96EA86AA69C56
:10549000A69EA684F250006EF29E0F01550EA76ED6
:1054A000AA0EA76EA682A6B2FED7A6940050F2124C
:1054B000140E0601806F000150EC0AF0AA6A030E78
:1054C000A96EA86AA69CA69EA684F250006EF29EC3
:1054D0000F01550EA76EAA0EA76EA682A6B2FED722
:1054E000A6940050F212140E0601806F000150ECD9
:1054F0000AF0FF0006016F5105010F5DD8A479D0B5
:10550000060170510501105DD8A473D006017151D8
:105510000501115D6EE1060172510501125D69E13F
:105520000601736B00017FEC0AF0040EEA6E160EA2
:10553000E96EF2CF73F6F29E000E77EC07F00A00E8
:105540000900F550EE6E0009FBE1060173BFF28E13
:10555000040E746F160E736F1E0E756F766B776B7D
:10556000020E786F00011FDD040EEA6E160EE96E62
:10557000F2CF73F6F29E000E87EC07F00A000900E6
:10558000F550EE6E0009FBE1060173BFF28E040ECA
:10559000746F160E736F0F0E756F1E0E766F776B2E
:1055A000020E786F0001FFDC6EC6C7F4ACEC0AF0A7
:1055B000040E0601736FFA0E806F000150EC0AF0C2
:1055C0000601732FF8D7736B00017FEC0AF0050119
:1055D0000F6B106B116B126B06016D5302E104012E
:1055E0002D8B04012E97010E016E0001C8D0C7D08B
:1055F00005010601736B00017FEC0AF0040EEA6EF0
:10560000160EE96EF2CF73F6F29E000E77EC07F0FD
:105610000A000900F550EE6E0009FBE1060173BFB8
:10562000F28E040E746F160E736F1E0E756F766B0E
:10563000776B020E786F0001B6DC040EEA6E160E70
:10564000E96EF2CF73F6F29E000E99EC07F00A00B5
:105650000900F550EE6E0009FBE1060173BFF28E02
:10566000040E746F160E736F756B1E0E766F776B6C
:10567000020E786F000197DC010E0401C86F000173
:10568000ACEC0AF0040E0601736FFA0E806F000195
:1056900050EC0AF00601732FF8D705010F6B106B61
:1056A000116B126B0601736B00017FEC0AF00601AF
:1056B000846B856B7F0E866F190E876F010E886F66
:1056C000896F00013AEC26F0040EEA6E160EE96EC0
:1056D000F2CF73F6F29E000E77EC07F00A00090095
:1056E000F550EE6E0009FBE1060173BFF28E190E54
:1056F000846F010E856F040E876F160E866F030E82
:10570000886F896B00019BEC26F00FC575F6140EAF
:105710000601766F1E0E776F010E786F000177EC31
:1057200027F010C575F6280E0601766F1E0E776FEE
:10573000786B000177EC27F011C575F63C0E060179
:10574000766F1E0E776F786B000177EC27F00FC530
:1057500075F6500E0601766F1E0E776F786B00019E
:1057600077EC27F06CC6C7F40601736B00017FEC81
:105770000AF004012E97000E016E000100D0040112
:105780000001000C060E04012B6F710E2A6F6CC60F
:1057900082F61F0E0601836F0001CEEC24F0060195
:1057A0006F2D2CD07051060DF3506D257A6F70510E
:1057B000080DF3506E257B6F6DC684F66EC685F6B8
:1057C0007AC686F6876F010E886F896F00013AEC02
:1057D00026F0020E06016D257A6F010E6E257B6F95
:1057E0007AC684F6856F060E876F710E866F70C657
:1057F00088F6896B00019BEC26F006016F532DE1C2
:105800007051060DF3506D257A6F7051080DF350ED
:105810006E257B6F6DC684F66EC685F67AC686F6F3
:10582000876F010E886F896B00013AEC26F0020E3B
:1058300006016D257A6F010E6E257B6F7AC684F6A0
:10584000856F060E876F710E866F70C688F6010E23
:10585000896F00019BEC26F006010001000C060197
:105860006C51030852E16D6B6D513F084EE36E6B56
:105870006E510F0848E3070E6F6F6F51800A7F0863
:1058800040E2746B6DC673F6766B100E756F000197
:1058900088EC0CF002C071F601C070F606016E5182
:1058A0000124016E000E0220036E0150F2CF70F64B
:1058B000F29E03C0F7FF000153EC01F0060170BF38
:1058C000F28E706F070ED8806F55716F70C600F042
:1058D0007151016E04E0D8900032012EFCD700A077
:1058E0000ED06E51080DF3506F25706F9F6F6DC60F
:1058F000A0F6010EA16F00013DEC25F006016F0737
:10590000BCD76E2BB5D76D2BAFD76C51040852E1C5
:105910006D6B6D513F084EE36E6B6E510F0848E39F
:10592000070E6F6F6F51800A7F0840E2746B6DC67F
:1059300073F6766B100E756F000188EC0CF002C0E8
:1059400071F601C070F606016E510124016E000E61
:105950000220036E0150F2CF70F6F29E03C0F7FFF3
:1059600000015FEC03F0060170BFF28E706F070E4E
:10597000D8806F55716F70C600F07151016E04E0F0
:10598000D8900032012EFCD700A00ED06E51080D29
:10599000F3506F25706F9F6F6DC6A0F6010EA16F5B
:1059A00000013DEC25F006016F07BCD76E2BB5D783
:1059B0006D2BAFD76C51050852E16D6B6D513F08EF
:1059C0004EE36E6B6E510F0848E3070E6F6F6F5119
:1059D000800A7F0840E2746B6DC673F6766B100E1A
:1059E000756F000188EC0CF002C071F601C070F612
:1059F00006016E510124016E000E0220036E01505B
:105A0000F2CF70F6F29E03C0F7FF00016BEC05F0D9
:105A1000060170BFF28E706F070ED8806F55716FE0
:105A200070C600F07151016E04E0D8900032012E72
:105A3000FCD700A00ED06E51080DF3506F25706F8B
:105A40009F6F6DC6A0F6010EA16F00013DEC25F021
:105A500006016F07BCD76E2BB5D76D2BAFD70001F2
:105A6000000C06018E51B6088E6F036A8FC692F63F
:105A70008F8FD8908F3390339133033202320132BB
:105A800000328E2FF6D792AF0BD0001E011E021EE1
:105A9000031E002AD8B4012AD8B4022AD8B4032A93
:105AA0000001BFEF2DF0006A016A026A036A060175
:105AB000966B976B986B996B95519411931192110A
:105AC0002CE0200E9A6FD8908E378F379037913711
:105AD00096379737983799379551995D08E19451E2
:105AE000985D05E19351975D02E19251965D0FE358
:105AF0009251965F9351D8A0933D975F9451D8A04F
:105B0000943D985F9551D8A0953D995FD880003617
:105B10000136023603369A2FD6D7060EEA6E960E57
:105B2000E96E0001000CE9500601866F8551886F0F
:105B30001CE084C6A0F683C69FF682C69EF681C688
:105B40009DF6A46BA36B200EA26F820EA16F0001C5
:105B500063EC0DF003C084F602C083F601C082F648
:105B600000C081F60601882FE4D784C691F683C66B
:105B700090F682C68FF681C68EF6000172D703C0FA
:105B800084F602C083F601C082F600C081F60601E9
:105B900084AF0DD08607868B811F821F831F841FD1
:105BA000812BD8B4822BD8B4832BD8B4842B3B0E52
:105BB0008D6F9A0E8C6FCA0E8B6F8A6B0A0E886F70
:105BC0008551D8B4862B84C691F683C690F682C6DA
:105BD0008FF681C68EF68DC695F68CC694F68BC66A
:105BE00093F68AC692F600015EDF0150EFCF81F690
:105BF000ECCF82F6ECCF83F6ECCF84F6005213E1C3
:105C000006018529885DD8A402D000010CD08651F8
:105C10000DE00F0B885D01E044E286BF42D086BDF7
:105C200005D0200E37D0200E0601861786AB0FD088
:105C3000869B8551D8A486070050866F2D0E8E6FE7
:105C40000001BDEC24F006018651006E866B855183
:105C5000885D0DE10050866F2E0E8E6F0001BDEC49
:105C600024F006018651006E200E8617000E300EBD
:105C700086AB10D0869B8551D8A486070050866FCE
:105C80002D0E8E6F0001BDEC24F006018651006ED2
:105C9000866B300E002600C08EF60001BDEC24F0AD
:105CA00006018DC691F68CC690F68BC68FF68AC615
:105CB0008EF6956B946B936B0A0E926F0001F3DE78
:105CC00003C08DF602C08CF601C08BF600C08AF6C8
:105CD0000601882F78D7000181EF2EF0060E04010F
:105CE0002B6F780E2A6F010EE96E73C684F672C6AA
:105CF00083F671C682F670C681F60601856B0001D7
:105D000012D7B00E06018E6F0001BDEC24F0430ED9
:105D100006018E6F0001BDEC24F00601762D2CD01B
:105D20007751140DF3507425816F7751080DF3509E
:105D30007525826F74C684F675C685F681C686F6AB
:105D4000876F010E886F896F00013AEC26F0020E12
:105D500006017425816F010E7525826F81C684F658
:105D6000856F060E876F780E866F77C688F6896B0B
:105D700000019BEC26F0060176532DE17751140DBE
:105D8000F3507425816F7751080DF3507525826F9C
:105D900074C684F675C685F681C686F6876F010ED1
:105DA000886F896B00013AEC26F0020E060174251B
:105DB000816F010E7525826F81C684F6856F060E90
:105DC000876F780E866F77C688F6010E896F00019F
:105DD0009BEC26F006010001000CEACF85F6E9CF26
:105DE00084F606017E39F009806F8027E20F816F0B
:105DF000320F836F7E510F0B812781278327E90F95
:105E0000826F822782277D390F0B82278327823773
:105E10008337831F83377D510F0B83278037070E0E
:105E20007F6F0A0E82078327FDE381078227FDE348
:105E300080078127FDE37F078027FDE3060EEA6EDA
:105E40007F0EE96E070E8415849DE926830EE95CBA
:105E5000D8B4848DEF50006E08E184BD06D084B9BB
:105E600016D084B702D0200E03D084878499300ED8
:105E70000026EACF7EF6E9CF7DF600C08EF600015F
:105E8000BDEC24F07EC6EAFF7DC6E9FF0601EE50B8
:105E900084ADDCD70001000C0601725102083BE121
:105EA000060E04012B6F740E2A6F090EE96E6FC681
:105EB0007EF66EC67DF6000190DF06017351120D6D
:105EC000F35070257D6F7351080DF35071257E6F6F
:105ED00070C684F671C685F67DC686F6876F010E9C
:105EE000886F896F00013AEC26F0010E06017025DB
:105EF0007D6F010E71257E6F7DC684F6856F060E5F
:105F0000876F740E866F73C688F6896B00019BECF1
:105F100026F09BD00601060E04012B6F740E2A6F2B
:105F2000090EE96E6FC67EF66EC67DF6000155DF7E
:105F30000601725104082DE17351100DF3507025C4
:105F40007D6F7351080DF35071257E6F70C684F616
:105F500071C685F67DC686F6876F010E886F896BE0
