:0400000055EF05F0C3
:08000800046ED8CF05F0E0CF33
:1000100006F00001E9CF0CF0EACF07F0E1CF08F0DD
:10002000E2CF09F0D9CF0AF0DACF0BF0F3CF12F01C
:10003000F4CF13F0FACF14F000C00EF001C00FF0AF
:1000400002C010F003C011F09DA22AEF00F09EB292
:100050007CEF01F09DAA30EF00F09EBABFEF01F0F7
:100060000EC000F00FC001F010C002F011C003F08C
:100070000CC0E9FF07C0EAFF078E08C0E1FF09C016
:10008000E2FF0AC0D9FF0BC0DAFF12C0F3FF13C0B2
:10009000F4FF14C0FAFF045006C0E0FF05C0D8FF0B
:1000A000100007AE03D0F2CF0DF0F29EF76AC40F36
:1000B000F66E000EF7220900F55007AE02D00DBE15
:1000C000F28E120000C1814001C0804101C0804118
:1000D00000C1814001C0804100C1814000C1814018
:1000E00001C0804101C0804100C1814000C1814008
:1000F00001C0804100C1814001C0804101C08041F8
:1001000000C1814001C0804100C1814000C18140E7
:1001100001C0804100C1814001C0804101C08041D7
:1001200000C1814000C1814001C0804101C08041C7
:1001300000C1814001C0804100C1814000C18140B7
:1001400001C0804101C0804100C1814000C18140A7
:1001500001C0804100C1814001C0804101C0804197
:1001600000C1814000C1814001C0804101C0804187
:1001700000C1814001C0804100C1814000C1814077
:1001800001C0804100C1814001C0804101C0804167
:1001900000C1814001C0804100C1814000C1814057
:1001A00001C0804101C0804100C1814000C1814047
:1001B00001C0804100C1814001C0804101C0804137
:1001C00000C1814007AE03D0F2CF0DF0F29EF76A76
:1001D000E60FF66E010EF7220900F55007AE02D0C9
:1001E0000DBEF28E120000C0C101C30302C2C606DA
:1001F00007C705C5C404CC0C0DCD0FCFCE0E0ACA5F
:10020000CB0BC90908C8D81819D91BDBDA1A1EDEAE
:10021000DF1FDD1D1CDC14D4D515D71716D6D2125E
:1002200013D311D1D010F03031F133F3F23236F66E
:10023000F737F53534F43CFCFD3DFF3F3EFEFA3A1E
:100240003BFB39F9F83828E8E929EB2B2AEAEE2EAE
:100250002FEF2DEDEC2CE42425E527E7E62622E21E
:10026000E323E12120E0A06061A163A3A26266A66E
:10027000A767A56564A46CACAD6DAF6F6EAEAA6ADE
:100280006BAB69A9A86878B8B979BB7B7ABABE7E2E
:100290007FBF7DBDBC7CB47475B577B7B67672B2DE
:1002A000B373B17170B0509091519353529296566E
:1002B0005797559594549C5C5D9D5F9F9E5E5A9A9E
:1002C0009B5B99595898884849894B8B8A4A4E8E2E
:1002D0008F4F8D4D4C8C448485458747468682429E
:1002E0004383418180409D9204013B5303E0CC6AEB
:1002F0009E929D820001000C1D5002080AE11E52D0
:1003000008E11F5206E11CB004D0020E215E1C80E1
:1003100001D01C90FF0E1F6E1E6E1D6A04013B6B08
:100320000001E1DF9E9230EF00F09EAAFED7ABCF36
:1003300017F0AECF01F017A202D0AB98AB88000C3B
:100340001F5004013B193C6F036A3C51F2CF3DF44E
:10035000F29E0001A6DE04013DBFF28E016E1E502A
:1003600001181F6E036A3C51F2CF3DF4F29E00016A
:1003700029DF04013DBFF28E1E6E0001000CD5DFA7
:1003800001C03AF41CB025D01D5209E1FF0E1F6ECA
:100390001E6E3AC420F01D2A216A236A12D01D2C39
:1003A00004D03AC422F01D2A0CD01D50020809E1E5
:1003B000240E2124E96EEA6AD8B0EA2A3AC4EFFF93
:1003C000212A3AC43BF4BCDF010E04013B6F00015B
:1003D0008ADF1B6A1A6A270E196E100E186E9E9A13
:1003E00030EF00F00D0A5069636B20636F6D6D6133
:1003F0006E6420746F2073656E640D0A312E205276
:1004000065616420616C6C20636F696C732E0D0AEA
:100410000000322E205265616420616C6C20696E90
:10042000707574732E0D0A332E205265616420613D
:100430006C6C20686F6C64696E67207265676973A5
:10044000746572732E0D0A00342E2052656164208B
:10045000616C6C20696E7075742072656769737465
:100460006572732E0D0A352E205475726E20636FDF
:10047000696C2036206F6E2E0D0A362E20005772C2
:100480006974652030783434343420746F20726598
:1004900067697374657220307830330D0A372E2007
:1004A000536574203820636F696C73207573696EAF
:1004B000672030783530206173206D61736B0D0AD1
:1004C0000000382E205365742032207265676973EE
:1004D0007465727320746F203078313131312C2083
:1004E0003078323232320D0A392E2053656E642054
:1004F000756E6B6E6F776E20636F6D6D616E640DE0
:100500000A00436F696C733A0D0A0000446174611C
:100510003A2000000D0A0D0A00003C2D2A2A4578D9
:1005200063657074696F6E2025582A2A2D3E0D0A66
:100530000D0A0000496E707574733A0D0A0044612B
:1005400074613A2000000D0A0D0A00003C2D2A2A91
:10055000457863657074696F6E2025582A2A2D3E90
:100560000D0A0D0A0000486F6C64696E67205265C1
:10057000676973746572733A0D0A000044617461AF
:100580003A2000000D0A0D0A00003C2D2A2A457869
:1005900063657074696F6E2025582A2A2D3E0D0AF6
:1005A0000D0A0000496E7075742052656769737496
:1005B0006572733A0D0A0000446174613A200000CC
:1005C0000D0A0D0A00003C2D2A2A457863657074D7
:1005D000696F6E2025582A2A2D3E0D0A0D0A00004B
:1005E00057726974696E672053696E676C65204342
:1005F0006F696C3A0D0A0000446174613A20000092
:100600000D0A0D0A00003C2D2A2A45786365707496
:10061000696F6E2025582A2A2D3E0D0A0D0A00000A
:1006200057726974696E672053696E676C652052F2
:10063000656769737465723A0D0A000044617461FC
:100640003A2000000D0A0D0A00003C2D2A2A4578A8
:1006500063657074696F6E2025582A2A2D3E0D0A35
:100660000D0A000057726974696E67204D756C74CD
:1006700069706C6520436F696C733A0D0A004461C0
:1006800074613A2000000D0A0D0A00003C2D2A2A50
:10069000457863657074696F6E2025582A2A2D3E4F
:1006A0000D0A0D0A000057726974696E67204D7556
:1006B0006C7469706C6520526567697374657273D8
:1006C0003A0D0A00446174613A2000000D0A0D0AD7
:1006D00000003C2D2A2A457863657074696F6E208E
:1006E00025582A2A2D3E0D0A0D0A000054727969F8
:1006F0006E6720756E6B6E6F776E2066756E6374B5
:10070000696F6E0D0A00446961676E6F7374696387
:100710003A0D0A00446174613A000D0A0D0A0000A6
:100720003C2D2A2A457863657074696F6E202558C0
:100730002A2A2D3E0D0A0D0A00000D0A496E697421
:1007400069616C697A696E672E2E2E002E2E2E72CC
:10075000656164790D0A0000040EEA6E2B0EE96EE5
:10076000EF500EE0050E016E006A002EFED7012E3E
:10077000FBD72E0E006E002EFED700D0EF2EF2D744
:10078000000C93988A98080E016E00D00000018E2C
:1007900010D0019E040132330001D8B08A88D8A05D
:1007A0008A98018C06D0019C012EF4D700D000005D
:1007B0008A88840EE96EE92EFED700D0000001BEC3
:1007C000E8D701BCF0D7000C0900F5520CE0F6CFD9
:1007D0002FF4F7CF30F4F5CF32F4D3DF2FC4F6FF88
:1007E00030C4F7FFF1D7000C9EAA02D09EDDFCD7E3
:1007F0009D8A000C94928B92F7DF200E0609CA6E38
:10080000F90ECB6EC00EF2128BEF05F0040E040150
:10081000375F0AE3040EEA6E370EE96EEF5004E02C
:1008200001D00000EF2EFDD70001000C9EA8FED7DE
:10083000AD6E1FEF04F0040136510001F7D7166AC0
:10084000F2BE168EF29E36C43BF47ADD16BEF28EF0
:100850008A0E006E002EFED70000000CFF0E1F6EE9
:100860001E6E1C909D9A94928B82020E0401366F2C
:10087000B50E376F0001CADF0401362FF9D734C433
:1008800036F40001D8DF35C436F4D5DF7FEF04F04D
:100890001FC035F41EC034F435C436F4CCDF34C484
:1008A00036F4C9DFACA2FED7020E0401366FB50ED6
:1008B000376F0001ABDF0401362FF9D7000194DF59
:1008C00094928B92FF0E1F6E1E6E94EF04F01CB07C
:1008D00004D0000E016E0AD006D022AE04D024C08F
:1008E00023F0010E216E1C90010E016E99EF04F0B1
:1008F0002FC434F4060E0401356F0001AFD731C4A4
:1009000034F431C436F497DF30C434F430C436F4F0
:1009100092DF33C434F433C436F48DDF32C434F49C
:1009200032C436F488DFB4D704012F5322E000012B
:10093000CED7015213E1FF0E1826D8A01926D8A051
:100940001A26D8A01B26185206E1195204E11A52A1
:1009500002E11B5203E000D000D0EAD7185208E1B0
:10096000195206E11A5204E11B5202E10C0E236EE9
:1009700004011B6A1A6A270E196E100E186E23C026
:1009800001F000010DEF05F0040131BF11D00F0E91
:10099000006E303900160A0E005C03E2300E0026AD
:1009A00002D03151002600C032F40001EADE040119
:1009B0000F0E30170A0E305D02E2300E02D0319F6A
:1009C0003151302730C432F40001DBDE000C090065
:1009D000F6CF30F4F7CF31F4F5CF32F4D2DE30C4B5
:1009E000F6FF31C4F7FF04012F2F01D002D0000120
:1009F000EED70001000C200EF66E060EF76EE4DE58
:100A0000010E04012F6F2CC431F42BC430F42EC41A
:100A100033F42DC432F400016BD7015229E13C0EAE
:100A2000F66E060EF76ED0DE0401236B2150235DB7
:100A300016E2240E2325E96EEA6AD8B0EA2AEFCF3F
:100A40002FF42FC430F4370E316F00019DDF200EDC
:100A50000401326F000195DE0401232BE7D7440E19
:100A6000F66E060EF76E0001AFDE8A9E939E1BD0D7
:100A70004A0EF66E060EF76E0E0E04012F6F000181
:100A8000A6DF23C030F4370E0401316F00017CDF94
:100A90005A0EF66E060EF76E080E04012F6F000157
:100AA00096DF8A8E939EA0EF05F0F86AD09E078E9F
:100AB000EA6AE96A93988A88B886A00EAF6E010E3A
:100AC000B06EA60EAC6E900EAB6E1B6A1A6A270E45
:100AD000196E100E186E1C901D6AC150C00B0F09C4
:100AE000C16E070EB46E176A04012591266B276B41
:100AF000286B296B2A6B060E2B6F00012DDEC1506F
:100B0000C00B0F09C16E8A8693963A0EF66E070ED9
:100B1000F76E5ADE6FD64C0EF66E070EF76E54DE89
:100B2000640E04012B6F000117DE04012A2B640EF2
:100B3000296F2C6B2B6F2E6B2AC42DF400015BD711
:040B4000EFD70300E8
:020000040030CA
:0E0000003802391E000180000FC00FE00F40D3
:00000001FF
;PIC18F2550
;CRC=D24D  CREATED="05-feb.-21 16:15"
