:0600000075EF2AF0000C70
:0800080053EF00F000000000BE
:100010000000000000000000046ED8CF05F0E0CF23
:1000200006F00001E9CF0CF0EACF07F0E1CF08F0CD
:10003000E2CF09F0D9CF0AF0DACF0BF0F3CF12F00C
:10004000F4CF13F0FACF14F000C00EF001C00FF09F
:1000500002C010F003C011F09DA032EF00F09EB07E
:1000600013EF02F00EC000F00FC001F010C002F05C
:1000700011C003F00CC0E9FF07C0EAFF078E08C0FB
:10008000E1FF09C0E2FF0AC0D9FF0BC0DAFF12C0CE
:10009000F3FF13C0F4FF14C0FAFF045006C0E0FFE2
:1000A00005C0D8FF1000166ED8CF17F0E0CF18F0BB
:1000B0000001E9CF1EF0EACF19F0E1CF1AF0E2CF4C
:1000C0001BF0D9CF1CF0DACF1DF0F3CF24F0F4CF22
:1000D00025F0FACF26F000C020F001C021F002C0C8
:1000E00022F003C023F0F2AA79EF00F0F2B4FAEFA5
:1000F00001F0F2A87FEF00F0F2B224EF01F020C08F
:1001000000F021C001F022C002F023C003F01EC0A5
:10011000E9FF19C0EAFF198E1AC0E1FF1BC0E2FF18
:100120001CC0D9FF1DC0DAFF24C0F3FF25C0F4FFB7
:1001300026C0FAFF165018C0E0FF17C0D8FF100005
:10014000F2CF0DF0F29CF29EF76A600FF66E010E90
:10015000F7220900F5500DBCF28C0DBEF28E120094
:10016000280C010654656D706F72697A61646F7254
:10017000205556202020200043616D62696F204386
:100180006F6E7472617365F1612020005469656D52
:10019000706F2054726162616A6F20555620200092
:1001A00050756E746F204365726F2050726573696D
:1001B0006F6E2000416C61726D6120202020202034
:1001C000202020204F464600416C61726D61202046
:1001D0002020202020202020204F4E0056656C6FCC
:1001E00063696461642020202020202020202000DA
:1001F000202020202020204D4F44554C4F202020EF
:10020000202020200000202020464C554A4F204C22
:10021000414D494E41522020202000002020202026
:100220004A502020494E474C4F42414C202020202C
:10023000000020205245463A4A5043464C564D4411
:100240003438495820200000CA83EF51130808E1D0
:10025000D76AED0ED66E8B9494948B929492C4D000
:10026000EF51120808E1D76AEA0ED66E8B94949487
:100270008B929492B9D0EF51110808E1D76AE70E3A
:10028000D66E8B9494948B929492AED0EF511008CA
:1002900008E1D76AE40ED66E8B9494948B92949274
:1002A000A3D0EF510F0808E1D76AE10ED66E8B9408
:1002B00094948B92949298D0EF510E0808E1D76AEB
:1002C000DE0ED66E8B9494948B9294928DD0EF51D7
:1002D0000D0808E1D76ADB0ED66E8B9494948B924E
:1002E000949282D0EF510C0808E1D76AD80ED66EEE
:1002F0008B9494948B92949277D0EF510B0808E1F1
:10030000D76AD50ED66E8B9494948B9294926CD0BF
:10031000EF510A0808E1D76AD20ED66E8B949494F6
:100320008B92949261D0EF51090808E1D76ACF0E01
:10033000D66E8B9494948B92949256D0EF51080879
:1003400008E1D76ACC0ED66E8B9494948B929492DB
:100350004BD0EF51070808E1D76AC90ED66E8B94CF
:1003600094948B92949240D0EF51060808E1D76A9A
:10037000C60ED66E8B9494948B92949235D0EF5196
:10038000050808E1D76AC30ED66E8B9494948B92BD
:1003900094922AD0EF51040808E1D76AC00ED66EB5
:1003A0008B9494948B9294921FD0EF51030808E1A0
:1003B000D76ABD0ED66E8B9494948B92949214D07F
:1003C000EF51020808E1D76ABA0ED66E8B94949466
:1003D0008B92949209D0EF2D07D0D76AB70ED66EC4
:1003E0008B9494948B929492CB2BD8B4CC2BF29286
:1003F0007FEF00F0EF5314E0EF51130811E3CAA3AD
:1004000009D08B8494948B829492D76AFD0ED66E19
:10041000CA9306D08B9494948B929492D76AD66A9E
:10042000F2947FEF00F09E0ECF6E580ECE6E5A2AD9
:10043000D8B45B2A928A80BA04D0CD2BD8B4CE2B04
:1004400002D0CE6BCD6B968084B004D0CF2BD8B4C5
:10045000D02B02D0D06BCF6B968284B204D0D12B3C
:10046000D8B4D22B02D0D26BD16B968484B404D092
:10047000D32BD8B4D42B02D0D46BD36B5B5203E113
:100480005A50C70836E2929689765B6A5A6A422ABF
:100490002A80542C0AD02AB603D08B90949004D092
:1004A0002AA802D08B8094902A7629A40BD0D52B31
:1004B000D8B4D62B615206E160503B0803E3602AB2
:1004C000D8B4612A29A015D0342A29BE12D03B52B3
:1004D00002E03B060ED03A5204E03A063B0E3B6E79
:1004E00008D0298E29908A8893983CC03AF03DC064
:1004F0003BF09E9032EF00F043617267616E646F73
:100500002E2E2E2E2E00416A757374652064652090
:10051000506172616D6574726F730000202020203D
:1005200020202020202020202020202020202020CB
:10053000000020202020416C6D6163656E616E6457
:100540006F202020202020002020202020506172B9
:10055000616D6574726F73202020202000002020C0
:10056000202020202020202020202020202020208B
:1005700020200000496E696369616C202020566567
:100580006E74696C61646F72000020202020205618
:10059000656C3A2025303275202020202020200054
:1005A00050726573696F6E2041746D6F736665720A
:1005B000696361200000202020202050723A20250D
:1005C000322E30662020202020202000416A7573C2
:1005D00074652053656E736F7220466C756A6F2068
:1005E0000000202020416A757374653A2025322E60
:1005F000316620202020200050756E746F204365E6
:10060000726F20466C756A6F202020202000202009
:10061000204365726F3A2025322E3066202020203C
:10062000200048756D656461642052656C61746971
:100630007661202020202000202020202048523ACF
:100640002025322E30662025252020202000202045
:10065000202020204D65646961204D6F76696C20F3
:1006600020202000202020204D656469613A20254B
:10067000303275202020200020205469656D706F75
:100680002064652054726162616A6F20200020201E
:10069000205469656D706F3D202530354C752020E4
:1006A00020002052455345543D204F7072696D61C2
:1006B000203C20002020202020202020202020203E
:1006C000202020202020202000002020426F727255
:1006D000616E646F20205469656D706F202000008A
:1006E0002020202064652054726162616A6F20209E
:1006F000202020200000202020202020202020203A
:100700002020202020202020202000002020202029
:1007100020496E67726573652020202020202020EC
:10072000000020202020436F6E7472617365F161B8
:10073000202020202020000020202020434C415653
:10074000453D25692569256925692020000020206F
:100750002020202020202020202020202020202099
:1007600020002020202020436F6E7472617365F199
:10077000612020202000202020202020436F727242
:10078000656374612020202020002020202020206C
:100790002020202020202020202020202000202079
:1007A000202020436F6E7472617365F161202020F8
:1007B00020002020202020496E636F7272656374D0
:1007C0006120202020002020202020202020202008
:1007D000202020202020202020002D2D2D4D454E92
:1007E00055205052494E434950414C2D2D2D00006B
:1007F0002020202054656D706F72697A61646F7279
:10080000202020202000202020202020204C757A2D
:100810002055562020202020202020002530337510
:100820003A2530327520284D3A532920200054694A
:10083000656D706F20416C6D6163656E61646F0002
:100840002020436F7272656374616D656E746520FC
:1008500020002020202020496E67726573652020CB
:10086000202020202020000020202020436F6E74B4
:1008700072617365F161202020202020000020207B
:100880002020434C4156453D256925692569256948
:100890002020000020202020202020202020202098
:1008A0002020202020202020000020202020204365
:1008B0006F6E7472617365F161202020202000004A
:1008C000202020202020436F7272656374612020F5
:1008D0002020202000002020202020202020202058
:1008E0002020202020202020202000002020202048
:1008F00020202020202020202020202020202020F8
:1009000000002020202020436F6E7472617365F117
:1009100061202020202000002020202020496E631C
:100920006F727265637461202020202000002020F7
:1009300020202020202020202020202020202020B7
:1009400020200000202020496E6772657365204ECC
:100950007565766120202020000020202020204383
:100960006F6E7472617365F1612020202020000099
:1009700020202020434C4156453D256925692569A5
:100980002569202000002020202020202020202059
:100990002020202020202020202000002020202097
:1009A00020436F6E7472617365F1612020202020F6
:1009B00000002020202020416C6D6163656E616421
:1009C0006120202020200000202020202020202026
:1009D0002020202020202020202020200000202057
:1009E0004475726163696F6E2041637475616C2038
:1009F000202000002020205469656D706F3D202567
:100A000030354C75202020002052455345543D2060
:100A10004F7072696D61205E2079203E2000205267
:100A200065736574206465207469656D706F20005E
:100A30002020202020457869746F736F20202020AB
:100A4000200020205A65726F20506F696E74204319
:100A50006F6E66696720000050726573696F6E3D46
:100A60002025332E326620696E48324F2000202028
:100A700020204144433D25322E3066002020202096
:100A80005A463D25322E30660000202020202020AE
:100A90002020202020202020202020202020000096
:100AA000202020202020202041637469766F2020A0
:100AB0002020202000002020202020202020416C09
:100AC00061726D6120202020202000002020202045
:100AD0002020202020202020202020202020202016
:100AE0000000202020202020202020202020202046
:100AF00020202020202000002020202020204465CD
:100B00007361637469766F2020202020000020200C
:100B10002020202020416C61726D61202020202047
:100B20002020000020202020202020202020202005
:100B30002020202020202020000053656C65636366
:100B4000696F6E652056656C6F636964616400004F
:100B500020202064656C2056656E74696C61646F3A
:100B6000722020200000202020202056656C3A2092
:100B70002530327520202020202020002020202019
:100B80002020202020202020202020202020202065
:100B90000000202020202020202020202020202095
:100BA0002020202020200000202020202056656CBE
:100BB0006F636964616420202020202000002020D1
:100BC00020202020416C6D6163656E61646120208E
:100BD0002020000020202020202020202020202055
:100BE00020202020202020200000215665726966E8
:100BF0006971756520466C756A6F21202000215649
:100C000065726966697175652046696C74726F21D9
:100C1000000046696C74726F3A00463A25322E32F3
:100C2000666D2F7320503A25332E3266696E574316
:100C3000000054656D706F3A253033753A253032B7
:100C400075004D6F746F723A4F4E20004D6F746F88
:100C5000723A4F4646004C757A3A4F4E20004C751A
:100C60007A3A4F46460055563A4F4E2000005556A8
:100C70003A4F46460000202054656D706F72697AC5
:100C800061646F722020646520200000204C757A1A
:100C9000205556202046696E616C697A61646F2028
:100CA0000000202020202020202020202020202084
:100CB0002020202020200000202020202020202074
:100CC0002020202020202020202020200000080E8E
:100CD000EA6E060EE96EEF500DE0060E016E006A38
:100CE000002EFED7012EFBD77B0E006E002EFED706
:100CF000EF2EF3D7000C08010739F00B006E0F0E32
:100D000083140010836E090E006E002EFED700D0F3
:100D100083865B0E006E002EFED7000083960001D6
:100D2000000C8392010E0801066F0001D0DF08015C
:100D300004A1839204B18382090E006E002EFED7B7
:100D400000D08394090E006E002EFED700D083964B
:100D50000539066F0F0E061706C807F80001CBDF2E
:100D6000080105510F0B066F076F0001C4DF000C6F
:100D7000000E956E8392839483960F0E0801066F82
:100D80000001A5DF010E0701EF6FEF5103080DE32E
:100D9000030E0801076F0001AEDF050E0801066FA4
:100DA000000195DF0701EF2BF0D7020E0801076F56
:100DB0000001A1DF0701EF6BEF51030817E3036A9E
:100DC000EF51F2CFF0F7F29CF29E0001A0EC00F0A0
:100DD0000701F0BDF28CF0BFF28EF06F0801046BDA
:100DE000056F00019EDF0701EF2BE6D70001000C25
:100DF000C80E0801066F00016ADFBADFFF0E926EAF
:100E00009682968296829682C00EF212F288F18CB9
:100E1000C70ED56EF28A850ECD6E9D80C150C00B77
:100E20000E09C16EC050C00B0209C06EC08EC280D8
:100E3000C00EF21272EF2BF08E0E006E45C801F05C
:100E400044C802F0036A015209E102C001F0026ADB
:100E5000080E005E015202E1006A08D0D89001BE7F
:100E600004D0023601360006F9D7019E000C0801B5
:100E70004051D8B4A5D04C6F4451D8B4A1D04C5FE8
:100E800005E37F0E4C27D8B09BD006D0810E4C5F77
:100E9000D8A096D0D8B494D04CC800F0016A026AA9
:100EA000036A4B6B41C84AF84A8F42C849F843C8A5
:100EB00048F8190E4C6F4751485F0DE2010E495F2B
:100EC0000AE24A5F08E24B5F06E24B2B4A2B492BB2
:100ED0004751482728D04651495F12E2010E4A5F28
:100EE0000FE24B5F0DE24B2B4A2B465149274751EE
:100EF000482719E3492B17E14A2B15E14B2B13D057
:100F0000455180094A5F0EE2010E4B5F0BE24B2B0D
:100F1000455180094A2746514927E9E34A2BE7E131
:100F20004B2BE5D703804C2F01D00BD0D8904837FE
:100F300049374A374B37D8900336023601364D379A
:100F4000BAD74DA106D0D8900132023203324D33C8
:100F500002D0000635E04DBF1ED0D8904837493743
:100F60004A374B374751485F07E2010E495F04E2B9
:100F70004A5F02E24B5F1AE34651495F05E2010E08
:100F80004A5F02E24B5F12E3455180094A5F03E288
:100F9000010E4B5F0BE3032A09E1022A07E1012A54
:100FA00005E1002A0DE001320232033241C84CF85B
:100FB00045514C1B4CAF02D0018E06D0019E04D08F
:100FC000006A016A026A036A0001000C800ED8A25E
:100FD00002D00801491B08014E6B4F6B45C84DF804
:100FE00049514D1B4451D8B4DFD04C6F006E48516D
:100FF000D8B4E3D04C5FD8B483D03EE349C852F8AC
:10100000528F4AC851F84BC850F84F6BD8905233A2
:10101000513350334F334C2FF8D74DAF03D04E815F
:10102000E0D04E914C914E89080EEA6E470EE96E63
:10103000EBD04E994DBF0AD04CA113D0523351334F
:1010400050334F33002AD8B4C7D00BD052BF0CD086
:10105000D8904F375037513752370006D8B4BCD0EC
:10106000F5D74E8D6DD04E9D45C84DF845AF02D099
:10107000528FABD0529FA9D048C84CF848C800F056
:1010800044514C5F45C852F8528F46C851F847C882
:1010900050F84F6BD8905233513350334F334C2F5D
:1010A000F8D74DAF03D04E839CD04E934C914E8BCE
:1010B000080EEA6E4B0EE96EA7D04E9B4DBF0AD0CC
:1010C0004CA113D05233513350334F33002AD8B48C
:1010D00083D00BD052BF0CD0D8904F3750375137F8
:1010E00052370006D8B478D0F5D74E8F29D04E9F0E
:1010F00049C84DF849AF02D0528F67D0529F65D092
:1011000049C852F8528F4AC851F84BC850F84DAFF1
:1011100004D0529F4E8565D04E954F6B4C91080E72
:10112000EA6E470EE96E70D04DBF1CD045C84DF831
:101130004CA106D05233513350334F33002A4CE088
:101140004FAF0BD0502B09E1512B07E1522B05E19A
:10115000523351335033002A3FE04EBD84D74EBF47
:10116000C6D71CD0800E521B52AF04D03AD049C80B
:101170004DF80AD045C84DF8525306E1515304E1E9
:10118000505302E1006A21D052BF08D0D8904F37A7
:10119000503751375237002EF7D71ED04DAF02D0FF
:1011A000528F13D0529F11D048C800F049C852F84E
:1011B0004AC851F84BC850F808D044C800F045C898
:1011C00052F846C851F847C850F852C801F051C803
:1011D00002F050C803F034D0006A016A026A036A60
:1011E0002FD04F6B501F511F521F4F1F4F2B05E128
:1011F000502B03E1512B01E1522B4EB112D74EB3CC
:1012000054D74EB589D7B3D7EF50502705E3512BAC
:1012100003E1522BD8B44C81ED52EF50512703E338
:10122000522BD8B44C81ED52EF50EFBE01D0800A62
:101230005227D8B04C814EB9FCD64EBB3ED774D79E
:101240000001000CF2CFEFF7F29CF29EAA6AA96AA5
:10125000A69CA69EA680A8500701EFBDF28CEFBF0A
:10126000F28E506E140E0801066F000130DDF2CFD1
:10127000EFF7F29CF29EAA6A010EA96EA69CA69EAA
:10128000A680A8500701EFBDF28CEFBFF28E516E21
:10129000140E0801066F00011ADDF2CFEFF7F29C81
:1012A000F29EAA6A020EA96EA69CA69EA680A850CF
:1012B0000701EFBDF28CEFBFF28E526E140E0801E3
:1012C000066F000104DDF2CFEFF7F29CF29EAA6AEE
:1012D000030EA96EA69CA69EA680A8500701EFBD8E
:1012E000F28CEFBFF28E536E140E0801066F0001F0
:1012F000EEDCF2CFEFF7F29CF29EAA6A040EA96E22
:10130000A69CA69EA680A8500701EFBDF28CEFBF59
:10131000F28E016E2A9801B02A88140E0801066F19
:101320000001D5DCF2CFEFF7F29CF29EAA6A050E1F
:10133000A96EA69CA69EA680A8500701EFBDF28CC0
:10134000EFBFF28E3A6E140E0801066F0001BFDC8B
:10135000F2CFEFF7F29CF29EAA6A060EA96EA69C47
:10136000A69EA680A8500701EFBDF28CEFBFF28EBB
:101370003B6E140E0801066F0001A9DCF2CFEFF7F7
:10138000F29CF29EAA6A070EA96EA69CA69EA68053
:10139000A8500701EFBDF28CEFBFF28E346E140E31
:1013A0000801066F000193DCF2CFEFF7F29CF29E8A
:1013B000AA6A080EA96EA69CA69EA680A850070140
:1013C000EFBDF28CEFBFF28E356E140E0801066F82
:1013D00000017DDCF2CFEFF7F29CF29EAA6A090EC3
:1013E000A96EA69CA69EA680A8500701EFBDF28C10
:1013F000EFBFF28E366E140E0801066F000167DC37
:10140000F2CFEFF7F29CF29EAA6A0A0EA96EA69C92
:10141000A69EA680A8500701EFBDF28CEFBFF28E0A
:10142000376E140E0801066F000151DCF2CFEFF7A2
:10143000F29CF29EAA6A0B0EA96EA69CA69EA6809E
:10144000A8500701EFBDF28CEFBFF28E386E140E7C
:101450000801066F00013BDCF2CFEFF7F29CF29E31
:10146000AA6A0C0EA96EA69CA69EA680A85007018B
:10147000EFBDF28CEFBFF28E396E140E0801066FCD
:10148000000125DCF2CFEFF7F29CF29EAA6A0D0E66
:10149000A96EA69CA69EA680A8500701EFBDF28C5F
:1014A000EFBFF28E586E140E0801066F00010FDCBC
:1014B000F2CFEFF7F29CF29EAA6A0F0EA96EA69CDD
:1014C000A69EA680A8500701EFBDF28CEFBFF28E5A
:1014D000556E140E0801066F000167EC06F0F2CF9E
:1014E000EFF7F29CF29EAA6A100EA96EA69CA69E29
:1014F000A680A8500701EFBDF28CEFBFF28E566EAA
:10150000140E0801066F000167EC06F0F2CFEFF74A
:10151000F29CF29EAA6A110EA96EA69CA69EA680B7
:10152000A8500701EFBDF28CEFBFF28E576E140E7C
:101530000801066F000167EC06F039C05FF038C0A3
:101540005EF05FC045F85EC044F876DC03C0C9F0C9
:1015500002C0C8F001C0C7F000C0C6F0F2CFEFF77C
:10156000F29CF29EAA6A130EA96EA69CA69EA68065
:10157000A8500701EFBDF28CEFBFF28EF06FF2CFF3
:10158000F1F7F29CF29EAA6A120EA96EA69CA69E84
:10159000A680A850F1BDF28CF1BFF28EF26FF0C7B9
:1015A000D8F0F2C7D7F0140E0801066F000167ECFF
:1015B00006F0F2CFEFF7F29CF29EAA6A150EA96E22
:1015C000A69CA69EA680A8500701EFBDF28CEFBF97
:1015D000F28EF06FF2CFF1F7F29CF29EAA6A140E2F
:1015E000A96EA69CA69EA680A850F1BDF28CF1BF64
:1015F000F28EF26FF0C7D6F0F2C7D5F0140E0801E4
:10160000066F000167EC06F0F2CFEFF7F29CF29E56
:10161000AA6A160EA96EA69CA69EA680A8500701CF
:10162000EFBDF28CEFBFF28E446E140E0801066F10
:10163000000167EC06F0F2CFEFF7F29CF29EAA6A87
:10164000170EA96EA69CA69EA680A8500701EFBD06
:10165000F28CEFBFF28E456E140E0801066F00018A
:1016600067EC06F0F2CFEFF7F29CF29EAA6A180E32
:10167000A96EA69CA69EA680A8500701EFBDF28C7D
:10168000EFBFF28E466E140E0801066F000167EC84
:1016900006F00A0E0801066F000167EC06F0F2CFB3
:1016A000EFF7F29CF29EAA6A190EA96EA69CA69E5E
:1016B000A680A8500701EFBDF28CEFBFF28E0001AB
:1016C000F06F0A0E0801066F000167EC06F0F2CF1A
:1016D000EFF7F29CF29EAA6A1A0EA96EA69CA69E2D
:1016E000A680A8500701EFBDF28CEFBFF28E080173
:1016F000456B446F00011CEC07F003C021F102C0F0
:1017000020F101C01FF100C01EF10A0E0801066F92
:10171000000167EC06F021C143F820C142F81FC167
:1017200041F81EC140F80801476B466B480E456FF3
:10173000850E446F000137EC07F003C021F102C0B1
:1017400020F101C01FF100C01EF10801456BF0C07F
:1017500044F800011CEC07F0D89203C047F802C01F
:1017600046F801C045F800C044F821C14BF820C13B
:101770004AF81FC149F81EC148F828DC03C0A3F28B
:1017800002C0A2F201C0A1F200C0A0F20A0E08013C
:10179000066F000167EC06F0F2CFEFF7F29CF29EC5
:1017A000AA6A1C0EA96EA69CA69EA680A850070138
:1017B000EFBDF28CEFBFF28EF06FF2CFF1F7F29C3B
:1017C000F29EAA6A1B0EA96EA69CA69EA680A85091
:1017D000F1BDF28CF1BFF28EF26FF0C703F0F2515F
:1017E0000801446F03C045F800011CEC07F003C07A
:1017F0008EF202C08DF201C08CF200C08BF20A0E94
:101800000801066F000167EC06F0F2CFEFF7F29CDB
:10181000F29EAA6A1D0EA96EA69CA69EA680A8503E
:101820000701EFBDF28CEFBFF28E0801456B446FEC
:1018300000011CEC07F003C01DF102C01CF101C047
:101840001BF100C01AF10A0E0801066F000167ECD7
:1018500006F0F2CFEFF7F29CF29EAA6A1E0EA96E76
:10186000A69CA69EA680A8500701EFBDF28CEFBFF4
:10187000F28E0801456B446F00011CEC07F003C0B9
:1018800025F102C024F101C023F100C022F10A0EAB
:101890000801066F000167EC06F0F2CFEFF7F29C4B
:1018A000F29EAA6A1F0EA96EA69CA69EA680A850AC
:1018B0000701EFBDF28CEFBFF28E596E0A0E0801E0
:1018C000066F000167EC06F037C05DF036C05CF0D3
:1018D0003AC03CF03BC03DF074EF2BF041C848F8F3
:1018E00008014551481B48AF05D0D894D89041BF56
:1018F000D8802FD041C848F844C849F84051495FC2
:1019000006E048AF26D0D850010AD86E22D045C88C
:1019100049F84151495F06E048AF1BD0D850010A51
:10192000D86E17D046C849F84251495F06E048AF23
:1019300010D0D850010AD86E0CD047C849F843518E
:10194000495F06E048AF05D0D850010AD86E01D0F3
:10195000D8900001000C50BE03D05050090803E39A
:1019600050BE01D01CD0506AAA6AA96AA86AA69C77
:10197000A69EA684F250006EF29CF29E0F01550EB8
:10198000A76EAA0EA76EA682A6B2FED7A694005096
:10199000F212140E0801066F000167EC06F051BE4A
:1019A00003D05150090803E351BE01D01DD0516A44
:1019B000AA6A010EA96EA86AA69CA69EA684F250E9
:1019C000006EF29CF29E0F01550EA76EAA0EA76E36
:1019D000A682A6B2FED7A6940050F212140E0801F9
:1019E000066F000167EC06F052BE03D052500908A2
:1019F00003E352BE01D01DD0526AAA6A020EA96E3C
:101A0000A86AA69CA69EA684F250006EF29CF29E46
:101A10000F01550EA76EAA0EA76EA682A6B2FED71C
:101A2000A6940050F212140E0801066F000167EC34
:101A300006F053BE03D05350090803E353BE01D050
:101A40001DD0536AAA6A030EA96EA86AA69CA69E18
:101A5000A684F250006EF29CF29E0F01550EA76E06
:101A6000AA0EA76EA682A6B2FED7A6940050F212C6
:101A7000140E0801066F000167EC06F0000E2AB88C
:101A8000010E01081EE22A88AA6A040EA96E010E40
:101A9000A86EA69CA69EA684F250006EF29CF29EB2
:101AA0000F01550EA76EAA0EA76EA682A6B2FED78C
:101AB000A6940050F212140E0801066F000167ECA4
:101AC00006F03A50C8081FE2140E3A6EAA6A050ED4
:101AD000A96E140EA86EA69CA69EA684F250006E57
:101AE000F29CF29E0F01550EA76EAA0EA76EA6825B
:101AF000A6B2FED7A6940050F212140E0801066F8B
:101B0000000167EC06F03B503B081DE23B6AAA6A05
:101B1000060EA96EA86AA69CA69EA684F250006E28
:101B2000F29CF29E0F01550EA76EAA0EA76EA6821A
:101B3000A6B2FED7A6940050F212140E0801066F4A
:101B4000000167EC06F034503C081DE2346AAA6AD2
:101B5000070EA96EA86AA69CA69EA684F250006EE7
:101B6000F29CF29E0F01550EA76EAA0EA76EA682DA
:101B7000A6B2FED7A6940050F212140E0801066F0A
:101B8000000167EC06F035503C081DE2356AAA6A90
:101B9000080EA96EA86AA69CA69EA684F250006EA6
:101BA000F29CF29E0F01550EA76EAA0EA76EA6829A
:101BB000A6B2FED7A6940050F212140E0801066FCA
:101BC000000167EC06F05D50260840E2FF0A03E1E1
:101BD0005C5010083BE25D6A5C6AAA6A090EA96E55
:101BE0000A0EA86EA69CA69EA684F250006EF29CD9
:101BF000F29E0F01550EA76EAA0EA76EA682A6B280
:101C0000FED7A6940050F212140E0801066F0001D0
:101C100067EC06F0AA6A0A0EA96EA86AA69CA69EA0
:101C2000A684F250006EF29CF29E0F01550EA76E34
:101C3000AA0EA76EA682A6B2FED7A6940050F212F4
:101C4000140E0801066F000167EC06F0C9C043F8E6
:101C5000C8C042F8C7C041F8C6C040F80801476B89
:101C6000466B160E456F860E446F000137DE12E29A
:101C70000801436B426B160E416F870E406FC9C05F
:101C800047F8C8C046F8C7C045F8C6C044F80001C8
:101C900025DE3FE3C96BC86B5C0EC76F860EC66F4F
:101CA000AA6A0B0EA96EDC0EA86EA69CA69EA68440
:101CB000F250006EF29CF29E0F01550EA76EAA0E16
:101CC000A76EA682A6B2FED7A6940050F212140EFA
:101CD0000801066F000167EC06F0AA6A0C0EA96EF7
:101CE000A86AA69CA69EA684F250006EF29CF29E64
:101CF0000F01550EA76EAA0EA76EA682A6B2FED73A
:101D0000A6940050F212140E0801066F000167EC51
:101D100006F05850140802E358521FE10A0E586E9C
:101D2000AA6A0D0EA96E0A0EA86EA69CA69EA6848F
:101D3000F250006EF29CF29E0F01550EA76EAA0E95
:101D4000A76EA682A6B2FED7A6940050F212140E79
:101D50000801066F000167EC06F0D851E9083FE280
:101D6000FF0A03E1D75160083AE2D86BD76BAA6A41
:101D7000130EA96EA86AA69CA69EA684F250006EB9
:101D8000F29CF29E0F01550EA76EAA0EA76EA682B8
:101D9000A6B2FED7A6940050F212140E0801066FE8
:101DA000000167EC06F0AA6A120EA96EA86AA69C4A
:101DB000A69EA684F250006EF29CF29E0F01550E74
:101DC000A76EAA0EA76EA682A6B2FED7A694005052
:101DD000F212140E0801066F000167EC06F0D651EE
:101DE0000D083FE2FF0A03E1D55110083AE2D66B35
:101DF000D56BAA6A140EA96EA86AA69CA69EA68494
:101E0000F250006EF29CF29E0F01550EA76EAA0EC4
:101E1000A76EA682A6B2FED7A6940050F212140EA8
:101E20000801066F000167EC06F0AA6A150EA96E9C
:101E3000A86AA69CA69EA684F250006EF29CF29E12
:101E40000F01550EA76EAA0EA76EA682A6B2FED7E8
:101E5000A6940050F212140E0801066F000167EC00
:101E600006F0445001081FE2010E446EAA6A160EE5
:101E7000A96E010EA86EA69CA69EA684F250006EC6
:101E8000F29CF29E0F01550EA76EAA0EA76EA682B7
:101E9000A6B2FED7A6940050F212140E0801066FE7
:101EA000000167EC06F0455001081FE2010E456E87
:101EB000AA6A170EA96E010EA86EA69CA69EA684FD
:101EC000F250006EF29CF29E0F01550EA76EAA0E04
:101ED000A76EA682A6B2FED7A6940050F212140EE8
:101EE0000801066F000167EC06F046500F081FE27C
:101EF0000A0E466EAA6A180EA96E0A0EA86EA69C55
:101F0000A69EA684F250006EF29CF29E0F01550E22
:101F1000A76EAA0EA76EA682A6B2FED7A694005000
:101F2000F212140E0801066F000167EC06F00801BA
:101F3000436B426B200E416F820E406FA3C247F885
:101F4000A2C246F8A1C245F8A0C244F80001C6DC0E
:101F500010E2A3C243F8A2C242F8A1C241F8A0C253
:101F600040F80801476B466B456B446B0001B6DCDB
:101F700034E10201A36BA26B400EA16F7F0EA06F34
:101F8000AA6A190EA96E010EA86EA69CA69EA6842A
:101F9000F250006EF29CF29E0F01550EA76EAA0E33
:101FA000A76EA682A6B2FED7A6940050F212AA6A25
:101FB0001A0EA96E320EA86EA69CA69EA684F2509A
:101FC000006EF29CF29E550EA76EAA0EA76EA68218
:101FD000A6B2FED7A6940050F2120801436B426BE2
:101FE0000C0E416F870E406F8EC247F88DC246F8C7
:101FF0008CC245F88BC244F8000170DC12E28EC23C
:1020000043F88DC242F88CC241F88BC240F80801F7
:10201000476B466B340E456F860E446F00015EDCE5
:1020200033E302018E6B8D6B4B0E8C6F860E8B6FC4
:10203000AA6A1B0EA96ECB0EA86EA69CA69EA684AD
:10204000F250006EF29CF29E0F01550EA76EAA0E82
:10205000A76EA682A6B2FED7A6940050F212AA6A74
:102060001C0EA96EA86AA69CA69EA684F250006EBD
:10207000F29CF29E550EA76EAA0EA76EA682A6B27D
:10208000FED7A6940050F2120801436B426B5C0E1F
:10209000416F850E406F1DC147F81CC146F81BC13A
:1020A00045F81AC144F8000119DC12E21DC143F8D9
:1020B0001CC142F81BC141F81AC140F80801476B26
:1020C000466B700E456F840E446F000107DC1EE303
:1020D00001011D6B1C6B0E0E1B6F850E1A6FAA6A19
:1020E0001D0EA96E470EA86EA69CA69EA684F25051
:1020F000006EF29CF29E0F01550EA76EAA0EA76EFF
:10210000A682A6B2FED7A6940050F2120801436B35
:10211000426B480E416F850E406F25C147F824C1C0
:1021200046F823C145F822C144F800016EEC0CF0DA
:1021300013E225C143F824C142F823C141F822C16A
:1021400040F80801476B466B200E456F830E446FC5
:1021500000016EEC0CF01FE30101256B246B700E87
:10216000236F840E226FAA6A1E0EA96E3C0EA86E03
:10217000A69CA69EA684F250006EF29CF29E0F01D1
:10218000550EA76EAA0EA76EA682A6B2FED7A6947B
:102190000050F21200015950500803E35950090849
:1021A00019E3280E596EAA6A1F0EA96E280EA86E92
:1021B000A69CA69EA684F250006EF29CF29E0F0191
:1021C000550EA76EAA0EA76EA682A6B2FED7A6943B
:1021D0000050F212000176EF2BF0010E0801025DB3
:1021E000FC0F15E2040F000111EF11F0800E080141
:1021F000036F0DD0C00E0801036F09D0940E0801C3
:10220000036F05D0D40E0801036F01D00801010E41
:10221000015D0327046B03C805F8000191EC06F08B
:10222000000CF2CF0DF0F29CF29EE824F76AF7362C
:102230004D0FF66E220EF7220A00F550FA6E0800D6
:10224000F5500DBCF28C0DBEF28EF96EEC21F4212E
:10225000FC21042208010051F10802E1EE0E006F9A
:102260000051D10802E1FF0E006F00510C0A00017D
:1022700005E0060A13E0020A1AE021D00801046B07
:10228000010E056F000191EC06F0010E286E020EA2
:102290000801066F000167EC06F01AD0282A010E2B
:1022A0000801016F28C002F8000197DF11D0080172
:1022B000046B100E056F000191EC06F009D0010EC1
:1022C0000801046F00C805F8000191EC06F000D089
:1022D000000C0900F5520CE0F6CFF2F7F7CFF3F758
:1022E000F5CF00F8B7DFF2C7F6FFF3C7F7FFF1D776
:1022F000000C010E0801016F026F00016EDFF00E8D
:10230000F66E010EF76EE5DF010E0801016F020E99
:10231000026F000162DF060EF66E020EF76ED9DF65
:10232000010E0801016F030E026F000156DF1C0E43
:10233000F66E020EF76ECDDF010E0801016F040E7E
:10234000026F00014ADF320EF66E020EF76EC1DF39
:10235000080E0701EF6FFA0E0801066F000167EC27
:1023600006F00701EF2FF7D70C0E0801006F0001F0
:1023700071DF7BEF2BF008014051D8B471D0006EB3
:102380004451D8B46DD0002604E3810E002668E2E3
:1023900004D07F0E005E64E363E041C848F8455115
:1023A000481B418F458F43514703F4CF4AF84251B0
:1023B0004603F4CF03F0F3CF49F84703F3504A271D
:1023C000F4504923000E032243514603F3504A2799
:1023D000F4504923000E026A0322022241514703AE
:1023E000F3504927F4500322000E022241514603C4
:1023F000F3500326F4500222000E016A01224351D9
:102400004503F3504927F4500322000E0222012213
:1024100042514503F3500326F4500222000E0122DC
:1024200041514503F3500226F4500122002A01BE17
:1024300005D049370336023601360006000E49AF93
:102440000AD0032A02220122015005E1025003E1D1
:10245000035001E1002A48BF018E48AF019E04D01D
:10246000006A016A026A036A0001000C8E0E006EA7
:1024700008014051005E41C802F042C801F0028EDE
:10248000005209E0D890025202E1015204E0023207
:102490000132002EF7D741AF05D0011E021E012ADE
:1024A000D8B4022A0001000C08013F9133C838F863
:1024B00032C837F831C836F830C835F833C843F871
:1024C00032C842F831C841F830C840F8476B466B13
:1024D000456B446B00016EEC0CF005E308013F8195
:1024E0003651800A366F38C843F837C842F836C8C4
:1024F00041F835C840F80801476B466B456B8E0EB6
:10250000446F00016EEC0CF001E218E138C843F8AA
:1025100037C842F836C841F835C840F8A7DF02C0CE
:1025200045F801C044F81CEC07F003C03CF802C0B9
:102530003BF801C03AF800C039F8CFD038C843F8AA
:1025400037C842F836C841F835C840F8800E08014F
:10255000476F960E466F180E456F960E446F00013A
:102560006EEC0CF0D8A0B1D038C843F837C842F8A8
:1025700036C841F835C840F80801476B466B456BD3
:102580008E0E446F000137EC07F003C043F802C021
:1025900042F801C041F800C040F868DF02C03EF8D0
:1025A00001C03DF838C843F837C842F836C841F88A
:1025B00035C840F80801476B466B456B8E0E446F7B
:1025C000000137EC07F000C040F801C041F802C03C
:1025D00042F803C043F83EC845F83DC844F81CEC37
:1025E00007F0D88243C847F842C846F841C845F8C2
:1025F00040C844F803C04BF802C04AF801C049F88B
:1026000000C048F8E6EC07F00801436B426B416BF1
:102610008E0E406F03C047F802C046F801C045F86F
:1026200000C044F80001A7DE03C038F802C037F844
:1026300001C036F800C035F83EC845F83DC844F83A
:102640001CEC07F00801436B426B416B8E0E406F30
:1026500003C047F802C046F801C045F800C044F87E
:10266000000189DE03C03CF802C03BF801C03AF823
:1026700000C039F838C843F837C842F836C841F8BE
:1026800035C840F8F3DE02C045F801C044F81CEC40
:1026900007F0D8923CC847F83BC846F83AC845F816
:1026A00039C844F803C04BF802C04AF801C049F8E1
:1026B00000C048F8E6EC07F003C03CF802C03BF865
:1026C00001C03AF800C039F808D038C83CF837C81B
:1026D0003BF836C83AF835C839F838C843F837C82F
:1026E00042F836C841F835C840F8C0DE02C045F8A7
:1026F00001C044F81CEC07F0D88238C847F837C846
:1027000046F836C845F835C844F803C04BF802C04F
:102710004AF801C049F800C048F8E6EC07F003C0E9
:1027200038F802C037F801C036F800C035F80801A3
:102730003FA103D03A51800A3A6F38C843F837C8EE
:1027400042F836C841F835C840F8476B466B456BD0
:10275000446B00016EEC0CF03CE008013FA11CD082
:1027600034531AE1D8823CC847F83BC846F83AC807
:1027700045F839C844F84B6B4A6B496B7F0E486F7C
:102780000001E6EC07F003C03CF802C03BF801C0D2
:102790003AF800C039F808013FB11CD0342D1AD0E6
:1027A000D8923CC847F83BC846F83AC845F839C8FB
:1027B00044F84B6B4A6B496B7F0E486F0001E6ECA7
:1027C00007F003C03CF802C03BF801C03AF800C073
:1027D00039F8080133C843F832C842F831C841F823
:1027E00030C840F8476B466B456B446B00016EEC9C
:1027F0000CF006E108013C6B3B6B3A6B396B000156
:1028000039C800F03AC801F03BC802F03CC803F0F8
:10281000000C2FC833F82EC832F82DC831F82CC858
:1028200030F8010E0801346F00013EDE85EF14F030
:102830002FC833F82EC832F82DC831F82CC830F81C
:102840000801346B000130DE000C23C843F822C8B5
:1028500042F821C841F820C840F80801476B466B90
:10286000456B446B00016EEC0CF0D8B4A0D01FC8CF
:1028700043F81EC842F81DC841F81CC840F823C8D8
:1028800047F822C846F821C845F820C844F837EC74
:1028900007F000C028F801C029F802C02AF803C0D8
:1028A0002BF803C043F802C042F801C041F800C051
:1028B00040F80801476B466B456B446B00016EECBA
:1028C0000CF024E31FC843F81EC842F81DC841F8A5
:1028D0001CC840F823C847F822C846F821C845F864
:1028E00020C844F837EC07F000C028F801C029F8E8
:1028F00002C02AF803C02BF803C02FF802C02EF83C
:1029000001C02DF800C02CF884D723D01FC843F88D
:102910001EC842F81DC841F81CC840F823C847F833
:1029200022C846F821C845F820C844F837EC07F01B
:1029300000C028F801C029F802C02AF803C02BF80B
:1029400003C02FF802C02EF801C02DF800C02CF8EB
:102950006FDF03C027F802C026F801C025F800C0C9
:1029600024F827C843F826C842F825C841F824C8E7
:1029700040F823C847F822C846F821C845F820C8BF
:1029800044F8F9DCD8821FC847F81EC846F81DC8AD
:1029900045F81CC844F803C04BF802C04AF801C00F
:1029A00049F800C048F8E6EC07F001D000D0000C70
:1029B0008E0E006E37C801F036C802F0036A01AE11
:1029C00005D0011E021E022A01E1012A015209E17D
:1029D00002C001F0026A080E005E015202E1006AC4
:1029E0000DD0D89001BE04D0023601360006F9D7CA
:1029F000080137AF02D0000101D0019E0001000C98
:102A000023C827F822C826F821C825F820C824F8AA
:102A100027C843F826C842F825C841F824C840F81A
:102A20000801476B466B456B7F0E446F00016EECEF
:102A30000CF0D8B444D2080E0801366F240EE96EAB
:102A400036C8EAFF7E0EEF6ED88227C847F826C840
:102A500046F825C845F824C844F84B6B4A6B496BC7
:102A60007F0E486F0001E6EC07F000C035F801C0AA
:102A700036F802C037F803C038F8D89227C847F8AC
:102A800026C846F825C845F824C844F808014B6B09
:102A90004A6B496B7F0E486F0001E6EC07F038C8BF
:102AA00043F837C842F836C841F835C840F803C083
:102AB00047F802C046F801C045F800C044F837ECBA
:102AC00007F003C027F802C026F801C025F800C0AF
:102AD00024F827C843F826C842F825C841F824C876
:102AE00040F827C847F826C846F825C845F824C83E
:102AF00044F841DC03C033F802C032F801C031F8B9
:102B000000C030F8BC0E0801436F240E426F670E00
:102B1000416F7D0E406F33C847F832C846F831C860
:102B200045F830C844F8000126DC00C035F801C083
:102B300036F802C037F803C038F8D89203C047F817
:102B400002C046F801C045F800C044F8E30E080191
:102B50004B6FE40E4A6F900E496F820E486F000172
:102B6000E6EC07F003C02BF802C02AF801C029F8F0
:102B700000C028F82BC843F82AC842F829C841F8F1
:102B800028C840F833C847F832C846F831C845F875
:102B900030C844F8BBEC11F000C035F801C036F87D
:102BA00002C037F803C038F8D89203C047F802C013
:102BB00046F801C045F800C044F81C0E08014B6FF0
:102BC000870E4A6F570E496F830E486F0001E6EC7F
:102BD00007F003C02BF802C02AF801C029F800C092
:102BE00028F82BC843F82AC842F829C841F828C851
:102BF00040F833C847F832C846F831C845F830C8FD
:102C000044F8BBEC11F000C035F801C036F802C042
:102C100037F803C038F8D89203C047F802C046F826
:102C200001C045F800C044F8AB0E08014B6FE10E3F
:102C30004A6F9E0E496F830E486F0001E6EC07F065
:102C400003C02BF802C02AF801C029F800C028F8F8
:102C50000801436B426B416B7F0E406F33C847F8EE
:102C600032C846F831C845F830C844F80001BBEC1A
:102C700011F000C035F801C036F802C037F803C0C3
:102C800038F8D89203C047F802C046F801C045F8AA
:102C900000C044F8B40E08014B6F2A0E4A6F820E32
:102CA000496F486F0001E6EC07F003C02FF802C03F
:102CB0002EF801C02DF800C02CF82FC843F82EC8FC
:102CC00042F82DC841F82CC840F833C847F832C83C
:102CD00046F831C845F830C844F8BBEC11F000C0E4
:102CE00035F801C036F802C037F803C038F8D8927A
:102CF00003C047F802C046F801C045F800C044F8D8
:102D0000800E08014B6F3E0E4A6F060E496F830E10
:102D1000486F0001E6EC07F003C02FF802C02EF860
:102D200001C02DF800C02CF82FC843F82EC842F877
:102D30002DC841F82CC840F833C847F832C846F8C7
:102D400031C845F830C844F8BBEC11F000C035F884
:102D500001C036F802C037F803C038F8D89203C073
:102D600047F802C046F801C045F800C044F8AB0E71
:102D700008014B6FE10E4A6F9E0E496F820E486F3D
:102D80000001E6EC07F003C02FF802C02EF801C0E6
:102D90002DF800C02CF827C843F826C842F825C8EB
:102DA00041F824C840F82BC847F82AC846F829C873
:102DB00045F828C844F8BBEC11F000C035F801C054
:102DC00036F802C037F803C038F803C043F802C031
:102DD00042F801C041F800C040F82FC847F82EC89B
:102DE00046F82DC845F82CC844F837EC07F003C066
:102DF0002BF802C02AF801C029F800C028F8080EF4
:102E00000801366F200EE96E36C8EAFF7E0EEF5CD1
:102E1000346F34BF01D014D0000ED8803455376BD6
:102E2000366F36BF37070001C3DD00C02CF80150F4
:102E3000800A08012D6F02C02EF803C02FF810D0B1
:102E4000376B34C836F836BF37070001B1DD03C031
:102E50002FF802C02EF801C02DF800C02CF8080190
:102E60002FC843F82EC842F82DC841F82CC840F8A6
:102E7000180E476F720E466F310E456F7E0E446F0F
:102E80000001BBEC11F0D8922BC847F82AC846F8CD
:102E900029C845F828C844F803C04BF802C04AF8CE
:102EA00001C049F800C048F8E6EC07F003C02BF871
:102EB00002C02AF801C029F800C028F806D008018D
:102EC0002B6B2A6B296B286B000128C800F029C8DE
:102ED00001F02AC802F02BC803F0000C23C843F805
:102EE00022C842F821C841F820C840F8180E08014D
:102EF000476F720E466F310E456F7E0E446F0001B4
:102F000037EC07F003C043F802C042F801C041F8B3
:102F100000C040F836EC12F001C030F808013191E1
:102F200023C827F822C826F821C825F820C824F885
:102F300023C843F822C842F821C841F820C840F805
:102F4000476B466B456B446B00016EEC0CF006E37F
:102F500008013181306D2551800A256F08012B6BE6
:102F60002A6B296B286B080E336F280EE96E33C865
:102F7000EAFF7F0E3025EF6E27C843F826C842F8D7
:102F800025C841F824C840F8180E476F720E466FE6
:102F9000310E456F7E0E446F000137EC07F000C024
:102FA00032F801C033F802C034F803C035F8080124
:102FB000376B30C836F836BF37070001F9DCD882E6
:102FC00035C847F834C846F833C845F832C844F81D
:102FD00003C04BF802C04AF801C049F800C048F8E5
:102FE000E6EC07F003C027F802C026F801C025F878
:102FF00000C024F87C0E0801436F880E426F590E02
:10300000416F720E406F27C847F826C846F825C89A
:1030100045F824C844F80001BBEC11F000C032F8B8
:1030200001C033F802C034F803C035F8D89203C0A9
:1030300047F802C046F801C045F800C044F8E00E69
:1030400008014B6F970E4A6F260E496F750E486F39
:103050000001E6EC07F003C02FF802C02EF801C013
:103060002DF800C02CF82FC843F82EC842F82DC800
:1030700041F82CC840F827C847F826C846F825C8A4
:1030800045F824C844F8BBEC11F000C032F801C088
:1030900033F802C034F803C035F8D89203C047F8BB
:1030A00002C046F801C045F800C044F8C40E08014B
:1030B0004B6F1D0E4A6F1E0E496F780E486F000150
:1030C000E6EC07F003C02FF802C02EF801C02DF87F
:1030D00000C02CF82FC843F82EC842F82DC841F87C
:1030E0002CC840F827C847F826C846F825C845F830
:1030F00024C844F8BBEC11F000C032F801C033F82A
:1031000002C034F803C035F8D89203C047F802C0B3
:1031100046F801C045F800C044F85E0E08014B6F48
:10312000500E4A6F630E496F7A0E486F0001E6EC4D
:1031300007F003C02FF802C02EF801C02DF800C020
:103140002CF82FC843F82EC842F82DC841F82CC8D7
:1031500040F827C847F826C846F825C845F824C8C7
:1031600044F8BBEC11F000C032F801C033F802C0E3
:1031700034F803C035F8D89203C047F802C046F8C7
:1031800001C045F800C044F81A0E08014B6FFE0E4E
:103190004A6F750E496F7C0E486F0001E6EC07F030
:1031A00003C02FF802C02EF801C02DF800C02CF883
:1031B0002FC843F82EC842F82DC841F82CC840F853
:1031C00027C847F826C846F825C845F824C844F853
:1031D000BBEC11F000C032F801C033F802C034F883
:1031E00003C035F8D89203C047F802C046F801C0C2
:1031F00045F800C044F8180E08014B6F720E4A6F74
:10320000310E496F7E0E486F0001E6EC07F003C0F7
:103210002FF802C02EF801C02DF800C02CF827C8E6
:1032200043F826C842F825C841F824C840F82FC8FA
:1032300047F82EC846F82DC845F82CC844F8BBEC12
:1032400011F0D8920801476B466B456B7F0E446FB7
:1032500003C04BF802C04AF801C049F800C048F862
:103260000001E6EC07F02BC843F82AC842F829C849
:1032700041F828C840F803C047F802C046F801C02A
:1032800045F800C044F8BBEC11F003C02BF802C0B5
:103290002AF801C029F800C028F8080131A119D086
:1032A000436B426B416B7F0E406F2BC847F82AC8B7
:1032B00046F829C845F828C844F8000137EC07F05B
:1032C00003C02BF802C02AF801C029F800C028F872
:1032D000080128C800F029C801F02AC802F02BC84C
:1032E00003F00001000C17C843F816C842F815C8CF
:1032F00041F814C840F80801476B466B456B446BB6
:1033000000016EEC0CF0D8A0D9D01BC81FF81AC869
:103310001EF819C81DF818C81CF80801236B226B89
:10332000216B7F0E206F000125EC14F000C01CF80B
:1033300001C01DF802C01EF803C01FF803C043F807
:1033400002C042F801C041F800C040F80801476BD4
:10335000466B456B446B00016EEC0CF0D8A4AED00C
:103360001BC81FF81AC81EF819C81DF818C81CF881
:103370000801236B226B216B800E206F000125EC6E
:1033800014F000C01CF801C01DF802C01EF803C0F4
:103390001FF803C043F802C042F801C041F800C062
:1033A00040F80801476B466B456B446B00016EECBF
:1033B0000CF041E114C81CF808011551800A1D6F7A
:1033C00016C81EF817C81FF817C823F816C822F821
:1033D000216F14C820F8000100EC15F000C01CF8A3
:1033E00001C01DF802C01EF803C01FF803C043F857
:1033F00002C042F801C041F800C040F81BC847F8BD
:103400001AC846F819C845F818C844F8BBEC11F0BA
:1034100000C01CF801C01DF802C01EF803C01FF850
:1034200003C023F802C022F801C021F800C020F830
:1034300055DDDED042D014C81CF808011551800AB1
:103440001D6F16C81EF817C81FF817C823F816C82E
:1034500022F8216F14C820F8000100EC15F000C01C
:103460001CF801C01DF802C01EF803C01FF803C0FD
:1034700043F802C042F801C041F800C040F81BC840
:1034800047F81AC846F819C845F818C844F8BBECFC
:1034900011F000C01CF801C01DF802C01EF803C0E6
:1034A0001FF803C023F802C022F801C021F800C0B1
:1034B00020F814DD800E011A9BD09AD017C843F86B
:1034C00016C842F815C841F814C840F80801476BFF
:1034D000466B456B446B00016EEC0CF030E31BC88F
:1034E0001FF81AC81EF819C81DF818C81CF80801DA
:1034F000236B226B216B7F0E206F000125EC14F0F3
:1035000000C01CF801C01DF802C01EF803C01FF85F
:1035100003C043F802C042F801C041F800C040F8BF
:103520000801476B466B456B446B00016EEC0CF079
:1035300006E0006A016A026A036A5AD059D017C8C5
:1035400043F816C842F815C841F814C840F80801F5
:10355000476B466B456B446B00016EEC0CF012E15F
:103560001BC843F81AC842F819C841F818C840F8EF
:103570000801476B466B456B446B00016EEC0CF029
:1035800001E236E117C823F816C822F815C821F859
:1035900014C820F800EC15F000C01CF801C01DF89C
:1035A00002C01EF803C01FF803C043F802C042F86F
:1035B00001C041F800C040F81BC847F81AC846F8D7
:1035C00019C845F818C844F8BBEC11F000C01CF845
:1035D00001C01DF802C01EF803C01FF803C023F885
:1035E00002C022F801C021F800C020F877DC00D02A
:1035F000000C0101016B006B200E0001FF6F830EB8
:10360000FE6FD89201C147F800C146F8FFC045F8E7
:10361000FEC044F8330E08014B6F930E4A6F080E3C
:10362000496F870E486F0001E6EC07F003C005F113
:1036300002C004F101C003F100C002F11DC143F852
:103640001CC142F81BC141F81AC140F80801476B80
:10365000466B7A0E456F880E446F0001BBEC11F08B
:1036600003C009F102C008F101C007F100C006F172
:1036700005C117F804C116F803C115F802C114F802
:1036800008011B6B1A6B196B800E186F00012BDE83
:10369000BE0E0801436FAE0E426F4F0E416F6E0EAD
:1036A000406F03C047F802C046F801C045F800C0AB
:1036B00044F80001BBEC11F000C000F801C001F8B3
:1036C00002C002F803C003F84E0E0801436FA40EB7
:1036D000426F9C0E416F790E406F05C147F804C1DF
:1036E00046F803C145F802C144F80001BBEC11F0F3
:1036F000EACF05F8E9CF04F8D89203C847F802C822
:1037000046F801C845F800C844F803C04BF802C0A9
:103710004AF801C049F800C048F8E6EC07F005C8CF
:10372000EAFF04C8E9FF00C000F801C001F802C0C8
:1037300002F803C003F8EACF07F8E9CF06F8D892F9
:1037400003C047F802C046F801C045F800C044F87D
:103750009A0E08014B6FBF0E4A6F070E496F840E19
:10376000486F0001E6EC07F007C8EAFF06C8E9FF6A
:1037700000C000F801C001F802C002F803C003F85D
:10378000510E0801436F390E426FC60E416F8B0E0A
:10379000406F05C147F804C146F803C145F802C1AE
:1037A00044F8000137EC07F0EACF09F8E9CF08F850
:1037B000D89203C847F802C846F801C845F800C8BF
:1037C00044F803C04BF802C04AF801C049F800C0F1
:1037D00048F8E6EC07F009C8EAFF08C8E9FF00C0AE
:1037E00000F801C001F802C002F803C003F803C0EA
:1037F00023F802C022F801C021F800C020F86EECC6
:1038000017F003C00DF102C00CF101C00BF100C0B4
:103810000AF1AA0E0801436FDC0E426F060E416FDB
:10382000660E406F09C147F808C146F807C145F860
:1038300006C144F80001BBEC11F0D892510E08010A
:10384000476F140E466F456B7F0E446F03C04BF8F5
:1038500002C04AF801C049F800C048F80001E6EC8F
:1038600007F000C000F801C001F802C002F803C070
:1038700003F8E80E0801436F520E426F160E416FB7
:103880006A0E406F01C147F800C146F8FFC045F815
:10389000FEC044F80001BBEC11F0D89203C847F811
:1038A00002C846F801C845F800C844F803C04BF800
:1038B00002C04AF801C049F800C048F8E6EC07F039
:1038C00003C011F102C010F101C00FF100C00EF1F0
:1038D00025C143F824C142F823C141F822C140F870
:1038E0000801476B466B480E456F850E446F00011B
:1038F00037EC07F000C000F801C001F802C002F880
:1039000003C003F803C043F802C042F801C041F805
:1039100000C040F811C147F810C146F80FC145F882
:103920000EC144F8BBEC11F000C000F801C001F872
:1039300002C002F803C003F80DC143F80CC142F8FD
:103940000BC141F80AC140F809C147F808C146F85F
:1039500007C145F806C144F837EC07F003C843F83F
:1039600002C842F801C841F800C840F803C047F84F
:1039700002C046F801C045F800C044F8BBEC11F0A5
:1039800003C015F102C014F101C013F100C012F11F
:1039900009C143F808C142F807C141F806C140F81F
:1039A00005C147F804C146F803C145F802C144F80F
:1039B00037EC07F000C000F801C001F802C002F8BF
:1039C00003C003F88D0E0801436FF30E426FFB0E28
:1039D000416F650E406F01C147F800C146F8FFC056
:1039E00045F8FEC044F80001BBEC11F0D892A60ED9
:1039F0000801476F3A0E466F540E456F6B0E446FC9
:103A000003C04BF802C04AF801C049F800C048F8AA
:103A10000001E6EC07F000C004F801C005F802C0A0
:103A200006F803C007F801C117F800C116F8FFC077
:103A300015F8FEC014F808011B6B1A6B196B800E89
:103A4000186F000150DC900E0801436FD60E426FD4
:103A5000720E416F5D0E406F03C047F802C046F81A
:103A600001C045F800C044F80001BBEC11F0EACFFA
:103A700009F8E9CF08F8D89207C847F806C846F809
:103A800005C845F804C844F803C04BF802C04AF81A
:103A900001C049F800C048F8E6EC07F009C8EAFFA1
:103AA00008C8E9FF00C004F801C005F802C006F824
:103AB00003C007F8F80E0801436F2D0E426FB00ED9
:103AC000416F650E406F01C147F800C146F8FFC065
:103AD00045F8FEC044F80001BBEC11F0EACF0BF84A
:103AE000E9CF0AF8D892C20E0801476F7E0E466FE2
:103AF0003F0E456F6D0E446F03C04BF802C04AF88D
:103B000001C049F800C048F80001E6EC07F00BC816
:103B1000EAFF0AC8E9FF00C00CF801C00DF802C0B6
:103B20000EF803C00FF803C043F802C042F801C00A
:103B300041F800C040F815C147F814C146F813C158
:103B400045F812C144F8BBEC11F0EACF0DF8E9CF0B
:103B50000CF8D89207C847F806C846F805C845F8D3
:103B600004C844F803C04BF802C04AF801C049F841
:103B700000C048F8E6EC07F00DC8EAFF0CC8E9FF02
:103B800000C004F801C005F802C006F803C007F839
:103B90005F0E0801436F730E426F9F0E416F6C0EF4
:103BA000406F01C147F800C146F8FFC045F8FEC0AC
:103BB00044F80001BBEC11F0EACF0FF8E9CF0EF8A2
:103BC000D892D00E0801476F8F0E466F500E456F8A
:103BD000720E446F03C04BF802C04AF801C049F8A6
:103BE00000C048F80001E6EC07F00FC8EAFF0EC875
:103BF000E9FF00C010F801C011F802C012F803C0BC
:103C000013F815C117F814C116F813C115F812C12D
:103C100014F808011B6B1A6B196B800E186F0001EA
:103C200073EC19F013C843F812C842F811C841F8F0
:103C300010C840F803C047F802C046F801C045F874
:103C400000C044F8BBEC11F0EACF11F8E9CF10F84E
:103C5000D89207C847F806C846F805C845F804C80A
:103C600044F803C04BF802C04AF801C049F800C04C
:103C700048F8E6EC07F011C8EAFF10C8E9FF03C8EE
:103C800043F802C842F801C841F800C840F803C030
:103C900047F802C046F801C045F800C044F8BBEC44
:103CA00011F0EACF01F8E9CF00F8D8820801476B9C
:103CB000466B456B7F0E446F03C04BF802C04AF859
:103CC00001C049F800C048F80001E6EC07F001C85F
:103CD000EAFF00C8E9FF00C002F801C003F802C013
:103CE00004F803C005F809C117F808C116F807C1A0
:103CF00015F806C114F808011B6B1A6B196B800EBE
:103D0000186F000173EC19F000C006F801C007F845
:103D100002C008F803C009F805C117F804C116F875
:103D200003C115F802C114F808011B6B1A6B196B5B
:103D3000800E186F000173EC19F009C843F808C829
:103D400042F807C841F806C840F803C047F802C067
:103D500046F801C045F800C044F837EC07F000C051
:103D600006F801C007F802C008F803C009F815C139
:103D700017F814C116F813C115F812C114F8080188
:103D80001B6B1A6B196B800E186F000173EC19F026
:103D90000E0E0801436F6D0E426F830E416F640E6D
:103DA000406F03C047F802C046F801C045F800C0A4
:103DB00044F80001BBEC11F0EACF13F8E9CF12F898
:103DC000D892F00E0801476FF70E466F200E456F30
:103DD0005B0E446F03C04BF802C04AF801C049F8BB
:103DE00000C048F80001E6EC07F013C8EAFF12C86B
:103DF000E9FF09C843F808C842F807C841F806C8EF
:103E000040F803C047F802C046F801C045F800C0BA
:103E100044F8BBEC11F0EACF07F8E9CF06F8D892E6
:103E200005C847F804C846F803C845F802C844F86E
:103E300003C04BF802C04AF801C049F800C048F876
:103E4000E6EC07F007C8EAFF06C8E9FF03C019F16E
:103E500002C018F101C017F100C016F109C143F802
:103E600008C142F807C141F806C140F8E30E080155
:103E7000476F440E466F6D0E456F790E446F00011B
:103E8000BBEC11F000C000F801C001F802C002F85C
:103E900003C003F819C143F818C142F817C141F82B
:103EA00016C140F805C147F804C146F803C145F8FA
:103EB00002C144F8BBEC11F000C004F801C005F8E1
:103EC00002C006F803C007F803C043F802C042F876
:103ED00001C041F800C040F8140E0801476F080EF9
:103EE000466F050E456F820E446F0001BBEC11F06A
:103EF00003C843F802C842F801C841F800C840F8B6
:103F000003C047F802C046F801C045F800C044F8B5
:103F100037EC07F000C000F801C001F802C002F859
:103F200003C003F815C143F814C142F813C141F8A6
:103F300012C140F8980E0801476F8A0E466F410E75
:103F4000456F7D0E446F0001BBEC11F0D882080173
:103F5000476B466B456B7F0E446F03C04BF802C046
:103F60004AF801C049F800C048F80001E6EC07F043
:103F700003C843F802C842F801C841F800C840F835
:103F800003C047F802C046F801C045F800C044F835
:103F9000BBEC11F003C0FDF002C0FCF001C0FBF06F
:103FA00000C0FAF0000C0701FD51FF03F3CF01F050
:103FB000F4CF00F008010003F35000260701FE5182
:103FC000FF03F3500020026E0001000C0701F735DB
:103FD000006E0036FC0E001600C001F0C250C30B8C
:103FE0000010C26E0A0E0801066F000167EC06F0B1
:103FF000C282C2B2FED7C4CF45F8C3CF44F8000195
:104000001CEC07F003C0FBF702C0FAF701C0F9F798
:1040100000C0F8F7F8C700F0F9C701F0FAC702F0DE
:10402000FBC703F0000C0701F46BF36BF26BF16B51
:10403000FE6BF0C7FDF7010E0801006F590E070176
:10404000FF6F0001B0DF01C0F5F7080E0701012482
:10405000016E000E0220036E0150320F016E010E40
:10406000032201C0F5F703C0F6F7F0C7F7F7000128
:10407000ADDF03C043F802C042F801C041F800C000
:1040800040F836EC12F0F6C7EAFFF5C7E9FF02C0C8
:10409000ECFFED5201C0EFFF0701FE6BF0C7FDF72B
:1040A000010E0801006F590E0701FF6F00017BDF51
:1040B00002C0F6F701C0F5F7320E07010124E96EE0
:1040C000010E0220EA6EEFCF00F0ECCF01F0ECCF52
:1040D00002F0ECCF03F0EACFF6F7E9CFF5F7D8829C
:1040E000F5C047F8F4C046F8F3C045F8F2C044F80C
:1040F00003C04BF802C04AF801C049F800C048F8B4
:104100000001E6EC07F0F6C7EAFFF5C7E9FF03C0D8
:10411000F4F702C0F3F701C0F2F700C0F1F70701AE
:10412000FE6BF0C7FDF7010E0801006F590E070185
:10413000FF6F000138DF01C0F5F7080E0701012409
:10414000016E000E0220036E0150320FE96E010E67
:104150000320EA6EECCFF6F7ED52EFCFF5F7F6C796
:1041600045F8F5C744F800011CEC07F0EACFF8F772
:10417000E9CFF7F7D89203C047F802C046F801C06C
:1041800045F800C044F8F4C74BF8F3C74AF8F2C743
:1041900049F8F1C748F8E6EC07F0F8C7EAFFF7C7B7
:1041A000E9FF03C0F9F002C0F8F001C0F7F000C069
:1041B000F6F0F9C043F8F8C042F8F7C041F8F6C08D
:1041C00040F80801476BC00E466F7F0E456F880EA2
:1041D000446F000137EC07F000C0F5F701C0F6F7B7
:1041E00002C0F7F703C0F8F703C043F802C042F873
:1041F00001C041F800C040F80801476B466B200E33
:10420000456F810E446F0001BBEC11F003C0F9F063
:1042100002C0F8F001C0F7F000C0F6F00701FE6B35
:10422000F0C7FDF7010E0801006F590E0701FF6F7F
:104230000001B9DE01C0F5F70B0E07010124016E84
:10424000000E0220036E0150320F016E010E032298
:1042500001C0F5F703C0F6F7F9C017F8F8C016F873
:10426000F7C015F8F6C014F808011B6B1A6B196B30
:10427000810E186F000173EC19F000C0F7F701C050
:10428000F8F702C0F9F703C0FAF703C043F802C019
:1042900042F801C041F800C040F8DEC047F8DDC078
:1042A00046F8DCC045F8DBC044F8BBEC11F000C0B8
:1042B000F7F701C0F8F702C0F9F703C0FAF7F9C041
:1042C00017F8F8C016F8F7C015F8F6C014F808018A
:1042D0001B6B1A6B400E196F800E186F000173EC88
:1042E00019F000C0FBF701C0FCF702C0FDF703C0E6
:1042F000FEF703C043F802C042F801C041F800C015
:1043000040F8E2C047F8E1C046F8E0C045F8DFC039
:1043100044F8BBEC11F0EACFFCF7E9CFFBF7D892F9
:10432000FAC747F8F9C746F8F8C745F8F7C744F899
:1043300003C04BF802C04AF801C049F800C048F871
:10434000E6EC07F0FCC7EAFFFBC7E9FF00C0F7F7A0
:1043500001C0F8F702C0F9F703C0FAF7F9C017F87F
:10436000F8C016F8F7C015F8F6C014F808011B6B72
:104370001A6B196B800E186F000173EC19F000C0F6
:10438000FDF701C0FEF702C0FFF703C000F803C04D
:1043900043F802C042F801C041F800C040F8E6C04E
:1043A00047F8E5C046F8E4C045F8E3C044F8BBEC84
:1043B00011F0EACFFEF7E9CFFDF7D892FAC747F838
:1043C000F9C746F8F8C745F8F7C744F803C04BF8F3
:1043D00002C04AF801C049F800C048F8E6EC07F00E
:1043E000FEC7EAFFFDC7E9FF00C0F7F701C0F8F715
:1043F00002C0F9F703C0FAF7F9C043F8F8C042F871
:10440000F7C041F8F6C040F8EAC047F8E9C046F8FE
:10441000E8C045F8E7C044F8BBEC11F0EACF00F87B
:10442000E9CFFFF7D892FAC747F8F9C746F8F8C7B7
:1044300045F8F7C744F803C04BF802C04AF801C07A
:1044400049F800C048F8E6EC07F000C8EAFFFFC7EB
:10445000E9FF00C0F7F701C0F8F702C0F9F703C0A1
:10446000FAF7EACF02F8E9CF01F8D89203C047F88B
:1044700002C046F801C045F800C044F8EEC04BF851
:10448000EDC04AF8ECC049F8EBC048F8E6EC07F09C
:1044900002C8EAFF01C8E9FFF6C7EAFFF5C7E9FF6E
:1044A00000C0EFFF01C0ECFF02C0ECFF03C0ECFF57
:1044B0000701FE6BF0C7FDF7010E0801006F590EF2
:1044C0000701FF6F00016FDD01C0F5F70B0E07015B
:1044D0000124016E000E0220036E0150320FE96EBE
:1044E000010E0320EA6EEFCFF5F7ECCFF6F7ECCF35
:1044F000F7F7ECCFF8F7F8C743F8F7C742F8F6C775
:1045000041F8F5C740F80801476B466B456B446BB3
:1045100000016EEC0CF01FE30701FE6BF0C7FDF726
:10452000010E0801006F590E0701FF6F00013BDD0E
:1045300001C0F5F70B0E07010124016E000E0220E9
:10454000036E0150320FE96E010E0320EA6EEF6A2E
:10455000EC6AEC6AEC6A0701FE6BF0C7FDF7010E2E
:104560000801006F590E0701FF6F00011CDD02C03A
:10457000F6F701C0F5F70F0E07010124016E000EDA
:104580000220036E0150320FE96E010E0320EA6E25
:10459000EFCFF5F7010EEF5DF55D1CE01BE3FE6B61
:1045A000F0C7FDF7010E0801006F590E0701FF6FFC
:1045B0000001F9DC01C0F5F70F0E07010124016EBF
:1045C000000E0220036E0150320FE96E010E03202F
:1045D000EA6EEF6AFE6BF0C7FDF7010E0801006F8F
:1045E000590E0701FF6F0001DEDC02C0F6F701C0C3
:1045F000F5F7190E0701F527000EF623FE6BF0C73D
:10460000FDF7010E0801006F590E0701FF6F000151
:10461000CADC02C0F8F701C0F7F70F0E070101244A
:10462000016E000E0220036E0150320FE96E010E82
:104630000320EA6EFE6BEFCFFDF70801006B040E5E
:104640000701FF6F0001AFDC02C003F0015007015A
:10465000F525016EF65103220150320F016E010E55
:10466000032201C0F5F703C0F6F7FE6BF0C7FDF7B4
:10467000010E0801006F590E0701FF6F000193DC66
:1046800002C0F8F701C0F7F70B0E07010124016E15
:10469000000E0220036E0150320FE96E010E03205E
:1046A000EA6EEFCF00F0ECCF01F0ECCF02F0ECCFF0
:1046B00003F0F6C7EAFFF5C7E9FF00C0EFFF01C04E
:1046C000ECFF02C0ECFF03C0ECFFFE6BF0C7FDF790
:1046D000010E0801006F590E0701FF6F000163DC36
:1046E00001C0F5F70F0E07010124016E000E022034
:1046F000036E0150320FE96E010E0320EA6EEF2ABD
:10470000FE6BF0C7FDF7010E0801006F590E07019F
:10471000FF6F000148DC01C0F5F7110E070101240D
:10472000016E000E0220036E0150320FE96E010E81
:104730000320EA6EEF6AEC6AEC6AEC6A3F6A010EEB
:10474000EF5D3F5C02E0D8B08AD0FE6BF0C7FDF7AA
:10475000010E0801006F590E0701FF6F000123DCF5
:1047600001C0F5F7110E07010124016E000E0220B1
:10477000036E0150320F016E010E032201C0F5F7E6
:1047800003C0F6F703C0EAFF01C0E9FFEFCFF7F778
:10479000ECCFF8F7ECCFF9F7ECCFFAF7FE6BF0C7F8
:1047A000FDF7010E0801006F590E0701FF6F0001B0
:1047B000D3EC1FF002C0FCF701C0FBF7190E070194
:1047C000FB27000EFC23FE6B3FC0FDF70801006BCA
:1047D000040E0701FF6F0001D3EC1FF002C003F0CD
:1047E00001500701FB25016EFC5103220150320FDD
:1047F000E96E010E0320EA6EEFCF00F0ECCF01F07E
:10480000ECCF02F0ECCF03F0EACFFCF7E9CFFBF7F7
:10481000D892FAC747F8F9C746F8F8C745F8F7C776
:1048200044F803C04BF802C04AF801C049F800C080
:1048300048F80001E6EC07F0FCC7EAFFFBC7E9FF18
:10484000F6C7EAFFF5C7E9FF00C0EFFF01C0ECFFC4
:1048500002C0ECFF03C0ECFF3F2A070170D7FE6BDC
:10486000F0C7FDF7010E0801006F590E0701FF6F39
:104870000001D3EC1FF001C0F5F7110E0701012470
:10488000016E000E0220036E0150320F016E010E08
:10489000032201C0F5F703C0F6F7FE6BF0C7FDF782
:1048A000010E0801006F590E0701FF6F0001D3ECE4
:1048B0001FF001C0F7F7110E07010124016E000E71
:1048C0000220036E0150320FE96E010E0320EA6EE2
:1048D000EFCFF7F7ECCFF8F7ECCFF9F7ECCFFAF72B
:1048E0000801456BEFC744F800011CEC07F0FAC75C
:1048F00043F8F9C742F8F8C741F8F7C740F803C0D2
:1049000047F802C046F801C045F800C044F837EC4B
:1049100007F000C0F7F701C0F8F702C0F9F703C0CD
:10492000FAF70701FE6BF0C7FDF7010E0801006FF3
:10493000590E0701FF6F0001D3EC1FF002C0FCF716
:1049400001C0FBF7150E07010124016E000E0220C5
:10495000036E0150320FE96E010E0320EA6EEFCFB5
:1049600000F0ECCF01F0ECCF02F0ECCF03F0FAC78F
:1049700043F8F9C742F8F8C741F8F7C740F803C051
:1049800047F802C046F801C045F800C044F80001ED
:10499000BBEC11F0F6C7EAFFF5C7E9FF00C0EFFF77
:1049A00001C0ECFF02C0ECFF03C0ECFF0701FE6B8F
:1049B000F0C7FDF7010E0801006F590E0701FF6FE8
:1049C0000001D3EC1FF001C0F5F7110E070101241F
:1049D000016E000E0220036E0150320F016E010EB7
:1049E000032201C0F5F703C0F6F7FE6BF0C7FDF731
:1049F000010E0801006F590E0701FF6F0001D3EC93
:104A00001FF001C0F7F7110E07010124016E000E1F
:104A10000220036E0150320FE96E010E0320EA6E90
:104A2000EFCFF7F7ECCFF8F7ECCFF9F7ECCFFAF7D9
:104A3000FDC043F8FCC042F8FBC041F8FAC040F8A2
:104A40007D0E0801476F0C0E466F2D0E456F770ED9
:104A5000446F0001BBEC11F000C0FBF701C0FCF794
:104A600002C0FDF703C0FEF703C043F802C042F8DE
:104A700001C041F800C040F80801476B466B610E69
:104A8000456F8A0E446F0001BBEC11F0FAC743F882
:104A9000F9C742F8F8C741F8F7C740F803C047F82C
:104AA00002C046F801C045F800C044F837EC07F0F2
:104AB000F6C7EAFFF5C7E9FF00C0EFFF01C0ECFF52
:104AC00002C0ECFF03C0ECFF0701FE6BF0C7FDF76F
:104AD000010E0801006F590E0701FF6F0001D3ECB2
:104AE0001FF002C0F6F701C0F5F7110E070101240F
:104AF000016E000E0220036E0150320FE96E010EAE
:104B00000320EA6EEFCF00F0ECCF01F0ECCF02F023
:104B1000ECCF03F00001000C0701F36BF26BF16BBB
:104B2000F06BF76B0001E6EC1FF003C0B5F002C0BC
:104B3000B4F001C0B3F000C0B2F0B5C043F8B4C0E7
:104B400042F8B3C041F8B2C040F8C9C047F8C8C085
:104B500046F8C7C045F8C6C044F837EC07F000C0B7
:104B6000F4F701C0F5F702C0F6F703C0F7F7D882F3
:104B700003C047F802C046F801C045F800C044F839
:104B800008014B6B4A6B496B7F0E486F0001E6ECE6
:104B900007F003C0B9F002C0B8F001C0B7F000C020
:104BA000B6F00801436B426B416B406BB9C047F8EC
:104BB000B8C046F8B7C045F8B6C044F800016EEC7E
:104BC0000CF004E3B96BB86BB76BB66BB9C043F8C4
:104BD000B8C042F8B7C041F8B6C040F80801476B0A
:104BE000466B456B446B00016EEC0CF01AE3B9C0E8
:104BF00043F8B8C042F8B7C041F8B6C040F8080161
:104C0000476B466B800E456F7F0E446F0001BBEC17
:104C100011F003C0B9F002C0B8F001C0B7F000C095
:104C2000B6F0010E0701EF5D3E5C02E001E33E6A73
:104C30003E50040DF350036A620FE96E000E03202C
:104C4000EA6EB6C0EFFFB7C0ECFFB8C0ECFFB9C06A
:104C5000ECFF3E2A3F6A010EEF5D3F5C01E038E267
:104C60003F50040DF350036A620FE96E000E0320FB
:104C7000EA6EEFCF00F0ECCF01F0ECCF02F0ECCF1A
:104C800003F0EACFF5F7E9CFF4F7D892F3C747F886
:104C9000F2C746F8F1C745F8F0C744F803C04BF82F
:104CA00002C04AF801C049F800C048F80001E6EC2B
:104CB00007F0F5C7EAFFF4C7E9FF03C0F3F702C046
:104CC000F2F701C0F1F700C0F0F73F2A0701C3D7A0
:104CD0000801456BEFC744F800011CEC07F0F3C76F
:104CE00043F8F2C742F8F1C741F8F0C740F803C0F3
:104CF00047F802C046F801C045F800C044F837EC58
:104D000007F003C0F3F702C0F2F701C0F1F700C0EB
:104D1000F0F7F0C700F0F1C701F0F2C702F0F3C7F7
:104D200003F0000C0900F6CFF4F7F7CFF5F7F5CF55
:104D300000F82AEC11F0F4C7F6FFF5C7F7FF0701FA
:104D4000F32F01D002D00001EDD70001000C0701C4
:104D5000F651016AF55D03E2F5C700F00CD0006A78
:104D6000080EF76FF5370036F651005CD8B0006ECC
:104D70000136F72FF7D70001000C0150EFC7F5F708
:104D8000640E0701F66F0001E2DF00C0EFF701508B
:104D9000300E08E10701F0A310D0F0B70ED0F0B943
:104DA000200E04D00701F097F099F081012601C090
:104DB00000F800012AEC11F00701EFC7F5F70A0E21
:104DC000F66F0001C4DF00C0EFF70150300E08E1BC
:104DD0000701F0B70BD0F0A109D0F0B9200E000107
:104DE000012601C000F82AEC11F00701300EEF2770
:104DF000EFC700F800012AEC11F0000C0801005187
:104E0000B608006F036A01C804F8018FD890013317
:104E1000023303330332023201320032002FF6D75D
:104E200004AF0BD0001E011E021E031E002AD8B4C0
:104E3000012AD8B4022AD8B4032A00018DEF27F042
:104E4000006A016A026A036A0801086B096B0A6B4F
:104E50000B6B07510611051104112CE0200E0C6F8D
:104E6000D8900037013702370337083709370A3738
:104E70000B3707510B5D08E106510A5D05E105514D
:104E8000095D02E10451085D0FE30451085F05511B
:104E9000D8A0053D095F0651D8A0063D0A5F07511D
:104EA000D8A0073D0B5FD8800036013602360336A6
:104EB0000C2FD6D7080EEA6E080EE96E0001000C22
:104EC000E9500701F86FF751FA6F1DE0F6C743F894
:104ED000F5C742F8F4C741F8F3C740F80801476B3B
:104EE000466B200E456F820E446F0001BBEC11F043
:104EF00003C0F6F702C0F5F701C0F4F700C0F3F7FE
:104F00000701FA2FE3D7F6C703F8F5C702F8F4C78D
:104F100001F8F3C700F8000171D703C0F6F702C02B
:104F2000F5F701C0F4F700C0F3F70701F6AF0DD0B5
:104F3000F807F88BF31FF41FF51FF61FF32BD8B4F7
:104F4000F42BD8B4F52BD8B4F62B3B0EFF6F9A0E8A
:104F5000FE6FCA0EFD6FFC6B0A0EFA6FF751D8B4E4
:104F6000F82BF6C703F8F5C702F8F4C701F8F3C742
:104F700000F8FFC707F8FEC706F8FDC705F8FCC72D
:104F800004F800015DDF0150EFCFF3F7ECCFF4F749
:104F9000ECCFF5F7ECCFF6F7005213E10701F72954
:104FA000FA5DD8A402D000010CD0F8510DE00F0B2F
:104FB000FA5D01E046E2F8BF44D0F8BD05D0200E0E
:104FC0003AD0200E0701F817F8AB10D0F89BF75134
:104FD000D8A4F8070050F86F2D0E0801006F0001EB
:104FE0002AEC11F00701F851006EF86BF751FA5DE9
:104FF0000EE10050F86F2E0E0801006F00012AEC40
:1050000011F00701F851006E200EF817000E300E57
:10501000F8AB11D0F89BF751D8A4F8070050F86FFF
:105020002D0E0801006F00012AEC11F00701F85164
:10503000006EF86B300E002600C000F800012AEC6C
:1050400011F0FFC703F8FEC702F8FDC701F8FCC75F
:1050500000F80801076B066B056B0A0E046F000170
:10506000EFDE03C0FFF702C0FEF701C0FDF700C08E
:10507000FCF70701FA2F75D70001000CEACFF7F70C
:10508000E9CFF6F70701F039F009F26FF227E20FE6
:10509000F36F320FF56FF0510F0BF327F327F5275E
:1050A000E90FF46FF427F427EF390F0BF427F527F6
:1050B000F437F537F51FF537EF510F0BF527F237BA
:1050C000070EF16F0A0EF407F527FDE3F307F42747
:1050D000FDE3F207F327FDE3F107F227FDE3070EF7
:1050E000EA6EF10EE96E070EF615F69DE926F50E4D
:1050F000E95CD8B4F68DEF50006E08E1F6BD06D03D
:10510000F6B916D0F6B702D0200E03D0F687F6997E
:10511000300E0026EACFF0F7E9CFEFF700C000F835
:1051200000012AEC11F0F0C7EAFFEFC7E9FF070121
:10513000EE50F6ADDCD70001000CD6510D08D8B00A
:105140008ED0FF0A04E1D5510F08D8B088D0D66BB5
:10515000D56BD5C0EFF7AA6A140EA96EEFC7A8FFEA
:10516000A69CA69EA684F250006EF29CF29E0F01B1
:10517000550EA76EAA0EA76EA682A6B2FED7A6945B
:105180000050F212140E0801066F000167EC06F0E1
:10519000D6C0EFF7AA6A150EA96EEFC7A8FFA69CA6
:1051A000A69EA684F250006EF29CF29E0F01550E50
:1051B000A76EAA0EA76EA682A6B2FED7A69400502E
:1051C000F212140E0801066F000167EC06F0D72BEF
:1051D000D8B4D82BD7C0EFF7AA6A120EA96EEFC7C2
:1051E000A8FFA69CA69EA684F250006EF29CF29E9A
:1051F0000F01550EA76EAA0EA76EA682A6B2FED705
:10520000A6940050F212140E0801066F000167EC1C
:1052100006F0D8C0EFF7AA6A130EA96EEFC7A8FF71
:10522000A69CA69EA684F250006EF29CF29E0F01F0
:10523000550EA76EAA0EA76EA682A6B2FED7A6949A
:105240000050F212140E0801066F000167EC06F020
:10525000140E0801066F000167EC06F050D0D5511E
:10526000840803E1D65103080CE0D551080803E196
:10527000D651070806E0D5518C0841E1D6510A08FD
:105280003EE1D5C0EFF7AA6A140EA96EEFC7A8FFDA
:10529000A69CA69EA684F250006EF29CF29E0F0180
:1052A000550EA76EAA0EA76EA682A6B2FED7A6942A
:1052B0000050F212140E0801066F000167EC06F0B0
:1052C000D6C0EFF7AA6A150EA96EEFC7A8FFA69C75
:1052D000A69EA684F250006EF29CF29E0F01550E1F
:1052E000A76EAA0EA76EA682A6B2FED7A6940050FD
:1052F000F212140E0801066F000167EC06F09CEF35
:1053000032F0200E0701F0A9300EF16FEFC700F068
:10531000EFAF07D0001E002A00C0EFF72D0EF16F8F
:10532000F08F0150EFC7F5F7640EF66F00010FDD47
:1053300000C0EFF7300E01240701F26FEFC7F5F759
:105340000A0EF66F000103DD300E00240701F46F32
:10535000300E0124F36FF1C700F0F0A702D0F0AFD8
:10536000F095F0B90BD0F0AF22D0F0B520D000C04E
:10537000F2F7F0B31CD000C0F3F719D0300EF25D95
:1053800016E100C0F2F7200EF16FF0A704D0F095FF
:10539000F083F0AFF093300EF35D09E100C0F3F756
:1053A000200EF26FF0A7F7D7F093F0AFF091F0A5D1
:1053B00006D0F1C700F800012AEC11F00701F0A3B4
:1053C00006D0F2C700F800012AEC11F00701F0A1A5
:1053D00005D0F3C700F800012AEC11F0F4C700F87B
:1053E00000012AEC11F0000C0701F02D0FD0020E85
:1053F0000801016FF1C702F80001EDEC10F0640E36
:10540000F66E010EF76E69EC11F00701F05102081B
:105410000FE1020E0801016FF1C702F80001EDEC87
:1054200010F0780EF66E010EF76E69EC11F00701C0
:10543000F05103080FE1020E0801016FF1C702F8F5
:105440000001EDEC10F08C0EF66E010EF76E69ECBB
:1054500011F00701F05104080FE1020E0801016F7D
:10546000F1C702F80001EDEC10F0A00EF66E010E8F
:10547000F76E69EC11F00701F051050822E12AB836
:105480000FD0020E0801016FF1C702F80001EDEC28
:1054900010F0B40EF66E010EF76E69EC11F0070114
:1054A0002AA80FD0020E0801016FF1C702F800010F
:1054B000EDEC10F0C80EF66E010EF76E69EC11F00F
:1054C0000701F05106080FE1020E0801016FF1C754
:1054D00002F80001EDEC10F0DC0EF66E010EF76E36
:1054E00069EC11F007010001000CF86AF1849F904B
:1054F000D08E078EEA6AE96A299029922994299622
:105500002998299A299C299E2A902A922A942A9697
:105510002A982A9A2A9C2B6A070E2C6E020E2D6E50
:105520000B0E2E6E020E2F6E030E306E020E316EBB
:10553000326E040E336E346A356A366A376A386AF8
:10554000396A3A6A3B6A3C6A3D6A3E6A3F6A406A27
:10555000010E416E426A436A446A456A0A0E466E0B
:10556000476A486A546A556A566A576A040E586E02
:10557000280E596E5D6A5C6A5F6A5E6A616A606A7B
:10558000B56BB46BB36BB26BB96BB86BB76BB66B17
:10559000BD6BBC6BBB6BBA6BC16BC06BBF6BBE6BC7
:1055A000C56BC46BC36BC26BC96BC86BC76B800E1A
:1055B000C66F2A8ECA91CC6BCB6BCE6BCD6BD06B8A
:1055C000CF6BD26BD16BD46BD36BD66BD56BD86BE7
:1055D000D76BDA6BD96BCA93AE0EDE6F470EDD6FF9
:1055E000DC6B820EDB6FAE0EE26F470EE16FD10E09
:1055F000E06F840EDF6F480EE66F210EE56F070E39
:10560000E46F860EE36FE90EEA6F260EE96F820EF5
:10561000E86F850EE76FBE0EEE6F9F0EED6FC10E49
:10562000EC6F830EEB6FEF6BF06BF16BF56BF46B64
:10563000470EF36F860EF26FF96BF86BF76BF66B34
:105640009A0EFD6F990EFC6F190EFB6F7F0EFA6FAD
:105650000101016B006B0001FF6BFE6B0101056B2B
:10566000046B036B026B096B086B076B066B0D6BAE
:105670000C6B0B6B0A6B116B106B0F6B0E6B156B5E
:10568000146B136B126B196B186B176B166B1D6B0E
:105690001C6B1B6B1A6B216B206B1F6B1E6B256BBE
:1056A000246B236B226B296B286B276B266BC150F5
:1056B000C00B0F09C16E070EB46E3E0E496E200E70
:1056C0004A6E5E0E4B6E4C6A4D6A4E6A4F6A506A65
:1056D000516A526A536A8B9494948B92949200010B
:1056E000F8EF06F022EF09F0ABEF0CF0442C01D0FC
:1056F00003D079EF11F009D0452C01D02982455211
:1057000001E129922984320E2B6E8B9494948B9212
:105710009492F9EC1AF0406A5950405C20E259C06A
:10572000EFF7010E0701F06F000113EC20F003C04A
:10573000C5F002C0C4F001C0C3F000C0C2F0080E42
:105740000701EF6F00018CEC25F003C0C1F002C02F
:10575000C0F001C0BFF000C0BEF0402ADDD7928A81
:1057600080BA84EF31F0968084B084EF31F0968275
:1057700084B284EF31F00C0E0801006F00012AECB6
:1057800011F0010E0801016F026F0001EDEC10F045
:10579000F80EF66E040EF76E69EC11F0080E0701B4
:1057A000EF6FFA0E0801066F000167EC06F00701C3
:1057B000EF2FF7D7010E0801016F026F0001EDEC2A
:1057C00010F0060EF66E050EF76E69EC11F096827B
:1057D00084B216D0020E0701EF6FFA0E0801066FB1
:1057E000000167EC06F00701EF2FF7D7968284B22D
:1057F00008D0482A0C0E0801006F00012AEC11F0B5
:105800000701968484B416D0020EEF6FFA0E0801D9
:10581000066F000167EC06F00701EF2FF7D79684BB
:1058200084B408D048060C0E0801006F00012AEC71
:1058300011F0070148BE01D002D0050E486E48BEE7
:1058400004D04850050801E2486A968484B47DD1AA
:10585000968284B27AD1AA6A180EA96E46C0A8FFB1
:10586000A69CA69EA684F250006EF29CF29E0F01AA
:10587000550EA76EAA0EA76EA682A6B2FED7A69454
:105880000050F212140E0801066F000167EC06F0DA
:10589000A3C221F1A2C220F1A1C21FF1A0C21EF138
:1058A000A3C243F8A2C242F8A1C241F8A0C240F884
:1058B00036EC12F001C0F0F00801456BF0C044F87E
:1058C00000011CEC07F0D88221C147F820C146F83E
:1058D0001FC145F81EC144F803C04BF802C04AF886
:1058E00001C049F800C048F8E6EC07F003C021F118
:1058F00002C020F101C01FF100C01EF121C143F818
:1059000020C142F81FC141F81EC140F80801476B91
:10591000466B480E456F850E446F0001BBEC11F0DD
:1059200003C029F102C028F101C027F100C026F10F
:1059300029C143F828C142F827C141F826C140F8DF
:1059400036EC12F001C0F1F0AA6A190EA96EF0C08F
:10595000A8FFA69CA69EA684F250006EF29CF29E22
:105960000F01550EA76EAA0EA76EA682A6B2FED78D
:10597000A6940050F212140E0801066F000167ECA5
:1059800006F0AA6A1A0EA96EF1C0A8FFA69CA69EF0
:10599000A684F250006EF29CF29E0F01550EA76E87
:1059A000AA0EA76EA682A6B2FED7A6940050F21247
:1059B000140E0801066F000167EC06F01DC143F8E4
:1059C0001CC142F81BC141F81AC140F836EC12F074
:1059D00001C0EFF7AA6A1D0EA96EEFC7A8FFA69C2B
:1059E000A69EA684F250006EF29CF29E0F01550E08
:1059F000A76EAA0EA76EA682A6B2FED7A6940050E6
:105A0000F212140E0801066F000167EC06F025C1C2
:105A100043F824C142F823C141F822C140F836ECD2
:105A200012F001C0EFF7AA6A1E0EA96EEFC7A8FF19
:105A3000A69CA69EA684F250006EF29CF29E0F01D8
:105A4000550EA76EAA0EA76EA682A6B2FED7A69482
:105A50000050F212140E0801066F000167EC06F008
:105A6000AA6A1F0EA96E59C0A8FFA69CA69EA6846E
:105A7000F250006EF29CF29E0F01550EA76EAA0E18
:105A8000A76EA682A6B2FED7A6940050F212140EFC
:105A90000801066F000167EC06F08B809490020EFF
:105AA0000701EF6FFA0E0801066F000167EC06F0C0
:105AB0000701EF2FF7D78B909490010E0801016F2B
:105AC000026F0001EDEC10F01C0EF66E050EF76E85
:105AD00069EC11F0010E0801016F020E026F000166
