:10000000BFEF41F0CCEF0CF057EF00F00000000024
:100010000000000000000000046ED8CF05F0E0CF23
:1000200006F00001E9CF0CF0EACF07F0E1CF08F0CD
:10003000E2CF09F0D9CF0AF0DACF0BF0F3CF12F00C
:10004000F4CF13F0FACF14F0FBCF15F000C00EF090
:1000500001C00FF002C010F003C011F09DAA34EFF0
:1000600000F09EBAFCEF01F00EC000F00FC001F0EE
:1000700010C002F011C003F00CC0E9FF07C0EAFF96
:10008000078E08C0E1FF09C0E2FF0AC0D9FF0BC01C
:10009000DAFF12C0F3FF13C0F4FF14C0FAFF15C05B
:1000A000FBFF045006C0E0FF05C0D8FF1000176E2C
:1000B000D8CF18F0E0CF19F00001E9CF1FF0EACF58
:1000C0001AF0E1CF1BF0E2CF1CF0D9CF1DF0DACF50
:1000D0001EF0F3CF25F0F4CF26F0FACF27F0FBCFB8
:1000E00028F000C021F001C022F002C023F003C0BC
:1000F00024F09DA07FEF00F09EB08CEF01F021C0B6
:1001000000F022C001F023C002F024C003F01FC0A1
:10011000E9FF1AC0EAFF1A8E1BC0E1FF1CC0E2FF14
:100120001DC0D9FF1EC0DAFF25C0F3FF26C0F4FFB3
:1001300027C0FAFF28C0FBFF175019C0E0FF18C006
:10014000D8FF10006A302E76616C3D2575006A314B
:100150002E76616C3D3000006A322E76616C3D3047
:1001600000006A332E76616C3D3000006A312E76D5
:10017000616C3D2575006A302E76616C3D31303002
:1001800000006A322E76616C3D3000006A332E76B4
:10019000616C3D3000006A322E76616C3D25750041
:1001A0006A302E76616C3D31303000006A312E7637
:1001B000616C3D31303000006A332E76616C3D3029
:1001C00000006A332E76616C3D2575006A302E760C
:1001D000616C3D31303000006A312E76616C3D310A
:1001E000303000006A322E76616C3D3130300000D4
:1001F0006A342E76616C3D2575006A352E76616C09
:100200003D3000006A362E76616C3D3000006A3762
:100210002E76616C3D3000006A352E76616C3D258E
:1002200075006A342E76616C3D31303000006A36DC
:100230002E76616C3D3000006A372E76616C3D3061
:1002400000006A362E76616C3D2575006A342E7684
:10025000616C3D31303000006A352E76616C3D3185
:10026000303000006A372E76616C3D3000006A370E
:100270002E76616C3D2575006A342E76616C3D31B9
:10028000303000006A352E76616C3D313030000030
:100290006A362E76616C3D31303000005072696EE6
:1002A000636970616C2E62636F3D254C75006665F5
:1002B0006368612E62636F3D254C750065737461E0
:1002C000646F2E62636F3D254C7500006665782E65
:1002D00062636F3D254C750066646F776E2E6263B6
:1002E0006F3D254C750074332E62636F3D254C7550
:1002F000000074322E62636F3D254C7500007064FF
:100300006F776E2E62636F3D254C75007065782E99
:1003100062636F3D254C7500F30ECF6ECB0ECE6E33
:10032000938881B804D0CD2BD8B4CE2B02D0CE6B1D
:10033000CD6B938A81BA04D0CF2BD8B4D02B02D006
:10034000D06BCF6B938C81BC04D0D12BD8B4D22B83
:1003500002D0D26BD16B938E81BE04D0D32BD8B494
:10036000D42B02D0D46BD36B02016B2BD8B46C2B83
:100370006C5303E16B51C7082FE26C6B6B6B000190
:100380007D818085815305E1AC5303E10201712B2E
:1003900000017DA303D0C72BD8B4C82B7EB302D0F5
:1003A00080A906D0B02BB0513B0802E2B06BB22B53
:1003B00080A706D0B42BB4513B0802E2B46BB62B35
:1003C0007FA309D0C12BD8B4C22BB82BB8513B089E
:1003D00002E2B86BB92B02019E9000017FEF00F0A2
:1003E0009EAAFED7ABCF2AF0AECF01F02AA202D050
:1003F000AB98AB88FDEF01F0F3D701C0AAF0AA518A
:10040000650803E1010EAB6F476AAB2D0AD0036AA2
:1004100047503C0FE96E000E0320EA6EAAC0EFFFC2
:10042000472A4750090802E2476AAB6B475210E17E
:100430003C5065080BE13D3C09D03E3C07D044529E
:1004400005E1453C03D0050E986F02D00A0E986F67
:100450009E9A34EF00F070616765204269656E76A0
:10046000656E696461007061676520436C617665E3
:10047000000070616765204F666600007061676507
:1004800020416A7573746573000074302E7478743B
:100490003D22257522007661302E76616C3D31005B
:1004A00074302E7478743D2225752575220076618E
:1004B000302E76616C3D320074302E7478743D229B
:1004C00025752575257522007661302E76616C3D87
:1004D000330074302E7478743D222575257525758A
:1004E000257522007661302E76616C3D34007430C3
:1004F0002E7478743D22220070616765204F666615
:1005000000007061676520436C617665436F7272AD
:100510006563746100007061676520436C61766596
:10052000426164007061676520436F6E66696700B1
:100530007061676520416A7573746573000070614E
:10054000676520436C6176650000746974756C6F33
:100550002E7478743D22436C617665204E75657605
:10056000612200007061676520416A75737465736C
:100570000000746974756C6F2E7478743D22436C3E
:10058000617665204E756576612200007061676551
:1005900020416A75737465730000746974756C6FBB
:1005A0002E7478743D22436C617665204E756576B5
:1005B00061220000646F6576656E74730000746973
:1005C00074756C6F2E7478743D22436C617665206F
:1005D00041637475616C2200646F6576656E747337
:1005E0000000746974756C6F2E7478743D22436CCE
:1005F000617665205465636E69636F220000646FE5
:100600006576656E74730000746974756C6F2E7412
:1006100078743D22496E677265736520436F6E740E
:1006200072617365F161220070616765204F6666D3
:1006300000007061676520436C617665436F72727C
:100640006563746100007061676520436C61766565
:10065000426164007061676520436F6E6669670080
:100660007061676520416A7573746573000070611D
:10067000676520436C6176650000746974756C6F02
:100680002E7478743D22436C617665204E756576D4
:10069000612200007061676520416A75737465733B
:1006A0000000746974756C6F2E7478743D22436C0D
:1006B000617665204E756576612200007061676520
:1006C00020416A757374657300007061676520432B
:1006D0006C6176654261640066656368612E74785A
:1006E000743D2246656368613A253032752F2530A6
:1006F00032752F32302530327520202020486F721D
:10070000613A20253032753A253032753A2530323B
:10071000752020543A25303275B0432200006230F3
:10072000322E7069633D373400006231322E7069B9
:10073000633D373800006232322E7069633D3739CD
:1007400000006233322E7069633D37370000623437
:10075000322E7069633D373600006235322E706983
:10076000633D373500007061676520436C617665D5
:1007700000006230322E7069633D37320000623112
:10078000322E7069633D373800006232322E706954
:10079000633D373900006233322E7069633D37376D
:1007A00000006234322E7069633D373600006235D6
:1007B000322E7069633D37350000706167652054E3
:1007C00069656D706F507572676100006230322E1E
:1007D0007069633D373400006231322E7069633DC9
:1007E000373300006232322E7069633D37390000C2
:1007F0006233322E7069633D373700006234322E27
:100800007069633D373600006235322E7069633D92
:100810003735000070616765205469656D706F55EC
:1008200056006230322E7069633D37340000623109
:10083000322E7069633D373800006232322E7069A3
:10084000633D373100006233322E7069633D3737C4
:1008500000006234322E7069633D37360000623525
:10086000322E7069633D3735000070616765205432
:1008700069656D706F506F73745000006230322E76
:100880007069633D373400006231322E7069633D18
:10089000373800006232322E7069633D373900000C
:1008A0006233322E7069633D373000006234322E7D
:1008B0007069633D373600006235322E7069633DE2
:1008C0003735000070616765204D746F000062303D
:1008D000322E7069633D373400006231322E706908
:1008E000633D373800006232322E7069633D37391C
:1008F00000006233322E7069633D37370000623486
:10090000322E7069633D363900006235322E7069CF
:10091000633D373500007061676520466563686137
:1009200000006230322E7069633D3734000062315E
:10093000322E7069633D373800006232322E7069A2
:10094000633D373900006233322E7069633D3737BB
:1009500000006234322E7069633D37360000623524
:10096000322E7069633D3638000070616765204340
:100970006C617665000070616765205469656D7013
:100980006F5075726761000070616765205469651A
:100990006D706F55560070616765205469656D70A4
:1009A0006F506F737450000070616765204D746FF5
:1009B00000007061676520466563686100007061D2
:1009C000676520436C617665000070616765204350
:1009D0006C617665000070616765205072696E63B6
:1009E0006970616C000070616765205072696E63A8
:1009F0006970616C000066656368612E7478743D8F
:100A00002246656368613A253032752F253032758C
:100A10002F32302530327520202020486F72613A05
:100A200020253032753A253032753A25303275201E
:100A300020543A25303275B0432200007473656348
:100A40006573742E70636F3D363535333500746DC4
:100A5000696E6573742E70636F3D300074736563E7
:100A60006573742E70636F3D3000746D696E6573CD
:100A7000742E70636F3D36353533350070616765B0
:100A800020416A75737465730000746D696E6573D7
:100A9000742E7478743D22253032752200007473F0
:100AA00065636573742E7478743D22253032752227
:100AB000000066656368612E7478743D2246656344
:100AC00068613A253032752F253032752F32302546
:100AD00030327520202020486F72613A2025303254
:100AE000753A253032753A253032752020543A2532
:100AF000303275B043220000747365636573742EE1
:100B000070636F3D363535333500746D696E6573CE
:100B1000742E70636F3D3000747365636573742E5B
:100B200070636F3D3000746D696E6573742E706311
:100B30006F3D3635353335007061676520416A7524
:100B4000737465730000746D696E6573742E7478C8
:100B5000743D22253032752200007473656365731D
:100B6000742E7478743D2225303275220000746929
:100B700074756C6F2E7478743D22507572676122A3
:100B800000006D696E50757267612E7478743D2235
:100B900025303275220073656350757267612E745B
:100BA00078743D2225303275220066656368612EB7
:100BB0007478743D2246656368613A253032752F3A
:100BC000253032752F3230253032752020202048D4
:100BD0006F72613A20253032753A253032753A25E8
:100BE0003032752020543A25303275B0432200004F
:100BF00070616765205072696E636970616C000096
:100C000070616765205072696E636970616C000085
:100C100066656368612E7478743D22466563686119
:100C20003A253032752F253032752F32302530324B
:100C30007520202020486F72613A20253032753AA5
:100C4000253032753A253032752020543A2530321D
:100C500075B04322000066646F776E2E7478743D21
:100C6000225072657369F36E2046696C74726F204E
:100C7000446F776E466C6F773A25322E3266696E16
:100C80004832302200006665782E7478743D225018
:100C900072657369F36E205072652D46696C7472CB
:100CA0006F3A25322E3266696E4832302200706407
:100CB0006F776E2E7478743D22253033752525228A
:100CC00000007065782E7478743D222530337525C8
:100CD0002522000062302E7069633D363700623095
:100CE0002E7069633D39000062332E7069633D31B7
:100CF000340062332E7069633D3135006573746171
:100D0000646F2E7478743D2252657669736520563F
:100D100061726961646F72657322000069636F6E4E
:100D20002E7069633D36340065737461646F2E7490
:100D300078743D2250726F6772616D652043616DFA
:100D400062696F2046696C74726F73220000696378
:100D50006F6E2E7069633D36340065737461646F25
:100D60002E7478743D2243616D626965206C6F73E7
:100D70002046696C74726F73220069636F6E2E7007
:100D800069633D36350065737461646F2E747874E1
:100D90003D224F706572616369F36E20536567751C
:100DA0007261220069636F6E2E7069633D36330095
:100DB00062322E7069633D31320062322E70696397
:100DC0003D31330062312E7069633D313000623154
:100DD0002E7069633D3131007061676520506F731B
:100DE00074507572676100007061676520416A75B3
:100DF0007374657300007061676520416A75737470
:100E0000657300007061676520506F737450757270
:100E1000676100006D696E50757267612E74787439
:100E20003D2225303275220073656350757267610B
:100E30002E7478743D222530327522006665636811
:100E4000612E7478743D2246656368613A253032BC
:100E5000752F253032752F32302530327520202005
:100E600020486F72613A20253032753A253032754C
:100E70003A253032752020543A25303275B043225D
:100E8000000070616765205072696E636970616C03
:100E9000000070616765204F6666000074646961D8
:100EA0002E70636F3D3234353000746D65732E7073
:100EB000636F3D30000074796561722E70636F3D21
:100EC000300074686F72612E70636F3D3000746D16
:100ED000696E75746F732E70636F3D3000007464BB
:100EE00069612E70636F3D300000746D65732E7004
:100EF000636F3D323435300074796561722E7063F2
:100F00006F3D300074686F72612E70636F3D30000A
:100F1000746D696E75746F732E70636F3D30000071
:100F2000746469612E70636F3D300000746D657389
:100F30002E70636F3D30000074796561722E7063AE
:100F40006F3D32343530000074686F72612E70630B
:100F50006F3D3000746D696E75746F732E70636FC2
:100F60003D300000746469612E70636F3D30000095
:100F7000746D65732E70636F3D3000007479656128
:100F8000722E70636F3D300074686F72612E7063F3
:100F90006F3D323435300000746D696E75746F7357
:100FA0002E70636F3D300000746469612E70636F52
:100FB0003D300000746D65732E70636F3D3000002E
:100FC00074796561722E70636F3D300074686F7262
:100FD000612E70636F3D3000746D696E75746F7350
:100FE0002E70636F3D32343530007061676520418B
:100FF0006A7573746573000074686F72612E74781B
:10100000743D2225303275220000746D696E75744E
:101010006F732E7478743D2225303275220074640B
:1010200069612E7478743D22253032752200746D0A
:1010300065732E7478743D222530327522007479E0
:101040006561722E7478743D22253032752200005D
:1010500070616765204269656E76656E69646100DE
:1010600070616765204269656E76656E69646100CE
:1010700066656368612E7478743D224665636861B5
:101080003A253032752F253032752F3230253032E7
:101090007520202020486F72613A20253032753A41
:1010A000253032753A253032752020543A253032B9
:1010B00075B043220000747365636573742E7063AA
:1010C0006F3D363535333500746D696E6573742E3A
:1010D00070636F3D3000747365636573742E706365
:1010E0006F3D3000746D696E6573742E70636F3D73
:1010F0003635353335007061676520416A75737424
:1011000065730000746D696E6573742E7478743D38
:101110002225303275220000747365636573742E66
:101120007478743D22253032752200006230302EF2
:101130007478743D2252303A2530354C7520205257
:10114000313A2530354C752200006231312E7478E9
:10115000743D2252323A2530354C75202052333AB4
:101160002530354C752200006365726F496E2E7410
:1011700078743D2252343A2530354C752020523552
:101180003A2530354C7522006365726F446E2E74BB
:1011900078743D2252363A2530354C75202052372E
:1011A0003A2530354C752200616A75737465496E55
:1011B0002E7478743D2252373A2530354C752020F4
:1011C00052383A2530354C752200616A7573746562
:1011D000446E2E7478743D2252393A2530354C7560
:1011E00020205231303A2530354C75220000696E8E
:1011F000666C6F772E7478743D2274785B305D3A3C
:10120000253033752074785B34395D3A2530337579
:101210002200646F776E666C6F772E7478743D224F
:10122000446F776E466C6F773A2025322E326620F7
:1012300050643A25322E32662200616463696E2E54
:101240007478743D22414443496E3A202530344C31
:1012500075202200616463646E2E7478743D2241AF
:101260004443446E3A202530344C7520643A25328C
:101270002E32662200007061676520416A757374C2
:10128000657300007061676520416A7573746573EA
:1012900000007061676520416A75737465730000B2
:1012A00070616765205075726761000070616765E5
:1012B00020436C6176650000436F6E6669672E742B
:1012C00032632E7478743D2256656C6F6369646175
:1012D000642200007433632E7478743D22257522D5
:1012E0000000436F6E6669672E7432632E747874E3
:1012F0003D224365726F20496E466C6F7722000075
:101300007433632E7478743D2225322E30662200A9
:10131000436F6E6669672E7432632E7478743D2253
:101320004365726F20446E466C6F77220000743301
:10133000632E7478743D2225322E30662200436F6E
:101340006E6669672E7432632E7478743D22416A2A
:101350007573746520496E466C6F77220000743394
:10136000632E7478743D2225322E32662200436F3C
:101370006E6669672E7432632E7478743D22416AFA
:101380007573746520446E466C6F77220000743369
:10139000632E7478743D2225322E32662200436F0C
:1013A0006E6669672E7432632E7478743D224365CD
:1013B000726F2050446F776E466C6F7722007433E3
:1013C000632E7478743D2225322E30662200436FDE
:1013D0006E6669672E7432632E7478743D2243659D
:1013E000726F2050496E466C6F7722007433632E03
:1013F0007478743D2225322E30662200436F6E666B
:1014000069672E7432632E7478743D224C696D695D
:1014100074652050446F776E466C6F77220074338A
:10142000632E7478743D2225322E31662200436F7C
:101430006E6669672E7432632E7478743D224C692F
:101440006D6974652050496E466C6F772200743365
:10145000632E7478743D2225322E31662200436F4C
:101460006E6669672E7432632E7478743D225665F9
:101470006C6F636964616420322200007433632EF0
:101480007478743D222575220000436F6E6669678B
:101490002E7432632E7478743D22416C61726D61DA
:1014A00020496E466C6F772200007433632E747887
:1014B000743D2225322E32662200436F6E666967C4
:1014C0002E7432632E7478743D225020496E696305
:1014D00069616C20446F776E466C6F7722007433BD
:1014E000632E7478743D2225322E32662200436FBB
:1014F0006E6669672E7432632E7478743D225020B4
:10150000496E696369616C20496E466C6F77220091
:101510007433632E7478743D2225322E3266220095
:10152000436F6E6669672E7432632E7478743D2241
:10153000502061746D6F736665726963612200008B
:101540007433632E7478743D2225322E3066220067
:10155000436F6E6669672E7432632E7478743D2211
:1015600048756D656461642200007433632E74787D
:10157000743D2225322E306622007061676520415D
:101580006A7573746573000066656368612E7478AC
:10159000743D2246656368613A253032752F2530E7
:1015A00032752F32302530327520202020486F725E
:1015B000613A20253032753A2530327522009BC0C1
:1015C00075F29CC076F29DC077F29EC078F29FC003
:1015D00079F2A0C07AF2A1C07BF2A2C07CF295C2DF
:1015E0007DF2C6C27EF25EEF0BF0080E016E050EB4
:1015F000006E002EFED78C9C959C060E006E002E71
:10160000FED7060176378C9ED8B0958ED8A0959ED1
:10161000958C83ACFED7012E01D002D00001E7D714
:10162000050E006E002EFED78C9C959C0000958EBA
:10163000060E006E002EFED7060E006E002EFED7A0
:10164000958C83ACFED7016A060E006E002EFED785
:1016500083BE01808C9C959C8C9E959E0001000C05
:10166000958E050E006E002EFED7958C060E006E30
:10167000002EFED78C9E959E050E006E002EFED786
:101680008C9C959C73C676F6B0DF74C676F6ADDF9B
:1016900075C676F6AADF959E0000958C83ACFED7C2
:1016A000050E006E002EFED700D00000958E050EB0
:1016B000006E002EFED776EF0BF081D702016D6B26
:1016C0006D51090816E3B00EFA6F036A6D51750F7C
:1016D000E96E020E0320EA6EEFCF72F6FAC273F6DD
:1016E0006DC274F672C675F60001BAD702016D2B91
:1016F000E7D70001000C060EEA6E7D0EE96EEF5092
:101700000DE0060E016E006A002EFED7012EFBD7FB
:101710007B0E006E002EFED7EF2EF3D7000C080EC6
:101720000601726F00C073F6958E060E006E002ED5
:10173000FED7958C83ACFED783BED88083AED8907D
:101740000136050E006E002EFED7959C8C9C722FE4
:10175000EBD7958E060E006E002EFED78C9E735131
:10176000D8A4959E0000958C83ACFED7050E006E24
:10177000002EFED78C9C959C060E006E002EFED788
:101780008C9E959E0001000CB00E06016E6F6F6B73
:10179000958E050E006E002EFED7958C060E006EFF
:1017A000002EFED78C9E959E050E006E002EFED755
:1017B0008C9C959C6EC676F6000117DF6FC676F698
:1017C00014DF958E050E006E002EFED7958C060E4A
:1017D000006E002EFED783ACFED78C9E959E050E24
:1017E000006E002EFED78C9C959C010E06016E2586
:1017F000706F766F0001F9DE006A91DF01C0F9F2C7
:10180000959E0000958C83ACFED7050E006E002ED1
:10181000FED700D00000958E050E006E002EFED77C
:10182000F9C295F2B00E06016E6F310E6F6F958E94
:10183000050E006E002EFED7958C060E006E002E53
:10184000FED78C9E959E050E006E002EFED78C9CBA
:10185000959C6EC676F60001C8DE6FC676F6C5DECC
:10186000958E050E006E002EFED7958C060E006E2E
:10187000002EFED783ACFED78C9E959E050E006E83
:10188000002EFED78C9C959C010E06016E25706F74
:10189000766F0001AADE006A42DF01C0F9F2959E70
:1018A0000000958C83ACFED7050E006E002EFED78F
:1018B00000D00000958E050E006E002EFED7F9C2F6
:1018C000C6F2020195510A0868E1C651800865E137
:1018D000010E6D6F6D5149085CE3B00EFA6F6DC279
:1018E000FBF2FAC26EF6FBC26FF6958E050E006E25
:1018F000002EFED7958C060E006E002EFED78C9E15
:10190000959E050E006E002EFED78C9C959C6EC693
:1019100076F600016ADE6FC676F667DE958E050EF6
:10192000006E002EFED7958C060E006E002EFED7A0
:1019300083ACFED78C9E959E050E006E002EFED7C2
:101940008C9C959C010E06016E25706F766F0001D0
:101950004CDE006AE4DE01C0F9F2959E0000958C31
:1019600083ACFED7050E006E002EFED700D000001F
:10197000958E050E006E002EFED7036A02016D5192
:10198000950FE96E020E0320EA6EF9C2EFFF6D2B90
:10199000A1D7000102EF00F002010001DDEF0CF021
:1019A000030E9B6F010E9C6F9D6B9E6B86DEC80EB7
:1019B00006017D6F00019FDEE7D6000C6EC69BF02E
:1019C0006FC69CF070C69DF0000171C69EF00001CC
:1019D00074DE000C8E0E006EAEC601F0ADC602F0D5
:1019E000036A015209E102C001F0026A080E005EBA
:1019F000015202E1006A08D0D89001BE04D002363C
:101A000001360006F9D7019E000C0601A951D8B491
:101A1000A5D0B56FAD51D8B4A1D0B55F05E37F0EA9
:101A2000B527D8B09BD006D0810EB55FD8A096D090
:101A3000D8B494D0B5C600F0016A026A036AB46BE8
:101A4000AAC6B3F6B38FABC6B2F6ACC6B1F6190EE2
:101A5000B56FB051B15F0DE2010EB25F0AE2B35F44
:101A600008E2B45F06E2B42BB32BB22BB051B1271E
:101A700028D0AF51B25F12E2010EB35F0FE2B45F44
:101A80000DE2B42BB32BAF51B227B051B12719E3FC
:101A9000B22B17E1B32B15E1B42B13D0AE51800953
:101AA000B35F0EE2010EB45F0BE2B42BAE518009BE
:101AB000B327AF51B227E9E3B32BE7E1B42BE5D766
:101AC0000380B52F01D00BD0D890B137B237B337E0
:101AD000B437D890033602360136B637BAD7B6A136
:101AE00006D0D890013202320332B63302D000065B
:101AF00035E0B6BF1ED0D890B137B237B337B43760
:101B0000B051B15F07E2010EB25F04E2B35F02E2DF
:101B1000B45F1AE3AF51B25F05E2010EB35F02E2B8
:101B2000B45F12E3AE518009B35F03E2010EB45F0C
:101B30000BE3032A09E1022A07E1012A05E1002A51
:101B40000DE0013202320332AAC6B5F6AE51B51B22
:101B5000B5AF02D0018E06D0019E04D0006A016AA2
:101B6000026A036A0001000C0601A951D8B471D0C1
:101B7000006EAD51D8B46DD0002604E3810E00266E
:101B800068E204D07F0E005E64E363E0AAC6B1F6AB
:101B9000AE51B11BAA8FAE8FAC51B003F4CFB3F6E8
:101BA000AB51AF03F4CF03F0F3CFB2F6B003F35071
:101BB000B327F450B223000E0322AC51AF03F3500D
:101BC000B327F450B223000E026A03220222AA5164
:101BD000B003F350B227F4500322000E0222AA51A0
:101BE000AF03F3500326F4500222000E016A0122D3
:101BF000AC51AE03F350B227F4500322000E022280
:101C00000122AB51AE03F3500326F4500222000E22
:101C10000122AA51AE03F3500226F4500122002AF9
:101C200001BE05D0B2370336023601360006000E7B
:101C3000B2AF0AD0032A02220122015005E102506C
:101C400003E1035001E1002AB1BF018EB1AF019E53
:101C500004D0006A016A026A036A0001000C8E0E59
:101C6000006E0601A951005EAAC602F0ABC601F0E3
:101C7000028E005209E0D890025202E1015204E0C3
:101C800002320132002EF7D7AAAF05D0011E021E84
:101C9000012AD8B4022A0001000C060169532DE183
:101CA0008B9694968B94949400017ADE96C26FF68C
:101CB00097C26EF606016E5302E16F530FE0050EF8
:101CC0006E6F6F6B716B706B000178DEAF2B7E8176
:101CD000AF510A0801E27D8F0ED0060100017EA1FE
:101CE0000AD07E91AF6B7D9F06016E6B6F6B716B3F
:101CF000706B000163DE94D006018B869496AE6B08
:101D000069C6ADF6000166DE00C06EF601C06FF672
:101D100002C070F603C071F603C0ACF602C0ABF6A9
:101D200001C0AAF600C0A9F6550E0601B06FAF6F4C
:101D3000AE6F7F0EAD6F000168DE00C06EF601C0B1
:101D40006FF602C070F603C071F603C0ACF602C0B5
:101D5000ABF601C0AAF600C0A9F60601B06BAF6BE6
:101D6000200EAE6F820EAD6F0001FEDE03C06DF679
:101D700002C06CF601C06BF600C06AF611DE6DC6DB
:101D8000ACF66CC6ABF66BC6AAF66AC6A9F667DFF8
:101D900002C0D6F001C0D5F096C26FF697C26EF6BB
:101DA00006016E2D10D06F530EE198C203F00201B0
:101DB00099510001D55DD8B402D0060104D003507A
:101DC000D65D20E00601050E6E6F010E6F6FD6C066
:101DD00071F6D5C070F60001F1DD0A0E06017D6FC7
:101DE000000189DC050E06016E6F6F6B716B010ED1
:101DF000706F0001E3DDAF2B7E81AF510A0801E275
:101E00007D8F0ED08B9094907EA10AD07E91AF6B87
:101E10007D9F06016E6B6F6B716B706B0001CEDD89
:101E2000000C0601736B735107080DE3D8907233F1
:101E300002E28B9801D08B889498949A8B8A949A1A
:101E40008B9A732BF0D70001000C95968C8670C688
:101E500072F6E7DF71C672F6E4DF95968C96000C99
:101E600095968C866DC672F6DCDF9488100E006E37
:101E7000002EFED7000006016E6B6E51070815E3B9
:101E8000948882B802D0D89001D0D8806F33949AC9
:101E90008B8A210E006E002EFED7949A8B9A210E0B
:101EA000006E002EFED76E2BE8D795968C966FC6E7
:101EB00001F00001000C95968C96210E006E002E0C
:101EC000FED7949A8B9A8E0E0601706F716B00018B
:101ED000BCDF900E0601706FA40E716F0001B5DFBC
:101EE000810E06016D6F0001BBDF01C069F60601BE
:101EF0006951800B06E0800E706F716B0001A5DFE9
:101F00000601000165EF44F00900F55211E0F6CF3B
:101F100069F6F7CF6AF6F8CF6BF6F5509EA8FED7B4
:101F2000AD6E69C6F6FF6AC6F7FF6BC6F8FFECD761
:101F3000000C9EA8FED7AD6E000C100E006E002E99
:101F4000FED70000FF0EF5DF100E006E002EFED74C
:101F50000000FF0EEEDF100E006E002EFED7000018
:101F6000FF0EE7DF100E006E002EFED70000000C03
:101F7000800ED8A202D00601B21B0601B76BB86B67
:101F8000AEC6B6F6B251B61BAD51D8B4DFD0B56F00
:101F9000006EB151D8B4E3D0B55FD8B483D03EE37E
:101FA000B2C6BBF6BB8FB3C6BAF6B4C6B9F6B86B49
:101FB000D890BB33BA33B933B833B52FF8D7B6AFEF
:101FC00003D0B781E0D0B791B591B789060EEA6E1C
:101FD000B00EE96EEBD0B799B6BF0AD0B5A113D059
:101FE000BB33BA33B933B833002AD8B4C7D00BD017
:101FF000BBBF0CD0D890B837B937BA37BB3700065B
:10200000D8B4BCD0F5D7B78D6DD0B79DAEC6B6F6F7
:10201000AEAF02D0BB8FABD0BB9FA9D0B1C6B5F6D7
:10202000B1C600F0AD51B55FAEC6BBF6BB8FAFC653
:10203000BAF6B0C6B9F6B86BD890BB33BA33B93379
:10204000B833B52FF8D7B6AF03D0B7839CD0B793CA
:10205000B591B78B060EEA6EB40EE96EA7D0B79BAA
:10206000B6BF0AD0B5A113D0BB33BA33B933B83336
:10207000002AD8B483D00BD0BBBF0CD0D890B837CF
:10208000B937BA37BB370006D8B478D0F5D7B78F91
:1020900029D0B79FB2C6B6F6B2AF02D0BB8F67D019
:1020A000BB9F65D0B2C6BBF6BB8FB3C6BAF6B4C68B
:1020B000B9F6B6AF04D0BB9FB78565D0B795B86BFE
:1020C000B591060EEA6EB00EE96E70D0B6BF1CD0A8
:1020D000AEC6B6F6B5A106D0BB33BA33B933B83302
:1020E000002A4CE0B8AF0BD0B92B09E1BA2B07E1BD
:1020F000BB2B05E1BB33BA33B933002A3FE0B7BD90
:1021000084D7B7BFC6D71CD0800EBB1BBBAF04D0D3
:102110003AD0B2C6B6F60AD0AEC6B6F6BB5306E1A2
:10212000BA5304E1B95302E1006A21D0BBBF08D021
:10213000D890B837B937BA37BB37002EF7D71ED08B
:10214000B6AF02D0BB8F13D0BB9F11D0B1C600F089
:10215000B2C6BBF6B3C6BAF6B4C6B9F608D0ADC6B9
:1021600000F0AEC6BBF6AFC6BAF6B0C6B9F6BBC68F
:1021700001F0BAC602F0B9C603F034D0006A016AB1
:10218000026A036A2FD0B86BB91FBA1FBB1FB81FF2
:10219000B82B05E1B92B03E1BA2B01E1BB2BB7B199
:1021A00012D7B7B354D7B7B589D7B3D7EF50B9273C
:1021B00005E3BA2B03E1BB2BD8B4B581ED52EF5048
:1021C000BA2703E3BB2BD8B4B581ED52EF50EFBE75
:1021D00001D0800ABB27D8B0B581B7B9FCD6B7BB50
:1021E0003ED774D70001000CF2CF69F6F29CF29E44
:1021F000AA6AA96AA69CA69EA680A850060169BDE7
:10220000F28C69BFF28E0001DF6F0A0E06017D6F4E
:1022100000017BEC0BF0F2CF69F6F29CF29EAA6A09
:10222000010EA96EA69CA69EA680A850060169BDB7
:10223000F28C69BFF28E0001E06F0A0E06017D6F1D
:1022400000017BEC0BF0F2CF69F6F29CF29EAA6AD9
:10225000020EA96EA69CA69EA680A850060169BD86
:10226000F28C69BFF28E0001E16F0A0E06017D6FEC
:1022700000017BEC0BF0F2CF69F6F29CF29EAA6AA9
:10228000030EA96EA69CA69EA680A850060169BD55
:10229000F28C69BFF28E0001E26F0A0E06017D6FBB
:1022A00000017BEC0BF0F2CF69F6F29CF29EAA6A79
:1022B000040EA96EA69CA69EA680A850060169BD24
:1022C000F28C69BFF28E0001B36F0A0E06017D6FBA
:1022D00000017BEC0BF0F2CF69F6F29CF29EAA6A49
:1022E000050EA96EA69CA69EA680A850060169BDF3
:1022F000F28C69BFF28E0001B16F0A0E06017D6F8C
:1023000000017BEC0BF0F2CF69F6F29CF29EAA6A18
:10231000060EA96EA69CA69EA680A850060169BDC1
:10232000F28C69BFF28E0001B76F0A0E06017D6F55
:1023300000017BEC0BF0F2CF69F6F29CF29EAA6AE8
:10234000070EA96EA69CA69EA680A850060169BD90
:10235000F28C69BFF28E0001B56F0A0E06017D6F27
:1023600000017BEC0BF0F2CF69F6F29CF29EAA6AB8
:10237000080EA96EA69CA69EA680A850060169BD5F
:10238000F28C69BFF28E0001BB6F0A0E06017D6FF1
:1023900000017BEC0BF0F2CF69F6F29CF29EAA6A88
:1023A000090EA96EA69CA69EA680A850060169BD2E
:1023B000F28C69BFF28E0001BA6F0A0E06017D6FC2
:1023C00000017BEC0BF0F2CF69F6F29CF29EAA6A58
:1023D0000C0EA96EA69CA69EA680A850060169BDFB
:1023E000F28C69BFF28E0001D76F0A0E06017D6F75
:1023F00000017BEC0BF0F2CF69F6F29CF29EAA6A28
:102400000D0EA96EA69CA69EA680A850060169BDC9
:10241000F28C69BFF28E0001D86F0A0E06017D6F43
:1024200000017BEC0BF0F2CF69F6F29CF29EAA6AF7
:102430000E0EA96EA69CA69EA680A850060169BD98
:10244000F28C69BFF28E0001D96F0A0E06017D6F12
:1024500000017BEC0BF0F2CF69F6F29CF29EAA6AC7
:102460000F0EA96EA69CA69EA680A850060169BD67
:10247000F28C69BFF28E0001DA6F0A0E06017D6FE1
:1024800000017BEC0BF0F2CF69F6F29CF29EAA6A97
:10249000100EA96EA69CA69EA680A850060169BD36
:1024A000F28C69BFF28E0001DB6F0A0E06017D6FB0
:1024B00000017BEC0BF0F2CF69F6F29CF29EAA6A67
:1024C000110EA96EA69CA69EA680A850060169BD05
:1024D000F28C69BFF28E0001DC6F0A0E06017D6F7F
:1024E00000017BEC0BF0F2CF69F6F29CF29EAA6A37
:1024F000120EA96EA69CA69EA680A850060169BDD4
:10250000F28C69BFF28E0001DD6F0A0E06017D6F4D
:1025100000017BEC0BF0F2CF69F6F29CF29EAA6A06
:10252000130EA96EA69CA69EA680A850060169BDA2
:10253000F28C69BFF28E0001DE6F0A0E06017D6F1C
:1025400000017BEC0BF00A0E06017D6F00017BECB5
:102550000BF0F2CF69F6F29CF29EAA6A190EA96EF0
:10256000A69CA69EA680A850060169BDF28C69BFF4
:10257000F28E00018A6F0A0E06017D6F00017BEC6E
:102580000BF0F2CF69F6F29CF29EAA6A1A0EA96EBF
:10259000A69CA69EA680A850060169BDF28C69BFC4
:1025A000F28EAE6BAD6F0001EAEC0CF003C00AF1E5
:1025B00002C009F101C008F100C007F10A0E0601CE
:1025C0007D6F00017BEC0BF00AC1ACF609C1ABF6E4
:1025D00008C1AAF607C1A9F60601B06BAF6B480E99
:1025E000AE6F850EAD6F000105EC0DF003C00AF172
:1025F00002C009F101C008F100C007F10601AE6B8D
:102600008AC0ADF60001EAEC0CF0D89203C0B0F637
:1026100002C0AFF601C0AEF600C0ADF60AC1B4F616
:1026200009C1B3F608C1B2F607C1B1F6A1DC03C017
:102630007DF302C07CF301C07BF300C07AF3F2CFDC
:1026400069F6F29CF29EAA6A1B0EA96EA69CA69E33
:10265000A680A850060169BDF28C69BFF28E000108
:102660008A6F0A0E06017D6F00017BEC0BF0F2CF42
:1026700069F6F29CF29EAA6A1C0EA96EA69CA69E02
:10268000A680A850060169BDF28C69BFF28EAE6BC0
:10269000AD6F0001EAEC0CF003C00AF102C009F1D1
:1026A00001C008F100C007F10A0E06017D6F0001AC
:1026B0007BEC0BF00AC1ACF609C1ABF608C1AAF677
:1026C00007C1A9F60601B06BAF6B480EAE6F850E61
:1026D000AD6F000105EC0DF003C00AF102C009F175
:1026E00001C008F100C007F10601AE6B8AC0ADF66B
:1026F0000001EAEC0CF0D89203C0B0F602C0AFF6CD
:1027000001C0AEF600C0ADF60AC1B4F609C1B3F619
:1027100008C1B2F607C1B1F62BDC03C0E6F302C074
:10272000E5F301C0E4F300C0E3F30A0E06017D6F98
:1027300000017BEC0BF0F2CF69F6F29CF29EAA6AE4
:102740001D0EA96EA69CA69EA680A850060169BD76
:10275000F28C69BFF28E00018A6F0A0E06017D6F4E
:1027600000017BEC0BF0F2CF69F6F29CF29EAA6AB4
:102770001E0EA96EA69CA69EA680A850060169BD45
:10278000F28C69BFF28EAE6BAD6F0001EAEC0CF01B
:1027900003C00AF102C009F101C008F100C007F14D
:1027A0000A0E06017D6F00017BEC0BF00AC1ACF64E
:1027B00009C1ABF608C1AAF607C1A9F60601B06BBC
:1027C000AF6B200EAE6F820EAD6F000105EC0DF009
:1027D00003C00AF102C009F101C008F100C007F10D
:1027E0000601AE6B8AC0ADF60001EAEC0CF0D8929F
:1027F00003C0B0F602C0AFF601C0AEF600C0ADF641
:102800000AC1B4F609C1B3F608C1B2F607C1B1F600
:10281000B8EC0FF003C030F602C02FF601C02EF660
:1028200000C02DF6F2CF69F6F29CF29EAA6A1F0E46
:10283000A96EA69CA69EA680A850060169BDF28C32
:1028400069BFF28E00018A6F0A0E06017D6F0001DA
:102850007BEC0BF0F2CF69F6F29CF29EAA6A200E96
:10286000A96EA69CA69EA680A850060169BDF28C02
:1028700069BFF28EAE6BAD6F0001EAEC0CF003C0E5
:102880000AF102C009F101C008F100C007F10A0E07
:1028900006017D6F00017BEC0BF00AC1ACF609C1AB
:1028A000ABF608C1AAF607C1A9F60601B06BAF6B7B
:1028B000200EAE6F820EAD6F000105EC0DF003C06F
:1028C0000AF102C009F101C008F100C007F10601D8
:1028D000AE6B8AC0ADF60001EAEC0CF0D89203C0F2
:1028E000B0F602C0AFF601C0AEF600C0ADF60AC148
:1028F000B4F609C1B3F608C1B2F607C1B1F6B8EC37
:102900000FF003C0ECF502C0EBF501C0EAF500C022
:10291000E9F5F2CF69F6F29CF29EAA6A220EA96E40
:10292000A69CA69EA680A850060169BDF28C69BF30
:10293000F28E6A6FF2CF6BF6F29CF29EAA6A210EBB
:10294000A96EA69CA69EA680A8506BBDF28C6BBFFC
:10295000F28E6C6F6AC603F06C51AD6F03C0AEF6B9
:102960000001EAEC0CF003C068F302C067F301C099
:1029700066F300C065F30A0E06017D6F00017BEC73
:102980000BF0F2CF69F6F29CF29EAA6A240EA96EB1
:10299000A69CA69EA680A850060169BDF28C69BFC0
:1029A000F28E6A6FF2CF6BF6F29CF29EAA6A230E49
:1029B000A96EA69CA69EA680A8506BBDF28C6BBF8C
:1029C000F28E6C6F6AC603F06C51AD6F03C0AEF649
:1029D0000001EAEC0CF003C0D1F302C0D0F301C057
:1029E000CFF300C0CEF30A0E06017D6F00017BEC31
:1029F0000BF0F2CF69F6F29CF29EAA6A260EA96E3F
:102A0000A69CA69EA680A850060169BDF28C69BF4F
:102A1000F28E6A6FF2CF6BF6F29CF29EAA6A250ED6
:102A2000A96EA69CA69EA680A8506BBDF28C6BBF1B
:102A3000F28E6C6F6AC6C8F06CC6C7F00A0E7D6F66
:102A400000017BEC0BF0F2CF69F6F29CF29EAA6AD1
:102A5000270EA96EA69CA69EA680A850060169BD59
:102A6000F28C69BFF28E0001C66BC56F0A0E0601BB
:102A70007D6F00017BEC0BF0F2CF69F6F29CF29EC9
:102A8000AA6A280EA96EA69CA69EA680A85006013A
:102A900069BDF28C69BFF28E00018F6F0A0E0601CC
:102AA0007D6F00017BEC0BF0F2CF69F6F29CF29E99
:102AB000AA6A290EA96EA69CA69EA680A850060109
:102AC00069BDF28C69BFF28E0001906F0A0E06019B
:102AD0007D6F00017BEC0BF0F2CF69F6F29CF29E69
:102AE000AA6A2B0EA96EA69CA69EA680A8500601D7
:102AF00069BDF28C69BFF28E6A6FF2CF6BF6F29C01
:102B0000F29EAA6A2A0EA96EA69CA69EA680A8502E
:102B10006BBDF28C6BBFF28E6C6F6AC603F06C51AA
:102B2000AD6F03C0AEF60001EAEC0CF003C06CF32D
:102B300002C06BF301C06AF300C069F30A0E06011C
:102B40007D6F00017BEC0BF0F2CF69F6F29CF29EF8
:102B5000AA6A2D0EA96EA69CA69EA680A850060164
:102B600069BDF28C69BFF28E6A6FF2CF6BF6F29C90
:102B7000F29EAA6A2C0EA96EA69CA69EA680A850BC
:102B80006BBDF28C6BBFF28E6C6F6AC603F06C513A
:102B9000AD6F03C0AEF60001EAEC0CF003C0D5F354
:102BA00002C0D4F301C0D3F300C0D2F30A0E060171
:102BB0007D6F00017BEC0BF0F2CF69F6F29CF29E88
:102BC000AA6A2F0EA96EA69CA69EA680A8500601F2
:102BD00069BDF28C69BFF28E6A6FF2CF6BF6F29C20
:102BE000F29EAA6A2E0EA96EA69CA69EA680A8504A
:102BF0006BBDF28C6BBFF28E6C6F6AC603F06C51CA
:102C0000AD6F03C0AEF60001EAEC0CF003C022F693
:102C100002C021F601C020F600C01FF60A0E060110
:102C20007D6F00017BEC0BF0F2CF69F6F29CF29E17
:102C3000AA6A310EA96EA69CA69EA680A85006017F
:102C400069BDF28C69BFF28E6A6FF2CF6BF6F29CAF
:102C5000F29EAA6A300EA96EA69CA69EA680A850D7
:102C60006BBDF28C6BBFF28E6C6F6AC603F06C5159
:102C7000AD6F03C0AEF60001EAEC0CF003C0DEF568
:102C800002C0DDF501C0DCF500C0DBF50A0E06016F
:102C90007D6F00017BEC0BF0F2CF69F6F29CF29EA7
:102CA000AA6A320EA96EA69CA69EA680A85006010E
:102CB00069BDF28C69BFF28E03016F6F0A0E0601C7
:102CC0007D6F00017BEC0BF0F2CF69F6F29CF29E77
:102CD000AA6A330EA96EA69CA69EA680A8500601DD
:102CE00069BDF28C69BFF28E0301D86F0A0E06012E
:102CF0007D6F00017BEC0BF0F2CF69F6F29CF29E47
:102D0000AA6A340EA96EA69CA69EA680A8500601AB
:102D100069BDF28C69BFF28E00018A6F0A0E06014E
:102D20007D6F00017BEC0BF0F2CF69F6F29CF29E16
:102D3000AA6A350EA96EA69CA69EA680A85006017A
:102D400069BDF28C69BFF28EAE6BAD6F0001EAEC2B
:102D50000CF003C00AF102C009F101C008F100C083
:102D600007F10A0E06017D6F00017BEC0BF00AC132
:102D7000ACF609C1ABF608C1AAF607C1A9F606016F
:102D8000B06BAF6B480EAE6F850EAD6F000105ECFA
:102D90000DF003C00AF102C009F101C008F100C042
:102DA00007F10601AE6B8AC0ADF60001EAEC0CF04B
:102DB000D89203C0B0F602C0AFF601C0AEF600C0B4
:102DC000ADF60AC1B4F609C1B3F608C1B2F607C13F
:102DD000B1F6B8EC0FF003C036F202C035F201C014
:102DE00034F200C033F2F2CF69F6F29CF29EAA6A86
:102DF000360EA96EA69CA69EA680A850060169BDA7
:102E0000F28C69BFF28E00018A6F0A0E06017D6F97
:102E100000017BEC0BF0F2CF69F6F29CF29EAA6AFD
:102E2000370EA96EA69CA69EA680A850060169BD75
:102E3000F28C69BFF28EAE6BAD6F0001EAEC0CF064
:102E400003C00AF102C009F101C008F100C007F196
:102E50000A0E06017D6F00017BEC0BF00AC1ACF697
:102E600009C1ABF608C1AAF607C1A9F60601B06B05
:102E7000AF6B480EAE6F850EAD6F000105EC0DF027
:102E800003C00AF102C009F101C008F100C007F156
:102E90000601AE6B8AC0ADF60001EAEC0CF0D892E8
:102EA00003C0B0F602C0AFF601C0AEF600C0ADF68A
:102EB0000AC1B4F609C1B3F608C1B2F607C1B1F64A
:102EC000B8EC0FF003C022F102C021F101C020F1E3
:102ED00000C01FF1F2CF69F6F29CF29EAA6A380E8A
:102EE000A96EA69CA69EA680A850060169BDF28C7C
:102EF00069BFF28E00018A6F0A0E06017D6F000124
:102F00007BEC0BF0F2CF69F6F29CF29EAA6A390EC6
:102F1000A96EA69CA69EA680A850060169BDF28C4B
:102F200069BFF28EAE6BAD6F0001EAEC0CF003C02E
:102F30000AF102C009F101C008F100C007F10A0E50
:102F400006017D6F00017BEC0BF00AC1ACF609C1F4
:102F5000ABF608C1AAF607C1A9F60601B06BAF6BC4
:102F6000480EAE6F850EAD6F000105EC0DF003C08D
:102F70000AF102C009F101C008F100C007F1060121
:102F8000AE6B8AC0ADF60001EAEC0CF0D89203C03B
:102F9000B0F602C0AFF601C0AEF600C0ADF60AC191
:102FA000B4F609C1B3F608C1B2F607C1B1F6B8EC80
:102FB0000FF003C026F102C025F101C024F100C0CA
:102FC00023F1F2CF69F6F29CF29EAA6A3A0EA96E3C
:102FD000A69CA69EA680A850060169BDF28C69BF7A
:102FE000F28EAE6BAD6F0001EAEC0CF003C06AF23A
:102FF00002C069F201C068F200C067F20A0E060161
:103000007D6F00017BEC0BF0F2CF69F6F29CF29E33
:10301000AA6A3B0EA96EA69CA69EA680A850060191
:1030200069BDF28C69BFF28EAE6BAD6F0001EAEC48
:103030000CF003C052F202C051F201C050F200C0C5
:103040004FF20A0E06017D6F00017BEC0BF079EF69
:1030500044F0AAC6B1F60601AE51B11BB1AF05D01E
:10306000D894D890AABFD8802FD0AAC6B1F6ADC642
:10307000B2F6A951B25F06E0B1AF26D0D850010A2E
:10308000D86E22D0AEC6B2F6AA51B25F06E0B1AF9A
:103090001BD0D850010AD86E17D0AFC6B2F6AB51CC
:1030A000B25F06E0B1AF10D0D850010AD86E0CD094
:1030B000B0C6B2F6AC51B25F06E0B1AF05D0D850A1
:1030C000010AD86E01D0D8900001000CDFBF03D0F8
:1030D000DF51090803E3DFBF01D017D0DF6BAA6A15
:1030E000A96AA86AA69CA69EA684F250006EF29CCD
:1030F000F29E0F01550EA76EAA0EA76EA682A6B26B
:10310000FED7A6940050F2120001E0BF03D0E051B8
:10311000090803E3E0BF01D018D0E06BAA6A010EF2
:10312000A96EA86AA69CA69EA684F250006EF29C88
:10313000F29E0F01550EA76EAA0EA76EA682A6B22A
:10314000FED7A6940050F2120001E1BF03D0E15176
:10315000090803E3E1BF01D018D0E16BAA6A020EAF
:10316000A96EA86AA69CA69EA684F250006EF29C48
:10317000F29E0F01550EA76EAA0EA76EA682A6B2EA
:10318000FED7A6940050F2120001E2BF03D0E25134
:10319000090803E3E2BF01D018D0E26BAA6A030E6C
:1031A000A96EA86AA69CA69EA684F250006EF29C08
:1031B000F29E0F01550EA76EAA0EA76EA682A6B2AA
:1031C000FED7A6940050F2120001B35163081AE230
:1031D000010EB36FAA6A040EA96E010EA86EA69C1A
:1031E000A69EA684F250006EF29CF29E0F01550E30
:1031F000A76EAA0EA76EA682A6B2FED7A69400500E
:10320000F2120001B1513B0818E2B16BAA6A050E37
:10321000A96EA86AA69CA69EA684F250006EF29C97
:10322000F29E0F01550EA76EAA0EA76EA682A6B239
:10323000FED7A6940050F2120001B75163081AE2BB
:10324000010EB76FAA6A060EA96E010EA86EA69CA3
:10325000A69EA684F250006EF29CF29E0F01550EBF
:10326000A76EAA0EA76EA682A6B2FED7A69400509D
:10327000F2120001B5513B0818E2B56BAA6A070EBD
:10328000A96EA86AA69CA69EA684F250006EF29C27
:10329000F29E0F01550EA76EAA0EA76EA682A6B2C9
:1032A000FED7A6940050F2120001BB5163081AE247
:1032B000010EBB6FAA6A080EA96E010EA86EA69C2D
:1032C000A69EA684F250006EF29CF29E0F01550E4F
:1032D000A76EAA0EA76EA682A6B2FED7A69400502D
:1032E000F2120001BA513B0818E2BA6BAA6A090E41
:1032F000A96EA86AA69CA69EA684F250006EF29CB7
:10330000F29E0F01550EA76EAA0EA76EA682A6B258
:10331000FED7A6940050F2120001D7BF03D0D751B8
:10332000090803E3D7BF01D018D0D76BAA6A0C0EE7
:10333000A96EA86AA69CA69EA684F250006EF29C76
:10334000F29E0F01550EA76EAA0EA76EA682A6B218
:10335000FED7A6940050F2120001D8BF03D0D85176
:10336000090803E3D8BF01D018D0D86BAA6A0D0EA4
:10337000A96EA86AA69CA69EA684F250006EF29C36
:10338000F29E0F01550EA76EAA0EA76EA682A6B2D8
:10339000FED7A6940050F2120001D9BF03D0D95134
:1033A000090803E3D9BF01D018D0D96BAA6A0E0E61
:1033B000A96EA86AA69CA69EA684F250006EF29CF6
:1033C000F29E0F01550EA76EAA0EA76EA682A6B298
:1033D000FED7A6940050F2120001DABF03D0DA51F2
:1033E000090803E3DABF01D018D0DA6BAA6A0F0E1E
:1033F000A96EA86AA69CA69EA684F250006EF29CB6
:10340000F29E0F01550EA76EAA0EA76EA682A6B257
:10341000FED7A6940050F2120001DBBF03D0DB51AF
:10342000090803E3DBBF01D018D0DB6BAA6A100EDA
:10343000A96EA86AA69CA69EA684F250006EF29C75
:10344000F29E0F01550EA76EAA0EA76EA682A6B217
:10345000FED7A6940050F2120001DCBF03D0DC516D
:10346000090803E3DCBF01D018D0DC6BAA6A110E97
:10347000A96EA86AA69CA69EA684F250006EF29C35
:10348000F29E0F01550EA76EAA0EA76EA682A6B2D7
:10349000FED7A6940050F2120001DDBF03D0DD512B
:1034A000090803E3DDBF01D018D0DD6BAA6A120E54
:1034B000A96EA86AA69CA69EA684F250006EF29CF5
:1034C000F29E0F01550EA76EAA0EA76EA682A6B297
:1034D000FED7A6940050F2120001DEBF03D0DE51E9
:1034E000090803E3DEBF01D017D0DE6BAA6A130E12
:1034F000A96EA86AA69CA69EA684F250006EF29CB5
:10350000F29E0F01550EA76EAA0EA76EA682A6B256
:10351000FED7A6940050F2120601AC6BAB6B200EE6
:10352000AA6F820EA96F7DC3B0F67CC3AFF67BC3D2
:10353000AEF67AC3ADF600018CDD10E27DC3ACF6C9
:103540007CC3ABF67BC3AAF67AC3A9F60601B06BBF
:10355000AF6BAE6BAD6B00017CDD34E103017D6BC5
:103560007C6B400E7B6F7F0E7A6FAA6A190EA96E74
:10357000010EA86EA69CA69EA684F250006EF29C38
:10358000F29E0F01550EA76EAA0EA76EA682A6B2D6
:10359000FED7A6940050F212AA6A1A0EA96E320E35
:1035A000A86EA69CA69EA684F250006EF29CF29E87
:1035B000550EA76EAA0EA76EA682A6B2FED7A69437
:1035C0000050F2120601AC6BAB6B200EAA6F820E9C
:1035D000A96FE6C3B0F6E5C3AFF6E4C3AEF6E3C346
:1035E000ADF6000136DD10E2E6C3ACF6E5C3ABF69E
:1035F000E4C3AAF6E3C3A9F60601B06BAF6BAE6BEA
:10360000AD6B000126DD34E10301E66BE56B400E96
:10361000E46F7F0EE36FAA6A1B0EA96E010EA86EFF
:10362000A69CA69EA684F250006EF29CF29E0F010C
:10363000550EA76EAA0EA76EA682A6B2FED7A694B6
:103640000050F212AA6A1C0EA96E320EA86EA69C39
:10365000A69EA684F250006EF29CF29E550EA76EB6
:10366000AA0EA76EA682A6B2FED7A6940050F212AA
:103670000601AC6BAB6BAA6B800EA96F30C6B0F6BF
:103680002FC6AFF62EC6AEF62DC6ADF60001E1DCB4
:1036900010E230C6ACF62FC6ABF62EC6AAF62DC683
:1036A000A9F60601B06BAF6BAE6BAD6B0001D1DC60
:1036B00032E10601306B2F6B2E6B7F0E2D6FAA6AE5
:1036C0001D0EA96E010EA86EA69CA69EA684F250A1
:1036D000006EF29CF29E0F01550EA76EAA0EA76E09
:1036E000A682A6B2FED7A6940050F212AA6A1E0EB7
:1036F000A96EA86AA69CA69EA684F250006EF29CB3
:10370000F29E550EA76EAA0EA76EA682A6B2FED78F
:10371000A6940050F2120601AC6BAB6B400EAA6F80
:10372000800EA96FECC5B0F6EBC5AFF6EAC5AEF6F4
:10373000E9C5ADF600018DDC10E2ECC5ACF6EBC5D9
:10374000ABF6EAC5AAF6E9C5A9F60601B06BAF6B00
:10375000AE6BAD6B00017DDC32E10501EC6BEB6B18
:10376000EA6B7F0EE96FAA6A1F0EA96E010EA86EA2
:10377000A69CA69EA684F250006EF29CF29E0F01BB
:10378000550EA76EAA0EA76EA682A6B2FED7A69465
:103790000050F212AA6A200EA96EA86AA69CA69EE4
:1037A000A684F250006EF29CF29E550EA76EAA0EF1
:1037B000A76EA682A6B2FED7A6940050F21206010A
:1037C000AC6BAB6B0C0EAA6F870EA96F68C3B0F61B
:1037D00067C3AFF666C3AEF665C3ADF6000139DC6C
:1037E00012E268C3ACF667C3ABF666C3AAF665C35C
:1037F000A9F60601B06BAF6B340EAE6F860EAD6FDF
:10380000000127DC33E30301686B676B4B0E666FC7
:10381000860E656FAA6A210EA96ECB0EA86EA69CB5
:10382000A69EA684F250006EF29CF29E0F01550EE9
:10383000A76EAA0EA76EA682A6B2FED7A6940050C7
:10384000F212AA6A220EA96EA86AA69CA69EA68457
:10385000F250006EF29CF29E550EA76EAA0EA76E55
:10386000A682A6B2FED7A6940050F2120601AC6B57
:10387000AB6B0C0EAA6F870EA96FD1C3B0F6D0C385
:10388000AFF6CFC3AEF6CEC3ADF6000129EC18F00B
:1038900013E2D1C3ACF6D0C3ABF6CFC3AAF6CEC306
:1038A000A9F60601B06BAF6B340EAE6F860EAD6F2E
:1038B000000129EC18F034E30301D16BD06B4B0EFF
:1038C000CF6F860ECE6FAA6A230EA96ECB0EA86E9E
:1038D000A69CA69EA684F250006EF29CF29E0F015A
:1038E000550EA76EAA0EA76EA682A6B2FED7A69404
:1038F0000050F212AA6A240EA96EA86AA69CA69E7F
:10390000A684F250006EF29CF29E550EA76EAA0E8F
:10391000A76EA682A6B2FED7A6940050F2120001AE
:10392000C8510D0833E2FF0A03E1C75110082EE227
:10393000C86BC76BAA6A250EA96EA86AA69CA69E2C
:10394000A684F250006EF29CF29E0F01550EA76EF7
:10395000AA0EA76EA682A6B2FED7A6940050F212B7
:10396000AA6A260EA96EA86AA69CA69EA684F250F4
:10397000006EF29CF29E550EA76EAA0EA76EA6824E
:10398000A6B2FED7A6940050F2120001C65303E17E
:10399000C5513C0819E2C66BC56BAA6A270EA96E11
:1039A000A86AA69CA69EA684F250006EF29CF29E87
:1039B0000F01550EA76EAA0EA76EA682A6B2FED75D
:1039C000A6940050F21200018F51640802E38F5355
:1039D0001AE1320E8F6FAA6A280EA96E020EA86E27
:1039E000A69CA69EA684F250006EF29CF29E0F0149
:1039F000550EA76EAA0EA76EA682A6B2FED7A694F3
:103A00000050F212000190510D0819E2020E906F61
:103A1000AA6A290EA96E020EA86EA69CA69EA6846E
:103A2000F250006EF29CF29E0F01550EA76EAA0E88
:103A3000A76EA682A6B2FED7A6940050F212060187
:103A4000AC6BAB6B480EAA6F840EA96F6CC3B0F65B
:103A50006BC3AFF66AC3AEF669C3ADF6000129ECDD
:103A600018F030E303016C6B6B6B6A6B696BAA6ACD
:103A70002A0EA96EA86AA69CA69EA684F250006E85
:103A8000F29CF29E0F01550EA76EAA0EA76EA6829B
:103A9000A6B2FED7A6940050F212AA6A2B0EA96E07
:103AA000A86AA69CA69EA684F250006EF29CF29E86
:103AB000550EA76EAA0EA76EA682A6B2FED7A69432
:103AC0000050F2120601AC6BAB6B480EAA6F840E6D
:103AD000A96FD5C3B0F6D4C3AFF6D3C3AEF6D2C385
:103AE000ADF6000129EC18F030E30301D56BD46B7F
:103AF000D36BD26BAA6A2C0EA96EA86AA69CA69E4E
:103B0000A684F250006EF29CF29E0F01550EA76E35
:103B1000AA0EA76EA682A6B2FED7A6940050F212F5
:103B2000AA6A2D0EA96EA86AA69CA69EA684F2502B
:103B3000006EF29CF29E550EA76EAA0EA76EA6828C
:103B4000A6B2FED7A6940050F2120601AC6BAB6B86
:103B5000160EAA6F870EA96F22C6B0F621C6AFF661
:103B600020C6AEF61FC6ADF6000129EC18F013E230
:103B700022C6ACF621C6ABF620C6AAF61FC6A9F629
:103B80000601B06BAF6B480EAE6F860EAD6F0001D5
:103B900029EC18F033E30601226B216B7A0E206FBB
:103BA000860E1F6FAA6A2E0EA96EFA0EA86EA69C2C
:103BB000A69EA684F250006EF29CF29E0F01550E56
:103BC000A76EAA0EA76EA682A6B2FED7A694005034
:103BD000F212AA6A2F0EA96EA86AA69CA69EA684B7
:103BE000F250006EF29CF29E550EA76EAA0EA76EC2
:103BF000A682A6B2FED7A6940050F2120601AC6BC4
:103C0000AB6B160EAA6F870EA96FDEC5B0F6DDC5C9
:103C1000AFF6DCC5AEF6DBC5ADF6000129EC18F059
:103C200013E2DEC5ACF6DDC5ABF6DCC5AAF6DBC536
:103C3000A9F60601B06BAF6B480EAE6F860EAD6F86
:103C4000000129EC18F033E30501DE6BDD6B7A0E21
:103C5000DC6F860EDB6FAA6A300EA96EFA0EA86EB4
:103C6000A69CA69EA684F250006EF29CF29E0F01C6
:103C7000550EA76EAA0EA76EA682A6B2FED7A69470
:103C80000050F212AA6A310EA96EA86AA69CA69EDE
:103C9000A684F250006EF29CF29E550EA76EAA0EFC
:103CA000A76EA682A6B2FED7A6940050F212030118
:103CB0006F5114081AE20A0E6F6FAA6A320EA96ECB
:103CC0000A0EA86EA69CA69EA684F250006EF29CD8
:103CD000F29E0F01550EA76EAA0EA76EA682A6B27F
:103CE000FED7A6940050F2120301D851140819E22D
:103CF0000A0ED86FAA6A330EA96E0A0EA86EA69C89
:103D0000A69EA684F250006EF29CF29E0F01550E04
:103D1000A76EAA0EA76EA682A6B2FED7A6940050E2
:103D2000F2120601AC6BAB6BAA6B810EA96F36C2A7
:103D3000B0F635C2AFF634C2AEF633C2ADF600010E
:103D400029EC18F035E3CD0E0201366FCC0E356F3D
:103D50004C0E346F7D0E336FAA6A340EA96EA86ABA
:103D6000A69CA69EA684F250006EF29CF29E0F01C5
:103D7000550EA76EAA0EA76EA682A6B2FED7A6946F
:103D80000050F212AA6A350EA96E280EA86EA69CE3
:103D9000A69EA684F250006EF29CF29E550EA76E6F
:103DA000AA0EA76EA682A6B2FED7A6940050F21263
:103DB0009A0E0601AC6F990EAB6F190EAA6F7E0EAC
:103DC000A96F22C1B0F621C1AFF620C1AEF61FC166
:103DD000ADF6000129EC18F035E39A0E0101226FCF
:103DE000990E216F190E206F7D0E1F6FAA6A360E75
:103DF000A96EA86AA69CA69EA684F250006EF29CAC
:103E0000F29E0F01550EA76EAA0EA76EA682A6B24D
:103E1000FED7A6940050F212AA6A370EA96E010EC0
:103E2000A86EA69CA69EA684F250006EF29CF29EFE
:103E3000550EA76EAA0EA76EA682A6B2FED7A694AE
:103E40000050F212660E0601AC6FAB6FAA6F7F0EC8
:103E5000A96F26C1B0F625C1AFF624C1AEF623C1C5
:103E6000ADF6000129EC18F035E3CD0E0101226F0B
:103E7000CC0E216F4C0E206F7E0E1F6FAA6A380E7B
:103E8000A96EA86AA69CA69EA684F250006EF29C1B
:103E9000F29E0F01550EA76EAA0EA76EA682A6B2BD
:103EA000FED7A6940050F212AA6A390EA96E080E27
:103EB000A86EA69CA69EA684F250006EF29CF29E6E
:103EC000550EA76EAA0EA76EA682A6B2FED7A6941E
:103ED0000050F2120601AC6BAB6B5C0EAA6F850E44
:103EE000A96F6AC2B0F669C2AFF668C2AEF667C221
:103EF000ADF6000129EC18F013E26AC2ACF669C213
:103F0000ABF668C2AAF667C2A9F60601B06BAF6B42
:103F1000700EAE6F840EAD6F000129EC18F01EE339
:103F200002016A6B696B0E0E686F850E676FAA6A75
:103F30003A0EA96E470EA86EA69CA69EA684F250C5
:103F4000006EF29CF29E0F01550EA76EAA0EA76E90
:103F5000A682A6B2FED7A6940050F2120601AC6B60
:103F6000AB6B480EAA6F850EA96F52C2B0F651C254
:103F7000AFF650C2AEF64FC2ADF6000129EC18F014
:103F800013E252C2ACF651C2ABF650C2AAF64FC20F
:103F9000A9F60601B06BAF6B200EAE6F830EAD6F4E
:103FA000000129EC18F01EE30201526B516B700EF8
:103FB000506F840E4F6FAA6A3B0EA96E3C0EA86E1E
:103FC000A69CA69EA684F250006EF29CF29E0F0163
:103FD000550EA76EAA0EA76EA682A6B2FED7A6940D
:103FE0000050F2126AC2ACF669C2ABF668C2AAF619
:103FF00067C2A9F60601B06BAF6B7A0EAE6F880E82
:10400000AD6F0001B4EC0DF003C046F202C045F202
:1040100001C044F200C043F27BEF44F0CE5303E111
:10402000CD511D0801E27F8BD05303E1CF511D0814
:1040300001E27F8DD25303E1D1511D0801E27F8F50
:10404000D45303E1D3511D0801E28081000C985143
:104050000508D8A4BBD03CC031F03DC032F03EC012
:1040600033F03FC034F040C035F041C036F042C0BC
:1040700037F043C038F044C039F045C03AF0342C32
:1040800007D0816B8151995D02E081C099F09DD08C
:104090003450020808E1010E816F8151995D02E000
:1040A00081C099F092D03450030808E1020E816F6C
:1040B0008151995D02E081C099F087D034500408A5
:1040C00008E1030E816F8151995D02E081C099F092
:1040D0007CD03450050808E1040E816F8151995D50
:1040E00002E081C099F071D03450060808E1050E55
:1040F000816F8151995D02E081C099F066D03450A2
:10410000070808E1060E816F8151995D02E081C0C8
:1041100099F05BD03450080808E1070E816F815197
:10412000995D02E081C099F050D03450090808E14F
:10413000080E816F8151995D02E081C099F045D0F0
:1041400034500A0808E1090E816F8151995D02E03F
:1041500081C099F03AD034500F0801E136D0345084
:104160001A0808E10A0E816F8151995D02E081C051
:1041700099F02BD034501B0808E10F0E816F81514C
:10418000995D02E081C099F020D034501C0808E10C
:10419000100E816F8151995D02E081C099F015D0B8
:1041A00034502C0808E1640E816F8151995D02E062
:1041B00081C099F00AD03450CC0807E1F00E816F2D
:1041C0009951F00802E081C099F006D0A96BA9517D
:1041D000090802E3A92BFBD791EF44F06EC66FF6F6
:1041E00006016F39006E0F0E001600500A0DF3CF56
:1041F0006EF66F39006EF00E00160050003A0F0E8A
:10420000001600506E276EC601F00001000C06017A
:1042100077517903F3CF01F0F4CF00F07A03F35034
:10422000002678517903F3500020026E0001000C43
:1042300006017A35006E0036FC0E001600C001F053
:10424000C250C30B0010C26E010E7D6F00017BECEB
:104250000BF0C282C2B2FED7C4CF7CF60601C3CF38
:104260007BF67BC601F07CC602F00001000C060163
:10427000A8919CC6A1F69BC6A0F69AC69FF699C6C1
:104280009EF69CC6ACF69BC6ABF69AC6AAF699C635
:10429000A9F6B06BAF6BAE6BAD6B000129EC18F0FB
:1042A00005E30601A8819F51800A9F6FA1C6ACF665
:1042B000A0C6ABF69FC6AAF69EC6A9F60601B06BCD
:1042C000AF6BAE6B8E0EAD6F000129EC18F001E202
:1042D00019E1A1C6ACF6A0C6ABF69FC6AAF69EC66B
:1042E000A9F62FEC0EF002C0AEF601C0ADF6EAEC76
:1042F0000CF003C0A5F602C0A4F601C0A3F600C0EE
:10430000A2F6D3D0A1C6ACF6A0C6ABF69FC6AAF65D
:104310009EC6A9F6800E0601B06F960EAF6F180EFE
:10432000AE6F960EAD6F000129EC18F0D8A0B5D095
:10433000A1C6ACF6A0C6ABF69FC6AAF69EC6A9F665
:104340000601B06BAF6BAE6B8E0EAD6F000105EC6E
:104350000DF003C0ACF602C0ABF601C0AAF600C077
:10436000A9F62FEC0EF002C0A7F601C0A6F6A1C672
:10437000ACF6A0C6ABF69FC6AAF69EC6A9F6060185
:10438000B06BAF6BAE6B8E0EAD6F000105EC0DF038
:1043900000C0A9F601C0AAF602C0ABF603C0ACF695
:1043A000A7C6AEF6A6C6ADF6EAEC0CF0D882ACC64F
:1043B000B0F6ABC6AFF6AAC6AEF6A9C6ADF603C058
:1043C000B4F602C0B3F601C0B2F600C0B1F6B8EC64
:1043D0000FF00601AC6BAB6BAA6B8E0EA96F03C01E
:1043E000B0F602C0AFF601C0AEF600C0ADF60001F7
:1043F000B4EC0DF003C0A1F602C0A0F601C09FF618
:1044000000C09EF6A7C6AEF6A6C6ADF6EAEC0CF066
:104410000601AC6BAB6BAA6B8E0EA96F03C0B0F636
:1044200002C0AFF601C0AEF600C0ADF60001B4ECBC
:104430000DF003C0A5F602C0A4F601C0A3F600C0AB
:10444000A2F6A1C6ACF6A0C6ABF69FC6AAF69EC65B
:10445000A9F62FEC0EF002C0AEF601C0ADF6EAEC04
:104460000CF0D892A5C6B0F6A4C6AFF6A3C6AEF6B9
:10447000A2C6ADF603C0B4F602C0B3F601C0B2F6F0
:1044800000C0B1F6B8EC0FF003C0A5F602C0A4F668
:1044900001C0A3F600C0A2F608D0A1C6A5F6A0C62A
:1044A000A4F69FC6A3F69EC6A2F6A1C6ACF6A0C609
:1044B000ABF69FC6AAF69EC6A9F62FEC0EF002C078
:1044C000AEF601C0ADF6EAEC0CF0D882A1C6B0F6AB
:1044D000A0C6AFF69FC6AEF69EC6ADF603C0B4F654
:1044E00002C0B3F601C0B2F600C0B1F6B8EC0FF0EE
:1044F00003C0A1F602C0A0F601C09FF600C09EF660
:104500000601A8A103D0A351800AA36FA1C6ACF6EF
:10451000A0C6ABF69FC6AAF69EC6A9F6B06BAF6B57
:10452000AE6BAD6B000129EC18F03CE00601A8A1D0
:104530001CD09D531AE1D882A5C6B0F6A4C6AFF62A
:10454000A3C6AEF6A2C6ADF6B46BB36BB26B7F0E6C
:10455000B16F0001B8EC0FF003C0A5F602C0A4F6DD
:1045600001C0A3F600C0A2F60601A8B11CD09D2D83
:104570001AD0D892A5C6B0F6A4C6AFF6A3C6AEF6BA
:10458000A2C6ADF6B46BB36BB26B7F0EB16F000118
:10459000B8EC0FF003C0A5F602C0A4F601C0A3F664
:1045A00000C0A2F606019CC6ACF69BC6ABF69AC646
:1045B000AAF699C6A9F6B06BAF6BAE6BAD6B0001F6
:1045C00029EC18F006E10601A56BA46BA36BA26BA6
:1045D0000001A2C600F0A3C601F0A4C602F0A5C661
:1045E00003F0000C98C69CF697C69BF696C69AF602
:1045F00095C699F6010E06019D6F000138DE6FEF3A
:1046000023F098C69CF697C69BF696C69AF695C672
:1046100099F606019D6B00012ADE93EF23F08CC60C
:10462000ACF68BC6ABF68AC6AAF689C6A9F6060111
:10463000B06BAF6BAE6BAD6B000129EC18F0D8B46A
:10464000A1D088C6ACF687C6ABF686C6AAF685C6E4
:10465000A9F68CC6B0F68BC6AFF68AC6AEF689C68A
:10466000ADF605EC0DF000C091F601C092F602C067
:1046700093F603C094F603C0ACF602C0ABF601C0DB
:10468000AAF600C0A9F60601B06BAF6BAE6BAD6BBE
:10469000000129EC18F024E388C6ACF687C6ABF617
:1046A00086C6AAF685C6A9F68CC6B0F68BC6AFF646
:1046B0008AC6AEF689C6ADF605EC0DF000C091F6DF
:1046C00001C092F602C093F603C094F603C098F6B8
:1046D00002C097F601C096F600C095F683D723D0A6
:1046E00088C6ACF687C6ABF686C6AAF685C6A9F616
:1046F0008CC6B0F68BC6AFF68AC6AEF689C6ADF6E6
:1047000005EC0DF000C091F601C092F602C093F6E0
:1047100003C094F603C098F602C097F601C096F65F
:1047200000C095F66ED703C090F602C08FF601C0A8
:104730008EF600C08DF690C6ACF68FC6ABF68EC670
:10474000AAF68DC6A9F68CC6B0F68BC6AFF68AC699
:10475000AEF689C6ADF6B4EC0DF0D88288C6B0F6D8
:1047600087C6AFF686C6AEF685C6ADF603C0B4F60C
:1047700002C0B3F601C0B2F600C0B1F6B8EC0FF05B
:1047800001D000D0000C8E0E006EA0C601F09FC6B6
:1047900002F0036A01AE05D0011E021E022A01E1E9
:1047A000012A015209E102C001F0026A080E005E0E
:1047B000015202E1006A0DD0D89001BE04D0023649
:1047C00001360006F9D70601A0AF02D0000101D0E2
:1047D000019E0001000C8CC690F68BC68FF68AC62F
:1047E0008EF689C68DF690C6ACF68FC6ABF68EC631
:1047F000AAF68DC6A9F60601B06BAF6BAE6B7F0E45
:10480000AD6F000129EC18F0D8B446D2060E0601AF
:104810009F6F8D0EE96E9FC6EAFF7E0EEF6ED88207
:1048200090C6B0F68FC6AFF68EC6AEF68DC6ADF6A4
:10483000B46BB36BB26B7F0EB16F0001B8EC0FF0CD
:1048400000C09EF601C09FF602C0A0F603C0A1F60C
:10485000D89290C6B0F68FC6AFF68EC6AEF68DC6AD
:10486000ADF60601B46BB36BB26B7F0EB16F000196
:10487000B8EC0FF0A1C6ACF6A0C6ABF69FC6AAF680
:104880009EC6A9F603C0B0F602C0AFF601C0AEF6F0
:1048900000C0ADF605EC0DF003C090F602C08FF637
:1048A00001C08EF600C08DF690C6ACF68FC6ABF692
:1048B0008EC6AAF68DC6A9F690C6B0F68FC6AFF61C
:1048C0008EC6AEF68DC6ADF6B4EC0DF003C09CF608
:1048D00002C09BF601C09AF600C099F6BC0E060114
:1048E000AC6F240EAB6F670EAA6F7D0EA96F9CC6CE
:1048F000B0F69BC6AFF69AC6AEF699C6ADF6000105
:10490000B4EC0DF000C09EF601C09FF602C0A0F608
:1049100003C0A1F6D89203C0B0F602C0AFF601C042
:10492000AEF600C0ADF6E30E0601B46FE40EB36F51
:10493000900EB26F820EB16F0001B8EC0FF003C0A1
:1049400094F602C093F601C092F600C091F694C6A8
:10495000ACF693C6ABF692C6AAF691C6A9F69CC66B
:10496000B0F69BC6AFF69AC6AEF699C6ADF6B4ECF5
:104970000DF000C09EF601C09FF602C0A0F603C075
:10498000A1F6D89203C0B0F602C0AFF601C0AEF6F1
:1049900000C0ADF61C0E0601B46F870EB36F570E44
:1049A000B26F830EB16F0001B8EC0FF003C094F644
:1049B00002C093F601C092F600C091F694C6ACF620
:1049C00093C6ABF692C6AAF691C6A9F69CC6B0F6F7
:1049D0009BC6AFF69AC6AEF699C6ADF6B4EC0DF02E
:1049E00000C09EF601C09FF602C0A0F603C0A1F66B
:1049F000D89203C0B0F602C0AFF601C0AEF600C058
:104A0000ADF6AB0E0601B46FE10EB36F9E0EB26F42
:104A1000830EB16F0001B8EC0FF003C094F602C032
:104A200093F601C092F600C091F60601AC6BAB6B39
:104A3000AA6B7F0EA96F9CC6B0F69BC6AFF69AC64E
:104A4000AEF699C6ADF60001B4EC0DF000C09EF6CE
:104A500001C09FF602C0A0F603C0A1F6D89203C021
:104A6000B0F602C0AFF601C0AEF600C0ADF6B40EAF
:104A70000601B46F2A0EB36F820EB26FB16F0001E0
:104A8000B8EC0FF003C098F602C097F601C096F696
:104A900000C095F698C6ACF697C6ABF696C6AAF6D1
:104AA00095C6A9F69CC6B0F69BC6AFF69AC6AEF6FA
:104AB00099C6ADF6B4EC0DF000C09EF601C09FF6AD
:104AC00002C0A0F603C0A1F6D89203C0B0F602C09F
:104AD000AFF601C0AEF600C0ADF6800E0601B46FB1
:104AE0003E0EB36F060EB26F830EB16F0001B8ECCD
:104AF0000FF003C098F602C097F601C096F600C00A
:104B000095F698C6ACF697C6ABF696C6AAF695C6C5
:104B1000A9F69CC6B0F69BC6AFF69AC6AEF699C685
:104B2000ADF6B4EC0DF000C09EF601C09FF602C0D9
:104B3000A0F603C0A1F6D89203C0B0F602C0AFF64B
:104B400001C0AEF600C0ADF6AB0E0601B46FE10ECB
:104B5000B36F9E0EB26F820EB16F0001B8EC0FF012
:104B600003C098F602C097F601C096F600C095F60D
:104B700090C6ACF68FC6ABF68EC6AAF68DC6A9F661
:104B800094C6B0F693C6AFF692C6AEF691C6ADF631
:104B9000B4EC0DF000C09EF601C09FF602C0A0F676
:104BA00003C0A1F603C0ACF602C0ABF601C0AAF682
:104BB00000C0A9F698C6B0F697C6AFF696C6AEF690
:104BC00095C6ADF605EC0DF003C094F602C093F661
:104BD00001C092F600C091F6060E06019F6F890E85
:104BE000E96E9FC6EAFF7E0EEF5C9D6F9DBF01D010
:104BF00014D0000ED8809D55A06B9F6F9FBFA0075B
:104C00000001C1DD00C095F60150800A0601966FD3
:104C100002C097F603C098F610D0A06B9DC69FF611
:104C20009FBFA0070001AFDD03C098F602C097F652
:104C300001C096F600C095F6060198C6ACF697C678
:104C4000ABF696C6AAF695C6A9F6180EB06F720E08
:104C5000AF6F310EAE6F7E0EAD6F0001B4EC0DF094
:104C6000D89294C6B0F693C6AFF692C6AEF691C689
:104C7000ADF603C0B4F602C0B3F601C0B2F600C090
:104C8000B1F6B8EC0FF003C094F602C093F601C081
:104C900092F600C091F606D00601946B936B926B6E
:104CA000916B000191C600F092C601F093C602F02C
:104CB00094C603F0000C8CC6ACF68BC6ABF68AC665
:104CC000AAF689C6A9F6180E0601B06F720EAF6F6C
:104CD000310EAE6F7E0EAD6F000105EC0DF003C01E
:104CE000ACF602C0ABF601C0AAF600C0A9F62FECE4
:104CF0000EF001C099F606019A918CC690F68BC60B
:104D00008FF68AC68EF689C68DF68CC6ACF68BC633
:104D1000ABF68AC6AAF689C6A9F6B06BAF6BAE6BC6
:104D2000AD6B000129EC18F006E306019A81996D3C
:104D30008E51800A8E6F0601946B936B926B916B10
:104D4000060E9C6F910EE96E9CC6EAFF7F0E9925B8
:104D5000EF6E90C6ACF68FC6ABF68EC6AAF68DC6C1
:104D6000A9F6180EB06F720EAF6F310EAE6F7E0ED9
:104D7000AD6F000105EC0DF000C09BF601C09CF684
:104D800002C09DF603C09EF60601A06B99C69FF671
:104D90009FBFA0070001F7DCD8829EC6B0F69DC673
:104DA000AFF69CC6AEF69BC6ADF603C0B4F602C025
:104DB000B3F601C0B2F600C0B1F6B8EC0FF003C014
:104DC00090F602C08FF601C08EF600C08DF67C0E04
:104DD0000601AC6F880EAB6F590EAA6F720EA96FE9
:104DE00090C6B0F68FC6AFF68EC6AEF68DC6ADF6DF
:104DF0000001B4EC0DF000C09BF601C09CF602C0AF
:104E00009DF603C09EF6D89203C0B0F602C0AFF67E
:104E100001C0AEF600C0ADF6E00E0601B46F970E0D
:104E2000B36F260EB26F750EB16F0001B8EC0FF0C4
:104E300003C098F602C097F601C096F600C095F63A
:104E400098C6ACF697C6ABF696C6AAF695C6A9F66E
:104E500090C6B0F68FC6AFF68EC6AEF68DC6ADF66E
:104E6000B4EC0DF000C09BF601C09CF602C09DF6AC
:104E700003C09EF6D89203C0B0F602C0AFF601C0E0
:104E8000AEF600C0ADF6C40E0601B46F1D0EB36FD2
:104E90001E0EB26F780EB16F0001B8EC0FF003C0B8
:104EA00098F602C097F601C096F600C095F698C62F
:104EB000ACF697C6ABF696C6AAF695C6A9F690C606
:104EC000B0F68FC6AFF68EC6AEF68DC6ADF6B4ECB4
:104ED0000DF000C09BF601C09CF602C09DF603C019
:104EE0009EF6D89203C0B0F602C0AFF601C0AEF68F
:104EF00000C0ADF65E0E0601B46F500EB36F630EC8
:104F0000B26F7A0EB16F0001B8EC0FF003C098F6E3
:104F100002C097F601C096F600C095F698C6ACF6AA
:104F200097C6ABF696C6AAF695C6A9F690C6B0F691
:104F30008FC6AFF68EC6AEF68DC6ADF6B4EC0DF0EC
:104F400000C09BF601C09CF602C09DF603C09EF611
:104F5000D89203C0B0F602C0AFF601C0AEF600C0F2
:104F6000ADF61A0E0601B46FFE0EB36F750EB26F7A
:104F70007C0EB16F0001B8EC0FF003C098F602C0D0
:104F800097F601C096F600C095F698C6ACF697C69F
:104F9000ABF696C6AAF695C6A9F690C6B0F68FC629
:104FA000AFF68EC6AEF68DC6ADF6B4EC0DF000C011
:104FB0009BF601C09CF602C09DF603C09EF6D892F7
:104FC00003C0B0F602C0AFF601C0AEF600C0ADF649
:104FD000180E0601B46F720EB36F310EB26F7E0EF3
:104FE000B16F0001B8EC0FF003C098F602C097F65D
:104FF00001C096F600C095F690C6ACF68FC6ABF62B
:105000008EC6AAF68DC6A9F698C6B0F697C6AFF6B4
:1050100096C6AEF695C6ADF6B4EC0DF0D892060184
:10502000B06BAF6BAE6B7F0EAD6F03C0B4F602C05A
:10503000B3F601C0B2F600C0B1F60001B8EC0FF053
:1050400094C6ACF693C6ABF692C6AAF691C6A9F67C
:1050500003C0B0F602C0AFF601C0AEF600C0ADF6B8
:10506000B4EC0DF003C094F602C093F601C092F6C2
:1050700000C091F606019AA119D0AC6BAB6BAA6B7C
:105080007F0EA96F94C6B0F693C6AFF692C6AEF681
:1050900091C6ADF6000105EC0DF003C094F602C018
:1050A00093F601C092F600C091F6060191C600F099
:1050B00092C601F093C602F094C603F00001000C02
:1050C00080C6ACF67FC6ABF67EC6AAF67DC6A9F64C
:1050D0000601B06BAF6BAE6BAD6B000129EC18F045
:1050E000D8A0D9D084C688F683C687F682C686F64D
:1050F00081C685F606018C6B8B6B8A6B7F0E896F80
:1051000000010FEC23F000C085F601C086F602C056
:1051100087F603C088F603C0ACF602C0ABF601C048
:10512000AAF600C0A9F60601B06BAF6BAE6BAD6B13
:10513000000129EC18F0D8A4AED084C688F683C646
:1051400087F682C686F681C685F606018C6B8B6B68
:105150008A6B800E896F00010FEC23F000C085F68A
:1051600001C086F602C087F603C088F603C0ACF61D
:1051700002C0ABF601C0AAF600C0A9F60601B06BEA
:10518000AF6BAE6BAD6B000129EC18F041E17DC651
:1051900085F606017E51800A866F7FC687F680C637
:1051A00088F680C68CF67FC68BF68A6F7DC689F638
:1051B0000001EBEC23F000C085F601C086F602C0CA
:1051C00087F603C088F603C0ACF602C0ABF601C098
:1051D000AAF600C0A9F684C6B0F683C6AFF682C6AA
:1051E000AEF681C6ADF6B4EC0DF000C085F601C098
:1051F00086F602C087F603C088F603C08CF602C0AC
:105200008BF601C08AF600C089F655DDDED042D0AB
:105210007DC685F606017E51800A866F7FC687F6B9
:1052200080C688F680C68CF67FC68BF68A6F7DC6F0
:1052300089F60001EBEC23F000C085F601C086F68C
:1052400002C087F603C088F603C0ACF602C0ABF616
:1052500001C0AAF600C0A9F684C6B0F683C6AFF6B0
:1052600082C6AEF681C6ADF6B4EC0DF000C085F690
:1052700001C086F602C087F603C088F603C08CF62C
:1052800002C08BF601C08AF600C089F614DD800EDC
:10529000011A9BD09AD080C6ACF67FC6ABF67EC60C
:1052A000AAF67DC6A9F60601B06BAF6BAE6BAD6B0F
:1052B000000129EC18F030E384C688F683C687F62F
:1052C00082C686F681C685F606018C6B8B6B8A6B6F
:1052D0007F0E896F00010FEC23F000C085F601C03E
:1052E00086F602C087F603C088F603C0ACF602C09B
:1052F000ABF601C0AAF600C0A9F60601B06BAF6B11
:10530000AE6BAD6B000129EC18F006E0006A016A93
:10531000026A036A5AD059D080C6ACF67FC6ABF693
:105320007EC6AAF67DC6A9F60601B06BAF6BAE6B62
:10533000AD6B000129EC18F012E184C6ACF683C60F
:10534000ABF682C6AAF681C6A9F60601B06BAF6BB2
:10535000AE6BAD6B000129EC18F001E236E180C6BE
:105360008CF67FC68BF67EC68AF67DC689F6EBEC98
:1053700023F000C085F601C086F602C087F603C0A0
:1053800088F603C0ACF602C0ABF601C0AAF600C0B6
:10539000A9F684C6B0F683C6AFF682C6AEF681C65D
:1053A000ADF6B4EC0DF000C085F601C086F602C083
:1053B00087F603C088F603C08CF602C08BF601C0E6
:1053C0008AF600C089F677DC00D0000C06016E6B0F
:1053D0006D6B6C6B6B6B786B6AC677F67A6B690E6C
:1053E000796F000107EC21F001C06FF6080E06018D
:1053F0000124016E000E0220036E0150FC0F016EAD
:10540000020E032201C06FF603C070F66AC67AF678
:10541000000118EC21F070C6EAFF6FC6E9FF02C078
:10542000ECFFED5201C0EFFF0601786B6AC677F61C
:105430007A6B690E796F000107EC21F002C070F6FB
:1054400001C06FF6FC0E06010124E96E020E022077
:10545000EA6EEFCF00F0ECCF01F0ECCF02F0ECCF32
:1054600003F0EACF70F6E9CF6FF6D8822EC2B0F61D
:105470002DC2AFF62CC2AEF62BC2ADF603C0B4F609
:1054800002C0B3F601C0B2F600C0B1F60001B8EC3C
:105490000FF070C6EAFF6FC6E9FF03C06EF602C0E8
:1054A0006DF601C06CF600C06BF60601786B6AC63B
:1054B00077F67A6B690E796F000107EC21F001C075
:1054C0006FF6080E06010124016E000E0220036E25
:1054D0000150FC0FE96E020E0320EA6EECCF70F66D
:1054E000ED52EFCF6FF670C6AEF66FC6ADF60001A7
:1054F000EAEC0CF0EACF72F6E9CF71F6D89203C06D
:10550000B0F602C0AFF601C0AEF600C0ADF66EC692
:10551000B4F66DC6B3F66CC6B2F66BC6B1F6B8ECAF
:105520000FF072C6EAFF71C6E9FF03C006F102C0C0
:1055300005F101C004F100C003F106C1ACF605C1DC
:10554000ABF604C1AAF603C1A9F60601B06BC00E02
:10555000AF6F7F0EAE6F880EAD6F000105EC0DF0E2
:1055600000C06FF601C070F602C071F603C072F69B
:1055700003C0ACF602C0ABF601C0AAF600C0A9F6A3
:105580000601B06BAF6B200EAE6F810EAD6F0001E8
:10559000B4EC0DF003C006F102C005F101C004F146
:1055A00000C003F10601786B6AC677F67A6B690E64
:1055B000796F000107EC21F001C06FF60B0E0601B8
:1055C0000124016E000E0220036E0150FC0F016EDB
:1055D000020E032201C06FF603C070F606C180F60A
:1055E00005C17FF604C17EF603C17DF6846B836B33
:1055F000826B810E816F000163DD00C071F601C016
:1056000072F602C073F603C074F603C0ACF602C0B3
:10561000ABF601C0AAF600C0A9F632C1B0F631C19E
:10562000AFF630C1AEF62FC1ADF6B4EC0DF000C050
:1056300071F601C072F602C073F603C074F606C1BB
:1056400080F605C17FF604C17EF603C17DF6060132
:10565000846B836B400E826F800E816F000130DDA2
:1056600000C075F601C076F602C077F603C078F682
:1056700003C0ACF602C0ABF601C0AAF600C0A9F6A2
:1056800036C1B0F635C1AFF634C1AEF633C1ADF6B2
:10569000B4EC0DF0EACF76F6E9CF75F6D89274C681
:1056A000B0F673C6AFF672C6AEF671C6ADF603C0FD
:1056B000B4F602C0B3F601C0B2F600C0B1F6B8EC61
:1056C0000FF076C6EAFF75C6E9FF00C071F601C0AB
:1056D00072F602C073F603C074F606C180F605C107
:1056E0007FF604C17EF603C17DF60601846B836BF1
:1056F000826B800E816F0001E3DC00C077F601C091
:1057000078F602C079F603C07AF603C0ACF602C0A0
:10571000ABF601C0AAF600C0A9F63AC1B0F639C18D
:10572000AFF638C1AEF637C1ADF6B4EC0DF0EACF46
:1057300078F6E9CF77F6D89274C6B0F673C6AFF6AE
:1057400072C6AEF671C6ADF603C0B4F602C0B3F6CB
:1057500001C0B2F600C0B1F6B8EC0FF078C6EAFFAF
:1057600077C6E9FF00C071F601C072F602C073F699
:1057700003C074F606C1ACF605C1ABF604C1AAF6C7
:1057800003C1A9F63EC1B0F63DC1AFF63CC1AEF6CD
:105790003BC1ADF6B4EC0DF0EACF7AF6E9CF79F67D
:1057A000D89274C6B0F673C6AFF672C6AEF671C6BE
:1057B000ADF603C0B4F602C0B3F601C0B2F600C045
:1057C000B1F6B8EC0FF07AC6EAFF79C6E9FF00C07F
:1057D00071F601C072F602C073F603C074F6EACF28
:1057E0007CF6E9CF7BF6D89203C0B0F602C0AFF6E4
:1057F00001C0AEF600C0ADF642C1B4F641C1B3F689
:1058000040C1B2F63FC1B1F6B8EC0FF07CC6EAFF7A
:105810007BC6E9FF70C6EAFF6FC6E9FF00C0EFFF75
:1058200001C0ECFF02C0ECFF03C0ECFF0601786B87
:105830006AC677F67A6B690E796F000107EC21F082
:1058400001C06FF60B0E06010124016E000E02204E
:10585000036E0150FC0FE96E020E0320EA6EEFCFDB
:105860006FF6ECCF70F6ECCF71F6ECCF72F672C635
:10587000ACF671C6ABF670C6AAF66FC6A9F6B06BE9
:10588000AF6BAE6BAD6B000129EC18F01DE30601A8
:10589000786B6AC677F67A6B690E796F000107EC50
:1058A00021F001C06FF60B0E06010124016E000EFF
:1058B0000220036E0150FC0FE96E020E0320EA6E17
:1058C000EF6AEC6AEC6AEC6A0601786B6AC677F6F6
:1058D0007A6B690E796F000107EC21F002C070F657
:1058E00001C06FF60F0E06010124016E000E0220AA
:1058F000036E0150FC0FE96E020E0320EA6EEFCF3B
:105900006FF6010E695D6F5D1AE019E3786B6AC688
:1059100077F67A6B690E796F000107EC21F001C010
:105920006FF60F0E06010124016E000E0220036EB9
:105930000150FC0FE96E020E0320EA6EEF6A786BED
:105940006AC677F67A6B690E796F000107EC21F071
:1059500002C070F601C06FF6190E06016F27000E27
:105960007023786B6AC677F67A6B690E796F0001DF
:1059700007EC21F002C072F601C071F60F0E0601AD
:105980000124016E000E0220036E0150FC0FE96E2F
:10599000020E0320EA6E786BEFCF77F67A6B040E77
:1059A000796F000107EC21F002C003F001500601FD
:1059B0006F25016E705103220150FC0F016E020E23
:1059C000032201C06FF603C070F6786B6AC677F6E3
:1059D0007A6B690E796F000107EC21F002C072F654
:1059E00001C071F60B0E06010124016E000E0220AB
:1059F000036E0150FC0FE96E020E0320EA6EEFCF3A
:105A000000F0ECCF01F0ECCF02F0ECCF03F070C669
:105A1000EAFF6FC6E9FF00C0EFFF01C0ECFF02C064
:105A2000ECFF03C0ECFF786B6AC677F67A6B690E01
:105A3000796F000107EC21F001C06FF60F0E06012F
:105A40000124016E000E0220036E0150FC0FE96E6E
:105A5000020E0320EA6EEF2A786B6AC677F67A6B3D
:105A6000690E796F000107EC21F001C06FF6110E8D
:105A700006010124016E000E0220036E0150FC0F8E
:105A8000E96E020E0320EA6EEF6AEC6AEC6AEC6AD9
:105A90000001866B010E0601695D0001865D02E072
:105AA000D8B083D00601786B6AC677F67A6B690E38
:105AB000796F000107EC21F001C06FF6110E0601AD
:105AC0000124016E000E0220036E0150FC0F016ED6
:105AD000020E032201C06FF603C070F603C0EAFF96
