:1000000008308A0000280000FF00030E8301A500CD
:100010007F08A4000A08AB008A01A40E0408A60009
:100020002008A7002108A8002208A9002308AA0088
:10003000831383128C308400801E20288C1A37286A
:100040008C308400801C26288C18392826088400CF
:100050002708A0002808A1002908A2002A08A30058
:100060002B088A00250E8300FF0E7F0E09008A11DF
:100070008E2A8A11552A0A108A100A11423E031844
:100080008A0A82000034C134813440340134C034DF
:10009000803441340134C034803441340034C134BC
:1000A000813440340134C034803441340034C134AC
:1000B000813440340034C134813440340134C0349C
:1000C000803441340134C034803441340034C1348C
:1000D000813440340034C134813440340134C0347C
:1000E000803441340034C134813440340134C0346C
:1000F000803441340134C034803441340034C1345C
:10010000813440340134C034803441340034C1344B
:10011000813440340034C134813440340134C0343B
:10012000803441340034C134813440340134C0342B
:10013000803441340134C034803441340034C1341B
:10014000813440340034C134813440340134C0340B
:10015000803441340134C034803441340034C134FB
:10016000813440340134C034803441340034C134EB
:10017000813440340034C134813440340134C034DB
:10018000803441340134C034803441340034C134CB
:10019000813440340034C134813440340134C034BB
:1001A000803441340034C134813440340134C034AB
:1001B000803441340134C034803441340034C1349B
:1001C000813440340034C134813440340134C0348B
:1001D000803441340134C034803441340034C1347B
:1001E000813440340134C034803441340034C1346B
:1001F000813440340034C134813440340134C0345B
:10020000803441340034C134813440340134C0344A
:10021000803441340134C034803441340034C1343A
:10022000813440340134C034803441340034C1342A
:10023000813440340034C134813440340134C0341A
:10024000803441340134C034803441340034C1340A
:10025000813440340034C134813440340134C034FA
:10026000803441340034C134813440340134C034EA
:10027000803441340134C034803441340034C134DA
:10028000813440340A148A100A11493E03188A0A3C
:1002900082000034C034C1340134C3340334023426
:1002A000C234C63406340734C7340534C534C434C4
:1002B0000434CC340C340D34CD340F34CF34CE343C
:1002C0000E340A34CA34CB340B34C93409340834FC
:1002D000C834D83418341934D9341B34DB34DA3404
:1002E0001A341E34DE34DF341F34DD341D341C3444
:1002F000DC341434D434D5341534D73417341634AC
:10030000D634D23412341334D3341134D134D034FB
:100310001034F03430343134F1343334F334F234D3
:1003200032343634F634F7343734F5343534343443
:10033000F4343C34FC34FD343D34FF343F343E343B
:10034000FE34FA343A343B34FB343934F934F8347B
:1003500038342834E834E9342934EB342B342A3463
:10036000EA34EE342E342F34EF342D34ED34EC34C3
:100370002C34E43424342534E5342734E734E634AB
:1003800026342234E234E3342334E134213420347B
:10039000E034A03460346134A1346334A334A23433
:1003A00062346634A634A7346734A53465346434C3
:1003B000A4346C34AC34AD346D34AF346F346E343B
:1003C000AE34AA346A346B34AB346934A934A834FB
:1003D00068347834B834B9347934BB347B347A3403
:1003E000BA34BE347E347F34BF347D34BD34BC3443
:1003F0007C34B43474347534B5347734B734B634AB
:1004000076347234B234B3347334B13471347034FA
:10041000B034503490349134513493345334523492
:100420009234963456345734973455349534943442
:1004300054349C345C345D349D345F349F349E343A
:100440005E345A349A349B345B349934593458347A
:10045000983488344834493489344B348B348A3462
:100460004A344E348E348F344F348D344D344C34C2
:100470008C344434843485344534873447344634AA
:10048000863482344234433483344134813480347A
:10049000403483168C10DC080319532A831291010F
:1004A0008C1083168C14831208002F08023C031D45
:1004B000652AB008031D652AB108031D652A2E1898
:1004C000652A0230B3022E14662A2E10FF30B100C6
:1004D000B000AF018316DC01831249228C108A110F
:1004E00026288C1E712A1808AD001A08A100AD1C20
:1004F0007B2A181218160800310883166006E100DE
:10050000610883123B20A10030082106B100831648
:10051000610883124221A100B00008007122210865
:100520008316DB0083122E18C82AAF08031DA32AE6
:10053000FF30B100B00083165B088312B200AF0A2F
:10054000B301B501BE2A2F0BAB2A83165B088312B9
:10055000B400AF0ABE2A2F08023C031DBE2A33088E
:100560003F3C0318B52A3F30B300363033078400D0
:10057000831383165B0880008312B30A83165B081B
:10058000E00083127C2201308316DC0083124922B2
:100590008C128A1126288C1ECF2A7122CB2A8C120B
:1005A00083168C1683120800831606128312061215
:1005B000CB222030A10006389200F9308316920039
:1005C000C03083128B048A1570282E18EB2A003055
:1005D000A100F42AF12AB41FF12A3608B50001302F
:1005E000B3002E100130A1008A15C62883165808C2
:1005F00083120C1EF92A9900AC018B1BAC178B13CC
:1006000083165808E00083127C22AC1B8B17223023
:10061000A000A00B092B00000800FF30B100B000C3
:100620002E1083168C120612831206167930A00043
:10063000A00B182B83165608D8008312F6228316B7
:100640005708D8008312F622080031088316D70015
:10065000831230088316D6005708D8008312F6227A
:1006600083165608D8008312F6228316981C362B60
:1006700079308312A000A00B3B2BCB2283160612ED
:1006800083120612FF30B100B000080083164E0836
:100690008038D1004F08D2004D08D6005108D7004D
:1006A00083120D2383165008D8008312F6222523C7
:1006B000080083164D08D6000230D70083120D23A0
:1006C00083164E08D8008312F6228316D1014E08F5
:1006D00051020318812B50088312A30083164F0880
:1006E0008400831383122318831700088316D20013
:1006F000D8008312F6228316CF0A0319D00AD10A32
:10070000672B83122523080083165008D600033078
:10071000D70083120D2383165108D8008312F622C6
:100720008316D401510854020318CA2B53088312AC
:10073000A30083165208840083138312231883179F
:10074000840A00088316D60084030008D5005608E2
:10075000D700D8008312F622831653088312A30011
:100760008316520884008313831223188317840A84
:1007700000088316D60084030008D500D700D800EF
:100780008312F62202308316D2070318D30A0230EE
:10079000D407922B831225238A15A6298316500885
:1007A000D6000430D70083120D2383165108D800D9
:1007B0008312F6228316D401510854020318142C14
:1007C00053088312A30083165208840083138312F4
:1007D00023188317840A00088316D60084030008B0
:1007E000D5005608D700D8008312F6228316530886
:1007F0008312A300831652088400831383122318E4
:100800008317840A00088316D60084030008D500E5
:10081000D700D8008312F62202308316D2070318BD
:10082000D30A0230D407DC2B831225238A15A5298D
:1008300083164F08D6000530D70083120D23831688
:100840005108D400D8008312F62283165008D40031
:10085000D8008312F62283165308D400D8008312DE
:10086000F62283165208D400D8008312F6222523DC
:100870008A150A2A83165108D6000630D70083123B
:100880000D2383165308D600D8008312F622831650
:100890005208D600D8008312F62283165508D600D7
:1008A000D8008312F62283165408D600D80083128B
:1008B000F62225238A154C2A83164D1C612C803084
:1008C000622C0030CE00CD1C672C4030682C0030EC
:1008D000CE044D1D6D2C20306E2C0030CE04CD1D6D
:1008E000732C1030742C0030CE044D1E792C08303F
:1008F0007A2C0030CE04CD1E7F2C0430802C0030AA
:10090000CE044D1F852C0230862C0030CE04CD1F26
:100910008B2C01308C2C00304E048312A1008A15E0
:10092000722A83165108D6000F30D70083120D2388
:1009300083165308D600D8008312F6228316520875
:10094000D600D8008312F62283165508D600D800A8
:100950008312F62283165408D600D8008312F6229A
:1009600025238A15D82A83165108D6001030D700BF
:1009700083120D2383165308D600D8008312F62263
:1009800083165208D600D8008312F6228316550823
:10099000D600D8008312F62283165408D600D80059
:0A09A0008312F62225238A15482B46
:10100000840183131F308305613083168F000F081E
:101010009B1119309900A6309800903083129800E7
:101020002E10AF0103171F109F101F119F110313E4
:101030001F13003003179E0099019A0183169E0129
:1010400083129B0103138D12AD010730F6000930A6
:10105000F7008316A0018830A100A2017730A30019
:10106000A4016630A500A6015530A700A8014430B0
:10107000A900AA013330AB00AC012230AD00AE01B3
:101080001130AF00B001B100B2012230B300B401A1
:101090003330B500B6014430B700B8015530B9005F
:1010A000BA016630BB00BC017730BD00BE0188309C
:1010B000BF00F901F801831203171F149F141F11B9
:1010C0009F1103131F13C43003179E0083160313CD
:1010D0001F169F161F1383129F171F148A11D42ADD
:1010E0008A15831605100130831285060830A10089
:1010F0001F08C33921049F000630A000A00B7E28E2
:1011000000009F149F18822883161E08FA0083127D
:101110001E08FB007B088316B1007A08B000183067
:101120008312A1001F08C33921049F000630A000CC
:10113000A00B982800009F149F189C2883161E0857
:10114000FC0083121E08FD007D088316B3007C0896
:10115000B2001C308312A1001F08C33921049F0074
:101160000630A000A00BB22800009F149F18B628DC
:1011700083161E08C00083121E088316C100410892
:10118000B5004008B4008A118312E52A8A15A10827
:10119000031DCC288316C3281030A000A00BCE2836
:1011A0000000320BD428D728B208031D5B2B34086B
:1011B000013A0319F128033A0319F128013A0319F6
:1011C0005129073A03195129013A0319AA29033A67
:1011D00003190F2A093A03194E2A1F3A0319DD2A67
:1011E0004D2BB608031D0029B808031D0029370838
:1011F000073C031C002937083907083C03180F294E
:1012000001308316CD00CF01831234088316CE003F
:101210000230D0008A11831246238A155029340BDC
:101220001C297608FE003708A10003191B290310AA
:10123000FE0CA10B172926297708FE003708A1000C
:10124000031926290310FE0CA10B22293908083C9A
:10125000A100FF30A000A108031932290310A00C3F
:10126000A10B2E292008FE05340B422901308316DC
:10127000CD00CE00D0017E30CF008A1183125923D9
:101280008A154D2901308316CD00CE00D0017E3065
:10129000CF008A11831259238A15F80A0319F90A13
:1012A0005B2BB608031D6029B808031D60293708A9
:1012B000073C031C602937083907083C03186F29CD
:1012C00001308316CD00CF01831234088316CE007F
:1012D0000230D0008A11831246238A15A9293408C6
:1012E000033C031D8D290310390D8316C60003101E
:1012F0008312370DA03E8316C700C8010318C80A21
:101300000130D0004608D1004808D3004708D20079
:101310008A118312842B8A15A6290310390D83168E
:10132000C60003108312370DB03E8316C700C801F4
:101330000318C80A0130D0004608D1004808D3007D
:101340004708D2008A118312CE2B8A15F80A031996
:10135000F90A5B2BB608031DB429B908031DB4298B
:101360003708083C0318C32901308316CD00CF018C
:10137000831234088316CE000230D0008A11831203
:1013800046238A150E2A380FC629D829B80803190A
:10139000D82901308316CD00CF018312340883167B
:1013A000CE000330D0008A11831246238A150E2AFC
:1013B000380FE7290130A0003708A1000319E429FC
:1013C0000310A00DA10BE0292008F604F429013038
:1013D000A0003708A1000319F1290310A00DA10BEB
:1013E000ED292008FF3AF6058316C7018312380855
:1013F0008316C600C700C6010130CF00D101831299
:1014000037088316D0004708D3004608D2008A1157
:101410008312182C8A15F80A0319F90A5B2BB608EF
:10142000031D162A3708073C0318252A01308316A6
:10143000CD00CF01831234088316CE000230D000D5
:101440008A11831246238A154D2A0310370DA03EB8
:1014500084008313840A39088000840338088000DC
:1014600036088316C700831237088316C600831216
:1014700038088316C900831239088316C800013062
:10148000D1004708D3004608D2004908D5004808D3
:10149000D4008A1183123A2C8A155B2BB608031DDF
:1014A0005D2AB808031D5D2A3708073C031C5D2A26
:1014B00037083907083C03186C2A01308316CD0021
:1014C000CF01831234088316CE000230D0008A1177
:1014D000831246238A15DC2A3B088316CD008A1125
:1014E00083125C2C8A152108BB0037088316C200C2
:1014F000C301831239083707831642020318BB2A37
:1015000083123B08A000831643088312A10003192D
:101510008D2A0310A00CA10B892A201CA32A831654
:101520004208073CC60001308312A000831646081B
:101530008312A1000319A02A0310A00DA10B9C2A5D
:101540002008F604B72A83164208073CC60001307B
:101550008312A000831646088312A1000319B42A3F
:101560000310A00DA10BB02A2008FF3AF605831640
:10157000C20AC30A792A831236088316C700831267
:1015800037088316C600831238088316C9008312F1
:1015900039088316C8000130D1004708D300460837
:1015A000D2004908D5004808D4008A118312912C32
:1015B0008A15F80A0319F90A5B2BB608031DEC2AF1
:1015C000B808031DEC2A3708073C031CEC2A37082F
:1015D0003907083C0318FB2A01308316CD00CF01E0
:1015E000831234088316CE000230D0008A11831291
:1015F00046238A154C2B8316C4010530C500031001
:1016000083123A0C8316440203182B2B0310440D4B
:101610008312A03E8316C600C7010318C70A013013
:101620004507363E840083130008C800363045075E
:10163000840083130008C9004608840083134718F8
:101640008317840A48088000840349088000C40A7C
:101650000230C507FF2A831236088316C70083129B
:1016600037088316C600831238088316C900831210
:1016700039088316C8000130D1004708D300460856
:10168000D2004908D5004808D4008A118312B32C2F
:101690008A15F80A0319F90A5B2B01308316CD006D
:1016A000CF01831234088316CE000130D0008A1196
:0A16B000831246238A157128630097
:02400E00E53C8F
:00000001FF
;PIC16F690
;CRC=FCE8  CREATED="04-feb.-21 11:13"
