:0600000020EF10F0000CDF
:08000800046ED8CF05F0E0CF33
:1000100006F00001E9CF0CF0EACF07F0E1CF08F0DD
:10002000E2CF09F0D9CF0AF0DACF0BF0F3CF12F01C
:10003000F4CF13F0FACF14F000C00EF001C00FF0AF
:1000400002C010F003C011F0F2A82AEF00F0F2B2E3
:10005000D9EF00F00EC000F00FC001F010C002F0A8
:1000600011C003F00CC0E9FF07C0EAFF078E08C00B
:10007000E1FF09C0E2FF0AC0D9FF0BC0DAFF12C0DE
:10008000F3FF13C0F4FF14C0FAFF045006C0E0FFF2
:1000900005C0D8FF1000F2CF0DF0F29EF76AB00F46
:1000A000F66E000EF7220900F5500DBEF28E12001A
:1000B000280C010654656D706F72697A61646F7205
:1000C000205556202020200043616D62696F204337
:1000D0006F6E7472617365F1612020005469656D03
:1000E000706F2054726162616A6F20555620200043
:1000F00050756E746F204365726F20202020202081
:1001000020202000416C61726D6120202020202081
:10011000202020204F464600416C61726D612020F6
:100120002020202020202020204F4E0056656C6F7C
:1001300063696461642020202020202020200000AA
:100140004D4F44554C4F20464C554A4F204C414D45
:10015000494E415200002020202020205645525474
:100160004943414C20202020202000002020202036
:100170004A502020494E474C4F42414C20202020DD
:10018000000020205245463A4A5043464C564D44C2
:100190003936495820200000040EE35F09E3EA6A7B
:1001A000E30EE96EEF5004E001D00000EF2EFDD722
:1001B000000CA82BD8B4A92BA95303E1A8517708A8
:1001C00029E2A96BA86B3F6A3E6A2F2A17803D2C53
:1001D0000AD017B603D08B90949004D017A802D001
:1001E0008B809490177616A015D0212A16BE12D0B7
:1001F000285202E028060ED0275204E027063B0EC4
:10020000286E08D0168E16908A82939229C027F005
:100210002AC028F0AE6BAD6B178EB05105081EE3F7
:10022000B05318E0AF51630815E3ABC0E2F0E22B26
:10023000E207D8B404D0FF0EE36FAEDFF9D7AAC04F
:10024000E3F0AADF8B8494948B829492850E006EE7
:10025000002EFED78B9494948B929492F2922AEF74
:1002600000F02020202020496E67726573652020F1
:10027000202020202020000020202020436F6E74AA
:1002800072617365F1612020202020200000202071
:100290002020434C4156453D25692569256925693E
:1002A000202000002020202020202020202020208E
:1002B00020202020202020002020202020436F6E9E
:1002C0007472617365F161202020200020202020BD
:1002D0002020436F7272656374612020202020000B
:1002E000202020202020202020202020202020200E
:1002F000202020002020202020436F6E7472617324
:1003000065F16120202020002020202020496E63FC
:100310006F727265637461202020200020202020ED
:1003200020202020202020202020202020202000ED
:100330002D2D2D4D454E55205052494E434950418B
:100340004C2D2D2D00002020202054656D706F72E3
:10035000697A61646F7220202020200020202020F4
:100360002020204C757A2055562020202020202047
:100370002000253033753A2530327520284D3A5308
:10038000292020005469656D706F20416C6D616398
:10039000656E61646F002020436F727265637461E3
:1003A0006D656E74652020002020202020496E6736
:1003B000726573652020202020202020000020204E
:1003C0002020436F6E7472617365F16120202020DC
:1003D0002020000020202020434C4156453D256927
:1003E0002569256925692020000020202020202063
:1003F000202020202020202020202020202000003D
:100400002020202020436F6E7472617365F161209B
:10041000202020200000202020202020436F727206
:1004200065637461202020202020000020202020EF
:1004300020202020202020202020202020202020BC
:1004400000002020202020202020202020202020EC
:1004500020202020202000002020202020436F6E1C
:100460007472617365F1612020202020000020203B
:10047000202020496E636F727265637461202020B2
:1004800020200000202020202020202020202020AC
:1004900020202020202020200000202020496E67DE
:1004A00072657365204E75657661202020200000FE
:1004B0002020202020436F6E7472617365F16120EB
:1004C00020202020000020202020434C4156453D84
:1004D0002569256925692569202000002020202024
:1004E000202020202020202020202020202020200C
:1004F00000002020202020436F6E7472617365F12C
:1005000061202020202000002020202020416C6D30
:100510006163656E6164612020202020000020203E
:1005200020202020202020202020202020202020CB
:100530002020000020204475726163696F6E2041A5
:10054000637475616C2020200000202020546965B0
:100550006D706F3D202530354C75202020002052D5
:10056000455345543D204F7072696D61205E20797E
:10057000203E2000205265736574206465207469F4
:10058000656D706F20002020202020457869746FF1
:10059000736F20202020200020205A65726F205089
:1005A0006F696E7420436F6E666967200000507239
:1005B0006573696F6E3D2025332E326620696E4863
:1005C000324F2000202020204144433D25322E3050
:1005D0006600202020205A463D25322E306600003D
:1005E000202020202020202020202020202020200B
:1005F00020202020000020202020202020204163D7
:100600007469766F202020202020000020202020E8
:1006100020202020416C61726D612020202020204C
:10062000000020202020202020202020202020200A
:1006300020202020202000002020202020202020FA
:1006400020202020202020202020202000002020EA
:100650002020202044657361637469766F20202018
:100660002020000020202020202020416C61726D7D
:100670006120202020202020000020202020202079
:1006800020202020202020202020202020200000AA
:1006900053656C656363696F6E652056656C6F6347
:1006A00069646164000020202064656C2056656EDA
:1006B00074696C61646F722020200000202020206B
:1006C0002056656C3A20257520202020202020000F
:1006D000202020202020202020202020202020201A
:1006E000202020200000202020202020202020204A
:1006F000202020202020202020200000202020203A
:100700002056656C6F63696461642020202020207E
:100710000000202020202020416C6D6163656E6107
:100720006461202020200000202020202020202084
:1007300020202020202020202020202000004A509F
:1007400043522044503A25332E326620696E483297
:100750004F20000054656D706F3A253033753A258F
:1007600030327500202054656D706F72697A616453
:100770006F722020646520200000204C757A20557F
:1007800056202046696E616C697A61646F200000B2
:100790002020202020202020202020202020202059
:1007A0002020202000002020202020202020202089
:1007B00020202020202020202020000046696C746A
:1007C000726F3A004D6F746F723A4F4E20004D6F4A
:1007D000746F723A4F46460055563A4F4E2000000D
:1007E00055563A4F464600004C757A3A4F4E200017
:1007F0004C757A3A4F464600EA6AD10EE96EEF50E0
:100800000EE0050E016E006A002EFED7012EFBD70A
:100810002E0E006E002EFED700D0EF2EF2D7000C69
:10082000D239F00B006E0F0E83140010836E090E88
:10083000006E002EFED700D08386490E006E002E7B
:10084000FED78396000C8392010ED16FD5DFCFA126
:100850008392CFB18382090E006E002EFED700D0A6
:100860008394090E006E002EFED700D08396D039F7
:10087000D16F0F0ED117D1C0D2F0D2DFD0510F0BF4
:10088000D16FD26FCDDF000C000E956E83928394F2
:1008900083960F0ED16FB0DF010EBA6FBA51030805
:1008A00008E3030ED26FBCDF050ED16FA5DFBA2BB4
:1008B000F5D7020ED26FB4DFBA6BBA5103080FE35B
:1008C000036ABA51F2CFBBF0F29E4BEC00F0BBBF13
:1008D000F28EBB6FCF6BD06FB6DFBA2BEED7000CAA
:1008E000D3DFFF0E926E966EF288F18CC150C00B72
:1008F0000E09C16EC090C082C094C08EC280C00E6E
:10090000F212E8EF10F0010ECD5DFC0F0FE2040FC4
:100910009EEF04F0800ECE6F09D0C00ECE6F06D0D1
:10092000940ECE6F03D0D40ECE6F00D0010ECC5DEE
:10093000CE27CF6BCEC0D0F086DF000CF2CF0DF00B
:10094000F29EE824F76AF736610FF66E090EF72279
:100950000A00F550FA6E0800F5500DBEF28EF96EE1
:1009600014091A0920092609CB51F10802E1EE0EFB
:10097000CB6FCB51D10802E1FF0ECB6FCB510C0AEC
:1009800005E0060A0DE0020A12E016D0CF6B010E58
:10099000D06F59DF010EB96F020ED16F2DDF12D06B
:1009A000B92B010ECC6FB9C0CDF0ADDF0BD0CF6B42
:1009B000100ED06F48DF06D0010ECF6FCBC0D0F045
:1009C00042DF00D0000C0900F5520CE0F6CFBDF07C
:1009D000F7CFBEF0F5CFCBF0C7DFBDC0F6FFBEC08E
:1009E000F7FFF1D7000C010ECC6FCD6F8CDF400EFE
:1009F000F66E010EF76EE7DF010ECC6F020ECD6FC3
:100A000082DF560EF66E010EF76EDDDF010ECC6F43
:100A1000030ECD6F78DF6C0EF66E010EF76ED3DF2E
:100A2000010ECC6F040ECD6F6EDF820EF66E010EDE
:100A3000F76EC9DF080EBA6FFA0ED16FDDDEBA2F7E
:100A4000FBD70C0ECB6F90DFEAEF10F08E0E006E2E
:100A5000D3C001F0D2C002F0036A015209E102C022
:100A600001F0026A080E005E015202E1006A08D03D
:100A7000D89001BE04D0023601360006F9D7019E97
:100A8000000CF2CFBAF0F29EA96AA69CA69EA680A0
:100A9000A850BABFF28E396E140ED16FADDEF2CF10
:100AA000BAF0F29E010EA96EA69CA69EA680A85042
:100AB000BABFF28E3A6E140ED16F9EDEF2CFBAF04C
:100AC000F29E020EA96EA69CA69EA680A850BABF52
:100AD000F28E3B6E140ED16F8FDEF2CFBAF0F29E23
:100AE000030EA96EA69CA69EA680A850BABFF28E41
:100AF0003C6E140ED16F80DEF2CFBAF0F29E040E7F
:100B0000A96EA69CA69EA680A850BABFF28E016EC2
:100B1000179801B01788140ED16F6EDEF2CFBAF0BD
:100B2000F29E050EA96EA69CA69EA680A850BABFEE
:100B3000F28E276E140ED16F5FDEF2CFBAF0F29E06
:100B4000060EA96EA69CA69EA680A850BABFF28EDD
:100B5000286E140ED16F50DEF2CFBAF0F29E070E5F
:100B6000A96EA69CA69EA680A850BABFF28E216E42
:100B7000140ED16F41DEF2CFBAF0F29E080EA96ECC
:100B8000A69CA69EA680A850BABFF28E226E140E16
:100B9000D16F32DEF2CFBAF0F29E090EA96EA69C9A
:100BA000A69EA680A850BABFF28E236E140ED16FF7
:100BB00023DEF2CFBAF0F29E0A0EA96EA69CA69E84
:100BC000A680A850BABFF28E246E140ED16F14DE28
:100BD000F2CFBAF0F29E0B0EA96EA69CA69EA6803E
:100BE000A850BABFF28E256E140ED16F05DEF2CF7B
:100BF000BAF0F29E0C0EA96EA69CA69EA680A850E6
:100C0000BABFF28E266E140ED16FF6DDF2CFBAF0B7
:100C1000F29E0D0EA96EA69CA69EA680A850BABFF5
:100C2000F28EB06F140ED16FE7DD26C043F025C001
:100C300042F043C0D3F042C0D2F008DF03C0A7F0B7
:100C400002C0A6F001C0A5F000C0A4F024C041F08D
:100C500023C040F027C029F028C02AF0ECEF10F0A4
:100C6000CFC0D6F0D351D61BD6AF05D0D894D890EC
:100C7000CFBFD8802FD0CFC0D6F0D2C0D7F0CE51C2
:100C8000D75F06E0D6AF26D0D850010AD86E22D062
:100C9000D3C0D7F0CF51D75F06E0D6AF1BD0D85026
:100CA000010AD86E17D0D4C0D7F0D051D75F06E074
:100CB000D6AF10D0D850010AD86E0CD0D5C0D7F01E
:100CC000D151D75F06E0D6AF05D0D850010AD86E13
:100CD00001D0D890000C39BE03D03950090803E385
:100CE00039BE01D018D0396AA96AA86AA69CA69E06
:100CF000A684F250006EF29E0F01550EA76EAA0E4A
:100D0000A76EA682A6B2FED7A6940050F212140EC9
:100D10000001D16F71DD3ABE03D03A50090803E3F8
:100D20003ABE01D019D03A6A010EA96EA86AA69CF3
:100D3000A69EA684F250006EF29E0F01550EA76E7D
:100D4000AA0EA76EA682A6B2FED7A6940050F212F3
:100D5000140E0001D16F50DD3BBE03D03B5009089B
:100D600003E33BBE01D019D03B6A020EA96EA86A0C
:100D7000A69CA69EA684F250006EF29E0F01550E10
:100D8000A76EAA0EA76EA682A6B2FED7A6940050A2
:100D9000F212140E0001D16F2FDD3CBE03D03C5087
:100DA000090803E33CBE01D019D03C6A030EA96ECA
:100DB000A86AA69CA69EA684F250006EF29E0F0121
:100DC000550EA76EAA0EA76EA682A6B2FED7A6944F
:100DD0000050F212140E0001D16F0EDD000E17B894
:100DE000010E01081AE21788040EA96E010EA86E02
:100DF000A69CA69EA684F250006EF29E0F01550E90
:100E0000A76EAA0EA76EA682A6B2FED7A694005021
:100E1000F212140E0001D16FEFDC2750C8081BE25C
:100E2000140E276E050EA96E140EA86EA69CA69E23
:100E3000A684F250006EF29E0F01550EA76EAA0E08
:100E4000A76EA682A6B2FED7A6940050F212140E88
:100E50000001D16FD1DC28503B0819E2286A060E48
:100E6000A96EA86AA69CA69EA684F250006EF29E69
:100E70000F01550EA76EAA0EA76EA682A6B2FED7C8
:100E8000A6940050F212140E0001D16FB5DC21506F
:100E90003C0819E2216A070EA96EA86AA69CA69EC4
:100EA000A684F250006EF29E0F01550EA76EAA0E98
:100EB000A76EA682A6B2FED7A6940050F212140E18
:100EC0000001D16F99DC22503C0819E2226A080E19
:100ED000A96EA86AA69CA69EA684F250006EF29EF9
:100EE0000F01550EA76EAA0EA76EA682A6B2FED758
:100EF000A6940050F212140E0001D16F7DDC415017
:100F0000260838E2FF0A03E14050100833E2416A44
:100F1000406A090EA96E0A0EA86EA69CA69EA6841B
:100F2000F250006EF29E0F01550EA76EAA0EA76E2C
:100F3000A682A6B2FED7A6940050F212140E0001AB
:100F4000D16F5ADC0A0EA96EA86AA69CA69EA6843A
:100F5000F250006EF29E0F01550EA76EAA0EA76EFC
:100F6000A682A6B2FED7A6940050F212140E00017B
:100F7000D16F42DCD16BD06B7F0ECF6F860ECE6F00
:100F8000A7C0D5F0A6C0D4F0A5C0D3F0A4C0D2F0BD
:100F900067DE38E3A76BA66B7F0EA56F860EA46F86
:100FA0000B0EA96EFF0EA86EA69CA69EA684F250FC
:100FB000006EF29E0F01550EA76EAA0EA76EA682B6
:100FC000A6B2FED7A6940050F212140E0001D16F03
:100FD00013DC0C0EA96EA86AA69CA69EA684F250ED
:100FE000006EF29E0F01550EA76EAA0EA76EA68286
:100FF000A6B2FED7A6940050F212140E0001D16FD3
:10100000FCEC03F0B05106081CE2040EB06F0D0EAC
:10101000A96E040EA86EA69CA69EA684F250006E31
:10102000F29E0F01550EA76EAA0EA76EA682A6B25B
:10103000FED7A6940050F212140E0001D16FFCEC02
:1010400003F0EEEF10F0BA51060805E18B8494949A
:101050008B82949239D0BA51050807E10F0EAF6F19
:10106000070EAB6FD00EAA6F2FD0BA51040807E15C
:10107000190EAF6F0B0EAB6FB80EAA6F25D0BA5119
:10108000030807E1230EAF6F0E0EAB6F100EAA6FB1
:101090001BD0BA51020807E12D0EAF6F100EAB6FD7
:1010A000CC0EAA6F11D0BA2D07D0320EAF6F130E2F
:1010B000AB6F880EAA6F08D0BA5306E1640EAF6F0B
:1010C0008B9494948B929492000C0900F6CFBFF00D
:1010D000F7CFC0F0F5CFCBF047DCBFC0F6FFC0C004
:1010E000F7FFBE2FF2D7000CC151016AC05D03E2C9
:1010F000C0C000F00CD0006A080EC26FC0370036C6
:10110000C151005CD8B0006E0136C22FF7D7000C79
:10111000200EBBA9300EBC6FBAC000F0BAAF07D02A
:10112000001E002A00C0BAF02D0EBC6FBB8F01500C
:10113000BAC0C0F0640EC16FD7DF00C0BAF0300E85
:101140000124BD6FBAC0C0F00A0EC16FCDDF300EF2
:101150000024BF6F300E0124BE6FBCC000F0BBA7DF
:1011600002D0BBAFBB95BBB90BD0BBAF22D0BBB5D8
:1011700020D000C0BDF0BBB31CD000C0BEF019D061
:10118000300EBD5D16E100C0BDF0200EBC6FBBA7E8
:1011900004D0BB95BB83BBAFBB93300EBE5D09E1F2
:1011A00000C0BEF0200EBD6FBBA7F7D7BB93BBAF8F
:1011B000BB91BBA504D0BCC0CBF0B4EC04F0BBA386
:1011C00004D0BDC0CBF0B4EC04F0BBA104D0BEC0D1
:1011D000CBF0B4EC04F0BFC0CBF0B4EC04F0000CE6
:1011E000BB2D0CD0020ECC6FBCC0CDF083EC04F054
:1011F000B40EF66E000EF76EE3EC04F0BB5102087D
:101200000CE1020ECC6FBCC0CDF083EC04F0C80E34
:10121000F66E000EF76EE3EC04F0BB5103080CE130
:10122000020ECC6FBCC0CDF083EC04F0DC0EF66E89
:10123000000EF76EE3EC04F0BB5104080CE1020E63
:10124000CC6FBCC0CDF083EC04F0F00EF66E000E57
:10125000F76EE3EC04F0BB5105081CE117B80CD0A5
:10126000020ECC6FBCC0CDF083EC04F0040EF66E21
:10127000010EF76EE3EC04F017A80CD0020ECC6F51
:10128000BCC0CDF083EC04F0180EF66E010EF76EC4
:10129000E3EC04F0BB5106080CE1020ECC6FBCC0BD
:1012A000CDF083EC04F02C0EF66E010EF76EE3EC3D
:1012B00004F0000C0150BAC0C0F0640EC16F14DF1E
:1012C00000C0BAF00150300E07E1BBA30DD0BBB790
:1012D0000BD0BBB9200E03D0BB97BB99BB810126B5
:1012E00001C0CBF0B4EC04F0BAC0C0F00A0EC16F7C
:1012F000FBDE00C0BAF00150300E06E1BBB709D0EA
:10130000BBA107D0BBB9200E012601C0CBF0B4ECC5
:1013100004F0300EBA27BAC0CBF0B4EC04F0000CE5
:10132000EACFC2F0E9CFC1F0BB39F009BD6FBD27EC
:10133000E20FBE6F320FC06FBB510F0BBE27BE272F
:10134000C027E90FBF6FBF27BF27BA390F0BBF27D1
:10135000C027BF37C037C01FC037BA510F0BC027D7
:10136000BD37070EBC6F0A0EBF07C027FDE3BE07DF
:10137000BF27FDE3BD07BE27FDE3BC07BD27FDE397
:10138000EA6ABC0EE96E070EC115C19DE926C00EC2
:10139000E95CD8B4C18DEF50006E08E1C1BD06D044
:1013A000C1B914D0C1B702D0200E03D0C187C199F2
:1013B000300E0026EACFBBF0E9CFBAF000C0CBF088
:1013C000B4EC04F0BBC0EAFFBAC0E9FFEE50C1AD17
:1013D000DED7E9EF18F0BF35006E0036FC0E0016C0
:1013E00000C001F0C250C30B0010C26E0A0ED16FD4
:1013F000FCEC03F0C282C2B2FED7C4CF03F0C3CF6D
:10140000D2F0C4CFD3F026EC05F003C0C3F002C085
:10141000C2F001C0C1F000C0C0F0C0C000F0C1C047
:1014200001F0C2C002F0C3C003F0000CCE51D8B42A
:10143000A5D0DA6FD251D8B4A1D0DA5F05E37F0E20
:10144000DA27D8B09BD006D0810EDA5FD8A096D02C
:10145000D8B494D0DAC000F0016A026A036AD96B8A
:10146000CFC0D8F0D88FD0C0D7F0D1C0D6F0190EE9
:10147000DA6FD551D65F0DE2010ED75F0AE2D85F71
:1014800008E2D95F06E2D92BD82BD72BD551D62726
:1014900028D0D451D75F12E2010ED85F0FE2D95F96
:1014A0000DE2D92BD82BD451D727D551D62719E304
:1014B000D72B17E1D82B15E1D92B13D0D3518009A5
:1014C000D85F0EE2010ED95F0BE2D92BD351800910
:1014D000D827D451D727E9E3D82BE7E1D92BE5D793
:1014E0000380DA2F01D00BD0D890D637D737D83732
:1014F000D937D890033602360136DB37BAD7DBA1AD
:1015000006D0D890013202320332DB3302D000061B
:1015100035E0DBBF1ED0D890D637D737D837D9378C
:10152000D551D65F07E2010ED75F04E2D85F02E231
:10153000D95F1AE3D451D75F05E2010ED85F02E20A
:10154000D95F12E3D3518009D85F03E2010ED95F5E
:101550000BE3032A09E1022A07E1012A05E1002A37
:101560000DE0013202320332CFC0DAF0D351DA1B80
:10157000DAAF02D0018E06D0019E04D0006A016A63
:10158000026A036A000C800ED8B2D71BDC6BDD6BDD
:10159000D3C0DBF0D751DB1BD251D8B4DCD0DA6F2B
:1015A000006ED651D8B4E0D0DA5FD8B481D03DE334
:1015B000D7C0E0F0E08FD8C0DFF0D9C0DEF0DD6B3F
:1015C000D890E033DF33DE33DD33DA2FF8D7DBAF0B
:1015D00003D0DC81DDD0DC91DA91DC89EA6AD50EBA
:1015E000E96EE9D0DC99DBBF0AD0DAA113D0E03391
:1015F000DF33DE33DD33002AD8B4C5D00BD0E0BFF3
:101600000CD0D890DD37DE37DF37E0370006D8B4AE
:10161000BAD0F5D7DC8D6BD0DC9DD3C0DBF0D3AF77
:1016200002D0E08FA9D0E09FA7D0D6C0DAF0D6C014
:1016300000F0D251DA5FD3C0E0F0E08FD4C0DFF029
:10164000D5C0DEF0DD6BD890E033DF33DE33DD3341
:10165000DA2FF8D7DBAF03D0DC839AD0DC93DA91B2
:10166000DC8BEA6AD90EE96EA6D0DC9BDBBF0AD020
:10167000DAA113D0E033DF33DE33DD33002AD8B410
:1016800082D00BD0E0BF0CD0D890DD37DE37DF370B
:10169000E0370006D8B477D0F5D7DC8F28D0DC9FB0
:1016A000D7C0DBF0D7AF02D0E08F66D0E09F64D028
:1016B000D7C0E0F0E08FD8C0DFF0D9C0DEF0DBAFFC
:1016C00004D0E09FDC8564D0DC95DD6BDA91EA6ABA
:1016D000D50EE96E70D0DBBF1CD0D3C0DBF0DAA131
:1016E00006D0E033DF33DE33DD33002A4CE0DDAFFC
:1016F0000BD0DE2B09E1DF2B07E1E02B05E1E03326
:10170000DF33DE33002A3FE0DCBD86D7DCBFC7D73E
:101710001CD0800EE01BE0AF04D03AD0D7C0DBF085
:101720000AD0D3C0DBF0E05306E1DF5304E1DE531F
:1017300002E1006A21D0E0BF08D0D890DD37DE3763
:10174000DF37E037002EF7D71ED0DBAF02D0E08FB7
:1017500013D0E09F11D0D6C000F0D7C0E0F0D8C0C1
:10176000DFF0D9C0DEF008D0D2C000F0D3C0E0F086
:10177000D4C0DFF0D5C0DEF0E0C001F0DFC002F081
:10178000DEC003F034D0006A016A026A036A2FD017
:10179000DD6BDE1FDF1FE01FDD1FDD2B05E1DE2B14
:1017A00003E1DF2B01E1E02BDCB115D7DCB356D729
:1017B000DCB58AD7B3D7EF50DE2705E3DF2B03E193
:1017C000E02BD8B4DA81ED52EF50DF2703E3E02BB2
:1017D000D8B4DA81ED52EF50EFBE01D0800AE02795
:1017E000D8B0DA81DCB9FED6DCBB3FD774D7000CA9
:1017F000BE6BBD6BBC6BBB6BBF6BEDDD03C097F00D
:1018000002C096F001C095F000C094F097C0D1F0EE
:1018100096C0D0F095C0CFF094C0CEF0A7C0D5F060
:10182000A6C0D4F0A5C0D3F0A4C0D2F0FFDD00C0A4
:10183000BFF001C0C0F002C0C1F003C0C2F0D88246
:1018400003C0D5F002C0D4F001C0D3F000C0D2F084
:10185000D96BD86BD76B7F0ED66F95DE03C09BF02C
:1018600002C09AF001C099F000C098F09BC0D1F07E
:101870009AC0D0F099C0CFF098C0CEF0D56BD46BA1
:10188000D36BD26B30EC06F004E39B6B9A6B996BD5
:10189000986B010EBA5D2B5C02E001E32B6A2B50C2
:1018A000040DF350036A440FE96E000E0320EA6E44
:1018B00098C0EFFF99C0ECFF9AC0ECFF9BC0ECFF13
:1018C0002B2A2C6A010EBA5D2C5C01E035E22C500B
:1018D000040DF350036A440FE96E000E0320EA6E14
:1018E000EFCF00F0ECCF01F0ECCF02F0ECCF03F043
:1018F000EACFC0F0E9CFBFF0D892BEC0D5F0BDC0EE
:10190000D4F0BCC0D3F0BBC0D2F003C0D9F002C049
:10191000D8F001C0D7F000C0D6F035DEC0C0EAFF75
:10192000BFC0E9FF03C0BEF002C0BDF001C0BCF003
:1019300000C0BBF02C2AC6D7D36BBAC0D2F026ECBD
:1019400005F0BEC0D1F0BDC0D0F0BCC0CFF0BBC070
:10195000CEF003C0D5F002C0D4F001C0D3F000C077
:10196000D2F064DD03C0BEF002C0BDF001C0BCF027
:1019700000C0BBF0BBC000F0BCC001F0BDC002F0B5
:10198000BEC003F0000CCE51D8B471D0006ED2515D
:10199000D8B46DD0002604E3810E002668E204D09E
:1019A0007F0E005E64E363E0CFC0D6F0D351D61B58
:1019B000CF8FD38FD151D503F4CFD8F0D051D403EA
:1019C000F4CF03F0F3CFD7F0D503F350D827F4507A
:1019D000D723000E0322D151D403F350D827F4505B
:1019E000D723000E026A03220222CF51D503F350FF
:1019F000D727F4500322000E0222CF51D403F35014
:101A00000326F4500222000E016A0122D151D303B1
:101A1000F350D727F4500322000E02220122D051A6
:101A2000D303F3500326F4500222000E0122CF51BB
:101A3000D303F3500226F4500122002A01BE05D040
:101A4000D7370336023601360006000ED7AF0AD06C
:101A5000032A02220122015005E1025003E1035052
:101A600001E1002AD6BF018ED6AF019E04D0006AE4
:101A7000016A026A036A000CCB51B608CB6F036A95
:101A8000CCC0CFF0CC8FD890CC33CD33CE33033213
:101A9000023201320032CB2FF6D7CFAF0BD0001E6F
:101AA000011E021E031E002AD8B4012AD8B4022A3D
:101AB000D8B4032AC0EF0DF0006A016A026A036A13
:101AC000D36BD46BD56BD66BD251D111D011CF1152
:101AD0002CE0200ED76FD890CB37CC37CD37CE3710
:101AE000D337D437D537D637D251D65D08E1D15167
:101AF000D55D05E1D051D45D02E1CF51D35D0FE357
:101B0000CF51D35FD051D8A0D03DD45FD151D8A010
:101B1000D13DD55FD251D8A0D23DD65FD880003616
:101B2000013602360336D72FD6D7EA6AD30EE96ECE
:101B3000000CE950C36FC251C56F19E0C1C0D1F0AC
:101B4000C0C0D0F0BFC0CFF0BEC0CEF0D56BD46B5C
:101B5000200ED36F820ED26F16DF03C0C1F002C019
:101B6000C0F001C0BFF000C0BEF0C52FE7D7C1C0B4
:101B7000CEF0C0C0CDF0BFC0CCF0BEC0CBF07CD7A3
:101B800003C0C1F002C0C0F001C0BFF000C0BEF091
:101B9000C1AF0DD0C307C38BBE1FBF1FC01FC11F66
:101BA000BE2BD8B4BF2BD8B4C02BD8B4C12B3B0E9E
:101BB000CA6F9A0EC96FCA0EC86FC76B0A0EC56F7F
:101BC000C251D8B4C32BC1C0CEF0C0C0CDF0BFC08D
:101BD000CCF0BEC0CBF0CAC0D2F0C9C0D1F0C8C0F2
:101BE000D0F0C7C0CFF068DF0150EFCFBEF0ECCF30
:101BF000BFF0ECCFC0F0ECCFC1F000520FE1C22932
:101C0000C55D0CE0C3510CE00F0BC55D01E03BE28C
:101C1000C3BF39D0C3BD04D0200E30D0200EC317AF
:101C2000C3AB0DD0C39BC251D8A4C3070050C36F30
:101C30002D0ECB6FB4EC04F0C351006EC36BC251D8
:101C4000C55D0BE10050C36F2E0ECB6FB4EC04F0FA
:101C5000C351006E200EC317000E300EC3AB0ED062
:101C6000C39BC251D8A4C3070050C36F2D0ECB6FC6
:101C7000B4EC04F0C351006EC36B300E002600C0FC
:101C8000CBF0B4EC04F0CAC0CEF0C9C0CDF0C8C0EF
:101C9000CCF0C7C0CBF0D26BD16BD06B0A0ECF6F3C
:101CA0000BDF03C0CAF002C0C9F001C0C8F000C019
:101CB000C7F0C52F88D7000C8E0E006ECE51005E87
:101CC000CFC002F0D0C001F0028E005209E0D890DF
:101CD000025202E1015204E002320132002EF7D733
:101CE000CFAF05D0011E021E012AD8B4022A000C73
:101CF000CD91C1C0C6F0C0C0C5F0BFC0C4F0BEC069
:101D0000C3F0C1C0D1F0C0C0D0F0BFC0CFF0BEC0E2
:101D1000CEF0D56BD46BD36BD26B30EC06F004E312
:101D2000CD81C451800AC46FC6C0D1F0C5C0D0F007
:101D3000C4C0CFF0C3C0CEF0D56BD46BD36B8E0EC6
:101D4000D26F30EC06F001E218E1C6C0D1F0C5C098
:101D5000D0F0C4C0CFF0C3C0CEF0AEDF02C0D3F02D
:101D600001C0D2F026EC05F003C0CAF002C0C9F0F1
:101D700001C0C8F000C0C7F0C5D0C6C0D1F0C5C012
:101D8000D0F0C4C0CFF0C3C0CEF0800ED56F960E99
:101D9000D46F180ED36F960ED26F30EC06F0D8A029
:101DA000A9D0C6C0D1F0C5C0D0F0C4C0CFF0C3C068
:101DB000CEF0D56BD46BD36B8E0ED26F16EC0AF0CF
:101DC00003C0D1F002C0D0F001C0CFF000C0CEF00F
:101DD00073DF02C0CCF001C0CBF0C6C0D1F0C5C0EB
:101DE000D0F0C4C0CFF0C3C0CEF0D56BD46BD36BF2
:101DF0008E0ED26F16EC0AF000C0CEF001C0CFF00C
:101E000002C0D0F003C0D1F0CCC0D3F0CBC0D2F030
:101E100026EC05F0D882D1C0D5F0D0C0D4F0CFC028
:101E2000D3F0CEC0D2F003C0D9F002C0D8F001C0C8
:101E3000D7F000C0D6F0C3EC0AF0D16BD06BCF6BFB
:101E40008E0ECE6F03C0D5F002C0D4F001C0D3F027
:101E500000C0D2F098DD03C0C6F002C0C5F001C0DA
:101E6000C4F000C0C3F0CCC0D3F0CBC0D2F026EC9D
:101E700005F0D16BD06BCF6B8E0ECE6F03C0D5F05B
:101E800002C0D4F001C0D3F000C0D2F07CDD03C0AA
:101E9000CAF002C0C9F001C0C8F000C0C7F0C6C097
:101EA000D1F0C5C0D0F0C4C0CFF0C3C0CEF004DFC5
:101EB00002C0D3F001C0D2F026EC05F0D892CAC01F
:101EC000D5F0C9C0D4F0C8C0D3F0C7C0D2F003C0A9
:101ED000D9F002C0D8F001C0D7F000C0D6F0C3ECF2
:101EE0000AF003C0CAF002C0C9F001C0C8F000C0C7
:101EF000C7F008D0C6C0CAF0C5C0C9F0C4C0C8F099
:101F0000C3C0C7F0C6C0D1F0C5C0D0F0C4C0CFF0C8
:101F1000C3C0CEF0D1DE02C0D3F001C0D2F026ECB7
:101F200005F0D882C6C0D5F0C5C0D4F0C4C0D3F087
:101F3000C3C0D2F003C0D9F002C0D8F001C0D7F0BE
:101F400000C0D6F0C3EC0AF003C0C6F002C0C5F072
:101F500001C0C4F000C0C3F0CDA103D0C851800AB5
:101F6000C86FC6C0D1F0C5C0D0F0C4C0CFF0C3C0E8
:101F7000CEF0D56BD46BD36BD26B30EC06F038E07F
:101F8000CDA11AD0C25318E1D882CAC0D5F0C9C0B9
:101F9000D4F0C8C0D3F0C7C0D2F0D96BD86BD76B20
:101FA0007F0ED66FC3EC0AF003C0CAF002C0C9F0BE
:101FB00001C0C8F000C0C7F0CDB11AD0C22D18D0F2
:101FC000D892CAC0D5F0C9C0D4F0C8C0D3F0C7C039
:101FD000D2F0D96BD86BD76B7F0ED66FC3EC0AF0FB
:101FE00003C0CAF002C0C9F001C0C8F000C0C7F009
:101FF000C1C0D1F0C0C0D0F0BFC0CFF0BEC0CEF0E5
:10200000D56BD46BD36BD26B30EC06F004E1CA6BAA
:10201000C96BC86BC76BC7C000F0C8C001F0C9C0AE
:1020200002F0CAC003F01FEF10F0BDC0C1F0BCC089
:10203000C0F0BBC0BFF0BAC0BEF0C26B59D6000C36
:10204000F86AD09E078EEA6AE96A1690169216948C
:1020500016961698169A169C169E17901792179415
:1020600017961798186A070E196E020E1A6E0B0E45
:102070001B6E020E1C6E030E1D6E020E1E6E1F6E78
:10208000040E206E216A226A236A246A256A266A5F
:10209000276A286A296A2A6A2B6A2C6A2D6A010E25
:1020A0002E6E2F6A306A316A3D6A416A406A436A1D
:1020B000426A976B966B956B946B9B6B9A6B996B63
:1020C000986B9F6B9E6B9D6B9C6BA36BA26BA16BC4
:1020D000A06BA76BA66BA56B800EA46F178A179CCD
:1020E000A96BA86BAB6BAA6B179EAC91AE6BAD6B7B
:1020F000AF6BB06BB46BB36BB26BB16BB86BB76BF0
:10210000B66BB56BC150C00B0F09C16E070EB46E34
:102110003E0E326E200E336E5E0E346E356A366AB7
:10212000376A386A396A3A6A3B6A3C6A446A456A7D
:10213000466A476A486A496A4A6A4B6A4C6A4D6A03
:102140004E6A4F6A506A516A526A536A546A556AB3
:10215000566A576A586A596A5A6A5B6A5C6A5D6A63
:102160005E6A5F6A606B616B626B636B646B656B0D
:10217000666B676B686B696B6A6B6B6B6C6B6D6BBB
:102180006E6B6F6B706B716B726B736B746B756B6B
:10219000766B776B786B796B7A6B7B6B7C6B7D6B1B
:1021A0007E6B7F6B806B816B826B836B846B856BCB
:1021B000866B876B886B896B8A6B8B6B8C6B8D6B7B
:1021C0008E6B8F6B906B916B926B936B70EF04F0D7
:1021D000F3EF04F041EF05F06BEF06F0BA6B23EC80
:1021E00008F08B9494948B929492B86BB76B260EF4
:1021F000B66F850EB56FB46BB00EB36F010EB26FD4
:102200008C0EB16F1852D8A401D2010ECC6FCD6FD5
:1022100083EC04F0620EF66E020EF76EE3EC04F04F
:10222000010ECC6F020ECD6F83EC04F0780EF66ECB
:10223000020EF76EE3EC04F0010ECC6F030ECD6FCF
:1022400083EC04F08E0EF66E020EF76E0A0EBE6F71
:1022500065EC08F035C0BAF01F0EBB6F88EC08F0D3
:1022600036C0BAF01F0EBB6F88EC08F037C0BAF06A
:102270001F0EBB6F88EC08F038C0BAF01F0EBB6FA2
:1022800088EC08F0200ECB6FB4EC04F0200ECB6F7E
:10229000B4EC04F01BC0CCF0040ECD6F83EC04F062
:1022A00034C0CBF0B4EC04F01B500B080FE21B5011
:1022B0000D080CE3010E1B5CBA6FCC6F040ECD6FE2
:1022C00083EC04F033C0CBF0B4EC04F0179A928A9C
:1022D00080BA19D0140ED16FFCEC03F0928A80BA48
:1022E00011D016B60FD00B0E1B5C036A350FE96ECA
:1022F000000E0320EA6EEF2A16861E0ED16FFCEC4C
:1023000003F0178A01D01696968084B019D0140E67
:10231000D16FFCEC03F0968084B011D016BA0FD0C8
:102320000B0E1B5C036A350FE96E000E0320EA6E8C
:10233000EF06168A1E0ED16FFCEC03F0178A01D04F
:10234000169A968284B215D0140ED16FFCEC03F06D
:10235000968284B20DD016B80BD016881B2A1E0E9A
:10236000D16FFCEC03F00C0ECB6FB4EC04F0178AC9
:1023700001D01698968484B415D0960ED16FFCECDB
:1023800003F0968484B40DD016BC0BD0168C1B06BB
:102390001E0ED16FFCEC03F00C0ECB6FB4EC04F00E
:1023A000178A01D0169C0B0E1B5C036A350FE96E71
:1023B000000E0320EA6EEFBE01D00AD00B0E1B5CAC
:1023C000036A350FE96E000E0320EA6E090EEF6E08
:1023D0000B0E1B5C036A350FE96E000E0320EA6EDC
:1023E000EFBE0CD0EF50090809E20B0E1B5C036A2C
:1023F000350FE96E000E0320EA6EEF6A1B500A08E3
:1024000002E30B0E1B6E1B500E08D8B0FFD03550E8
:1024100003086DE1365008086AE13750090867E1A2
:102420003850020864E1A96AA86AA69CA69EA68400
:10243000F250006EF29E0F01550EA76EAA0EA76E07
:10244000A682A6B2FED7A6940050F212140E000186
:10245000D16FFCEC03F0010EA96EA86AA69CA69EA3
:10246000A684F250006EF29E0F01550EA76EAA0EC2
:10247000A76EA682A6B2FED7A6940050F212140E42
:102480000001D16FFCEC03F0020EA96EA86AA69CB5
:10249000A69EA684F250006EF29E0F01550EA76E06
:1024A000AA0EA76EA682A6B2FED7A6940050F2127C
:1024B000140E0001D16FFCEC03F0030EA96EA86AA4
:1024C000A69CA69EA684F250006EF29E0F01550EA9
:1024D000A76EAA0EA76EA682A6B2FED7A69400503B
:1024E000F212140E0001D16FFCEC03F0FF00395022
:1024F000355C4FE13A50365C4CE13B50375C49E18A
:102500003C50385C46E1010ECC6FCD6F83EC04F09B
:10251000A40EF66E020EF76EE3EC04F0010ECC6F23
:10252000020ECD6F83EC04F0B80EF66E020EF76E5D
:10253000E3EC04F0010ECC6F030ECD6F83EC04F0DE
:10254000CC0EF66E020EF76EE3EC04F0010ECC6FCB
:10255000040ECD6F83EC04F0E00EF66E020EF76E03
:10256000E3EC04F0040EBA6FFA0ED16FFCEC03F04A
:10257000BA2FFAD7320E186E0B0E1B6E0C0ECB6FE5
:10258000B4EC04F0178A356A366A376A386A178AF3
:102590003DD0010ECC6FCD6F83EC04F0010ECC6FFB
:1025A000020ECD6F83EC04F0F40EF66E020EF76EA1
:1025B000E3EC04F0010ECC6F030ECD6F83EC04F05E
:1025C000080EF66E030EF76EE3EC04F0010ECC6F0E
:1025D000040ECD6F83EC04F01C0EF66E030EF76E46
:1025E000E3EC04F0040EBA6FFA0ED16FFCEC03F0CA
:1025F000BA2FFAD70B0E1B6E0C0ECB6FB4EC04F097
:10260000178A356A366A376A386A178A182C1BD1D6
:1026100002EC00F0010ECC6FCD6F83EC04F0300EB5
:10262000F66E030EF76EE3EC04F0010E3124BA6F80
:10263000BB6F020EBC6FF0EC08F0020E3124BA6FD3
:10264000BB6F030EBC6FF0EC08F0030E3124BA6FC1
:10265000BB6F040EBC6FF0EC08F0010ECC6F1CC019
:10266000CDF083EC04F032C0CBF0B4EC04F01C509D
:10267000020814E1010ECC6F040ECD6F83EC04F060
:1026800033C0CBF0B4EC04F0010ECC6F030ECD6F71
:1026900083EC04F033C0CBF0B4EC04F01C5004081D
:1026A00014E1010ECC6F020ECD6F83EC04F033C049
:1026B000CBF0B4EC04F0010ECC6F030ECD6F83ECC5
:1026C00004F033C0CBF0B4EC04F01C50030814E168
:1026D000010ECC6F040ECD6F83EC04F033C0CBF051
:1026E000B4EC04F0010ECC6F020ECD6F83EC04F05D
:1026F00033C0CBF0B4EC04F0179A928A80BA15D0AC
:10270000140ED16FFCEC03F0928A80BA0DD016B68D
:102710000BD01E061C06010E1C241D6E16861E0EF6
:10272000D16FFCEC03F0178A01D01696968084B026
:1027300015D0140ED16FFCEC03F0968084B00DD050
:1027400016BA0BD01E2A1C2A010E1C5C1D6E168A9E
:102750001E0ED16FFCEC03F0178A01D0169A1E50A2
:10276000205C08E2312A1EC020F0020E205C1F6EA1
:10277000040E1C6E1F501E5C08E231061EC01FF0C6
:10278000020E1F24206E020E1C6E1E50195C09E200
:102790001AC01EF0020E1C6E316A1EC01FF01F24EC
:1027A000206E1A501E5C0BE219C01EF0040E1C6E47
:1027B000195C316E1EC020F0020E205C1F6E31BE0F
:1027C00001D001D0316A968284B223D0140ED16F29
:1027D000FCEC03F0968284B21AD016B818D0168892
:1027E0001EC018F0030E1C6E020EBA6F960ED16F4B
:1027F000FCEC03F0BA2FFAD70C0ECB6FB4EC04F05C
:102800001850060804E1356A366A376A386A178A4A
:1028100001D01698968484B416D0140ED16FFCECB7
:1028200003F0968484B40FD0020EBA6FFA0ED16F03
:10283000FCEC03F0BA2FFAD7320E186E0C0ECB6FE9
:10284000B4EC04F0178A18500208D8A42AD102EC7C
:1028500000F0010ECC6FCD6F83EC04F0460EF66EE7
:10286000030EF76EE3EC04F0010ECC6F020ECD6F99
:1028700083EC04F05C0EF66E030EF76EE3EC04F0EE
:10288000060ECC6F030ECD6F83EC04F029C0BAF0B6
:10289000030EBB6F5AEC09F03A0ECB6FB4EC04F0A8
:1028A0002AC0BAF0010EBB6F5AEC09F07B0EF66E2F
:1028B000030EF76E080EBE6F65EC08F0060E2E24B0
:1028C000BA6FCC6F040ECD6F83EC04F034C0CBF044
:1028D000B4EC04F0179A928A80BA26D0140ED16F05
:1028E000FCEC03F0928A80BA1FD02E2C0DD0295018
:1028F000EF080AE3050E2926020EBA6F960ED16F75
:10290000FCEC03F0BA2FFAD72E5004080CE12A5041
:102910003A0809E32A2A020EBA6F960ED16FFCEC30
:1029200003F0BA2FFAD7178A968084B024D0140EF9
:10293000D16FFCEC03F0968084B01DD02E2C0CD00F
:1029400029520AE0050E295E020EBA6F960ED16F6B
:10295000FCEC03F0BA2FFAD72E5004080BE12A52F0
:1029600009E02A06020EBA6F960ED16FFCEC03F056
:10297000BA2FFAD7178A968284B21ED0140ED16F5E
:10298000FCEC03F0968284B217D02E2C03D0040EF8
:102990002E6E05D02E50040802E1010E2E6E020E9E
:1029A000BA6FFA0ED16FFCEC03F0BA2FFAD70C0E07
:1029B000CB6FB4EC04F0178A968484B472D09684FA
:1029C00084B46FD0C80ED16FFCEC03F00C0ECB6F4B
:1029D000B4EC04F0010ECC6F020ECD6F83EC04F06A
:1029E000840EF66E030EF76EE3EC04F0010ECC6F6E
:1029F000030ECD6F83EC04F0960EF66E030EF76EA9
:102A0000E3EC04F0050EA96E29C0A8FFA69CA69EC3
:102A1000A684F250006EF29E0F01550EA76EAA0E0C
:102A2000A76EA682A6B2FED7A6940050F212140E8C
:102A30000001D16FFCEC03F0060EA96E2AC0A8FFBE
:102A4000A69CA69EA684F250006EF29E0F01550E23
:102A5000A76EAA0EA76EA682A6B2FED7A6940050B5
:102A6000F212140E0001D16FFCEC03F029C027F024
:102A70002AC028F0040EBA6FAF0ED16FFCEC03F041
:102A8000BA2FFAD71E0ED16FFCEC03F0010E186EB0
:102A9000316A020E1C6E1E6E0C0ECB6FB4EC04F08D
:102AA000178A18500308D8A4A5D102EC00F0010E33
:102AB000CC6FCD6F83EC04F0A80EF66E030EF76EAC
:102AC000E3EC04F0010ECC6F020ECD6F83EC04F04A
:102AD000BE0EF66E030EF76EE3EC04F0010ECC6F43
:102AE000030ECD6F83EC04F0D40EF66E030EF76E7A
:102AF0000A0EBE6F65EC08F035C0BAF01F0EBB6F52
:102B000088EC08F036C0BAF01F0EBB6F88EC08F0F6
:102B100037C0BAF01F0EBB6F88EC08F038C0BAF0AF
:102B20001F0EBB6F88EC08F0200ECB6FB4EC04F0E6
:102B3000200ECB6FB4EC04F01BC0CCF0040ECD6FB4
:102B400083EC04F034C0CBF0B4EC04F01B500B0861
:102B50000FE21B500D080CE3010E1B5CBA6FCC6F2B
:102B6000040ECD6F83EC04F033C0CBF0B4EC04F072
:102B7000179A928A80BA19D0140ED16FFCEC03F028
:102B8000928A80BA11D016B60FD00B0E1B5C036A66
:102B9000350FE96E000E0320EA6EEF2A16861E0E30
:102BA000D16FFCEC03F0178A01D01696968084B0A2
:102BB00019D0140ED16FFCEC03F0968084B011D0C4
:102BC00016BA0FD00B0E1B5C036A350FE96E000EB0
:102BD0000320EA6EEF06168A1E0ED16FFCEC03F09E
:102BE000178A01D0169A968284B215D0140ED16F2E
:102BF000FCEC03F0968284B20DD016B80BD0168888
:102C00001B2A1E0ED16FFCEC03F00C0ECB6FB4EC44
:102C100004F0178A01D01698968484B415D0960EC5
:102C2000D16FFCEC03F0968484B40DD016BC0BD0AD
:102C3000168C1B061E0ED16FFCEC03F00C0ECB6F36
:102C4000B4EC04F0178A01D0169C0B0E1B5C036ACF
:102C5000350FE96E000E0320EA6EEFBE01D00AD0F8
:102C60000B0E1B5C036A350FE96E000E0320EA6E43
:102C7000090EEF6E0B0E1B5C036A350FE96E000E3A
:102C80000320EA6EEFBE0CD0EF50090809E20B0EEC
:102C90001B5C036A350FE96E000E0320EA6EEF6AD3
:102CA0001B500A0810E30B0E1B6E010E186E316AE2
:102CB000356A366A376A386A178A0B0E1B6E0C0E35
:102CC000CB6FB4EC04F01B500E08D8B093D0395041
:102CD000355C4EE13A50365C4BE13B50375C48E1A5
:102CE0003C50385C45E1010ECC6FCD6F83EC04F0B5
:102CF000EA0EF66E030EF76EE3EC04F0010ECC6FF5
:102D0000020ECD6F83EC04F0000EF66E040EF76E2B
:102D1000E3EC04F0010ECC6F030ECD6F83EC04F0F6
:102D2000160EF66E040EF76EE3EC04F0010ECC6F97
:102D3000040ECD6F83EC04F02C0EF66E040EF76ECD
:102D4000E3EC04F0020EBA6FFA0ED16FFCEC03F064
:102D5000BA2FFAD73D0E186E0B0E1B6E0C0ECB6FF2
:102D6000B4EC04F0356A366A376A386A178A42D09A
:102D7000010ECC6FCD6F83EC04F0420EF66E040EA4
:102D8000F76EE3EC04F0010ECC6F020ECD6F83EC16
:102D900004F0580EF66E040EF76EE3EC04F0010E2C
:102DA000CC6F030ECD6F83EC04F06E0EF66E040E46
:102DB000F76EE3EC04F0010ECC6F040ECD6F83ECE4
:102DC00004F0840EF66E040EF76EE3EC04F0020ECF
:102DD000BA6FFA0ED16FFCEC03F0BA2FFAD70B0ED4
:102DE0001B6E0C0ECB6FB4EC04F0178A356A366A92
:102DF000376A386A18503D08D8A4C4D102EC00F0F4
:102E0000010ECC6FCD6F83EC04F09A0EF66E040EBB
:102E1000F76EE3EC04F0010ECC6F020ECD6F83EC85
:102E200004F0B00EF66E040EF76EE3EC04F0010E43
:102E3000CC6F030ECD6F83EC04F0C60EF66E040E5D
:102E4000F76E0A0EBE6F65EC08F035C0BAF01F0EC3
:102E5000BB6F88EC08F036C0BAF01F0EBB6F88EC71
:102E600008F037C0BAF01F0EBB6F88EC08F038C00E
:102E7000BAF01F0EBB6F88EC08F0200ECB6FB4ECDD
:102E800004F0200ECB6FB4EC04F01BC0CCF0040EA9
:102E9000CD6F83EC04F034C0CBF0B4EC04F01B50E5
:102EA0000B080FE21B500D080CE3010E1B5CBA6F00
:102EB000CC6F040ECD6F83EC04F033C0CBF0B4ECD8
:102EC00004F0179A928A80BA19D0140ED16FFCECD4
:102ED00003F0928A80BA11D016B60FD00B0E1B5C8D
:102EE000036A350FE96E000E0320EA6EEF2A16869C
:102EF0001E0ED16FFCEC03F0178A01D01696968057
:102F000084B019D0140ED16FFCEC03F0968084B01D
:102F100011D016BA0FD00B0E1B5C036A350FE96E89
:102F2000000E0320EA6EEF06168A1E0ED16FFCEC2F
:102F300003F0178A01D0169A968284B211D0968235
:102F400084B20DD016B80BD016881B2A1E0ED16F76
:102F5000FCEC03F00C0ECB6FB4EC04F0178A01D03C
:102F60001698968484B415D0960ED16FFCEC03F0BD
:102F7000968484B40DD016BC0BD0168C1B061E0E86
:102F8000D16FFCEC03F00C0ECB6FB4EC04F0178A9D
:102F900001D0169C0B0E1B5C036A350FE96E000E08
:102FA0000320EA6EEFBE01D00AD00B0E1B5C036A51
:102FB000350FE96E000E0320EA6E090EEF6E0B0E60
:102FC0001B5C036A350FE96E000E0320EA6EEFBE4C
:102FD0000CD0EF50090809E20B0E1B5C036A350F99
:102FE000E96E000E0320EA6EEF6A1B500A080FE339
:102FF0000B0E1B6E010E186E356A366A376A386A18
:10300000178A0B0E1B6E0C0ECB6FB4EC04F01B502A
:103010000E08D8B0B7D0010ECC6FCD6F83EC04F0A2
:10302000DC0EF66E040EF76EE3EC04F0010ECC6FCE
:10303000020ECD6F83EC04F0F20EF66E040EF76E06
:10304000E3EC04F0010ECC6F030ECD6F83EC04F0C3
:10305000080EF66E050EF76EE3EC04F0010ECC6F71
:10306000040ECD6F83EC04F01E0EF66E050EF76EA7
:10307000E3EC04F0A96A35C0A8FFA69CA69EA6842E
:10308000F250006EF29E0F01550EA76EAA0EA76EAB
:10309000A682A6B2FED7A6940050F212140E00012A
:1030A000D16FFCEC03F0010EA96E36C0A8FFA69C00
:1030B000A69EA684F250006EF29E0F01550EA76EDA
:1030C000AA0EA76EA682A6B2FED7A6940050F21250
:1030D000140E0001D16FFCEC03F0020EA96E37C094
:1030E000A8FFA69CA69EA684F250006EF29E0F0139
:1030F000550EA76EAA0EA76EA682A6B2FED7A694FC
:103100000050F212140E0001D16FFCEC03F0030E1C
:10311000A96E38C0A8FFA69CA69EA684F250006E99
:10312000F29E0F01550EA76EAA0EA76EA682A6B23A
:10313000FED7A6940050F212140E0001D16FFCECE1
:1031400003F0020EBA6FFA0ED16FFCEC03F0BA2F47
:10315000FAD7010E186E316A020E1C6E1E6E35C053
:1031600039F036C03AF037C03BF038C03CF0356A31
:10317000366A376A386A178A0B0E1B6E0C0ECB6FD5
:10318000B4EC04F018500408D8A409D102EC00F003
:10319000010ECC6FCD6F83EC04F0340EF66E050E8D
:1031A000F76EE3EC04F0010ECC6F020ECD6F83ECF2
:1031B00004F04A0EF66E050EF76E0B0EBE6F65EC50
:1031C00008F0080EE96E41C0BBF040C0BAF090EFC5
:1031D00009F0200ECB6FB4EC04F0200ECB6FB4ECF2
:1031E00004F0200ECB6FB4EC04F0010ECC6F040E93
:1031F000CD6F83EC04F05E0EF66E050EF76EE3EC19
:1032000004F0179A928A80BAA8D0968284B2A5D088
:10321000140ED16FFCEC03F0928A80BA9ED0968295
:1032200084B29BD0C80ED16FFCEC03F00C0ECB6FB8
:10323000B4EC04F0010ECC6F020ECD6F83EC04F001
:10324000740EF66E050EF76EE3EC04F0010ECC6F13
:10325000030ECD6F83EC04F0860EF66E050EF76E4E
:10326000E3EC04F0070EA96EA86AA69CA69EA684AD
:10327000F250006EF29E0F01550EA76EAA0EA76EB9
:10328000A682A6B2FED7A6940050F212140E000138
:10329000D16FFCEC03F0080EA96EA86AA69CA69E4E
:1032A000A684F250006EF29E0F01550EA76EAA0E74
:1032B000A76EA682A6B2FED7A6940050F212140EF4
:1032C0000001D16FFCEC03F0090EA96EA86AA69C60
:1032D000A69EA684F250006EF29E0F01550EA76EB8
:1032E000AA0EA76EA682A6B2FED7A6940050F2122E
:1032F000140E0001D16FFCEC03F00A0EA96EA86A4F
:10330000A69CA69EA684F250006EF29E0F01550E5A
:10331000A76EAA0EA76EA682A6B2FED7A6940050EC
:10332000F212040E0001BA6FAF0ED16FFCEC03F085
:10333000BA2FFAD7216A226A416A406A1E0ED16FFB
:10334000FCEC03F0010E186E316A020E1C6E1E6E4C
:103350000C0ECB6FB4EC04F0178A968484B41ED0A4
:10336000140ED16FFCEC03F0968484B416D016BC16
:1033700014D0168C020EBA6FFA0ED16FFCEC03F06B
:10338000BA2FFAD7010E186E316A020E1C6E1E6E2D
:103390000C0ECB6FB4EC04F0178A01D0169C1850B9
:1033A0000508D8A42AD102EC00F0010ECC6FCD6F35
:1033B00083EC04F0980EF66E050EF76EE3EC04F065
:1033C000010ECC6F020ECD6F83EC04F0050EBA6FC8
:1033D000F8EC0BF000C0BAF001C0BBF002C0BCF0CA
:1033E00003C0BDF003C0D1F002C0D0F001C0CFF0E7
:1033F00000C0CEF0D70ED56FA30ED46FD36B810E65
:10340000D26FC3EC0CF000C0BAF001C0BBF002C038
:10341000BCF003C0BDF0AE0EF66E050EF76E090EE1
:10342000BE6F65EC08F0020EE96EBDC0C1F0BCC015
:10343000C0F0BBC0BFF0BAC0BEF0C26F99EC0DF0D7
:10344000BC0EF66E050EF76E070EBE6F65EC08F04B
:10345000010ECC6F030ECD6F83EC04F0BF6BEBEC71
:1034600009F000C0BAF001C0BBF002C0BCF003C05C
:10347000BDF0C40EF66E050EF76E080EBE6F65EC5D
:1034800008F0010EE96EBDC0C1F0BCC0C0F0BBC009
:10349000BFF0BAC0BEF0C26B99EC0DF0010ECC6F5C
:1034A000040ECD6F83EC04F0D20EF66E050EF76EAF
:1034B000070EBE6F65EC08F0010EE96EA7C0C1F003
:1034C000A6C0C0F0A5C0BFF0A4C0BEF0C26B99EC0E
:1034D0000DF0179A968284B270D0140ED16FFCEC66
:1034E00003F0968284B268D016B866D0010E186ECA
:1034F000316A020E1C6E1E6E0B0E1B6E020EBA6F30
:10350000FA0ED16FFCEC03F0BA2FFAD70C0ECB6F8A
:10351000B4EC04F0BF6BEBEC09F003C0A7F002C001
:10352000A6F001C0A5F000C0A4F0A7C0D1F0A6C0CD
:10353000D0F0A5C0CFF0A4C0CEF05CEC0EF002C07D
:1035400043F001C042F042C025F043C026F00B0E0C
:10355000A96E25C0A8FFA69CA69EA684F250006E68
:10356000F29E0F01550EA76EAA0EA76EA682A6B2F6
:10357000FED7A6940050F212140E0001D16FFCEC9D
:1035800003F00C0EA96E26C0A8FFA69CA69EA684DA
:10359000F250006EF29E0F01550EA76EAA0EA76E96
:1035A000A682A6B2FED7A6940050F212140E000115
:1035B000D16FFCEC03F0178A01D01698968484B47E
:1035C0001BD0140ED16FFCEC03F0968484B413D09E
:1035D00016BC11D0010E186E316A020E1C6E1E6EE2
:1035E0000B0E1B6E1E0ED16FFCEC03F00C0ECB6F9E
:1035F000B4EC04F0178A01D0169C18500608D8A421
:1036000093D017781688010E186E316A17A830D03B
:103610001788010ECC6FCD6F83EC04F0E00EF66ED0
:10362000050EF76EE3EC04F0010ECC6F020ECD6FC9
:1036300083EC04F0F60EF66E050EF76EE3EC04F084
:10364000010ECC6F030ECD6F83EC04F00C0EF66E02
:10365000060EF76EE3EC04F0010ECC6F040ECD6F96
:1036600083EC04F0220EF66E060EF76EE3EC04F027
:1036700017B830D01798010ECC6FCD6F83EC04F0E3
:10368000380EF66E060EF76EE3EC04F0010ECC6F0A
:10369000020ECD6F83EC04F04E0EF66E060EF76E42
:1036A000E3EC04F0010ECC6F030ECD6F83EC04F05D
:1036B000640EF66E060EF76EE3EC04F0010ECC6FAE
:1036C000040ECD6F83EC04F07A0EF66E060EF76EE4
:1036D000E3EC04F0000E17B8010EBA6F040EA96EE9
:1036E000BAC0A8FFA69CA69EA684F250006EF29EC9
:1036F0000F01550EA76EAA0EA76EA682A6B2FED720
:10370000A6940050F212040E0001BA6FFA0ED16FA7
:10371000FCEC03F0BA2FFAD7020E1C6E1E6E0C0ED4
:10372000CB6FB4EC04F0178A18500708D8A4CCD09B
:10373000B051060802E2060EB06FB05302E1010E6E
:10374000B06F010ECC6FCD6F83EC04F0900EF66E6F
:10375000060EF76EE3EC04F0010ECC6F020ECD6F97
:1037600083EC04F0A60EF66E060EF76EE3EC04F0A2
:10377000010ECC6F030ECD6F83EC04F0BC0EF66E21
:10378000060EF76E0A0EBE6F65EC08F0B0C0BAF018
:103790001B0EBB6F5AEC09F0C80EF66E060EF76EE4
:1037A000070EBE6F65EC08F0010ECC6F040ECD6FF6
:1037B00083EC04F0D00EF66E060EF76EE3EC04F028
:1037C000928A80BA08D0B051050805E3C80ED16FBF
:1037D000FCEC03F0B02B968084B007D0B05305E02A
:1037E000C80ED16FFCEC03F0B007968284B204D00F
:1037F000B0C0BAF023EC08F0968484B465D0640EAF
:10380000D16FFCEC03F0020E1C6E1E6E0C0ECB6F23
:10381000B4EC04F00D0EA96EB0C0A8FFA69CA69E45
:10382000A684F250006EF29E0F01550EA76EAA0EEE
:10383000A76EA682A6B2FED7A6940050F212140E6E
:103840000001D16FFCEC03F0010ECC6FCD6F83EC67
:1038500004F0E60EF66E060EF76EE3EC04F0010ED1
:10386000CC6F020ECD6F83EC04F0FC0EF66E060EEC
:10387000F76EE3EC04F0010ECC6F030ECD6F83EC1A
:1038800004F0120EF66E070EF76EE3EC04F0010E74
:10389000CC6F040ECD6F83EC04F0280EF66E070E8D
:1038A000F76EE3EC04F0040EBA6FFA0ED16FFCEC85
:1038B00003F0BA2FFAD70C0ECB6FB4EC04F044EC43
:1038C00004F0010E186E316A18503208D8A4F0D2F4
:1038D00017A011D11790080EBA6FF8EC0BF003C0C7
:1038E000A3F002C0A2F001C0A1F000C0A0F0010E40
:1038F000CC6FCD6F83EC04F0A3C0D1F0A2C0D0F0A8
:10390000A1C0CFF0A0C0CEF0D70ED56FA30ED46F5C
:10391000D36B810ED26FC3EC0CF000C0BAF001C0C3
:10392000BBF002C0BCF003C0BDF03E0EF66E070E49
:10393000F76E080EBE6F65EC08F0020EE96EBDC0B2
:10394000C1F0BCC0C0F0BBC0BFF0BAC0BEF0C26F17
:1039500099EC0DF04B0EF66E070EF76E070EBE6F6C
:1039600065EC08F0A3C0D1F0A2C0D0F0A1C0CFF0A8
:10397000A0C0CEF08F0ED56FC20ED46F750ED36F70
:103980007C0ED26F16EC0AF000C0BAF001C0BBF09A
:1039900002C0BCF003C0BDF003C0D1F002C0D0F043
:1039A00001C0CFF000C0CEF0D56BD46B300ED36F1A
:1039B000820ED26FC3EC0CF003C09FF002C09EF0E9
:1039C00001C09DF000C09CF0D16BD06B300ECF6F6A
:1039D000820ECE6F9FC0D5F09EC0D4F09DC0D3F0B4
:1039E0009CC0D2F030EC06F006E39F6B9E6B300E6D
:1039F0009D6F820E9C6F2D6A9FC0BDF09EC0BCF073
:103A00009DC0BBF09CC0BAF015EC10F000C0BAF03D
:103A100001C0BBF002C0BCF003C0BDF0D36B2DC031
:103A2000D2F026EC05F003C0D1F002C0D0F001C006
:103A3000CFF000C0CEF0BDC0D5F0BCC0D4F0BBC04C
:103A4000D3F0BAC0D2F030EC06F00EE3080E2D240D
:103A5000BA6FCC6F020ECD6F83EC04F0D10ECB6F3A
:103A6000B4EC04F02D2AC8D79FC0BDF09EC0BCF0B6
:103A70009DC0BBF09CC0BAF015EC10F003C0D1F0B3
:103A800002C0D0F001C0CFF000C0CEF05CEC0EF070
:103A900001C02DF02D500A080EE3080E2D24BA6F38
:103AA000CC6F020ECD6F83EC04F0200ECB6FB4EC24
:103AB00004F02D2AEFD7090ECC6F030ECD6F83ECE7
:103AC00004F0540EF66E070EF76E060EBE6F65EC30
:103AD00008F027C0BAF0030EBB6F5AEC09F03A0E9B
:103AE000CB6FB4EC04F028C0BAF0010EBB6F5AECF7
:103AF00009F002EC00F016AE4CD017A845D00C0E21
:103B0000CB6FB4EC04F0010ECC6F020ECD6F83ECE2
:103B100004F0640EF66E070EF76EE3EC04F0010E8F
:103B2000CC6F030ECD6F83EC04F07A0EF66E070EA9
:103B3000F76EE3EC04F0010ECC6F040ECD6F83EC56
:103B400004F0900EF66E070EF76EE3EC04F0010E33
:103B5000CC6FCD6F83EC04F0A60EF66E070EF76EF9
:103B6000E3EC04F02D6A2D5004080EE38B80949052
:103B7000C80ED16FFCEC03F08B909490C80ED16FFF
:103B8000FCEC03F02D2AEFD7169E0C0ECB6FB4EC95
:103B900004F01F0ED16F850ED06F6B0ECF6F7C0EB1
:103BA000CE6FA3C0D5F0A2C0D4F0A1C0D3F0A0C006
:103BB000D2F030EC06F001E203E1010E3D6E03D0DD
:103BC0003D6A8B909490010ECC6F020ECD6F83EC0A
:103BD00004F0BC0EF66E070EF76EE3EC04F016A4CC
:103BE0000DD0010ECC6F040ECD6F83EC04F0C40E2B
:103BF000F66E070EF76EE3EC04F00CD0010ECC6FFE
:103C0000040ECD6F83EC04F0CE0EF66E070EF76E49
:103C1000E3EC04F016A00DD00D0ECC6F040ECD6FAA
:103C200083EC04F0D80EF66E070EF76EE3EC04F0AA
:103C30000CD00D0ECC6F040ECD6F83EC04F0E00EB3
:103C4000F66E070EF76EE3EC04F016A20DD0010E2F
:103C5000CC6F030ECD6F83EC04F0E80EF66E070E0A
:103C6000F76EE3EC04F00CD0010ECC6F030ECD6FB9
:103C700083EC04F0F00EF66E070EF76EE3EC04F042
:103C8000179A16A415D017BC0ED0060EBA6F23ECE7
:103C900008F044EC04F0C80ED16FFCEC03F044ECE7
:103CA00004F0178C178AB0C0BAF023EC08F00FD0DC
:103CB000BA6B23EC08F017AC0AD044EC04F0C80E41
:103CC000D16FFCEC03F044EC04F0179C178A16A2A9
:103CD0000FD08A94939417B40AD044EC04F0C80E21
:103CE000D16FFCEC03F044EC04F01784178A0ED07B
:103CF0008A84939417A40AD044EC04F0C80ED16FC0
:103D0000FCEC03F044EC04F01794178A968084B01E
:103D100015D0140ED16FFCEC03F0968084B00DD05A
:103D200016B60BD016721686020EBA6F960ED16FAB
:103D3000FCEC03F0BA2FFAD7178A01D016969682B8
:103D400084B215D0140ED16FFCEC03F0968284B2CD
:103D50000DD016B80BD016741688020EBA6F960ED8
:103D6000D16FFCEC03F0BA2FFAD7178A01D016985E
:103D7000968484B40DD0140ED16FFCEC03F09684BD
:103D800084B406D0960ED16FFCEC03F01670178A3F
:103D9000928A80BA1ED0140ED16FFCEC03F0928A86
:103DA00080BA17D0C80ED16FFCEC03F00C0ECB6FAD
:103DB000B4EC04F0020EBA6F960ED16FFCEC03F077
:103DC000BA2FFAD7010E186E316A020E1C6E1E6EE3
:103DD000178A302C61D0070EA96E21C0A8FFA69CBF
:103DE000A69EA684F250006EF29E0F01550EA76E9D
:103DF000AA0EA76EA682A6B2FED7A6940050F21213
:103E0000080EA96E22C0A8FFA69CA69EA684F2500A
:103E1000006EF29E550EA76EAA0EA76EA682A6B2DF
:103E2000FED7A6940050F21240C023F041C024F007
:103E3000090EA96E23C0A8FFA69CA69EA684F2CF59
:103E400000F0F29E550EA76EAA0EA76EA682A6B22D
:103E5000FED7A6940050F212140E0001D16FFCECB4
:103E600003F00A0EA96E24C0A8FFA69CA69EA684F5
:103E7000F250006EF29E0F01550EA76EAA0EA76EAD
:103E8000A682A6B2FED7A6940050F212140E00012C
:103E9000D16FFCEC03F0306A21503B0802E2216A4A
:103EA000222A22503C0804E1226A402AD8B4412A3E
:103EB0002F503B080AE244EC04F0C80ED16FFCEC32
:103EC00003F044EC04F02F6A178A02EF11F00300AC
:020000040030CA
:0E00000038C23F1E000781000FC00FE00F4006
:00000001FF
;PIC18F4550
;CRC=2E74  CREATED="24-abr.-20 07:41"
