:04000000A6EF06F071
:08000800046ED8CF05F0E0CF33
:1000100006F00001E9CF0CF0EACF07F0E1CF08F0DD
:10002000E2CF09F0D9CF0AF0DACF0BF0F3CF12F01C
:10003000F4CF13F0FACF14F000C00EF001C00FF0AF
:1000400002C010F003C011F09DA22AEF00F09EB292
:1000500082EF01F09DAA30EF00F09EBAC5EF01F0EB
:100060009DA636EF00F09EB604EF02F00EC000F041
:100070000FC001F010C002F011C003F00CC0E9FF86
:1000800007C0EAFF078E08C0E1FF09C0E2FF0AC00F
:10009000D9FF0BC0DAFF12C0F3FF13C0F4FF14C086
:1000A000FAFF045006C0E0FF05C0D8FF100007AEFD
:1000B00003D0F2CF0DF0F29EF76AD00FF66E000E6D
:1000C000F7220900F55007AE02D00DBEF28E1200E5
:1000D00000C1814001C0804101C0804100C1814018
:1000E00001C0804100C1814000C1814001C0804108
:1000F00001C0804100C1814000C1814001C08041F8
:1001000000C1814001C0804101C0804100C18140E7
:1001100001C0804100C1814000C1814001C08041D7
:1001200000C1814001C0804101C0804100C18140C7
:1001300000C1814001C0804101C0804100C18140B7
:1001400001C0804100C1814000C1814001C08041A7
:1001500001C0804100C1814000C1814001C0804197
:1001600000C1814001C0804101C0804100C1814087
:1001700000C1814001C0804101C0804100C1814077
:1001800001C0804100C1814000C1814001C0804167
:1001900000C1814001C0804101C0804100C1814057
:1001A00001C0804100C1814000C1814001C0804147
:1001B00001C0804100C1814000C1814001C0804137
:1001C00000C1814001C0804101C0804100C1814027
:1001D00007AE03D0F2CF0DF0F29EF76AF20FF66E83
:1001E000010EF7220900F55007AE02D00DBEF28EC7
:1001F000120000C0C101C30302C2C60607C705C57D
:10020000C404CC0C0DCD0FCFCE0E0ACACB0BC9093E
:1002100008C8D81819D91BDBDA1A1EDEDF1FDD1D4E
:100220001CDC14D4D515D71716D6D21213D311D17E
:10023000D010F03031F133F3F23236F6F737F535CE
:1002400034F43CFCFD3DFF3F3EFEFA3A3BFB39F9FE
:10025000F83828E8E929EB2B2AEAEE2E2FEF2DEDCE
:10026000EC2CE42425E527E7E62622E2E323E1213E
:1002700020E0A06061A163A3A26266A6A767A5654E
:1002800064A46CACAD6DAF6F6EAEAA6A6BAB69A9BE
:10029000A86878B8B979BB7B7ABABE7E7FBF7DBDCE
:1002A000BC7CB47475B577B7B67672B2B373B171FE
:1002B00070B05090915193535292965657975595CE
:1002C00094549C5C5D9D5F9F9E5E5A9A9B5B99597E
:1002D0005898884849894B8B8A4A4E8E8F4F8D4D4E
:1002E0004C8C4484854587474686824243834181BE
:1002F00080409D920401D35303E0CC6A9E929D827C
:100300000001000C1D5002080AE11E5208E11F52B4
:1003100006E11CB004D0020E215E1C8001D01C90AE
:10032000FF0E1F6E1E6E1D6A0401D36B0001E1DF1C
:100330009E9236EF00F09EAAFED7ABCF17F0AECF5D
:1003400001F017A202D0AB98AB88000C1F5004013B
:10035000D319D46F036AD451F2CFD5F4F29E0001C1
:10036000A6DE0401D5BFF28E016E1E5001181F6E6D
:10037000036AD451F2CFD5F4F29E000129DF0401C3
:10038000D5BFF28E1E6E0001000CD5DF01C0D2F485
:100390001CB025D01D5209E1FF0E1F6E1E6ED2C487
:1003A00020F01D2A216A236A12D01D2C04D0D2C449
:1003B00022F01D2A0CD01D50020809E1240E212430
:1003C000E96EEA6AD8B0EA2AD2C4EFFF212AD2C481
:1003D000D3F4BCDF010E0401D36F00018ADF1B6A76
:1003E0001A6A270E196E100E186E9E9A36EF00F0DC
:1003F000C950D4C4C9FFC6889E96C7B0FED7016A4B
:10040000C6B8012A1EEF02F0C7BA04D00401C26BBD
:10041000C7B4C28F0401C251C22B2A6F2A5180086F
:100420000FE1036A2B515E0FE96E040E0320EA6EA2
:10043000EFCFD3F4D3C4D4F40001DAD719D0040138
:10044000C69C9EA6FED7C950C688D26F2A2D03D05F
:10045000D2C42BF40CD02A51020809E1036A2B51B3
:10046000900FE96E040E0320EA6ED2C4EFFF000184
:100470009E9636EF00F00D0A5069636B20636F6D36
:100480006D616E6420746F2073656E640D0A312E89
:10049000205265616420616C6C20636F696C732EFF
:1004A0000D0A0000322E205265616420616C6C20C0
:1004B000696E707574732E0D0A332E205265616457
:1004C00020616C6C20686F6C64696E672072656770
:1004D0006973746572732E0D0A00342E20526561A3
:1004E0006420616C6C20696E707574207265676938
:1004F00073746572732E0D0A352E205475726E203A
:10050000636F696C2036206F6E2E0D0A362E200028
:1005100057726974652030783434343420746F2015
:10052000726567697374657220307830330D0A37ED
:100530002E20536574203820636F696C73207573A7
:10054000696E672030783530206173206D61736B80
:100550000D0A0000382E2053657420322072656722
:1005600069737465727320746F2030783131313162
:100570002C203078323232320D0A392E2053656EFB
:100580006420756E6B6E6F776E20636F6D6D616E3C
:10059000640D0A00436F696C733A0D0A00004461F0
:1005A00074613A2000000D0A0D0A00003C2D2A2A31
:1005B000457863657074696F6E2025582A2A2D3E30
:1005C0000D0A0D0A0000496E707574733A0D0A0029
:1005D000446174613A2000000D0A0D0A00003C2DB0
:1005E0002A2A457863657074696F6E2025582A2A17
:1005F0002D3E0D0A0D0A0000486F6C64696E67207D
:100600005265676973746572733A0D0A000044613C
:1006100074613A2000000D0A0D0A00003C2D2A2AC0
:10062000457863657074696F6E2025582A2A2D3EBF
:100630000D0A0D0A0000496E7075742052656769D5
:1006400073746572733A0D0A0000446174613A2054
:1006500000000D0A0D0A00003C2D2A2A457863652A
:100660007074696F6E2025582A2A2D3E0D0A0D0AD6
:10067000000057726974696E672053696E676C6514
:1006800020436F696C3A0D0A0000446174613A209E
:1006900000000D0A0D0A00003C2D2A2A45786365EA
:1006A0007074696F6E2025582A2A2D3E0D0A0D0A96
:1006B000000057726974696E672053696E676C65D4
:1006C0002052656769737465723A0D0A00004461CF
:1006D00074613A2000000D0A0D0A00003C2D2A2A00
:1006E000457863657074696F6E2025582A2A2D3EFF
:1006F0000D0A0D0A000057726974696E67204D7506
:100700006C7469706C6520436F696C733A0D0A00F4
:10071000446174613A2000000D0A0D0A00003C2D6E
:100720002A2A457863657074696F6E2025582A2AD5
:100730002D3E0D0A0D0A000057726974696E67201C
:100740004D756C7469706C6520526567697374656A
:1007500072733A0D0A00446174613A2000000D0A78
:100760000D0A00003C2D2A2A457863657074696F74
:100770006E2025582A2A2D3E0D0A0D0A00005472BB
:1007800079696E6720756E6B6E6F776E2066756E19
:100790006374696F6E0D0A00446961676E6F7374EC
:1007A00069633A0D0A00446174613A000D0A0D0A4A
:1007B00000003C2D2A2A457863657074696F6E20AD
:1007C00025582A2A2D3E0D0A0D0A00000D0A496EF1
:1007D000697469616C697A696E672E2E2E002E2EFF
:1007E0002E72656164790D0A00004164647265735C
:1007F000733A202530327520000093988A98080EAD
:10080000016E00D00000018E10D0019E0401CA3399
:100810000001D8B08A88D8A08A98018C06D0019CA3
:10082000012EF4D700D000008A881C0EE96EE92E54
:10083000FED700D001BEE9D701BCF1D7000C0900FA
:10084000F5520CE0F6CFC7F4F7CFC8F4F5CFCAF4F1
:10085000D4DFC7C4F6FFC8C4F7FFF1D7000C9EAAC7
:1008600002D069DDFCD79D8A000C94928B92F7DF51
:10087000200E0609CA6EF90ECB6EC00EF212F9EF09
:1008800006F00401C351C503F3CF01F0F4CF00F02B
:10089000C603F3500026C451C503F3500020026E76
:1008A000000164EF04F090C423F491C424F492C4D2
:1008B00025F493C426F40401C46B26C4C3F4010ECA
:1008C000C66FC56B0001DDD7040125510124286FD7
:1008D000000E0220296F0001000C0900F6CFC8F4B9
:1008E000F7CFC9F4F5CFCAF488DFC8C4F6FFC9C48E
:1008F000F7FF0401C72F01D002D00001EED700019D
:10090000000C0401C651016AC55D03E2C5C400F0D4
:100910000CD0006A080EC76FC5370036C651005CA0
:10092000D8B0006E0136C72FF7D70001000C015078
:10093000C3C4C5F4640E0401C66F0001E2DF00C049
:10094000C3F40150300E08E10401C4A30FD0C4B7B2
:100950000DD0C4B9200E04D00401C497C499C48139
:10096000012601C0CAF4000148DF0401C3C4C5F474
:100970000A0EC66F0001C5DF00C0C3F40150300E7F
:1009800008E10401C4B70AD0C4A108D0C4B9200E3C
:100990000001012601C0CAF430DF0401300EC32774
:1009A000C3C4CAF4000129DF12EF07F09EA8FED7E6
:1009B000AD6EDFEF04F00401CE510001F7D7166AE7
:1009C000F2BE168EF29ECEC4D3F4C0DC16BEF28EFA
:1009D000220E006E002EFED70000000CFF0E1F6ED0
:1009E0001E6E1C909D9A94928B82790E006E002E42
:1009F000FED7CCC4CEF4DFDFCDC4CEF4DCDF000CF8
:100A00001FC0CDF41EC0CCF4CDC4CEF4D4DFCCC412
:100A1000CEF4D1DFACA2FED7790E006E002EFED749
:100A20001EDF94928B92FF0E1F6E1E6E000C1CB088
:100A300004D0000E016E0AD006D022AE04D024C02D
:100A400023F0010E216E1C90010E016E000CC5C436
:100A5000CCF4030E0401CD6F0001C0DFC7C4CAF49B
:100A6000C7C4CEF4A8DFC6C4CAF4C6C4CEF4A3DF9C
:100A7000C9C4CAF4C9C4CEF49EDFC8C4CAF4C8C489
:100A8000CEF499DFBDDF0401C55321E00001CFDFC3
:100A9000015212E1FF0E1826D8A01926D8A01A2656
:100AA000D8A01B26185206E1195204E11A5202E19D
:100AB0001B5202E00000EBD7185208E1195206E180
:100AC0001A5204E11B5202E10C0E236E04011B6A50
:100AD0001A6A270E196E100E186E23C001F000015D
:100AE000A5EF05F00401C9BF11D00F0E006EC83983
:100AF00000160A0E005C03E2300E002602D0C95137
:100B0000002600C0CAF4000178DE04010F0EC817E9
:100B10000A0EC85D02E2300E02D0C99FC951C82733
:100B2000C8C4CAF4000169DE000CF80EF66E050EAA
:100B3000F76E85DE010E0401C56FC76BC3C4C6F432
:100B4000C96BC4C4C8F4000182D701523FE10E0E44
:100B5000F66E060EF76E73DE010E0401276F21504C
:100B6000275D2DE2240E2725E96EEA6AD8B0EA2A2D
:100B7000EFCFC5F4C5C4C8F4370EC96F0001B2DFAA
:100B8000200E0401CA6F000138DE0401275113084A
:100B900014E3036A27515E0F016E040E0322240E34
:100BA0002725E96EEA6AD8B0EA2AEFCFC7F403C076
:100BB000EAFF01C0E9FFC7C4EFFF272BD0D7160E0D
:100BC000F66E060EF76E00013ADE1BD01C0EF66EB6
:100BD000060EF76E0E0E0401C76F00017EDE23C005
:100BE000C8F4370E0401C96F00017CDF2C0EF66ECD
:100BF000060EF76E080E0401C76F00016EDE8A8EC6
:100C0000939E21EF07F0C7C4CCF4060E0401CD6F0C
:100C10000001E4DEC9C4CCF4C9C4CEF4CCDEC8C43F
:100C2000CCF4C8C4CEF4C7DECBC4CCF4CBC4CEF471
:100C3000C2DECAC4CCF4CAC4CEF4BDDEE1DE040117
:100C4000C75321E00001F3DE015212E1FF0E182626
:100C5000D8A01926D8A01A26D8A01B26185206E11B
:100C6000195204E11A5202E11B5202E00000EBD7D4
:100C7000185208E1195206E11A5204E11B5202E12E
:100C80000C0E236E04011B6A1A6A270E196E100ED1
:100C9000186E23C001F0000160EF06F0B20EF66E90
:100CA000060EF76ECCDD010E0401C76FC4C4C9F493
:100CB000C3C4C8F4C6C4CBF4C5C4CAF40001A3D7E6
:100CC000015227E1CE0EF66E060EF76EB8DD040176
:100CD000276B2150275D16E2240E2725E96EEA6A6C
:100CE000D8B0EA2AEFCFC7F4C7C4C8F4370EC96F2B
:100CF0000001F8DE200E0401CA6F00017EDD040150
:100D0000272BE7D7D60EF66E060EF76E000197DD9D
:100D10001BD0DC0EF66E060EF76E0E0E0401C76FCA
:100D20000001DBDD23C0C8F4370E0401C96F0001E8
:100D3000D9DEEC0EF66E060EF76E080E0401C76FD4
:100D40000001CBDD8A8E939E2EEF07F0F86AD09ECD
:100D5000078EEA6AE96A93829380B00EC86E360EF7
:100D6000C66E93988A88B896190EAF6EA60EAC6EB2
:100D7000900EAB6E1B6A1A6A270E196E100E186E53
:100D80001C901D6A0401236B246B256B266B276B5B
:100D9000296B286BC150C00B0F09C16E070EB46ED2
:100DA000176A030EC26F2A6B2B6B2B510F081AE3C5
:100DB000036A2B512C0FE96E040E0320EA6EEF6AD2
:100DC000036A2B515E0FE96E040E0320EA6EEF6A90
:100DD000036A2B51900FE96E040E0320EA6EEF6A4E
:100DE0002B2BE3D7CC0EF66E070EF76E000127DD36
:100DF0003CD5DE0EF66E070EF76E21DD54DD9D86C6
:100E0000C00EF212EA0EF66E070EF76E090E04011E
:100E1000C76F000162DD24C4C3F4010E0401C46F76
:100E2000000185D5200E0401CA6F0001E6DC3BDD20
:100E300004012351030806E1C36B080EC46F0001CF
:100E400074D604012351050809E1C46B24C4C3F41A
:100E500029C4C6F428C4C5F4000120D70001D2D7A4
:020E600003008D
:020000040030CA
:0E0000001802191E000180000FC00FE00F4013
:00000001FF
;PIC18F2550
;CRC=1C1E  CREATED="04-feb.-21 17:00"
