:0600000011EF13F0000CEB
:080008000000000000000000F0
:100010000000000000000000046ED8CF05F0E0CF23
:1000200006F00001E9CF0CF0EACF07F0E1CF08F0CD
:10003000E2CF09F0D9CF0AF0DACF0BF0F3CF12F00C
:10004000F4CF13F0FACF14F000C00EF001C00FF09F
:1000500002C010F003C011F09DA032EF00F09EB07E
:10006000D7EF00F00EC000F00FC001F010C002F09A
:1000700011C003F00CC0E9FF07C0EAFF078E08C0FB
:10008000E1FF09C0E2FF0AC0D9FF0BC0DAFF12C0CE
:10009000F3FF13C0F4FF14C0FAFF045006C0E0FFE2
:1000A00005C0D8FF1000F2CF0DF0F29CF29EF76A67
:1000B000C60FF66E000EF7220900F5500DBCF28C4B
:1000C0000DBEF28E1200280C010654656D706F7221
:1000D000697A61646F7220555620202020004361A8
:1000E0006D62696F20436F6E7472617365F1612098
:1000F00020005469656D706F2054726162616A6F8F
:1001000020202020200050756E746F204365726F90
:1001100020202020202020202000416C61726D6171
:10012000202020202020202020204F464600416C07
:1001300061726D6120202020202020202020204F6F
:100140004E0056656C6F6369646164202020202036
:10015000202020202000202020202020204D4F443F
:10016000554C4F2020202020202000002020204619
:100170004C554A4F204C414D494E415220202020A1
:100180000000202020204A502020494E474C4F425A
:10019000414C20202020000020205245463A4A5061
:1001A00043464C564D4431313158202000009E0EBC
:1001B000CF6E580ECE6E472AD8B4482A485203E173
:1001C0004750C7082EE292968976486A476A312AD4
:1001D0001880412C0AD018B603D08B90949004D08C
:1001E00018A802D08B809490187617A403D0B52B52
:1001F000D8B4B62B17A015D0232A17BE12D02A5276
:1002000002E02A060ED0295204E029063B0E2A6E8F
:1002100008D0178E17908A8693962BC029F02CC091
:100220002AF09E9032EF00F02020202020496E67B7
:1002300072657365202020202020202000002020CF
:100240002020436F6E7472617365F161202020205D
:100250002020000020202020434C4156453D2569A8
:1002600025692569256920200000202020202020E4
:10027000202020202020202020202020200020209E
:10028000202020436F6E7472617365F1612020201D
:100290002000202020202020436F7272656374614B
:1002A000202020202000202020202020202020206E
:1002B000202020202020202020002020202020433B
:1002C0006F6E7472617365F1612020202000202020
:1002D000202020496E636F72726563746120202054
:1002E000200020202020202020202020202020202E
:1002F0002020202020002D2D2D4D454E55205052E0
:10030000494E434950414C2D2D2D000020202020E6
:1003100054656D706F72697A61646F72202020205D
:100320002000202020202020204C757A20555620A7
:100330002020202020202000253033753A2530321F
:100340007520284D3A53292020005469656D706F3F
:1003500020416C6D6163656E61646F002020436FA6
:100360007272656374616D656E7465202000202073
:10037000202020496E677265736520202020202090
:100380002020000020202020436F6E74726173656E
:10039000F161202020202020000020202020434C3C
:1003A0004156453D256925692569256920200000BC
:1003B000202020202020202020202020202020203D
:1003C0002020202000002020202020436F6E747207
:1003D000617365F161202020202000002020202072
:1003E0002020436F727265637461202020202020DA
:1003F000000020202020202020202020202020203D
:10040000202020202020000020202020202020202C
:10041000202020202020202020202020000020201C
:10042000202020436F6E7472617365F1612020207B
:10043000202000002020202020496E636F7272650A
:100440006374612020202020000020202020202014
:1004500020202020202020202020202020200000DC
:10046000202020496E6772657365204E7565766140
:100470002020202000002020202020436F6E747256
:10048000617365F1612020202020000020202020C1
:10049000434C4156453D256925692569256920203C
:1004A000000020202020202020202020202020208C
:1004B00020202020202000002020202020436F6EBC
:1004C0007472617365F161202020202000002020DB
:1004D000202020416C6D6163656E61646120202085
:1004E000202000002020202020202020202020204C
:1004F0002020202020202020000020205469656D2D
:10050000706F2064652054726162616A6F20000020
:100510002020205469656D706F3D202530354C7565
:10052000202020002052455345543D204F707269D1
:100530006D61205E2079203E200020526573657435
:10054000206465207469656D706F20002020202074
:1005500020457869746F736F2020202020002020B0
:100560005A65726F20506F696E7420436F6E6669B2
:100570006720000050726573696F6E3D2025332E31
:10058000326620696E48324F2000202020204144EE
:10059000433D25322E306600202020205A463D253E
:1005A000322E306600002020202020202020202015
:1005B000202020202020202020200000202020207B
:1005C0002020202041637469766F20202020202085
:1005D00000002020202020202020416C61726D61CD
:1005E000202020202020000020202020202020204B
:1005F000202020202020202020202020000020203B
:1006000020202020202020202020202020202020EA
:100610002020000020202020202044657361637486
:1006200069766F202020202000002020202020201C
:1006300020416C61726D612020202020202000006C
:1006400020202020202020202020202020202020AA
:1006500020202020000053656C656363696F6E6520
:100660002056656C6F63696461640000202020641B
:10067000656C2056656E74696C61646F7220202011
:100680000000202020202056656C3A20257520206F
:10069000202020202000202020202020202020207A
:1006A000202020202020202020200000202020208A
:1006B000202020202020202020202020202020203A
:1006C0000000202020202056656C6F6369646164FF
:1006D0002020202020200000202020202020416CED
:1006E0006D6163656E616461202020200000202020
:1006F00020202020202020202020202020202020FA
:10070000202000004A5043522044503A25332E32D4
:100710006620696E48324F20000021566572696676
:100720006971756520466C756A6F2120000021563D
:1007300065726966697175652046696C74726F21AE
:10074000000054656D706F3A253033753A253032AC
:10075000750046696C74726F3A004D6F746F723A2F
:100760004F4E20004D6F746F723A4F4646005556FB
:100770003A4F4E20000055563A4F464600004C7501
:100780007A3A4F4E20004C757A3A4F464600202068
:1007900054656D706F72697A61646F722020646550
:1007A00020200000204C757A205556202046696E86
:1007B000616C697A61646F20000020202020202075
:1007C0002020202020202020202020202020000069
:1007D0002020202020202020202020202020202019
:1007E000202020200000EA6AEA0EE96EEF500DE0BA
:1007F000060E016E006A002EFED7012EFBD77B0E7F
:10080000006E002EFED7EF2EF3D7000CEC39F00B64
:10081000006E0F0E83140010836E090E006E002E02
:10082000FED700D083865B0E006E002EFED7000040
:100830008396000CF00E956E8384090E006E002ED8
:10084000FED700D08386090E006E002EFED700D0A2
:1008500083380F0BEC6F8396090E006E002EFED7C7
:1008600000D08386310E006E002EFED700D0833874
:100870000F0BEB6F8396000E956EEC39006EF00E49
:1008800000160050EB11016E48EF04F08392D2D7AE
:1008900001C0EBF001BEFBD7E9A18392E9B18382ED
:1008A000090E006E002EFED700D08394090E006E54
:1008B000002EFED700D08396EA39EB6F0F0EEB17B0
:1008C000EBC0ECF0A3DFEA510F0BEB6FEC6F9EDF98
:1008D000000C000E956E8392839483960F0EEA6F40
:1008E00082DF010ED46FD451030808E3030EEC6FCE
:1008F0008DDF050EEA6F77DFD42BF5D7020EEC6F94
:1009000085DFD46BD451030812E3036AD451F2CFCC
:10091000D5F0F29CF29E53EC00F0D5BDF28CD5BF21
:10092000F28ED56FE96BEA6FB1DFD42BEBD7000CF9
:10093000C80EEA6F58DFCDDFFF0E926E9682968268
:1009400096829682C00EF212D180850ECD6E9D8069
:10095000C150C00B0E09C16EC050C00B0209C06E61
:10096000C08EC280C00EF212F2EF13F08E0E006E37
:10097000EDC001F0ECC002F0036A015209E102C0CF
:1009800001F0026A080E005E015202E1006A08D01E
:10099000D89001BE04D0023601360006F9D7019E78
:1009A000000CF2CFD4F0F29CF29EA96AA69CA69EFF
:1009B000A680A850D4BDF28CD4BFF28E3D6E140E2A
:1009C000EA6F11DFF2CFD4F0F29CF29E010EA96E15
:1009D000A69CA69EA680A850D4BDF28CD4BFF28E51
:1009E0003E6E140EEA6FFFDEF2CFD4F0F29CF29E60
:1009F000020EA96EA69CA69EA680A850D4BDF28C1D
:100A0000D4BFF28E3F6E140EEA6FEDDEF2CFD4F05B
:100A1000F29CF29E030EA96EA69CA69EA680A850EC
:100A2000D4BDF28CD4BFF28E406E140EEA6FDBDEC2
:100A3000F2CFD4F0F29CF29E040EA96EA69CA69E64
:100A4000A680A850D4BDF28CD4BFF28E016E189847
:100A500001B01888140EEA6FC6DEF2CFD4F0F29C13
:100A6000F29E050EA96EA69CA69EA680A850D4BD97
:100A7000F28CD4BFF28E296E140EEA6FB4DEF2CF80
:100A8000D4F0F29CF29E060EA96EA69CA69EA680AD
:100A9000A850D4BDF28CD4BFF28E2A6E140EEA6F29
:100AA000A2DEF2CFD4F0F29CF29E070EA96EA69CB5
:100AB000A69EA680A850D4BDF28CD4BFF28E236E21
:100AC000140EEA6F90DEF2CFD4F0F29CF29E080E84
:100AD000A96EA69CA69EA680A850D4BDF28CD4BFB9
:100AE000F28E246E140EEA6F7EDEF2CFD4F0F29C0A
:100AF000F29E090EA96EA69CA69EA680A850D4BD03
:100B0000F28CD4BFF28E256E140EEA6F6CDEF2CF3B
:100B1000D4F0F29CF29E0A0EA96EA69CA69EA68018
:100B2000A850D4BDF28CD4BFF28E266E140EEA6F9C
:100B30005ADEF2CFD4F0F29CF29E0B0EA96EA69C68
:100B4000A69EA680A850D4BDF28CD4BFF28E276E8C
:100B5000140EEA6F48DEF2CFD4F0F29CF29E0C0E37
:100B6000A96EA69CA69EA680A850D4BDF28CD4BF28
:100B7000F28E286E140EEA6F36DEF2CFD4F0F29CBD
:100B8000F29E0D0EA96EA69CA69EA680A850D4BD6E
:100B9000F28CD4BFF28E466E140EEA6F24DEF2CFD2
:100BA000D4F0F29CF29E0F0EA96EA69CA69EA68083
:100BB000A850D4BDF28CD4BFF28E426E140EEA6FF0
:100BC00012DEF2CFD4F0F29CF29E100EA96EA69C1B
:100BD000A69EA680A850D4BDF28CD4BFF28E436EE0
:100BE000140EEA6F00DEF2CFD4F0F29CF29E110EEA
:100BF000A96EA69CA69EA680A850D4BDF28CD4BF98
:100C0000F28E446E140EEA6FEEDD28C04CF027C061
:100C10004BF04CC0EDF04BC0ECF0A8DE03C0B0F0E0
:100C200002C0AFF001C0AEF000C0ADF0F2CFD4F022
:100C3000F29CF29E130EA96EA69CA69EA680A850BA
:100C4000D4BDF28CD4BFF28ED56FF2CFD6F0F29C29
:100C5000F29E120EA96EA69CA69EA680A850D6BD96
:100C6000F28CD6BFF28ED76FD5C0B8F0D7C0B7F030
:100C7000140EEA6FB8DDF2CFD4F0F29CF29E150E9E
:100C8000A96EA69CA69EA680A850D4BDF28CD4BF07
:100C9000F28ED56FF2CFD6F0F29CF29E140EA96EB2
:100CA000A69CA69EA680A850D6BDF28CD6BFF28E7A
:100CB000D76FD5C0B6F0D7C0B5F0140EEA6F93DD8C
:100CC000F2CFD4F0F29CF29E160EA96EA69CA69EC0
:100CD000A680A850D4BDF28CD4BFF28E336E140E11
:100CE000EA6F81DDF2CFD4F0F29CF29E170EA96E6E
:100CF000A69CA69EA680A850D4BDF28CD4BFF28E2E
:100D0000346E140EEA6F6FDD26C04AF025C049F03C
:100D100029C02BF02AC02CF0F4EF13F0E9C0F0F05A
:100D2000ED51F01BF0AF05D0D894D890E9BFD88032
:100D30002FD0E9C0F0F0ECC0F1F0E851F15F06E02F
:100D4000F0AF26D0D850010AD86E22D0EDC0F1F015
:100D5000E951F15F06E0F0AF1BD0D850010AD86E20
:100D600017D0EEC0F1F0EA51F15F06E0F0AF10D01D
:100D7000D850010AD86E0CD0EFC0F1F0EB51F15F02
:100D800006E0F0AF05D0D850010AD86E01D0D89057
:100D9000000C3DBE03D03D50090803E33DBE01D029
:100DA00019D03D6AA96AA86AA69CA69EA684F2509C
:100DB000006EF29CF29E0F01550EA76EAA0EA76E52
:100DC000A682A6B2FED7A6940050F212140E00011D
:100DD000EA6F09DD3EBE03D03E50090803E33EBE84
:100DE00001D01AD03E6A010EA96EA86AA69CA69EE2
:100DF000A684F250006EF29CF29E0F01550EA76E73
:100E0000AA0EA76EA682A6B2FED7A6940050F21232
:100E1000140E0001EA6FE7DC3FBE03D03F50090823
:100E200003E33FBE01D01AD03F6A020EA96EA86A42
:100E3000A69CA69EA684F250006EF29CF29E0F0124
:100E4000550EA76EAA0EA76EA682A6B2FED7A694CE
:100E50000050F212140E0001EA6FC5DC40BE03D050
:100E60004050090803E340BE01D01AD0406A030E87
:100E7000A96EA86AA69CA69EA684F250006EF29C5B
:100E8000F29E0F01550EA76EAA0EA76EA682A6B2FD
:100E9000FED7A6940050F212140E0001EA6FA3DCF4
:100EA000000E18B8010E01081BE21888040EA96E86
:100EB000010EA86EA69CA69EA684F250006EF29C1F
:100EC000F29E0F01550EA76EAA0EA76EA682A6B2BD
:100ED000FED7A6940050F212140E0001EA6F83DCD4
:100EE0002950C8081CE2140E296E050EA96E140EB6
:100EF000A86EA69CA69EA684F250006EF29CF29E5E
:100F00000F01550EA76EAA0EA76EA682A6B2FED737
:100F1000A6940050F212140E0001EA6F64DC2A500D
:100F20003B081AE22A6A060EA96EA86AA69CA69E2B
:100F3000A684F250006EF29CF29E0F01550EA76E31
:100F4000AA0EA76EA682A6B2FED7A6940050F212F1
:100F5000140E0001EA6F47DC23503C081AE2236AB2
:100F6000070EA96EA86AA69CA69EA684F250006EE3
:100F7000F29CF29E0F01550EA76EAA0EA76EA682D6
:100F8000A6B2FED7A6940050F212140E0001EA6F2A
:100F90002ADC24503C081AE2246A080EA96EA86ACA
:100FA000A69CA69EA684F250006EF29CF29E0F01B3
:100FB000550EA76EAA0EA76EA682A6B2FED7A6945D
:100FC0000050F212140E0001EA6F0DDC4A502608A0
:100FD0003CE2FF0A03E14950100837E24A6A496AD5
:100FE000090EA96E0A0EA86EA69CA69EA684F250B3
:100FF000006EF29CF29E0F01550EA76EAA0EA76E10
:10100000A682A6B2FED7A6940050F212140E0001DA
:10101000EA6FF3EC03F00A0EA96EA86AA69CA69EDE
:10102000A684F250006EF29CF29E0F01550EA76E40
:10103000AA0EA76EA682A6B2FED7A6940050F21200
:10104000140E0001EA6FF3EC03F0B0C0EBF0AFC098
:10105000EAF0AEC0E9F0ADC0E8F0EF6BEE6B610E08
:10106000ED6F870EEC6F5ADE10E2EB6BEA6B160E3B
:10107000E96F880EE86FB0C0EFF0AFC0EEF0AEC021
:10108000EDF0ADC0ECF04ADE3DE3B06B800EAF6F2B
:101090007F0EAE6F870EAD6F0B0EA96EFF0EA86EA2
:1010A000A69CA69EA684F250006EF29CF29E0F01B2
:1010B000550EA76EAA0EA76EA682A6B2FED7A6945C
:1010C0000050F212140E0001EA6FF3EC03F00C0E64
:1010D000A96E010EA86EA69CA69EA684F250006E74
:1010E000F29CF29E0F01550EA76EAA0EA76EA68265
:1010F000A6B2FED7A6940050F212140E0001EA6FB9
:10110000F3EC03F0465006081DE2040E466E0D0E89
:10111000A96E040EA86EA69CA69EA684F250006E30
:10112000F29CF29E0F01550EA76EAA0EA76EA68224
:10113000A6B2FED7A6940050F212140E0001EA6F78
:10114000F3EC03F0B851E9083BE2FF0A03E1B751C1
:10115000600836E2B86BB76B130EA96EA86AA69C3E
:10116000A69EA684F250006EF29CF29E0F01550ED0
:10117000A76EAA0EA76EA682A6B2FED7A6940050AE
:10118000F212140E0001EA6FF3EC03F0120EA96ED6
:10119000A86AA69CA69EA684F250006EF29CF29EBF
:1011A0000F01550EA76EAA0EA76EA682A6B2FED795
:1011B000A6940050F212140E0001EA6FF3EC03F053
:1011C000B6510D083BE2FF0A03E1B551100836E2C3
:1011D000B66BB56B140EA96EA86AA69CA69EA684D3
:1011E000F250006EF29CF29E0F01550EA76EAA0EF1
:1011F000A76EA682A6B2FED7A6940050F212140ED5
:101200000001EA6FF3EC03F0150EA96EA86AA69C24
:10121000A69EA684F250006EF29CF29E0F01550E1F
:10122000A76EAA0EA76EA682A6B2FED7A6940050FD
:10123000F212140E0001EA6FF3EC03F033500108D0
:101240001DE2010E336E160EA96E010EA86EA69C4D
:10125000A69EA684F250006EF29CF29E0F01550EDF
:10126000A76EAA0EA76EA682A6B2FED7A6940050BD
:10127000F212140E0001EA6FF3EC03F0345001088F
:101280001DE2010E346E170EA96E010EA86EA69C0B
:10129000A69EA684F250006EF29CF29E0F01550E9F
:1012A000A76EAA0EA76EA682A6B2FED7A69400507D
:1012B000F212140E0001EA6FF3EC03F0F6EF13F0F4
:1012C000010EE75DFC0F0FE2040F7CEF09F0800ECA
:1012D000E86F09D0C00EE86F06D0940EE86F03D017
:1012E000D40EE86F00D0010EE65DE827E96BE8C098
:1012F000EAF046EC04F0000CF2CF0DF0F29CF29E06
:10130000E824F76AF736230FF66E130EF7220A0069
:10131000F550FA6E0800F5500DBCF28C0DBEF28E41
:10132000F96ECE12D412DA12E012E551F10802E1A0
:10133000EE0EE56FE551D10802E1FF0EE56FE551D4
:101340000C0A05E0060A0FE0020A14E019D0E96B66
:10135000010EEA6F46EC04F0010E166E020EEA6F03
:10136000F3EC03F014D0162A010EE66F16C0E7F076
:10137000A7DF0DD0E96B100EEA6F46EC04F007D042
:10138000010EE96FE5C0EAF046EC04F000D0000C75
:101390000900F5520CE0F6CFD7F0F7CFD8F0F5CF33
:1013A000E5F0C3DFD7C0F6FFD8C0F7FFF1D7000CD8
:1013B000010EE66FE76F84DF560EF66E010EF76ED4
:1013C000E7DF010EE66F020EE76F7ADF6C0EF66E56
:1013D000010EF76EDDDF010EE66F030EE76F70DFC3
:1013E000820EF66E010EF76ED3DF010EE66F040E6D
:1013F000E76F66DF980EF66E010EF76EC9DF080E16
:10140000D46FFA0EEA6FF3EC03F0D42FFAD70C0E78
:10141000E56F8BDFFBEF13F0B6510D08D8B084D029
:10142000FF0A04E1B5510F08D8B07ED0B66BB56B9A
:10143000B5C0D4F0140EA96ED4C0A8FFA69CA69E79
:10144000A684F250006EF29CF29E0F01550EA76E1C
:10145000AA0EA76EA682A6B2FED7A6940050F212DC
:10146000140E0001EA6FF3EC03F0B6C0D4F0150ED1
:10147000A96ED4C0A8FFA69CA69EA684F250006EBA
:10148000F29CF29E0F01550EA76EAA0EA76EA682C1
:10149000A6B2FED7A6940050F212140E0001EA6F15
:1014A000F3EC03F0B72BD8B4B82BB7C0D4F0120EBE
:1014B000A96ED4C0A8FFA69CA69EA684F250006E7A
:1014C000F29CF29E0F01550EA76EAA0EA76EA68281
:1014D000A6B2FED7A6940050F212140E0001EA6FD5
:1014E000F3EC03F0B8C0D4F0130EA96ED4C0A8FF7B
:1014F000A69CA69EA684F250006EF29CF29E0F015E
:10150000550EA76EAA0EA76EA682A6B2FED7A69407
:101510000050F212140E0001EA6FF3EC03F0140E07
:10152000EA6FF3EC03F04CD0B551840803E1B651F7
:1015300003080CE0B551080803E1B651070806E0BE
:10154000B5518C083DE1B6510A083AE1B5C0D4F076
:10155000140EA96ED4C0A8FFA69CA69EA684F25025
:10156000006EF29CF29E0F01550EA76EAA0EA76E9A
:10157000A682A6B2FED7A6940050F212140E000165
:10158000EA6FF3EC03F0B6C0D4F0150EA96ED4C028
:10159000A8FFA69CA69EA684F250006EF29CF29E26
:1015A0000F01550EA76EAA0EA76EA682A6B2FED791
:1015B000A6940050F212140E0001EA6FF3EC03F04F
:1015C0000DEF14F00900F6CFD9F0F7CFDAF0F5CF30
:1015D000E5F0ABDED9C0F6FFDAC0F7FFD82FF2D7BF
:1015E000000CDB51016ADA5D03E2DAC000F00CD0D6
:1015F000006A080EDC6FDA370036DB51005CD8B0C9
:10160000006E0136DC2FF7D7000C200ED5A9300E66
:10161000D66FD4C000F0D4AF07D0001E002A00C09F
:10162000D4F02D0ED66FD58F0150D4C0DAF0640EF1
:10163000DB6FD7DF00C0D4F0300E0124D76FD4C0E9
:10164000DAF00A0EDB6FCDDF300E0024D96F300EDA
:101650000124D86FD6C000F0D5A702D0D5AFD5955C
:10166000D5B90BD0D5AF22D0D5B520D000C0D7F09A
:10167000D5B31CD000C0D8F019D0300ED75D16E11C
:1016800000C0D7F0200ED66FD5A704D0D595D5834E
:10169000D5AFD593300ED85D09E100C0D8F0200E4B
:1016A000D76FD5A7F7D7D593D5AFD591D5A503D00B
:1016B000D6C0E5F03ADED5A303D0D7C0E5F035DEDD
:1016C000D5A103D0D8C0E5F030DED9C0E5F02DDEDD
:1016D000000CD52D0AD0020EE66FD6C0E7F0F0DD83
:1016E000CA0EF66E000EF76E53DED55102080AE1FF
:1016F000020EE66FD6C0E7F0E3DDDE0EF66E000EFA
:10170000F76E46DED55103080AE1020EE66FD6C039
:10171000E7F0D6DDF20EF66E000EF76E39DED5512B
:1017200004080AE1020EE66FD6C0E7F0C9DD060E36
:10173000F66E010EF76E2CDED551050818E118B8CB
:101740000AD0020EE66FD6C0E7F0BADD1A0EF66ECA
:10175000010EF76E1DDE18A80AD0020EE66FD6C085
:10176000E7F0AEDD2E0EF66E010EF76E11DED551EE
:1017700006080AE1020EE66FD6C0E7F0A1DD420ED0
:10178000F66E010EF76E04DE000C0150D4C0DAF0E4
:10179000640EDB6F26DF00C0D4F00150300E07E18D
:1017A000D5A30CD0D5B70AD0D5B9200E03D0D59784
:1017B000D599D581012601C0E5F0B7DDD4C0DAF0B6
:1017C0000A0EDB6F0EDF00C0D4F00150300E06E1D0
:1017D000D5B708D0D5A106D0D5B9200E012601C0B5
:1017E000E5F0A3DD300ED427D4C0E5F09EDD000C7B
:1017F000EACFDCF0E9CFDBF0D539F009D76FD72796
:10180000E20FD86F320FDA6FD5510F0BD827D827D8
:10181000DA27E90FD96FD927D927D4390F0BD92760
:10182000DA27D937DA37DA1FDA37D4510F0BDA274C
:10183000D737070ED66F0A0ED907DA27FDE3D80788
:10184000D927FDE3D707D827FDE3D607D727FDE340
:10185000EA6AD60EE96E070EDB15DB9DE926DA0E85
:10186000E95CD8B4DB8DEF50006E08E1DBBD06D03B
:10187000DBB913D0DBB702D0200E03D0DB87DB99B6
:10188000300E0026EACFD5F0E9CFD4F000C0E5F065
:101890004CDDD5C0EAFFD4C0E9FFEE50DBADDFD7A9
:1018A0000CEF1CF0E535006E0036FC0E001600C093
:1018B00001F0C250C30B0010C26E0A0EEA6FF3ECC7
:1018C00003F0C282C2B2FED7C4CF03F0C3CFECF0A4
:1018D000C4CFEDF0B6EC04F003C0E9F002C0E8F0CC
:1018E00001C0E7F000C0E6F0E6C000F0E7C001F09C
:1018F000E8C002F0E9C003F0000CE851D8B471D0A0
:10190000006EEC51D8B46DD0002604E3810E0026A1
:1019100068E204D07F0E005E64E363E0E9C0F0F0AB
:10192000ED51F01BE98FED8FEB51EF03F4CFF2F0A7
:10193000EA51EE03F4CF03F0F3CFF1F0EF03F350ED
:10194000F227F450F123000E0322EB51EE03F35083
:10195000F227F450F123000E026A03220222E95119
:10196000EF03F350F127F4500322000E0222E95155
:10197000EE03F3500326F4500222000E016A012206
:10198000EB51ED03F350F127F4500322000E022235
:101990000122EA51ED03F3500326F4500222000E17
:1019A0000122E951ED03F3500226F4500122002AEE
:1019B00001BE05D0F1370336023601360006000EAF
:1019C000F1AF0AD0032A02220122015005E10250A0
:1019D00003E1035001E1002AF0BF018EF0AF019E48
:1019E00004D0006A016A026A036A000CE951D8B4A3
:1019F000A5D0F56FED51D8B4A1D0F55F05E37F0E0A
:101A0000F527D8B09BD006D0810EF55FD8A096D030
:101A1000D8B494D0F5C000F0016A026A036AF46B8E
:101A2000EAC0F3F0F38FEBC0F2F0ECC0F1F0190E66
:101A3000F56FF051F15F0DE2010EF25F0AE2F35F24
:101A400008E2F45F06E2F42BF32BF22BF051F127BE
:101A500028D0EF51F25F12E2010EF35F0FE2F45F64
:101A60000DE2F42BF32BEF51F227F051F12719E39C
:101A7000F22B17E1F32B15E1F42B13D0EE51800973
:101A8000F35F0EE2010EF45F0BE2F42BEE518009DE
:101A9000F327EF51F227E9E3F32BE7E1F42BE5D746
:101AA0000380F52F01D00BD0D890F137F237F33700
:101AB000F437D890033602360136F637BAD7F6A196
:101AC00006D0D890013202320332F63302D000063B
:101AD00035E0F6BF1ED0D890F137F237F337F43740
:101AE000F051F15F07E2010EF25F04E2F35F02E200
:101AF000F45F1AE3EF51F25F05E2010EF35F02E2D9
:101B0000F45F12E3EE518009F35F03E2010EF45F2C
:101B10000BE3032A09E1022A07E1012A05E1002A71
:101B20000DE0013202320332EAC0F5F0EE51F51B4E
:101B3000F5AF02D0018E06D0019E04D0006A016A82
:101B4000026A036A000C800ED8B2F11BF66BF76BC9
:101B5000EDC0F5F0F151F51BEC51D8B4DCD0F46FC9
:101B6000006EF051D8B4E0D0F45FD8B481D03DE33A
:101B7000F1C0FAF0FA8FF2C0F9F0F3C0F8F0F76BA9
:101B8000D890FA33F933F833F733F42FF8D7F5AFA9
:101B900003D0F681DDD0F691F491F689EA6AEF0E72
:101BA000E96EE9D0F699F5BF0AD0F4A113D0FA3363
:101BB000F933F833F733002AD8B4C5D00BD0FABFC5
:101BC0000CD0D890F737F837F937FA370006D8B481
:101BD000BAD0F5D7F68D6BD0F69DEDC0F5F0EDAF30
:101BE00002D0FA8FA9D0FA9FA7D0F0C0F4F0F0C0CD
:101BF00000F0EC51F45FEDC0FAF0FA8FEEC0F9F0AE
:101C0000EFC0F8F0F76BD890FA33F933F833F733C5
:101C1000F42FF8D7F5AF03D0F6839AD0F693F4916A
:101C2000F68BEA6AF30EE96EA6D0F69BF5BF0AD0F2
:101C3000F4A113D0FA33F933F833F733002AD8B4C8
:101C400082D00BD0FABF0CD0D890F737F837F937DD
:101C5000FA370006D8B477D0F5D7F68F28D0F69F9C
:101C6000F1C0F5F0F1AF02D0FA8F66D0FA9F64D0E0
:101C7000F1C0FAF0FA8FF2C0F9F0F3C0F8F0F5AF66
:101C800004D0FA9FF68564D0F695F76BF491EA6A72
:101C9000EF0EE96E70D0F5BF1CD0EDC0F5F0F4A1E9
:101CA00006D0FA33F933F833F733002A4CE0F7AFB4
:101CB0000BD0F82B09E1F92B07E1FA2B05E1FA33F8
:101CC000F933F833002A3FE0F6BD86D7F6BFC7D711
:101CD0001CD0800EFA1BFAAF04D03AD0F1C0F5F058
:101CE0000AD0EDC0F5F0FA5306E1F95304E1F853D8
:101CF00002E1006A21D0FABF08D0D890F737F83750
:101D0000F937FA37002EF7D71ED0F5AF02D0FA8F89
:101D100013D0FA9F11D0F0C000F0F1C0FAF0F2C079
:101D2000F9F0F3C0F8F008D0ECC000F0EDC0FAF024
:101D3000EEC0F9F0EFC0F8F0FAC001F0F9C002F01F
:101D4000F8C003F034D0006A016A026A036A2FD037
:101D5000F76BF81FF91FFA1FF71FF72B05E1F82B98
:101D600003E1F92B01E1FA2BF6B115D7F6B356D7FB
:101D7000F6B58AD7B3D7EF50F82705E3F92B03E17F
:101D8000FA2BD8B4F481ED52EF50F92703E3FA2B84
:101D9000D8B4F481ED52EF50EFBE01D0800AFA279B
:101DA000D8B0F481F6B9FED6F6BB3FD774D7000C95
:101DB000D86BD76BD66BD56BDC6BDB6BDA6BD96B07
:101DC000E06BDF6BDE6BDD6BE46BE36BE26BE16BB7
:101DD000E56B68DD03C0A0F002C09FF001C09EF07B
:101DE00000C09DF0A0C0EBF09FC0EAF09EC0E9F0FB
:101DF0009DC0E8F0EF6BEE6B200EED6F810EEC6F87
:101E00007CDD00C0E5F001C0E6F002C0E7F003C0F1
:101E1000E8F003C0ECF002C0EBF001C0EAF000C053
:101E2000E9F0F06BC00EEF6F7F0EEE6F880EED6F76
:101E3000DDDD03C0E0F002C0DFF001C0DEF000C075
:101E4000DDF0B0C0E4F0AFC0E3F0AEC0E2F0ADC092
:101E5000E1F0E4C0EBF0E3C0EAF0E2C0E9F0E1C099
:101E6000E8F0EF6BEE6B200EED6F810EEC6F45DD51
:101E700000C0E5F001C0E6F002C0E7F003C0E8F002
:101E800003C0ECF002C0EBF001C0EAF000C0E9F0E2
:101E9000F06BC00EEF6F7F0EEE6F880EED6FA6DD5C
:101EA00003C0DCF002C0DBF001C0DAF000C0D9F002
:101EB000D882E0C0EFF0DFC0EEF0DEC0EDF0DDC0B4
:101EC000ECF0DCC0F3F0DBC0F2F0DAC0F1F0D9C026
:101ED000F0F039DE03C0A4F002C0A3F001C0A2F00C
:101EE00000C0A1F0A4C0EBF0A3C0EAF0A2C0E9F0EA
:101EF000A1C0E8F0EF6BEE6BED6BEC6B8EEC06F0D7
:101F000004E3A46BA36BA26BA16B010ED45D2D5CEB
:101F100002E001E32D6A2D50040DF350036A4D0FCA
:101F2000E96E000E0320EA6EA1C0EFFFA2C0ECFF35
:101F3000A3C0ECFFA4C0ECFF2D2A2E6A010ED45DD5
:101F40002E5C01E035E22E50040DF350036A4D0F74
:101F5000E96E000E0320EA6EEFCF00F0ECCF01F047
:101F6000ECCF02F0ECCF03F0EACFE6F0E9CFE5F0FA
:101F7000D892D8C0EFF0D7C0EEF0D6C0EDF0D5C003
:101F8000ECF003C0F3F002C0F2F001C0F1F000C0C9
:101F9000F0F0D9DDE6C0EAFFE5C0E9FF03C0D8F004
:101FA00002C0D7F001C0D6F000C0D5F02E2AC6D7A7
:101FB000ED6BD4C0ECF0B6EC04F0D8C0ECF0D7C0B8
:101FC000EBF0D6C0EAF0D5C0E9F003C0F0F002C0F3
:101FD000EFF001C0EEF000C0EDF008DD03C0D8F076
:101FE00002C0D7F001C0D6F000C0D5F0D5C000F0D7
:101FF000D6C001F0D7C002F0D8C003F0000CE55104
:10200000B608E56F036AE6C0E9F0E68FD890E633DC
:10201000E733E8330332023201320032E52FF6D7DC
:10202000E9AF0BD0001E011E021E031E002AD8B409
:10203000012AD8B4022AD8B4032A83EF10F0006A28
:10204000016A026A036AED6BEE6BEF6BF06BEC51A9
:10205000EB11EA11E9112CE0200EF16FD890E53771
:10206000E637E737E837ED37EE37EF37F037EC5143
:10207000F05D08E1EB51EF5D05E1EA51EE5D02E153
:10208000E951ED5D0FE3E951ED5FEA51D8A0EA3D7A
:10209000EE5FEB51D8A0EB3DEF5FEC51D8A0EC3DEB
:1020A000F05FD8800036013602360336F12FD6D7DE
:1020B000EA6AED0EE96E000CE950DD6FDC51DF6F6E
:1020C00019E0DBC0EBF0DAC0EAF0D9C0E9F0D8C023
:1020D000E8F0EF6BEE6B200EED6F820EEC6F0DDC17
:1020E00003C0DBF002C0DAF001C0D9F000C0D8F0C4
:1020F000DF2FE7D7DBC0E8F0DAC0E7F0D9C0E6F0C1
:10210000D8C0E5F07CD703C0DBF002C0DAF001C034
:10211000D9F000C0D8F0DBAF0DD0DD07DD8BD81FC4
:10212000D91FDA1FDB1FD82BD8B4D92BD8B4DA2BA0
:10213000D8B4DB2B3B0EE46F9A0EE36FCA0EE26F4E
:10214000E16B0A0EDF6FDC51D8B4DD2BDBC0E8F0A9
:10215000DAC0E7F0D9C0E6F0D8C0E5F0E4C0ECF0B2
:10216000E3C0EBF0E2C0EAF0E1C0E9F068DF015063
:10217000EFCFD8F0ECCFD9F0ECCFDAF0ECCFDBF04A
:1021800000520FE1DC29DF5D0CE0DD510CE00F0BAC
:10219000DF5D01E03BE2DDBF39D0DDBD04D0200EC4
:1021A00030D0200EDD17DDAB0DD0DD9BDC51D8A487
:1021B000DD070050DD6F2D0EE56F95EC09F0DD5168
:1021C000006EDD6BDC51DF5D0BE10050DD6F2E0E2C
:1021D000E56F95EC09F0DD51006E200EDD17000E65
:1021E000300EDDAB0ED0DD9BDC51D8A4DD070050F6
:1021F000DD6F2D0EE56F95EC09F0DD51006EDD6BA6
:10220000300E002600C0E5F095EC09F0E4C0E8F0DF
:10221000E3C0E7F0E2C0E6F0E1C0E5F0EC6BEB6BA9
:10222000EA6B0A0EE96F0BDF03C0E4F002C0E3F0D3
:1022300001C0E2F000C0E1F0DF2F88D7000C8E0E65
:10224000006EE851005EE9C002F0EAC001F0028EC3
:10225000005209E0D890025202E1015204E0023239
:102260000132002EF7D7E9AF05D0011E021E012A68
:10227000D8B4022A000CE791DBC0E0F0DAC0DFF04E
:10228000D9C0DEF0D8C0DDF0DBC0EBF0DAC0EAF098
:10229000D9C0E9F0D8C0E8F0EF6BEE6BED6BEC6BFA
:1022A0008EEC06F004E3E781DE51800ADE6FE0C0C9
:1022B000EBF0DFC0EAF0DEC0E9F0DDC0E8F0EF6B84
:1022C000EE6BED6B8E0EEC6F8EEC06F001E218E11A
:1022D000E0C0EBF0DFC0EAF0DEC0E9F0DDC0E8F01E
:1022E000AEDF02C0EDF001C0ECF0B6EC04F003C0CC
:1022F000E4F002C0E3F001C0E2F000C0E1F0C7D0BA
:10230000E0C0EBF0DFC0EAF0DEC0E9F0DDC0E8F0ED
:10231000800EEF6F960EEE6F180EED6F960EEC6F4F
:102320008EEC06F0D8A0ABD0E0C0ECF0DFC0EBF054
:10233000DEC0EAF0DDC0E9F0F06BEF6BEE6B8E0E05
:10234000ED6FF6EC0CF003C0EBF002C0EAF001C058
:10235000E9F000C0E8F073DF02C0E6F001C0E5F08C
:10236000E0C0ECF0DFC0EBF0DEC0EAF0DDC0E9F089
:10237000F06BEF6BEE6B8E0EED6FF6EC0CF000C0B9
:10238000E8F001C0E9F002C0EAF003C0EBF0E6C0FB
:10239000EDF0E5C0ECF0B6EC04F0D882EBC0EFF065
:1023A000EAC0EEF0E9C0EDF0E8C0ECF003C0F3F0F5
:1023B00002C0F2F001C0F1F000C0F0F0A3EC0DF0AB
:1023C000EB6BEA6BE96B8E0EE86F03C0EFF002C0B7
:1023D000EEF001C0EDF000C0ECF07DEC0CF003C0BD
:1023E000E0F002C0DFF001C0DEF000C0DDF0E6C0CA
:1023F000EDF0E5C0ECF0B6EC04F0EB6BEA6BE96BEA
:102400008E0EE86F03C0EFF002C0EEF001C0EDF0F9
:1024100000C0ECF07DEC0CF003C0E4F002C0E3F08F
:1024200001C0E2F000C0E1F0E0C0EBF0DFC0EAF094
:10243000DEC0E9F0DDC0E8F002DF02C0EDF001C06F
:10244000ECF0B6EC04F0D892E4C0EFF0E3C0EEF0AC
:10245000E2C0EDF0E1C0ECF003C0F3F002C0F2F036
:1024600001C0F1F000C0F0F0A3EC0DF003C0E4F007
:1024700002C0E3F001C0E2F000C0E1F008D0E0C02B
:10248000E4F0DFC0E3F0DEC0E2F0DDC0E1F0E0C088
:10249000EBF0DFC0EAF0DEC0E9F0DDC0E8F0CFDE4F
:1024A00002C0EDF001C0ECF0B6EC04F0D882E0C060
:1024B000EFF0DFC0EEF0DEC0EDF0DDC0ECF003C009
:1024C000F3F002C0F2F001C0F1F000C0F0F0A3ECB4
:1024D0000DF003C0E0F002C0DFF001C0DEF000C08C
:1024E000DDF0E7A103D0E251800AE26FE0C0EBF03B
:1024F000DFC0EAF0DEC0E9F0DDC0E8F0EF6BEE6BC4
:10250000ED6BEC6B8EEC06F038E0E7A11AD0DC53F3
:1025100018E1D882E4C0EFF0E3C0EEF0E2C0EDF0E5
:10252000E1C0ECF0F36BF26BF16B7F0EF06FA3EC9C
:102530000DF003C0E4F002C0E3F001C0E2F000C01F
:10254000E1F0E7B11AD0DC2D18D0D892E4C0EFF05A
:10255000E3C0EEF0E2C0EDF0E1C0ECF0F36BF26B43
:10256000F16B7F0EF06FA3EC0DF003C0E4F002C03E
:10257000E3F001C0E2F000C0E1F0DBC0EBF0DAC054
:10258000EAF0D9C0E9F0D8C0E8F0EF6BEE6BED6B84
:10259000EC6B8EEC06F004E1E46BE36BE26BE16B59
:1025A000E1C000F0E2C001F0E3C002F0E4C003F0DB
:1025B000E4EF12F0D7C0DBF0D6C0DAF0D5C0D9F026
:1025C000D4C0D8F0DC6B57D6000C189C928280B235
:1025D00003D0928480B405D08A9C939C8A8E939E6B
:1025E00005D08A9C939C8A9E939E189A3CEF23F078
:1025F000189A928280A203D0928480A405D08A8CFB
:10260000939C8A9E939E05D08A9C939C8A9E939EBF
:10261000189C41EF23F08A9C939C8A9E939E44EFE2
:1026200023F0F86A9F90D08E078EEA6AE96A1790C5
:102630001792179417961798179A179C179E189029
:102640001892189418961898189A189C189E199011
:10265000199219941A6A050E1B6E020E1C6E0B0E4F
:102660001D6E020E1E6E030E1F6E020E206E216E78
:10267000040E226E236A246A256A266A276A286A5B
:10268000296A2A6A2B6A2C6A2D6A2E6A2F6A010E21
:10269000306E316A326A336A346A356A416A426A34
:1026A000436A446A456A040E466E4A6A496A4C6A3D
:1026B0004B6AA06B9F6B9E6B9D6BA46BA36BA26B15
:1026C000A16BA86BA76BA66BA56BAC6BAB6BAA6B76
:1026D000A96BB06BAF6BAE6B800EAD6F198619989E
:1026E000B26BB16BB46BB36BB66BB56BB86BB76BEE
:1026F000199A199CBA6BB96BBB6BBC6BC06BBF6B87
:10270000BE6BBD6BC46BC36BC26BC16BCE6BCD6B51
:10271000C150C00B0F09C16E070EB46E3E0E366E6F
:10272000200E376E5E0E386E396A3A6A3B6A3C6A32
:102730003D6A3E6A3F6A406A4D6A4E6A4F6A506A15
:10274000516A526A536A546A556A566A576A586A95
:10275000596A5A6A5B6A5C6A5D6A5E6A5F6A606A45
:10276000616A626A636A646A656A666A676A686AF5
:10277000696A6A6A6B6A6C6A6D6A6E6A6F6A706AA5
:10278000716A726A736A746A756A766A776A786A55
:10279000796A7A6A7B6A7C6A7D6A7E6A7F6A806B04
:1027A000816B826B836B846B856B866B876B886BAD
:1027B000896B8A6B8B6B8C6B8D6B8E6B8F6B906B5D
:1027C000916B926B936B946B956B966B976B986B0D
:1027D000996B9A6B9B6B9C6B8B9494948B92949259
:1027E00098EF04F0D1EF04F0C9EF06F0332C01D0DC
:1027F00003D0D8EF09F009D0342C01D0178234521D
:1028000001E117921784320E1A6E8B9494948B9276
:102810009492060E466E0CEF0AF00400BC510008BC
:1028200004E28B8494948B829492BC5304E18B9445
:1028300094948B9294921A52D8A405D2010EE66F0A
:10284000E76F60EC09F0280EF66E020EF76EC8EC2A
:1028500009F0010EE66F020EE76F60EC09F03E0E24
:10286000F66E020EF76EC8EC09F0010EE66F030E6D
:10287000E76F60EC09F0540EF66E020EF76E0A0E6A
:10288000D86FE2EC0AF039C0D4F01F0ED56F05EC1A
:102890000BF03AC0D4F01F0ED56F05EC0BF03BC027
:1028A000D4F01F0ED56F05EC0BF03CC0D4F01F0E1A
:1028B000D56F05EC0BF0200EE56F95EC09F0200EBE
:1028C000E56F95EC09F01DC0E6F0040EE76F60ECD3
:1028D00009F038C0E5F095EC09F01D500B080FE247
:1028E0001D500D080CE3010E1D5CD46FE66F040E45
:1028F000E76F60EC09F037C0E5F095EC09F0199648
:10290000928A80BA19D0140EEA6FF3EC03F0928A1F
:1029100080BA11D017B60FD00B0E1D5C036A390FA9
:10292000E96E000E0320EA6EEF2A17861E0EEA6F8C
:10293000F3EC03F0198601D01796968084B019D075
:10294000140EEA6FF3EC03F0968084B011D017BA3E
:102950000FD00B0E1D5C036A390FE96E000E0320C9
:10296000EA6EEF06178A1E0EEA6FF3EC03F0198683
:1029700001D0179A968284B215D0140EEA6FF3EC48
:1029800003F0968284B20DD017B80BD017881D2A99
:102990001E0EEA6FF3EC03F00C0EE56F95EC09F0F8
:1029A000198601D01798968484B415D0960EEA6FD4
:1029B000F3EC03F0968484B40DD017BC0BD0178CC5
:1029C0001D061E0EEA6FF3EC03F00C0EE56F95EC9E
:1029D00009F0198601D0179C0B0E1D5C036A390F94
:1029E000E96E000E0320EA6EEFBE01D00AD00B0E96
:1029F0001D5C036A390FE96E000E0320EA6E090EB2
:102A0000EF6E0B0E1D5C036A390FE96E000E03209A
:102A1000EA6EEFBE0CD0EF50090809E20B0E1D5C08
:102A2000036A390FE96E000E0320EA6EEF6A1D504B
:102A30000A0802E30B0E1D6E1D500E08D8B003D11C
:102A40003950030871E13A5008086EE13B5009081B
:102A50006BE13C50020868E1A96AA86AA69CA69EA0
:102A6000A684F250006EF29CF29E0F01550EA76EE6
:102A7000AA0EA76EA682A6B2FED7A6940050F212A6
:102A8000140E0001EA6FF3EC03F0010EA96EA86AC0
:102A9000A69CA69EA684F250006EF29CF29E0F01A8
:102AA000550EA76EAA0EA76EA682A6B2FED7A69452
:102AB0000050F212140E0001EA6FF3EC03F0020E64
:102AC000A96EA86AA69CA69EA684F250006EF29CEF
:102AD000F29E0F01550EA76EAA0EA76EA682A6B291
:102AE000FED7A6940050F212140E0001EA6FF3EC28
:102AF00003F0030EA96EA86AA69CA69EA684F250B7
:102B0000006EF29CF29E0F01550EA76EAA0EA76EE4
:102B1000A682A6B2FED7A6940050F212140E0001AF
:102B2000EA6FF3EC03F0FF003D50395C4FE13E509B
:102B30003A5C4CE13F503B5C49E140503C5C46E133
:102B4000010EE66FE76F60EC09F06A0EF66E020E9A
:102B5000F76EC8EC09F0010EE66F020EE76F60EC4D
:102B600009F07E0EF66E020EF76EC8EC09F0010E4B
:102B7000E66F030EE76F60EC09F0920EF66E020E40
:102B8000F76EC8EC09F0010EE66F040EE76F60EC1B
:102B900009F0A60EF66E020EF76EC8EC09F0040EF0
:102BA000D46FFA0EEA6FF3EC03F0D42FFAD7320E9B
:102BB0001A6E0B0E1D6E0C0EE56F95EC09F0198662
:102BC000396A3A6A3B6A3C6A19863DD0010EE66F63
:102BD000E76F60EC09F0010EE66F020EE76F60EC44
:102BE00009F0BA0EF66E020EF76EC8EC09F0010E8F
:102BF000E66F030EE76F60EC09F0CE0EF66E020E84
:102C0000F76EC8EC09F0010EE66F040EE76F60EC9A
:102C100009F0E20EF66E020EF76EC8EC09F0040E33
:102C2000D46FFA0EEA6FF3EC03F0D42FFAD70B0E41
:102C30001D6E0C0EE56F95EC09F01986396A3A6A3B
:102C40003B6A3C6A19861A2C1BD102EC00F0010E7B
:102C5000E66FE76F60EC09F0F60EF66E020EF76EA7
:102C6000C8EC09F0010E3524D46FD56F020ED66F73
:102C700069EC0BF0020E3524D46FD56F030ED66FBE
:102C800069EC0BF0030E3524D46FD56F040ED66FAC
:102C900069EC0BF0010EE66F1EC0E7F060EC09F086
:102CA00036C0E5F095EC09F01E50020814E1010E63
:102CB000E66F040EE76F60EC09F037C0E5F095ECC5
:102CC00009F0010EE66F030EE76F60EC09F037C004
:102CD000E5F095EC09F01E50040814E1010EE66FD2
:102CE000020EE76F60EC09F037C0E5F095EC09F0F3
:102CF000010EE66F030EE76F60EC09F037C0E5F0F8
:102D000095EC09F01E50030814E1010EE66F040E65
:102D1000E76F60EC09F037C0E5F095EC09F0010EC3
:102D2000E66F020EE76F60EC09F037C0E5F095EC56
:102D300009F01996928A80BA15D0140EEA6FF3EC56
:102D400003F0928A80BA0DD017B60BD020061E066B
:102D5000010E1E241F6E17861E0EEA6FF3EC03F0A1
:102D6000198601D01796968084B015D0140EEA6F9C
:102D7000F3EC03F0968084B00DD017BA0BD0202A64
:102D80001E2A010E1E5C1F6E178A1E0EEA6FF3ECE0
:102D900003F0198601D0179A2050225C08E2352AE8
:102DA00020C022F0020E225C216E040E1E6E215005
:102DB000205C08E2350620C021F0020E2124226E9C
:102DC000020E1E6E20501B5C09E21CC020F0020E99
:102DD0001E6E356A20C021F02124226E1C50205C1A
:102DE0000BE21BC020F0040E1E6E1B5C356E20C073
:102DF00022F0020E225C216E35BE01D001D0356A70
:102E0000968284B223D0140EEA6FF3EC03F096821C
:102E100084B21AD017B818D0178820C01AF0030E41
:102E20001E6E020ED46F960EEA6FF3EC03F0D42FF1
:102E3000FAD70C0EE56F95EC09F01A50060804E17C
:102E4000396A3A6A3B6A3C6A198601D017989684B7
:102E500084B416D0140EEA6FF3EC03F0968484B4B5
:102E60000FD0020ED46FFA0EEA6FF3EC03F0D42FFA
:102E7000FAD7320E1A6E0C0EE56F95EC09F0198632
:102E80001A500208D8A42CD102EC00F0010EE66F13
:102E9000E76F60EC09F00C0EF66E030EF76EC8ECEF
:102EA00009F0010EE66F020EE76F60EC09F0220EEA
:102EB000F66E030EF76EC8EC09F0060EE66F030E11
:102EC000E76F60EC09F02BC0D4F0030ED56FC5ECB2
:102ED0000BF03A0EE56F95EC09F02CC0D4F0010E22
:102EE000D56FC5EC0BF0410EF66E030EF76E080EB3
:102EF000D86FE2EC0AF0060E3024D46FE66F040EB1
:102F0000E76F60EC09F038C0E5F095EC09F0199630
:102F1000928A80BA26D0140EEA6FF3EC03F0928AFC
:102F200080BA1FD0302C0DD02B50EF080AE3050ECD
:102F30002B26020ED46F960EEA6FF3EC03F0D42F1B
:102F4000FAD7305004080CE12C503A0809E32C2A37
:102F5000020ED46F960EEA6FF3EC03F0D42FFAD77B
:102F60001986968084B024D0140EEA6FF3EC03F037
:102F7000968084B01DD0302C0CD02B520AE0050E68
:102F80002B5E020ED46F960EEA6FF3EC03F0D42F93
:102F9000FAD7305004080BE12C5209E02C06020E3F
:102FA000D46F960EEA6FF3EC03F0D42FFAD719869C
:102FB000968284B21ED0140EEA6FF3EC03F0968270
:102FC00084B217D0302C03D0040E306E05D03050B0
:102FD000040802E1010E306E020ED46FFA0EEA6FA1
:102FE000F3EC03F0D42FFAD70C0EE56F95EC09F053
:102FF0001986968484B474D0968484B471D0C80E33
:10300000EA6FF3EC03F00C0EE56F95EC09F0010E9E
:10301000E66F020EE76F60EC09F04A0EF66E030EE3
:10302000F76EC8EC09F0010EE66F030EE76F60EC77
:1030300009F05C0EF66E030EF76EC8EC09F0050E93
:10304000A96E2BC0A8FFA69CA69EA684F250006E77
:10305000F29CF29E0F01550EA76EAA0EA76EA682D5
:10306000A6B2FED7A6940050F212140E0001EA6F29
:10307000F3EC03F0060EA96E2CC0A8FFA69CA69E3A
:10308000A684F250006EF29CF29E0F01550EA76EC0
:10309000AA0EA76EA682A6B2FED7A6940050F21280
:1030A000140E0001EA6FF3EC03F02BC029F02CC0E2
:1030B0002AF0040ED46FAF0EEA6FF3EC03F0D42FB6
:1030C000FAD71E0EEA6FF3EC03F0010E1A6E356AA2
:1030D000020E1E6E206E0C0EE56F95EC09F019863F
:1030E0001A500308D8A4A5D102EC00F0010EE66F37
:1030F000E76F60EC09F06E0EF66E030EF76EC8EC2B
:1031000009F0010EE66F020EE76F60EC09F0840E25
:10311000F66E030EF76EC8EC09F0010EE66F030EB3
:10312000E76F60EC09F09A0EF66E030EF76E0A0E6A
:10313000D86FE2EC0AF039C0D4F01F0ED56F05EC61
:103140000BF03AC0D4F01F0ED56F05EC0BF03BC06E
:10315000D4F01F0ED56F05EC0BF03CC0D4F01F0E61
:10316000D56F05EC0BF0200EE56F95EC09F0200E05
:10317000E56F95EC09F01DC0E6F0040EE76F60EC1A
:1031800009F038C0E5F095EC09F01D500B080FE28E
:103190001D500D080CE3010E1D5CD46FE66F040E8C
:1031A000E76F60EC09F037C0E5F095EC09F019968F
:1031B000928A80BA19D0140EEA6FF3EC03F0928A67
:1031C00080BA11D017B60FD00B0E1D5C036A390FF1
:1031D000E96E000E0320EA6EEF2A17861E0EEA6FD4
:1031E000F3EC03F0198601D01796968084B019D0BD
:1031F000140EEA6FF3EC03F0968084B011D017BA86
:103200000FD00B0E1D5C036A390FE96E000E032010
:10321000EA6EEF06178A1E0EEA6FF3EC03F01986CA
:1032200001D0179A968284B215D0140EEA6FF3EC8F
:1032300003F0968284B20DD017B80BD017881D2AE0
:103240001E0EEA6FF3EC03F00C0EE56F95EC09F03F
:10325000198601D01798968484B415D0960EEA6F1B
:10326000F3EC03F0968484B40DD017BC0BD0178C0C
:103270001D061E0EEA6FF3EC03F00C0EE56F95ECE5
:1032800009F0198601D0179C0B0E1D5C036A390FDB
:10329000E96E000E0320EA6EEFBE01D00AD00B0EDD
:1032A0001D5C036A390FE96E000E0320EA6E090EF9
:1032B000EF6E0B0E1D5C036A390FE96E000E0320E2
:1032C000EA6EEFBE0CD0EF50090809E20B0E1D5C50
:1032D000036A390FE96E000E0320EA6EEF6A1D5093
:1032E0000A0810E30B0E1D6E010E1A6E356A396A5C
:1032F0003A6A3B6A3C6A19860B0E1D6E0C0EE56F2E
:1033000095EC09F01D500E08D8B093D03D50395CB3
:103310004EE13E503A5C4BE13F503B5C48E140504F
:103320003C5C45E1010EE66FE76F60EC09F0B00E22
:10333000F66E030EF76EC8EC09F0010EE66F020E92
:10334000E76F60EC09F0C60EF66E030EF76EC8EC80
:1033500009F0010EE66F030EE76F60EC09F0DC0E7A
:10336000F66E030EF76EC8EC09F0010EE66F040E60
:10337000E76F60EC09F0F20EF66E030EF76EC8EC24
:1033800009F0020ED46FFA0EEA6FF3EC03F0D42FBB
:10339000FAD73D0E1A6E0B0E1D6E0C0EE56F95ECF6
:1033A00009F0396A3A6A3B6A3C6A198642D0010ED2
:1033B000E66FE76F60EC09F0080EF66E040EF76E2C
:1033C000C8EC09F0010EE66F020EE76F60EC09F041
:1033D0001E0EF66E040EF76EC8EC09F0010EE66FD5
:1033E000030EE76F60EC09F0340EF66E040EF76E14
:1033F000C8EC09F0010EE66F040EE76F60EC09F00F
:103400004A0EF66E040EF76EC8EC09F0020ED46F89
:10341000FA0EEA6FF3EC03F0D42FFAD70B0E1D6E01
:103420000C0EE56F95EC09F01986396A3A6A3B6A29
:103430003C6A1A503D08D8A4C8D102EC00F0010E35
:10344000E66FE76F60EC09F0600EF66E040EF76E43
:10345000C8EC09F0010EE66F020EE76F60EC09F0B0
:10346000760EF66E040EF76EC8EC09F0010EE66FEC
:10347000030EE76F60EC09F08C0EF66E040EF76E2B
:103480000A0ED86FE2EC0AF039C0D4F01F0ED56FE7
:1034900005EC0BF03AC0D4F01F0ED56F05EC0BF025
:1034A0003BC0D4F01F0ED56F05EC0BF03CC0D4F040
:1034B0001F0ED56F05EC0BF0200EE56F95EC09F0B3
:1034C000200EE56F95EC09F01DC0E6F0040EE76FE5
:1034D00060EC09F038C0E5F095EC09F01D500B08E0
:1034E0000FE21D500D080CE3010E1D5CD46FE66F5A
:1034F000040EE76F60EC09F037C0E5F095EC09F0D9
:103500001996928A80BA19D0140EEA6FF3EC03F080
:10351000928A80BA11D017B60FD00B0E1D5C036AC9
:10352000390FE96E000E0320EA6EEF2A17861E0E91
:10353000EA6FF3EC03F0198601D01796968084B0F9
:1035400019D0140EEA6FF3EC03F0968084B011D01A
:1035500017BA0FD00B0E1D5C036A390FE96E000E0F
:103560000320EA6EEF06178A1E0EEA6FF3EC03F0F3
:10357000198601D0179A968284B211D0968284B2AD
:103580000DD017B80BD017881D2A1E0EEA6FF3EC6A
:1035900003F00C0EE56F95EC09F0198601D0179831
:1035A000968484B415D0960EEA6FF3EC03F09684FB
:1035B00084B40DD017BC0BD0178C1D061E0EEA6FFD
:1035C000F3EC03F00C0EE56F95EC09F0198601D0D1
:1035D000179C0B0E1D5C036A390FE96E000E032069
:1035E000EA6EEFBE01D00AD00B0E1D5C036A390FE4
:1035F000E96E000E0320EA6E090EEF6E0B0E1D5CE5
:10360000036A390FE96E000E0320EA6EEFBE0CD09C
:10361000EF50090809E20B0E1D5C036A390FE96ED1
:10362000000E0320EA6EEF6A1D500A080FE30B0E2E
:103630001D6E010E1A6E396A3A6A3B6A3C6A198637
:103640000B0E1D6E0C0EE56F95EC09F01D500E086B
:10365000D8B0BBD0010EE66FE76F60EC09F0A20EA8
:10366000F66E040EF76EC8EC09F0010EE66F020E5E
:10367000E76F60EC09F0B80EF66E040EF76EC8EC5A
:1036800009F0010EE66F030EE76F60EC09F0CE0E55
:10369000F66E040EF76EC8EC09F0010EE66F040E2C
:1036A000E76F60EC09F0E40EF66E040EF76EC8ECFE
:1036B00009F0A96A39C0A8FFA69CA69EA684F2506C
:1036C000006EF29CF29E0F01550EA76EAA0EA76E19
:1036D000A682A6B2FED7A6940050F212140E0001E4
:1036E000EA6FF3EC03F0010EA96E3AC0A8FFA69CA6
:1036F000A69EA684F250006EF29CF29E0F01550E1B
:10370000A76EAA0EA76EA682A6B2FED7A6940050F8
:10371000F212140E0001EA6FF3EC03F0020EA96E30
:103720003BC0A8FFA69CA69EA684F250006EF29C09
:10373000F29E0F01550EA76EAA0EA76EA682A6B224
:10374000FED7A6940050F212140E0001EA6FF3ECBB
:1037500003F0030EA96E3CC0A8FFA69CA69EA684FB
:10376000F250006EF29CF29E0F01550EA76EAA0E4B
:10377000A76EA682A6B2FED7A6940050F212140E2F
:103780000001EA6FF3EC03F0020ED46FFA0EEA6F59
:10379000F3EC03F0D42FFAD7010E1A6E356A020E3D
:1037A0001E6E206E39C03DF03AC03EF03BC03FF087
:1037B0003CC040F0396A3A6A3B6A3C6A19860B0E93
:1037C0001D6E0C0EE56F95EC09F01A500408D8A494
:1037D000D7D002EC00F0010EE66FE76F60EC09F065
:1037E000FA0EF66E040EF76EC8EC09F0010EE66FE5
:1037F000020EE76F60EC09F0100EF66E050EF76E24
:103800000B0ED86FE2EC0AF0080EE96EB8C0D5F0E6
:10381000B7C0D4F0F8EF0BF0200EE56F95EC09F08F
:10382000200EE56F95EC09F0200EE56F95EC09F0A0
:10383000010EE66F040EE76F60EC09F0240EF66EE1
:10384000050EF76EC8EC09F01996928A80BA76D008
:10385000968284B273D0140EEA6FF3EC03F0928A6E
:1038600080BA6CD0968284B269D0C80EEA6FF3EC4D
:1038700003F00C0EE56F95EC09F0010EE66F020EF9
:10388000E76F60EC09F03A0EF66E050EF76EC8ECC5
:1038900009F0010EE66F030EE76F60EC09F04C0EC5
:1038A000F66E050EF76EC8EC09F0B86BB76B130E29
:1038B000A96EA86AA69CA69EA684F250006EF29CF1
:1038C000F29E0F01550EA76EAA0EA76EA682A6B293
:1038D000FED7A6940050F212140E0001EA6FF3EC2A
:1038E00003F0120EA96EA86AA69CA69EA684F250AA
:1038F000006EF29CF29E0F01550EA76EAA0EA76EE7
:10390000A682A6B2FED7A6940050F212140E0001B1
:10391000EA6FF3EC03F0236A246A4A6A496A1E0ECE
:10392000EA6FF3EC03F0010E1A6E356A020E1E6E9A
:10393000206E0C0EE56F95EC09F01986968484B420
:103940001ED0140EEA6FF3EC03F0968484B416D004
:1039500017BC14D0178C020ED46FFA0EEA6FF3EC7A
:1039600003F0D42FFAD7010E1A6E356A020E1E6EBE
:10397000206E0C0EE56F95EC09F0198601D0179CAE
:103980001A500508D8A42CD102EC00F0010EE66F05
:10399000E76F60EC09F05E0EF66E050EF76EC8EC90
:1039A00009F0010EE66F020EE76F60EC09F0050EFC
:1039B000D46FD8EC0EF000C0D4F001C0D5F002C036
:1039C000D6F003C0D7F003C0EBF002C0EAF001C0AC
:1039D000E9F000C0E8F0D70EEF6FA30EEE6FED6BCD
:1039E000810EEC6F7DEC0CF000C0D4F001C0D5F07E
:1039F00002C0D6F003C0D7F0740EF66E050EF76E57
:103A0000090ED86FE2EC0AF0020EE96ED7C0DBF0C7
:103A1000D6C0DAF0D5C0D9F0D4C0D8F0DC6F5CECF9
:103A200010F0820EF66E050EF76E070ED86FE2EC00
:103A30000AF0010EE66F030EE76F60EC09F0E56B2C
:103A400052EC0CF000C0D4F001C0D5F002C0D6F0AA
:103A500003C0D7F08A0EF66E050EF76E080ED86F0B
:103A6000E2EC0AF0010EE96ED7C0DBF0D6C0DAF066
:103A7000D5C0D9F0D4C0D8F0DC6B5CEC10F0010EEE
:103A8000E66F040EE76F60EC09F0980EF66E050E17
:103A9000F76E070ED86FE2EC0AF0010EE96EB0C0C7
:103AA000DBF0AFC0DAF0AEC0D9F0ADC0D8F0DC6B5F
:103AB0005CEC10F01996968284B272D0140EEA6F04
:103AC000F3EC03F0968284B26AD017B868D0010E86
:103AD0001A6E356A020E1E6E206E0B0E1D6E020EE1
:103AE000D46FFA0EEA6FF3EC03F0D42FFAD70C0E72
:103AF000E56F95EC09F0E56B52EC0CF003C0B0F00B
:103B000002C0AFF001C0AEF000C0ADF0B0C0EBF04D
:103B1000AFC0EAF0AEC0E9F0ADC0E8F01FEC11F0C4
:103B200002C04CF001C04BF04BC027F04CC028F055
:103B30000B0EA96E27C0A8FFA69CA69EA684F250D5
:103B4000006EF29CF29E0F01550EA76EAA0EA76E94
:103B5000A682A6B2FED7A6940050F212140E00015F
:103B6000EA6FF3EC03F00C0EA96E28C0A8FFA69C28
:103B7000A69EA684F250006EF29CF29E0F01550E96
:103B8000A76EAA0EA76EA682A6B2FED7A694005074
:103B9000F212140E0001EA6FF3EC03F0198601D063
:103BA0001798968484B41BD0140EEA6FF3EC03F0DC
:103BB000968484B413D017BC11D0010E1A6E356AE6
:103BC000020E1E6E206E0B0E1D6E1E0EEA6FF3ECC3
:103BD00003F00C0EE56F95EC09F0198601D0179CE7
:103BE0001A500608D8A494D018781788010E1A6EB7
:103BF000356A18A830D01888010EE66FE76F60ECC0
:103C000009F0A60EF66E050EF76EC8EC09F0010E6F
:103C1000E66F020EE76F60EC09F0BC0EF66E050E63
:103C2000F76EC8EC09F0010EE66F030EE76F60EC6B
:103C300009F0D20EF66E050EF76EC8EC09F0010E13
:103C4000E66F040EE76F60EC09F0E80EF66E050E05
:103C5000F76EC8EC09F018B830D01898010EE66F6E
:103C6000E76F60EC09F0FE0EF66E050EF76EC8EC1D
:103C700009F0010EE66F020EE76F60EC09F0140E1A
:103C8000F66E060EF76EC8EC09F0010EE66F030E35
:103C9000E76F60EC09F02A0EF66E060EF76EC8ECC0
:103CA00009F0010EE66F040EE76F60EC09F0400EBC
:103CB000F66E060EF76EC8EC09F0000E18B8010E8D
:103CC000D46F040EA96ED4C0A8FFA69CA69EA6849D
:103CD000F250006EF29CF29E0F01550EA76EAA0ED6
:103CE000A76EA682A6B2FED7A6940050F212040ECA
:103CF0000001D46FFA0EEA6FF3EC03F0D42FFAD779
:103D0000020E1E6E206E0C0EE56F95EC09F0198602
:103D10001A500708D8A4CBD04650060802E2060E77
:103D2000466E465202E1010E466E010EE66FE76FE7
:103D300060EC09F0560EF66E060EF76EC8EC09F050
:103D4000010EE66F020EE76F60EC09F06C0EF66E86
:103D5000060EF76EC8EC09F0010EE66F030EE76F72
:103D600060EC09F0820EF66E060EF76E0A0ED86F42
:103D7000E2EC0AF046C0D4F01B0ED56FC5EC0BF098
:103D80008E0EF66E060EF76E070ED86FE2EC0AF096
:103D9000010EE66F040EE76F60EC09F0960EF66E0A
:103DA000060EF76EC8EC09F0928A80BA08D0465029
:103DB000050805E3C80EEA6FF3EC03F0462A968087
:103DC00084B007D0465205E0C80EEA6FF3EC03F06A
:103DD0004606968284B202D046C0BCF0968484B473
:103DE00066D0640EEA6FF3EC03F0020E1E6E206ED6
:103DF0000C0EE56F95EC09F00D0EA96E46C0A8FFFC
:103E0000A69CA69EA684F250006EF29CF29E0F0124
:103E1000550EA76EAA0EA76EA682A6B2FED7A694CE
:103E20000050F212140E0001EA6FF3EC03F0010EE1
:103E3000E66FE76F60EC09F0AC0EF66E060EF76EFB
:103E4000C8EC09F0010EE66F020EE76F60EC09F0B6
:103E5000C20EF66E060EF76EC8EC09F0010EE66FA4
:103E6000030EE76F60EC09F0D80EF66E060EF76EE3
:103E7000C8EC09F0010EE66F040EE76F60EC09F084
:103E8000EE0EF66E060EF76EC8EC09F0040ED46F57
:103E9000FA0EEA6FF3EC03F0D42FFAD70C0EE56FAD
:103EA00095EC09F069EC04F0010E1A6E356A1A50AF
:103EB0003208D8A4B7EF23F018A011D21890080E3A
:103EC000D46FD8EC0EF003C0ACF002C0ABF001C070
:103ED000AAF000C0A9F0ACC0EBF0ABC0EAF0AAC0F9
:103EE000E9F0A9C0E8F0D70EEF6FA30EEE6FED6B0F
:103EF000810EEC6F7DEC0CF000C0D4F001C0D5F069
:103F000002C0D6F003C0D7F0CD0EEB6FCC0EEA6F37
:103F10004C0EE96F7B0EE86F03C0EFF002C0EEF0CD
:103F200001C0EDF000C0ECF08EEC06F013E3ACC085
:103F3000EBF0ABC0EAF0AAC0E9F0A9C0E8F01F0EB0
:103F4000EF6F850EEE6F6B0EED6F7C0EEC6F8EECEF
:103F500006F002E217B43FD0010EE66FE76F60ECA7
:103F600009F0ACC0EBF0ABC0EAF0AAC0E9F0A9C020
:103F7000E8F0D70EEF6FA30EEE6FED6B810EEC6FD6
:103F80007DEC0CF000C0D4F001C0D5F002C0D6F03A
:103F900003C0D7F0040EF66E070EF76E080ED86F4A
:103FA000E2EC0AF0020EE96ED7C0DBF0D6C0DAF020
:103FB000D5C0D9F0D4C0D8F0DC6F5CEC10F0110E95
:103FC000F66E070EF76E070ED86FE2EC0AF0416A44
:103FD0008B9094905ED0ACC0EBF0ABC0EAF0AAC07E
:103FE000E9F0A9C0E8F0D70EEF6FA30EEE6FED6B0E
:103FF000810EEC6F7DEC0CF000C0D4F001C0D5F068
:1040000002C0D6F003C0D7F003C0EBF002C0EAF064
:1040100001C0E9F000C0E8F0CD0EEF6FCC0EEE6FFE
:104020004C0EED6F7B0EEC6F8EEC06F001E210E1B2
:1040300017A40ED0010EE66FE76F60EC09F01A0EC0
:10404000F66E070EF76EC8EC09F0010E416E21D036
:104050001F0EEB6F850EEA6F6B0EE96F7C0EE86F3B
:10406000ACC0EFF0ABC0EEF0AAC0EDF0A9C0ECF030
:104070008EEC06F001E20DE1010EE66FE76F60ECF9
:1040800009F02E0EF66E070EF76EC8EC09F0010E61
:10409000416EACC0ECF0ABC0EBF0AAC0EAF0A9C036
:1040A000E9F08F0EF06FC20EEF6F750EEE6F7C0EA3
:1040B000ED6FF6EC0CF000C0D4F001C0D5F002C0FA
:1040C000D6F003C0D7F003C0EBF002C0EAF001C0A5
:1040D000E9F000C0E8F0EF6BEE6B300EED6F820E92
:1040E000EC6F7DEC0CF003C0A8F002C0A7F001C09B
:1040F000A6F000C0A5F0EB6BEA6B300EE96F820E04
:10410000E86FA8C0EFF0A7C0EEF0A6C0EDF0A5C024
:10411000ECF08EEC06F006E3A86BA76B300EA66FF2
:10412000820EA56F2F6AA8C0D7F0A7C0D6F0A6C090
:10413000D5F0A5C0D4F0DAEC12F000C0D4F001C084
:10414000D5F002C0D6F003C0D7F0ED6B2FC0ECF075
:10415000B6EC04F003C0EBF002C0EAF001C0E9F0F5
:1041600000C0E8F0D7C0EFF0D6C0EEF0D5C0EDF05B
:10417000D4C0ECF08EEC06F00EE3080E2F24D46FC2
:10418000E66F020EE76F60EC09F0D10EE56F95EC7B
:1041900009F02F2AC8D7A8C0D7F0A7C0D6F0A6C06C
:1041A000D5F0A5C0D4F0DAEC12F003C0EBF002C0F9
:1041B000EAF001C0E9F000C0E8F01FEC11F001C026
:1041C0002FF02F500A080EE3080E2F24D46FE66F4D
:1041D000020EE76F60EC09F0200EE56F95EC09F038
:1041E0002F2AEFD7090EE66F030EE76F60EC09F098
:1041F000420EF66E070EF76E060ED86FE2EC0AF06E
:1042000029C0D4F0030ED56FC5EC0BF03A0EE56F64
:1042100095EC09F02AC0D4F0010ED56FC5EC0BF077
:1042200002EC00F0010EE66F020EE76F60EC09F0A1
:10423000520EF66E070EF76EC8EC09F017A40DD0FB
:10424000010EE66F040EE76F60EC09F05A0EF66E91
:10425000070EF76EC8EC09F00CD0010EE66F040EE5
:10426000E76F60EC09F0640EF66E070EF76EC8ECAF
:1042700009F017A00DD00D0EE66F040EE76F60EC8D
:1042800009F06E0EF66E070EF76EC8EC09F00CD052
:104290000D0EE66F040EE76F60EC09F0760EF66E19
:1042A000070EF76EC8EC09F017A20DD0010EE66FED
:1042B000030EE76F60EC09F07E0EF66E070EF76EE8
:1042C000C8EC09F00CD0010EE66F030EE76F60EC4E
:1042D00009F0860EF66E070EF76EC8EC09F017AE01
:1042E0004CD018A845D00C0EE56F95EC09F0010EE6
:1042F000E66F020EE76F60EC09F08E0EF66E070EA9
:10430000F76EC8EC09F0010EE66F030EE76F60EC84
:1043100009F0A40EF66E070EF76EC8EC09F0010E58
:10432000E66F040EE76F60EC09F0BA0EF66E070E4A
:10433000F76EC8EC09F0010EE66FE76F60EC09F06C
:10434000D00EF66E070EF76EC8EC09F02F6A2F50EC
:1043500004080EE38B809490C80EEA6FF3EC03F030
:104360008B909490C80EEA6FF3EC03F02F2AEFD7EE
:10437000179E0C0EE56F95EC09F017A44FD019B8F5
:104380004AD0060EBC6F69EC04F0C80EEA6FF3EC7D
:1043900003F069EC04F019881986C80EEA6FF3EC93
:1043A00003F0B5C0D4F0140EA96ED4C0A8FFA69C2B
:1043B000A69EA684F250006EF29CF29E0F01550E4E
:1043C000A76EAA0EA76EA682A6B2FED7A69400502C
:1043D000F212140E0001EA6FF3EC03F0B6C0D4F051
:1043E000150EA96ED4C0A8FFA69CA69EA684F25066
:1043F000006EF29CF29E0F01550EA76EAA0EA76EDC
:10440000A682A6B2FED7A6940050F212140E0001A6
:10441000EA6FF3EC03F046C0BCF047D0BC6B19A8C0
:1044200044D069EC04F0C80EEA6FF3EC03F069ECD9
:1044300004F019981986B5C0D4F0140EA96ED4C032
:10444000A8FFA69CA69EA684F250006EF29CF29E47
:104450000F01550EA76EAA0EA76EA682A6B2FED7B2
:10446000A6940050F212140E0001EA6FF3EC03F070
:10447000B6C0D4F0150EA96ED4C0A8FFA69CA69E07
:10448000A684F250006EF29CF29E0F01550EA76EAC
:10449000AA0EA76EA682A6B2FED7A6940050F2126C
:1044A000140E0001EA6FF3EC03F017A20FD08A9804
:1044B000939818B40AD069EC04F0C80EEA6FF3ECD4
:1044C00003F069EC04F0188419860ED08A8893985A
:1044D00018A40AD069EC04F0C80EEA6FF3EC03F0FC
:1044E00069EC04F01894198617A017D08A96939651
:1044F000179E1794BC6B17928A88939818B20CD0A9
:1045000069EC04F0C80EEA6FF3EC03F069EC04F018
:104510001882010E326E198611D017908A869396F2
:1045200018A20CD069EC04F0C80EEA6FF3EC03F0AB
:1045300069EC04F01892010E326E1986968084B0F0
:1045400038D0140EEA6FF3EC03F0968084B030D0CC
:1045500017B62ED017721786020ED46F960EEA6F1A
:10456000F3EC03F0D42FFAD71986000E17B2010E20
:10457000D46F170EA96ED4C0A8FFA69CA69EA684D1
:10458000F250006EF29CF29E0F01550EA76EAA0E1D
:10459000A76EA682A6B2FED7A6940050F212020E13
:1045A0000001D46F960EEA6FF3EC03F0D42FFAD724
:1045B00002D019921796968284B230D0140EEA6F08
:1045C000F3EC03F0968284B228D017BA26D0177481
:1045D000178A1986000E17B4010ED46F160EA96E35
:1045E000D4C0A8FFA69CA69EA684F250006EF29CA2
:1045F000F29E0F01550EA76EAA0EA76EA682A6B256
:10460000FED7A6940050F212020E0001D46F960E4F
:10461000EA6FF3EC03F0D42FFAD701D0179A9684FF
:1046200084B40DD0140EEA6FF3EC03F0968484B4D6
:1046300006D0960EEA6FF3EC03F017901986928A73
:1046400080BA14D01788C80EEA6FF3EC03F0928A90
:1046500080BA0BD00C0EE56F95EC09F0010E1A6EC6
:10466000356A020E1E6E206E198602D019941798B4
:1046700019A403D0E5EF12F007D019A203D0F8EF88
:1046800012F002D00BEF13F0322C65D0070EA96E9A
:1046900023C0A8FFA69CA69EA684F250006EF29CA2
:1046A000F29E0F01550EA76EAA0EA76EA682A6B2A5
:1046B000FED7A6940050F212080EA96E24C0A8FFDF
:1046C000A69CA69EA684F250006EF29CF29E550E09
:1046D000A76EAA0EA76EA682A6B2FED7A694005019
:1046E000F21249C025F04AC026F0090EA96E25C075
:1046F000A8FFA69CA69EA684F2CF00F0F29CF29E94
:10470000550EA76EAA0EA76EA682A6B2FED7A694D5
:104710000050F212140E0001EA6FF3EC03F00A0EDF
:10472000A96E26C0A8FFA69CA69EA684F250006E85
:10473000F29CF29E0F01550EA76EAA0EA76EA682DE
:10474000A6B2FED7A6940050F212140E0001EA6F32
:10475000F3EC03F0326A23503B0802E2236A242A76
:1047600024503B0804E2246A492AD8B44A2A31502A
:104770003B080CE20C0EE56F95EC09F069EC04F0D7
:10478000C80EEA6FF3EC03F0316A19860BEF14F0F0
:02479000030024
:020000040030CA
:0E00000000021F1B000180000FC00FE00F4028
:00000001FF
;PIC18F4520
;CRC=11CF  CREATED="24-sept.-20 07:01"
