:0600000080EF10F0000C7F
:08000800046ED8CF05F0E0CF33
:1000100006F00001E9CF0CF0EACF07F0E1CF08F0DD
:10002000E2CF09F0D9CF0AF0DACF0BF0F3CF12F01C
:10003000F4CF13F0FACF14F000C00EF001C00FF0AF
:1000400002C010F003C011F0F2A82AEF00F0F2B2E3
:10005000D9EF00F00EC000F00FC001F010C002F0A8
:1000600011C003F00CC0E9FF07C0EAFF078E08C00B
:10007000E1FF09C0E2FF0AC0D9FF0BC0DAFF12C0DE
:10008000F3FF13C0F4FF14C0FAFF045006C0E0FFF2
:1000900005C0D8FF1000F2CF0DF0F29EF76AB00F46
:1000A000F66E000EF7220900F5500DBEF28E12001A
:1000B000280C010654656D706F72697A61646F7205
:1000C000205556202020200043616D62696F204337
:1000D0006F6E7472617365F1612020005469656D03
:1000E000706F2054726162616A6F20555620200043
:1000F00050756E746F204365726F20202020202081
:1001000020202000416C61726D6120202020202081
:10011000202020204F464600416C61726D612020F6
:100120002020202020202020204F4E0056656C6F7C
:10013000636964616420202020202020202020008A
:10014000202020202020204D4F44554C4F2020209F
:10015000202020200000202020464C554A4F204CD3
:10016000414D494E415220202020000020202020D7
:100170004A502020494E474C4F42414C20202020DD
:10018000000020205245463A4A5043464C564D44C2
:100190003131315820200000040EE35F09E3EA6AA0
:1001A000E30EE96EEF5004E001D00000EF2EFDD722
:1001B000000CA82BD8B4A92BA95303E1A8517708A8
:1001C00029E2A96BA86B3F6A3E6A2F2A17803D2C53
:1001D0000AD017B603D08B90949004D017A802D001
:1001E0008B809490177616A015D0212A16BE12D0B7
:1001F000285202E028060ED0275204E027063B0EC4
:10020000286E08D0168E16908A86939629C027F0FD
:100210002AC028F0AE6BAD6B178EB051050812E303
:10022000B05310E0AF5163080DE3ABC0E2F0E22B36
:10023000E207D8B404D0FF0EE36FAEDFF9D7AAC04F
:10024000E3F0AADFF2922AEF00F0202020202049DC
:100250006E6772657365202020202020202000001A
:1002600020202020436F6E7472617365F16120203D
:1002700020202020000020202020434C4156453DD6
:100280002569256925692569202000002020202076
:10029000202020202020202020202020202020007E
:1002A0002020202020436F6E7472617365F16120FD
:1002B00020202000202020202020436F72726563C0
:1002C00074612020202020002020202020202020B9
:1002D000202020202020202020202000202020203E
:1002E00020436F6E7472617365F1612020202000DD
:1002F0002020202020496E636F7272656374612034
:10030000202020002020202020202020202020200D
:1003100020202020202020002D2D2D4D454E552021
:100320005052494E434950414C2D2D2D0000202064
:10033000202054656D706F72697A61646F7220203D
:1003400020202000202020202020204C757A2055BD
:1003500056202020202020202000253033753A25EB
:1003600030327520284D3A53292020005469656D9C
:10037000706F20416C6D6163656E61646F00202059
:10038000436F7272656374616D656E7465202000E1
:100390002020202020496E67726573652020202070
:1003A00020202020000020202020436F6E747261E6
:1003B0007365F161202020202020000020202020D3
:1003C000434C4156453D256925692569256920200D
:1003D000000020202020202020202020202020205D
:1003E00020202020202000002020202020436F6E8D
:1003F0007472617365F161202020202000002020AC
:1004000020202020436F72726563746120202020B9
:10041000202000002020202020202020202020201C
:10042000202020202020202000002020202020200C
:1004300020202020202020202020202020200000FC
:100440002020202020436F6E7472617365F161205B
:100450002020202000002020202020496E636F7281
:10046000726563746120202020200000202020205D
:10047000202020202020202020202020202020207C
:100480000000202020496E6772657365204E7565F7
:1004900076612020202000002020202020436F6E45
:1004A0007472617365F161202020202000002020FB
:1004B0002020434C4156453D25692569256925691C
:1004C000202000002020202020202020202020206C
:1004D0002020202020202020000020202020204339
:1004E0006F6E7472617365F161202020202000001E
:1004F0002020202020416C6D6163656E6164612065
:10050000202020200000202020202020202020202B
:1005100020202020202020202020000020204475A2
:10052000726163696F6E2041637475616C20202075
:1005300000002020205469656D706F3D2025303506
:100540004C75202020002052455345543D204F70CB
:1005500072696D61205E2079203E20002052657313
:100560006574206465207469656D706F20002020BB
:10057000202020457869746F736F20202020200090
:1005800020205A65726F20506F696E7420436F6E21
:1005900066696720000050726573696F6E3D2025A3
:1005A000332E326620696E48324F200020202020F2
:1005B0004144433D25322E306600202020205A46FB
:1005C0003D25322E306600002020202020202020D3
:1005D000202020202020202020202020000020205B
:1005E00020202020202041637469766F2020202065
:1005F000202000002020202020202020416C61723B
:100600006D6120202020202000002020202020209C
:10061000202020202020202020202020202000001A
:1006200020202020202020202020202020202020CA
:1006300020202020000020202020202044657361FD
:10064000637469766F202020202000002020202065
:10065000202020416C61726D61202020202020200C
:1006600000002020202020202020202020202020CA
:10067000202020202020000053656C656363696F93
:100680006E652056656C6F636964616400002020AC
:100690002064656C2056656E74696C61646F7220AD
:1006A00020200000202020202056656C3A2025754F
:1006B000202020202020200020202020202020205A
:1006C000202020202020202020202020000020206A
:1006D000202020202020202020202020202020201A
:1006E00020200000202020202056656C6F63696464
:1006F00061642020202020200000202020202020B5
:10070000416C6D6163656E61646120202020000092
:1007100020202020202020202020202020202020D9
:100720002020202000004A5043522044503A2533D4
:100730002E326620696E48324F20000054656D707D
:100740006F3A253033753A253032750020205465D4
:100750006D706F72697A61646F7220206465202009
:100760000000204C757A205556202046696E616C39
:10077000697A61646F200000202020202020202042
:1007800020202020202020202020202000002020A9
:100790002020202020202020202020202020202059
:1007A0002020000046696C74726F3A004D6F746FC0
:1007B000723A4F4E20004D6F746F723A4F464600AA
:1007C00055563A4F4E20000055563A4F46460000C7
:1007D0004C757A3A4F4E20004C757A3A4F46460097
:1007E000BA51060805E18B8494948B82949239D097
:1007F000BA51050807E10F0EAF6F070EAB6FD00EB1
:10080000AA6F2FD0BA51040807E1190EAF6F0B0E73
:10081000AB6FB80EAA6F25D0BA51030807E1230EBB
:10082000AF6F0E0EAB6F100EAA6F1BD0BA5102083D
:1008300007E12D0EAF6F100EAB6FCC0EAA6F11D06B
:10084000BA2D07D0320EAF6F130EAB6F880EAA6FA2
:1008500008D0BA5306E1640EAF6F8B9494948B92D8
:100860009492000CEA6AD10EE96EEF500EE0050E8C
:10087000016E006A002EFED7012EFBD72E0E006EF1
:10088000002EFED700D0EF2EF2D7000CD239F00B9D
:10089000006E0F0E83140010836E090E006E002E82
:1008A000FED700D08386490E006E002EFED78396B9
:1008B000000C8392010ED16FD5DFCFA18392CFB10F
:1008C0008382090E006E002EFED700D08394090E9D
:1008D000006E002EFED700D08396D039D16F0F0E58
:1008E000D117D1C0D2F0D2DFD0510F0BD16FD26F60
:1008F000CDDF000C000E956E8392839483960F0ECD
:10090000D16FB0DF010EBA6FBA51030808E3030ECE
:10091000D26FBCDF050ED16FA5DFBA2BF5D7020E63
:10092000D26FB4DFBA6BBA5103080FE3036ABA514E
:10093000F2CFBBF0F29E4BEC00F0BBBFF28EBB6F70
:10094000CF6BD06FB6DFBA2BEED7000CD3DFFF0E24
:10095000926E966EF288F18CC150C00B0E09C16E7A
:10096000C090C082C094C08EC280C00EF2124FEF01
:1009700011F0010ECD5DFC0F0FE2040FD4EF04F077
:10098000800ECE6F09D0C00ECE6F06D0940ECE6F03
:1009900003D0D40ECE6F00D0010ECC5DCE27CF6B2E
:1009A000CEC0D0F086DF000CF2CF0DF0F29EE8242E
:1009B000F76AF736CD0FF66E090EF7220A00F550EA
:1009C000FA6E0800F5500DBEF28EF96E80098609A8
:1009D0008C099209CB51F10802E1EE0ECB6FCB519D
:1009E000D10802E1FF0ECB6FCB510C0A05E0060ADD
:1009F0000DE0020A12E016D0CF6B010ED06F59DF66
:100A0000010EB96F020ED16F2DDF12D0B92B010E7E
:100A1000CC6FB9C0CDF0ADDF0BD0CF6B100ED06F67
:100A200048DF06D0010ECF6FCBC0D0F042DF00D040
:100A3000000C0900F5520CE0F6CFBDF0F7CFBEF088
:100A4000F5CFCBF0C7DFBDC0F6FFBEC0F7FFF1D7D3
:100A5000000C010ECC6FCD6F8CDF400EF66E010ED8
:100A6000F76EE7DF010ECC6F020ECD6F82DF560E00
:100A7000F66E010EF76EDDDF010ECC6F030ECD6F4B
:100A800078DF6C0EF66E010EF76ED3DF010ECC6FC1
:100A9000040ECD6F6EDF820EF66E010EF76EC9DFAB
:100AA000080EBA6FFA0ED16FDDDEBA2FFBD70C0E2F
:100AB000CB6F90DF51EF11F08E0E006ED3C001F0BE
:100AC000D2C002F0036A015209E102C001F0026AD9
:100AD000080E005E015202E1006A08D0D89001BE03
:100AE00004D0023601360006F9D7019E000CF2CF81
:100AF000BAF0F29EA96AA69CA69EA680A850BABF8C
:100B0000F28E396E140ED16FADDEF2CFBAF0F29ED6
:100B1000010EA96EA69CA69EA680A850BABFF28E12
:100B20003A6E140ED16F9EDEF2CFBAF0F29E020E34
:100B3000A96EA69CA69EA680A850BABFF28E3B6E58
:100B4000140ED16F8FDEF2CFBAF0F29E030EA96EB3
:100B5000A69CA69EA680A850BABFF28E3C6E140E2C
:100B6000D16F80DEF2CFBAF0F29E040EA96EA69C81
:100B7000A69EA680A850BABFF28E016E179801B04B
:100B80001788140ED16F6EDEF2CFBAF0F29E050E0A
:100B9000A96EA69CA69EA680A850BABFF28E276E0C
:100BA000140ED16F5FDEF2CFBAF0F29E060EA96E80
:100BB000A69CA69EA680A850BABFF28E286E140EE0
:100BC000D16F50DEF2CFBAF0F29E070EA96EA69C4E
:100BD000A69EA680A850BABFF28E216E140ED16FC9
:100BE00041DEF2CFBAF0F29E080EA96EA69CA69E38
:100BF000A680A850BABFF28E226E140ED16F32DEDC
:100C0000F2CFBAF0F29E090EA96EA69CA69EA6800F
:100C1000A850BABFF28E236E140ED16F23DEF2CF2E
:100C2000BAF0F29E0A0EA96EA69CA69EA680A850B7
:100C3000BABFF28E246E140ED16F14DEF2CFBAF06A
:100C4000F29E0B0EA96EA69CA69EA680A850BABFC7
:100C5000F28E256E140ED16F05DEF2CFBAF0F29E41
:100C60000C0EA96EA69CA69EA680A850BABFF28EB6
:100C7000266E140ED16FF6DDF2CFBAF0F29E0D0E95
:100C8000A96EA69CA69EA680A850BABFF28EB06F91
:100C9000140ED16FE7DD26C043F025C042F043C0FB
:100CA000D3F042C0D2F008DF03C0A7F002C0A6F024
:100CB00001C0A5F000C0A4F024C041F023C040F062
:100CC00027C029F028C02AF053EF11F0CFC0D6F08A
:100CD000D351D61BD6AF05D0D894D890CFBFD880EB
:100CE0002FD0CFC0D6F0D2C0D7F0CE51D75F06E01C
:100CF000D6AF26D0D850010AD86E22D0D3C0D7F0B4
:100D0000CF51D75F06E0D6AF1BD0D850010AD86EBE
:100D100017D0D4C0D7F0D051D75F06E0D6AF10D0EF
:100D2000D850010AD86E0CD0D5C0D7F0D151D75FBA
:100D300006E0D6AF05D0D850010AD86E01D0D890C1
:100D4000000C39BE03D03950090803E339BE01D085
:100D500018D0396AA96AA86AA69CA69EA684F250F1
:100D6000006EF29E0F01550EA76EAA0EA76EA68208
:100D7000A6B2FED7A6940050F212140E0001D16F55
:100D800071DD3ABE03D03A50090803E33ABE01D000
:100D900019D03A6A010EA96EA86AA69CA69EA684DE
:100DA000F250006EF29E0F01550EA76EAA0EA76EAE
:100DB000A682A6B2FED7A6940050F212140E00012D
:100DC000D16F50DD3BBE03D03B50090803E33BBE6F
:100DD00001D019D03B6A020EA96EA86AA69CA69EF5
:100DE000A684F250006EF29E0F01550EA76EAA0E59
:100DF000A76EA682A6B2FED7A6940050F212140ED9
:100E00000001D16F2FDD3CBE03D03C50090803E345
:100E10003CBE01D019D03C6A030EA96EA86AA69CFC
:100E2000A69EA684F250006EF29E0F01550EA76E8C
:100E3000AA0EA76EA682A6B2FED7A6940050F21202
:100E4000140E0001D16F0EDD000E17B8010E01085F
:100E50001AE21788040EA96E010EA86EA69CA69E23
:100E6000A684F250006EF29E0F01550EA76EAA0ED8
:100E7000A76EA682A6B2FED7A6940050F212140E58
:100E80000001D16FEFDC2750C8081BE2140E276E5B
:100E9000050EA96E140EA86EA69CA69EA684F250FE
:100EA000006EF29E0F01550EA76EAA0EA76EA682C7
:100EB000A6B2FED7A6940050F212140E0001D16F14
:100EC000D1DC28503B0819E2286A060EA96EA86AF0
:100ED000A69CA69EA684F250006EF29E0F01550EAF
:100EE000A76EAA0EA76EA682A6B2FED7A694005041
:100EF000F212140E0001D16FB5DC21503C0819E24A
:100F0000216A070EA96EA86AA69CA69EA684F25026
:100F1000006EF29E0F01550EA76EAA0EA76EA68256
:100F2000A6B2FED7A6940050F212140E0001D16FA3
:100F300099DC22503C0819E2226A080EA96EA86AC0
:100F4000A69CA69EA684F250006EF29E0F01550E3E
:100F5000A76EAA0EA76EA682A6B2FED7A6940050D0
:100F6000F212140E0001D16F7DDC4150260838E2E8
:100F7000FF0A03E14050100833E2416A406A090E5B
:100F8000A96E0A0EA86EA69CA69EA684F250006EBC
:100F9000F29E0F01550EA76EAA0EA76EA682A6B2EC
:100FA000FED7A6940050F212140E0001D16F5ADC45
:100FB0000A0EA96EA86AA69CA69EA684F250006E90
:100FC000F29E0F01550EA76EAA0EA76EA682A6B2BC
:100FD000FED7A6940050F212140E0001D16F42DC2D
:100FE000A7C0D1F0A6C0D0F0A5C0CFF0A4C0CEF06D
:100FF000D56BD46B610ED36F870ED26F67DE10E2B4
:10100000D16BD06B160ECF6F880ECE6FA7C0D5F008
:10101000A6C0D4F0A5C0D3F0A4C0D2F057DE3AE306
:10102000A76B800EA66F7F0EA56F870EA46F0B0EA9
:10103000A96EFF0EA86EA69CA69EA684F250006E16
:10104000F29E0F01550EA76EAA0EA76EA682A6B23B
:10105000FED7A6940050F212140E0001D16F02DCEC
:101060000C0EA96E010EA86EA69CA69EA684F25038
:10107000006EF29E0F01550EA76EAA0EA76EA682F5
:10108000A6B2FED7A6940050F212140E0001D16F42
:1010900032EC04F0B05106081CE2040EB06F0D0EE5
:1010A000A96E040EA86EA69CA69EA684F250006EA1
:1010B000F29E0F01550EA76EAA0EA76EA682A6B2CB
:1010C000FED7A6940050F212140E0001D16F32EC3C
:1010D00004F055EF11F00900F6CFBFF0F7CFC0F0E4
:1010E000F5CFCBF077DCBFC0F6FFC0C0F7FFBE2F57
:1010F000F2D7000CC151016AC05D03E2C0C000F02C
:101100000CD0006A080EC26FC0370036C151005CB7
:10111000D8B0006E0136C22FF7D7000C200EBBA945
:10112000300EBC6FBAC000F0BAAF07D0001E002A64
:1011300000C0BAF02D0EBC6FBB8F0150BAC0C0F01A
:10114000640EC16FD7DF00C0BAF0300E0124BD6F4E
:10115000BAC0C0F00A0EC16FCDDF300E0024BF6FE1
:10116000300E0124BE6FBCC000F0BBA702D0BBAFE5
:10117000BB95BBB90BD0BBAF22D0BBB520D000C054
:10118000BDF0BBB31CD000C0BEF019D0300EBD5DA9
:1011900016E100C0BDF0200EBC6FBBA704D0BB950C
:1011A000BB83BBAFBB93300EBE5D09E100C0BEF098
:1011B000200EBD6FBBA7F7D7BB93BBAFBB91BBA541
:1011C00003D0BCC0CBF006DCBBA303D0BDC0CBF0CA
:1011D00001DCBBA104D0BEC0CBF0EAEC04F0BFC080
:1011E000CBF0EAEC04F0000CBB2D0BD0020ECC6F60
:1011F000BCC0CDF0B9EC04F0B40EF66E000EF76E84
:1012000018DCBB5102080BE1020ECC6FBCC0CDF064
:10121000B9EC04F0C80EF66E000EF76E0ADCBB5196
:1012200003080CE1020ECC6FBCC0CDF0B9EC04F0A9
:10123000DC0EF66E000EF76E19EC05F0BB510408DB
:101240000CE1020ECC6FBCC0CDF0B9EC04F0F00E96
:10125000F66E000EF76E19EC05F0BB5105081CE1A7
:1012600017B80CD0020ECC6FBCC0CDF0B9EC04F0B6
:10127000040EF66E010EF76E19EC05F017A80CD0EF
:10128000020ECC6FBCC0CDF0B9EC04F0180EF66EB7
:10129000010EF76E19EC05F0BB5106080CE1020EC9
:1012A000CC6FBCC0CDF0B9EC04F02C0EF66E010E84
:1012B000F76E19EC05F0000C0150BAC0C0F0640ED6
:1012C000C16F18DF00C0BAF00150300E07E1BBA3B8
:1012D0000DD0BBB70BD0BBB9200E03D0BB97BB99C9
:1012E000BB81012601C0CBF0EAEC04F0BAC0C0F02B
:1012F0000A0EC16FFFDE00C0BAF00150300E06E1E9
:10130000BBB709D0BBA107D0BBB9200E012601C0D5
:10131000CBF0EAEC04F0300EBA27BAC0CBF0EAEC1E
:1013200004F0000CEACFC2F0E9CFC1F0BB39F009FC
:10133000BD6FBD27E20FBE6F320FC06FBB510F0BE9
:10134000BE27BE27C027E90FBF6FBF27BF27BA3907
:101350000F0BBF27C027BF37C037C01FC037BA51D8
:101360000F0BC027BD37070EBC6F0A0EBF07C02783
:10137000FDE3BE07BF27FDE3BD07BE27FDE3BC07B6
:10138000BD27FDE3EA6ABC0EE96E070EC115C19DDB
:10139000E926C00EE95CD8B4C18DEF50006E08E1BB
:1013A000C1BD06D0C1B914D0C1B702D0200E03D040
:1013B000C187C199300E0026EACFBBF0E9CFBAF061
:1013C00000C0CBF0EAEC04F0BBC0EAFFBAC0E9FF12
:1013D000EE50C1ADDED743EF19F0CB35006E0036CD
:1013E000FC0E001600C001F0C250C30B0010C26E0C
:1013F0000A0ED16F32EC04F0C282C2B2FED7C4CF63
:1014000003F0C3CFD2F0C4CFD3F05CEC05F003C03F
:10141000CFF002C0CEF001C0CDF000C0CCF0CCC007
:1014200000F0CDC001F0CEC002F0CFC003F0000C40
:10143000CE51D8B471D0006ED251D8B46DD0002640
:1014400004E3810E002668E204D07F0E005E64E3B0
:1014500063E0CFC0D6F0D351D61BCF8FD38FD151FD
:10146000D503F4CFD8F0D051D403F4CF03F0F3CFA9
:10147000D7F0D503F350D827F450D723000E03221A
:10148000D151D403F350D827F450D723000E026A69
:1014900003220222CF51D503F350D727F450032261
:1014A000000E0222CF51D403F3500326F45002223F
:1014B000000E016A0122D151D303F350D727F45013
:1014C0000322000E02220122D051D303F35003263F
:1014D000F4500222000E0122CF51D303F350022612
:1014E000F4500122002A01BE05D0D7370336023658
:1014F00001360006000ED7AF0AD0032A02220122CD
:10150000015005E1025003E1035001E1002AD6BF7A
:10151000018ED6AF019E04D0006A016A026A036A96
:10152000000CCF51D8B4A5D0DB6FD351D8B4A1D023
:10153000DB5F05E37F0EDB27D8B09BD006D0810EA2
:10154000DB5FD8A096D0D8B494D0DBC000F0016A9D
:10155000026A036ADA6BD0C0D9F0D98FD1C0D8F053
:10156000D2C0D7F0190EDB6FD651D75F0DE2010E56
:10157000D85F0AE2D95F08E2DA5F06E2DA2BD92BFC
:10158000D82BD651D72728D0D551D85F12E2010EDB
:10159000D95F0FE2DA5F0DE2DA2BD92BD551D827CC
:1015A000D651D72719E3D82B17E1D92B15E1DA2B20
:1015B00013D0D4518009D95F0EE2010EDA5F0BE23D
:1015C000DA2BD4518009D927D551D827E9E3D92B73
:1015D000E7E1DA2BE5D70380DB2F01D00BD0D890E1
:1015E000D737D837D937DA37D890033602360136AD
:1015F000DC37BAD7DCA106D0D890013202320332F0
:10160000DC3302D0000635E0DCBF1ED0D890D737DF
:10161000D837D937DA37D651D75F07E2010ED85F0E
:1016200004E2D95F02E2DA5F1AE3D551D85F05E23E
:10163000010ED95F02E2DA5F12E3D4518009D95F6B
:1016400003E2010EDA5F0BE3032A09E1022A07E154
:10165000012A05E1002A0DE0013202320332D0C036
:10166000DBF0D451DB1BDBAF02D0018E06D0019E34
:1016700004D0006A016A026A036A000C800ED8B2C4
:10168000D71BDC6BDD6BD3C0DBF0D751DB1BD2513A
:10169000D8B4DCD0DA6F006ED651D8B4E0D0DA5FBF
:1016A000D8B481D03DE3D7C0E0F0E08FD8C0DFF000
:1016B000D9C0DEF0DD6BD890E033DF33DE33DD33CD
:1016C000DA2FF8D7DBAF03D0DC81DDD0DC91DA9103
:1016D000DC89EA6AD50EE96EE9D0DC99DBBF0AD075
:1016E000DAA113D0E033DF33DE33DD33002AD8B4A0
:1016F000C5D00BD0E0BF0CD0D890DD37DE37DF3758
:10170000E0370006D8B4BAD0F5D7DC8D6BD0DC9DBD
:10171000D3C0DBF0D3AF02D0E08FA9D0E09FA7D039
:10172000D6C0DAF0D6C000F0D251DA5FD3C0E0F014
:10173000E08FD4C0DFF0D5C0DEF0DD6BD890E033B1
:10174000DF33DE33DD33DA2FF8D7DBAF03D0DC83D2
:101750009AD0DC93DA91DC8BEA6AD90EE96EA6D0D6
:10176000DC9BDBBF0AD0DAA113D0E033DF33DE33FA
:10177000DD33002AD8B482D00BD0E0BF0CD0D89093
:10178000DD37DE37DF37E0370006D8B477D0F5D75E
:10179000DC8F28D0DC9FD7C0DBF0D7AF02D0E08F42
:1017A00066D0E09F64D0D7C0E0F0E08FD8C0DFF013
:1017B000D9C0DEF0DBAF04D0E09FDC8564D0DC95DF
:1017C000DD6BDA91EA6AD50EE96E70D0DBBF1CD012
:1017D000D3C0DBF0DAA106D0E033DF33DE33DD3314
:1017E000002A4CE0DDAF0BD0DE2B09E1DF2B07E157
:1017F000E02B05E1E033DF33DE33002A3FE0DCBDE0
:1018000086D7DCBFC7D71CD0800EE01BE0AF04D06A
:101810003AD0D7C0DBF00AD0D3C0DBF0E05306E10A
:10182000DF5304E1DE5302E1006A21D0E0BF08D0BB
:10183000D890DD37DE37DF37E037002EF7D71ED000
:10184000DBAF02D0E08F13D0E09F11D0D6C000F004
:10185000D7C0E0F0D8C0DFF0D9C0DEF008D0D2C0E9
:1018600000F0D3C0E0F0D4C0DFF0D5C0DEF0E0C0BF
:1018700001F0DFC002F0DEC003F034D0006A016A7C
:10188000026A036A2FD0DD6BDE1FDF1FE01FDD1F42
:10189000DD2B05E1DE2B03E1DF2B01E1E02BDCB1E9
:1018A00015D7DCB356D7DCB58AD7B3D7EF50DE27D0
:1018B00005E3DF2B03E1E02BD8B4DA81ED52EF50E2
:1018C000DF2703E3E02BD8B4DA81ED52EF50EFBE0F
:1018D00001D0800AE027D8B0DA81DCB9FED6DCBBC3
:1018E0003FD774D7000CBE6BBD6BBC6BBB6BC26BC0
:1018F000C16BC06BBF6BC66BC56BC46BC36BCA6B74
:10190000C96BC86BC76BCB6B68DD03C097F002C0B7
:1019100096F001C095F000C094F097C0D1F096C049
:10192000D0F095C0CFF094C0CEF0D56BD46B200E24
:10193000D36F810ED26F7CDD00C0CBF001C0CCF044
:1019400002C0CDF003C0CEF003C0D2F002C0D1F08F
:1019500001C0D0F000C0CFF0D66BC00ED56F7F0EA7
:10196000D46F880ED36FDDDD03C0C6F002C0C5F0B2
:1019700001C0C4F000C0C3F0A7C0CAF0A6C0C9F03F
:10198000A5C0C8F0A4C0C7F0CAC0D1F0C9C0D0F08B
:10199000C8C0CFF0C7C0CEF0D56BD46B200ED36FCC
:1019A000810ED26F45DD00C0CBF001C0CCF002C08B
:1019B000CDF003C0CEF003C0D2F002C0D1F001C020
:1019C000D0F000C0CFF0D66BC00ED56F7F0ED46FB5
:1019D000880ED36FA6DD03C0C2F002C0C1F001C003
:1019E000C0F000C0BFF0D882C6C0D5F0C5C0D4F0EA
:1019F000C4C0D3F0C3C0D2F0C2C0D9F0C1C0D8F0C7
:101A0000C0C0D7F0BFC0D6F039DE03C09BF002C023
:101A10009AF001C099F000C098F09BC0D1F09AC034
:101A2000D0F099C0CFF098C0CEF0D56BD46BD36B0B
:101A3000D26B66EC06F004E39B6B9A6B996B986B28
:101A4000010EBA5D2B5C02E001E32B6A2B50040D02
:101A5000F350036A440FE96E000E0320EA6E98C04B
:101A6000EFFF99C0ECFF9AC0ECFF9BC0ECFF2B2A64
:101A70002C6A010EBA5D2C5C01E035E22C50040D9D
:101A8000F350036A440FE96E000E0320EA6EEFCFB5
:101A900000F0ECCF01F0ECCF02F0ECCF03F0EACF96
:101AA000CCF0E9CFCBF0D892BEC0D5F0BDC0D4F019
:101AB000BCC0D3F0BBC0D2F003C0D9F002C0D8F094
:101AC00001C0D7F000C0D6F0D9DDCCC0EAFFCBC052
:101AD000E9FF03C0BEF002C0BDF001C0BCF000C011
:101AE000BBF02C2AC6D7D36BBAC0D2F05CEC05F0A1
:101AF000BEC0D2F0BDC0D1F0BCC0D0F0BBC0CFF0F2
:101B000003C0D6F002C0D5F001C0D4F000C0D3F0BD
:101B100008DD03C0BEF002C0BDF001C0BCF000C0D3
:101B2000BBF0BBC000F0BCC001F0BDC002F0BEC045
:101B300003F0000CCB51B608CB6F036ACCC0CFF0DA
:101B4000CC8FD890CC33CD33CE3303320232013236
:101B50000032CB2FF6D7CFAF0BD0001E011E021ED6
:101B6000031E002AD8B4012AD8B4022AD8B4032A02
:101B70001EEF0EF0006A016A026A036AD36BD46B2F
:101B8000D56BD66BD251D111D011CF112CE0200ED4
:101B9000D76FD890CB37CC37CD37CE37D337D43774
:101BA000D537D637D251D65D08E1D151D55D05E1A3
:101BB000D051D45D02E1CF51D35D0FE3CF51D35F5C
:101BC000D051D8A0D03DD45FD151D8A0D13DD55F60
:101BD000D251D8A0D23DD65FD88000360136023629
:101BE0000336D72FD6D7EA6AD30EE96E000CE95038
:101BF000C36FC251C56F19E0C1C0D1F0C0C0D0F0F1
:101C0000BFC0CFF0BEC0CEF0D56BD46B200ED36F6B
:101C1000820ED26F0DDC03C0C1F002C0C0F001C063
:101C2000BFF000C0BEF0C52FE7D7C1C0CEF0C0C026
:101C3000CDF0BFC0CCF0BEC0CBF07CD703C0C1F0AC
:101C400002C0C0F001C0BFF000C0BEF0C1AF0DD0F7
:101C5000C307C38BBE1FBF1FC01FC11FBE2BD8B47D
:101C6000BF2BD8B4C02BD8B4C12B3B0ECA6F9A0E71
:101C7000C96FCA0EC86FC76B0A0EC56FC251D8B400
:101C8000C32BC1C0CEF0C0C0CDF0BFC0CCF0BEC031
:101C9000CBF0CAC0D2F0C9C0D1F0C8C0D0F0C7C024
:101CA000CFF068DF0150EFCFBEF0ECCFBFF0ECCF4C
:101CB000C0F0ECCFC1F000520FE1C229C55D0CE0CD
:101CC000C3510CE00F0BC55D01E03BE2C3BF39D04F
:101CD000C3BD04D0200E30D0200EC317C3AB0DD02F
:101CE000C39BC251D8A4C3070050C36F2D0ECB6F46
:101CF000EAEC04F0C351006EC36BC251C55D0BE149
:101D00000050C36F2E0ECB6FEAEC04F0C351006E8F
:101D1000200EC317000E300EC3AB0ED0C39BC251B2
:101D2000D8A4C3070050C36F2D0ECB6FEAEC04F0AC
:101D3000C351006EC36B300E002600C0CBF0EAEC3E
:101D400004F0CAC0CEF0C9C0CDF0C8C0CCF0C7C046
:101D5000CBF0D26BD16BD06B0A0ECF6F0BDF03C011
:101D6000CAF002C0C9F001C0C8F000C0C7F0C52F5A
:101D700088D7000C8E0E006ECE51005ECFC002F0F0
:101D8000D0C001F0028E005209E0D890025202E168
:101D9000015204E002320132002EF7D7CFAF05D056
:101DA000011E021E012AD8B4022A000CCD91C1C026
:101DB000C6F0C0C0C5F0BFC0C4F0BEC0C3F0C1C053
:101DC000D1F0C0C0D0F0BFC0CFF0BEC0CEF0D56B58
:101DD000D46BD36BD26B66EC06F004E3CD81C451B7
:101DE000800AC46FC6C0D1F0C5C0D0F0C4C0CFF067
:101DF000C3C0CEF0D56BD46BD36B8E0ED26F66ECB6
:101E000006F001E218E1C6C0D1F0C5C0D0F0C4C0F0
:101E1000CFF0C3C0CEF0AEDF02C0D3F001C0D2F02D
:101E20005CEC05F003C0CAF002C0C9F001C0C8F004
:101E300000C0C7F0C7D0C6C0D1F0C5C0D0F0C4C084
:101E4000CFF0C3C0CEF0800ED56F960ED46F180EB3
:101E5000D36F960ED26F66EC06F0D8A0ABD0C6C09A
:101E6000D2F0C5C0D1F0C4C0D0F0C3C0CFF0D66BA3
:101E7000D56BD46B8E0ED36F91EC0AF003C0D1F00A
:101E800002C0D0F001C0CFF000C0CEF073DF02C0BE
:101E9000CCF001C0CBF0C6C0D2F0C5C0D1F0C4C0F8
:101EA000D0F0C3C0CFF0D66BD56BD46B8E0ED36F92
:101EB00091EC0AF000C0CEF001C0CFF002C0D0F02B
:101EC00003C0D1F0CCC0D3F0CBC0D2F05CEC05F0B5
:101ED000D882D1C0D5F0D0C0D4F0CFC0D3F0CEC01E
:101EE000D2F003C0D9F002C0D8F001C0D7F000C0D2
:101EF000D6F03EEC0BF0D16BD06BCF6B8E0ECE6F6D
:101F000003C0D5F002C0D4F001C0D3F000C0D2F0BD
:101F100018EC0AF003C0C6F002C0C5F001C0C4F05E
:101F200000C0C3F0CCC0D3F0CBC0D2F05CEC05F065
:101F3000D16BD06BCF6B8E0ECE6F03C0D5F002C0CD
:101F4000D4F001C0D3F000C0D2F018EC0AF003C006
:101F5000CAF002C0C9F001C0C8F000C0C7F0C6C0D6
:101F6000D1F0C5C0D0F0C4C0CFF0C3C0CEF002DF06
:101F700002C0D3F001C0D2F05CEC05F0D892CAC028
:101F8000D5F0C9C0D4F0C8C0D3F0C7C0D2F003C0E8
:101F9000D9F002C0D8F001C0D7F000C0D6F03EECB6
:101FA0000BF003C0CAF002C0C9F001C0C8F000C005
:101FB000C7F008D0C6C0CAF0C5C0C9F0C4C0C8F0D8
:101FC000C3C0C7F0C6C0D1F0C5C0D0F0C4C0CFF008
:101FD000C3C0CEF0CFDE02C0D3F001C0D2F05CECC3
:101FE00005F0D882C6C0D5F0C5C0D4F0C4C0D3F0C7
:101FF000C3C0D2F003C0D9F002C0D8F001C0D7F0FE
:1020000000C0D6F03EEC0BF003C0C6F002C0C5F035
:1020100001C0C4F000C0C3F0CDA103D0C851800AF4
:10202000C86FC6C0D1F0C5C0D0F0C4C0CFF0C3C027
:10203000CEF0D56BD46BD36BD26B66EC06F038E088
:10204000CDA11AD0C25318E1D882CAC0D5F0C9C0F8
:10205000D4F0C8C0D3F0C7C0D2F0D96BD86BD76B5F
:102060007F0ED66F3EEC0BF003C0CAF002C0C9F081
:1020700001C0C8F000C0C7F0CDB11AD0C22D18D031
:10208000D892CAC0D5F0C9C0D4F0C8C0D3F0C7C078
:10209000D2F0D96BD86BD76B7F0ED66F3EEC0BF0BE
:1020A00003C0CAF002C0C9F001C0C8F000C0C7F048
:1020B000C1C0D1F0C0C0D0F0BFC0CFF0BEC0CEF024
:1020C000D56BD46BD36BD26B66EC06F004E1CA6BB4
:1020D000C96BC86BC76BC7C000F0C8C001F0C9C0EE
:1020E00002F0CAC003F07FEF10F0BDC0C1F0BCC069
:1020F000C0F0BBC0BFF0BAC0BEF0C26B57D6000C78
:10210000F86AD09E078EEA6AE96A169016921694CB
:1021100016961698169A169C169E17901792179454
:1021200017961798186A050E196E020E1A6E0B0E86
:102130001B6E020E1C6E030E1D6E020E1E6E1F6EB7
:10214000040E206E216A226A236A246A256A266A9E
:10215000276A286A296A2A6A2B6A2C6A2D6A010E64
:102160002E6E2F6A306A316A3D6A416A406A436A5C
:10217000426A976B966B956B946B9B6B9A6B996BA2
:10218000986B9F6B9E6B9D6B9C6BA36BA26BA16B03
:10219000A06BA76BA66BA56B800EA46F178A179C0C
:1021A000A96BA86BAB6BAA6B179EAC91AE6BAD6BBA
:1021B000AF6BB06BB46BB36BB26BB16BB86BB76B2F
:1021C000B66BB56BC150C00B0F09C16E070EB46E74
:1021D0003E0E326E200E336E5E0E346E356A366AF7
:1021E000376A386A396A3A6A3B6A3C6A446A456ABD
:1021F000466A476A486A496A4A6A4B6A4C6A4D6A43
:102200004E6A4F6A506A516A526A536A546A556AF2
:10221000566A576A586A596A5A6A5B6A5C6A5D6AA2
:102220005E6A5F6A606B616B626B636B646B656B4C
:10223000666B676B686B696B6A6B6B6B6C6B6D6BFA
:102240006E6B6F6B706B716B726B736B746B756BAA
:10225000766B776B786B796B7A6B7B6B7C6B7D6B5A
:102260007E6B7F6B806B816B826B836B846B856B0A
:10227000866B876B886B896B8A6B8B6B8C6B8D6BBA
:102280008E6B8F6B906B916B926B936BBA6BF0EC68
:1022900003F08B9494948B929492A6EF04F029EF20
:1022A00005F077EF05F0A1EF06F0BA6BF0EC03F064
:1022B0008B9494948B9294921852D8A401D2010ECC
:1022C000CC6FCD6FB9EC04F04A0EF66E020EF76ECD
:1022D00019EC05F0010ECC6F020ECD6FB9EC04F0D5
:1022E000600EF66E020EF76E19EC05F0010ECC6F63
:1022F000030ECD6FB9EC04F0760EF66E020EF76E9B
:102300000A0EBE6F6BEC08F035C0BAF01F0EBB6F43
:102310008EEC08F036C0BAF01F0EBB6F8EEC08F0E2
:1023200037C0BAF01F0EBB6F8EEC08F038C0BAF0A1
:102330001F0EBB6F8EEC08F0200ECB6FEAEC04F0A2
:10234000200ECB6FEAEC04F01BC0CCF0040ECD6F76
:10235000B9EC04F034C0CBF0EAEC04F01B500B08ED
:102360000FE21B500D080CE3010E1B5CBA6FCC6F23
:10237000040ECD6FB9EC04F033C0CBF0EAEC04F0FE
:10238000179A928A80BA19D0140ED16F32EC04F0E9
:10239000928A80BA11D016B60FD00B0E1B5C036A5E
:1023A000350FE96E000E0320EA6EEF2A16861E0E28
:1023B000D16F32EC04F0178A01D01696968084B063
:1023C00019D0140ED16F32EC04F0968084B011D085
:1023D00016BA0FD00B0E1B5C036A350FE96E000EA8
:1023E0000320EA6EEF06168A1E0ED16F32EC04F05F
:1023F000178A01D0169A968284B215D0140ED16F26
:1024000032EC04F0968284B20DD016B80BD0168848
:102410001B2A1E0ED16F32EC04F00C0ECB6FEAECCF
:1024200004F0178A01D01698968484B415D0960EBD
:10243000D16F32EC04F0968484B40DD016BC0BD06E
:10244000168C1B061E0ED16F32EC04F00C0ECB6FF7
:10245000EAEC04F0178A01D0169C0B0E1B5C036A91
:10246000350FE96E000E0320EA6EEFBE01D00AD0F0
:102470000B0E1B5C036A350FE96E000E0320EA6E3B
:10248000090EEF6E0B0E1B5C036A350FE96E000E32
:102490000320EA6EEFBE0CD0EF50090809E20B0EE4
:1024A0001B5C036A350FE96E000E0320EA6EEF6ACB
:1024B0001B500A0802E30B0E1B6E1B500E08D8B00F
:1024C000FFD0355003086DE1365008086AE13750F7
:1024D000090867E13850020864E1A96AA86AA69C65
:1024E000A69EA684F250006EF29E0F01550EA76EB6
:1024F000AA0EA76EA682A6B2FED7A6940050F2122C
:10250000140E0001D16F32EC04F0010EA96EA86A1E
:10251000A69CA69EA684F250006EF29E0F01550E58
:10252000A76EAA0EA76EA682A6B2FED7A6940050EA
:10253000F212140E0001D16F32EC04F0020EA96EFB
:10254000A86AA69CA69EA684F250006EF29E0F0179
:10255000550EA76EAA0EA76EA682A6B2FED7A694A7
:102560000050F212140E0001D16F32EC04F0030E91
:10257000A96EA86AA69CA69EA684F250006EF29E42
:102580000F01550EA76EAA0EA76EA682A6B2FED7A1
:10259000A6940050F212140E0001D16F32EC04F038
:1025A000FF003950355C4FE13A50365C4CE13B500E
:1025B000375C49E13C50385C46E1010ECC6FCD6F91
:1025C000B9EC04F08C0EF66E020EF76E19EC05F005
:1025D000010ECC6F020ECD6FB9EC04F0A00EF66EBA
:1025E000020EF76E19EC05F0010ECC6F030ECD6FE5
:1025F000B9EC04F0B40EF66E020EF76E19EC05F0AD
:10260000010ECC6F040ECD6FB9EC04F0C80EF66E5F
:10261000020EF76E19EC05F0040EBA6FFA0ED16FC8
:1026200032EC04F0BA2FFAD7320E186E0B0E1B6E76
:102630000C0ECB6FEAEC04F0178A356A366A376AFB
:10264000386A178A3DD0010ECC6FCD6FB9EC04F01B
:10265000010ECC6F020ECD6FB9EC04F0DC0EF66EFD
:10266000020EF76E19EC05F0010ECC6F030ECD6F64
:10267000B9EC04F0F00EF66E020EF76E19EC05F0F0
:10268000010ECC6F040ECD6FB9EC04F0040EF66EA3
:10269000030EF76E19EC05F0040EBA6FFA0ED16F47
:1026A00032EC04F0BA2FFAD70B0E1B6E0C0ECB6F68
:1026B000EAEC04F0178A356A366A376A386A178A8C
:1026C000182C1BD102EC00F0010ECC6FCD6FB9ECD1
:1026D00004F0180EF66E030EF76E19EC05F0010EFD
:1026E0003124BA6FBB6F020EBC6FF4EC08F0020E1F
:1026F0003124BA6FBB6F030EBC6FF4EC08F0030E0D
:102700003124BA6FBB6F040EBC6FF4EC08F0010EFD
:10271000CC6F1CC0CDF0B9EC04F032C0CBF0EAECC9
:1027200004F01C50020814E1010ECC6F040ECD6FB2
:10273000B9EC04F033C0CBF0EAEC04F0010ECC6F3E
:10274000030ECD6FB9EC04F033C0CBF0EAEC04F02B
:102750001C50040814E1010ECC6F020ECD6FB9ECD1
:1027600004F033C0CBF0EAEC04F0010ECC6F030EA2
:10277000CD6FB9EC04F033C0CBF0EAEC04F01C50A0
:10278000030814E1010ECC6F040ECD6FB9EC04F018
:1027900033C0CBF0EAEC04F0010ECC6F020ECD6F2B
:1027A000B9EC04F033C0CBF0EAEC04F0179A928A4B
:1027B00080BA15D0140ED16F32EC04F0928A80BA30
:1027C0000DD016B60BD01E061C06010E1C241D6E65
:1027D00016860A0ED16F32EC04F0178A01D01696D5
:1027E000968084B015D0140ED16F32EC04F0968030
:1027F00084B00DD016BA0BD01E2A1C2A010E1C5C08
:102800001D6E168A0A0ED16F32EC04F0178A01D0C1
:10281000169A1E50205C08E2312A1EC020F0020EDB
:10282000205C1F6E040E1C6E1F501E5C08E23106F9
:102830001EC01FF0020E1F24206E020E1C6E1E50C2
:10284000195C09E21AC01EF0020E1C6E316A1EC02D
:102850001FF01F24206E1A501E5C0BE219C01EF0E0
:10286000040E1C6E195C316E1EC020F0020E205C3E
:102870001F6E31BE01D001D0316A968284B223D05E
:10288000140ED16F32EC04F0968284B21AD016B8CE
:1028900018D016881EC018F0030E1C6E020EBA6FF8
:1028A000960ED16F32EC04F0BA2FFAD70C0ECB6F24
:1028B000EAEC04F01850060804E1356A366A376A13
:1028C000386A178A01D01698968484B416D0140EEC
:1028D000D16F32EC04F0968484B40FD0020EBA6F3C
:1028E000FA0ED16F32EC04F0BA2FFAD7320E186E0E
:1028F0000C0ECB6FEAEC04F0178A18500208D8A42B
:102900002AD102EC00F0010ECC6FCD6FB9EC04F0CF
:102910002E0EF66E030EF76E19EC05F0010ECC6F5D
:10292000020ECD6FB9EC04F0440EF66E030EF76E96
:1029300019EC05F0060ECC6F030ECD6FB9EC04F068
:1029400029C0BAF0030EBB6F5CEC09F03A0ECB6FF6
:10295000EAEC04F02AC0BAF0010EBB6F5CEC09F09F
:10296000630EF66E030EF76E080EBE6F6BEC08F08A
:10297000060E2E24BA6FCC6F040ECD6FB9EC04F0A6
:1029800034C0CBF0EAEC04F0179A928A80BA26D0D1
:10299000140ED16F32EC04F0928A80BA1FD02E2C24
:1029A0000DD02950EF080AE3050E2926020EBA6F52
:1029B000960ED16F32EC04F0BA2FFAD72E500408DD
:1029C0000CE12A503A0809E32A2A020EBA6F960E41
:1029D000D16F32EC04F0BA2FFAD7178A968084B000
:1029E00024D0140ED16F32EC04F0968084B01DD048
:1029F0002E2C0CD029520AE0050E295E020EBA6F69
:102A0000960ED16F32EC04F0BA2FFAD72E5004088C
:102A10000BE12A5209E02A06020EBA6F960ED16F18
:102A200032EC04F0BA2FFAD7178A968284B21ED0FD
:102A3000140ED16F32EC04F0968284B217D02E2C93
:102A400003D0040E2E6E05D02E50040802E1010EB4
:102A50002E6E020EBA6FFA0ED16F32EC04F0BA2F5E
:102A6000FAD70C0ECB6FEAEC04F0178A968484B484
:102A700072D0968484B46FD0C80ED16F32EC04F05B
:102A80000C0ECB6FEAEC04F0010ECC6F020ECD6F92
:102A9000B9EC04F06C0EF66E030EF76E19EC05F04F
:102AA000010ECC6F030ECD6FB9EC04F07E0EF66E06
:102AB000030EF76E19EC05F0050EA96E29C0A8FFEC
:102AC000A69CA69EA684F250006EF29E0F01550EA3
:102AD000A76EAA0EA76EA682A6B2FED7A694005035
:102AE000F212140E0001D16F32EC04F0060EA96E42
:102AF0002AC0A8FFA69CA69EA684F250006EF29E55
:102B00000F01550EA76EAA0EA76EA682A6B2FED71B
:102B1000A6940050F212140E0001D16F32EC04F0B2
:102B200029C027F02AC028F0040EBA6FAF0ED16F6B
:102B300032EC04F0BA2FFAD71E0ED16F32EC04F04B
:102B4000010E186E316A020E1C6E1E6E0C0ECB6FDB
:102B5000EAEC04F0178A18500308D8A4A5D102ECB7
:102B600000F0010ECC6FCD6FB9EC04F0900EF66E54
:102B7000030EF76E19EC05F0010ECC6F020ECD6F4F
:102B8000B9EC04F0A60EF66E030EF76E19EC05F024
:102B9000010ECC6F030ECD6FB9EC04F0BC0EF66ED7
:102BA000030EF76E0A0EBE6F6BEC08F035C0BAF07C
:102BB0001F0EBB6F8EEC08F036C0BAF01F0EBB6F55
:102BC0008EEC08F037C0BAF01F0EBB6F8EEC08F029
:102BD00038C0BAF01F0EBB6F8EEC08F0200ECB6F22
:102BE000EAEC04F0200ECB6FEAEC04F01BC0CCF052
:102BF000040ECD6FB9EC04F034C0CBF0EAEC04F075
:102C00001B500B080FE21B500D080CE3010E1B5C60
:102C1000BA6FCC6F040ECD6FB9EC04F033C0CBF0BB
:102C2000EAEC04F0179A928A80BA19D0140ED16F88
:102C300032EC04F0928A80BA11D016B60FD00B0E87
:102C40001B5C036A350FE96E000E0320EA6EEF2A63
:102C500016861E0ED16F32EC04F0178A01D016963C
:102C6000968084B019D0140ED16F32EC04F09680A7
:102C700084B011D016BA0FD00B0E1B5C036A350F4F
:102C8000E96E000E0320EA6EEF06168A1E0ED16F63
:102C900032EC04F0178A01D0169A968284B215D0CD
:102CA000140ED16F32EC04F0968284B20DD016B8B7
:102CB0000BD016881B2A1E0ED16F32EC04F00C0EBE
:102CC000CB6FEAEC04F0178A01D01698968484B48E
:102CD00015D0960ED16F32EC04F0968484B40DD0EA
:102CE00016BC0BD0168C1B061E0ED16F32EC04F0F6
:102CF0000C0ECB6FEAEC04F0178A01D0169C0B0E79
:102D00001B5C036A350FE96E000E0320EA6EEFBE0E
:102D100001D00AD00B0E1B5C036A350FE96E000E62
:102D20000320EA6E090EEF6E0B0E1B5C036A350F73
:102D3000E96E000E0320EA6EEFBE0CD0EF500908DA
:102D400009E20B0E1B5C036A350FE96E000E0320CF
:102D5000EA6EEF6A1B500A0810E30B0E1B6E010EA1
:102D6000186E316A356A366A376A386A178A0B0E06
:102D70001B6E0C0ECB6FEAEC04F01B500E08D8B0A3
:102D800093D03950355C4EE13A50365C4BE13B50C4
:102D9000375C48E13C50385C45E1010ECC6FCD6FAB
:102DA000B9EC04F0D20EF66E030EF76E19EC05F0D6
:102DB000010ECC6F020ECD6FB9EC04F0E80EF66E8A
:102DC000030EF76E19EC05F0010ECC6F030ECD6FFC
:102DD000B9EC04F0FE0EF66E030EF76E19EC05F07A
:102DE000010ECC6F040ECD6FB9EC04F0140EF66E2C
:102DF000040EF76E19EC05F0020EBA6FFA0ED16FE1
:102E000032EC04F0BA2FFAD73D0E186E0B0E1B6E83
:102E10000C0ECB6FEAEC04F0356A366A376A386A12
:102E2000178A42D0010ECC6FCD6FB9EC04F02A0E98
:102E3000F66E040EF76E19EC05F0010ECC6F020E63
:102E4000CD6FB9EC04F0400EF66E040EF76E19EC7F
:102E500005F0010ECC6F030ECD6FB9EC04F0560EE9
:102E6000F66E040EF76E19EC05F0010ECC6F040E31
:102E7000CD6FB9EC04F06C0EF66E040EF76E19EC23
:102E800005F0020EBA6FFA0ED16F32EC04F0BA2FD1
:102E9000FAD70B0E1B6E0C0ECB6FEAEC04F0178A00
:102EA000356A366A376A386A18503D08D8A4C4D1E2
:102EB00002EC00F0010ECC6FCD6FB9EC04F0820E85
:102EC000F66E040EF76E19EC05F0010ECC6F020ED3
:102ED000CD6FB9EC04F0980EF66E040EF76E19EC97
:102EE00005F0010ECC6F030ECD6FB9EC04F0AE0E01
:102EF000F66E040EF76E0A0EBE6F6BEC08F035C06E
:102F0000BAF01F0EBB6F8EEC08F036C0BAF01F0E81
:102F1000BB6F8EEC08F037C0BAF01F0EBB6F8EECA3
:102F200008F038C0BAF01F0EBB6F8EEC08F0200E10
:102F3000CB6FEAEC04F0200ECB6FEAEC04F01BC080
:102F4000CCF0040ECD6FB9EC04F034C0CBF0EAEC59
:102F500004F01B500B080FE21B500D080CE3010E90
:102F60001B5CBA6FCC6F040ECD6FB9EC04F033C0AC
:102F7000CBF0EAEC04F0179A928A80BA19D0140EBA
:102F8000D16F32EC04F0928A80BA11D016B60FD00D
:102F90000B0E1B5C036A350FE96E000E0320EA6E10
:102FA000EF2A16861E0ED16F32EC04F0178A01D07C
:102FB0001696968084B019D0140ED16F32EC04F0BE
:102FC000968084B011D016BA0FD00B0E1B5C036A2A
:102FD000350FE96E000E0320EA6EEF06168A1E0E0C
:102FE000D16F32EC04F0178A01D0169A968284B21F
:102FF00011D0968284B20DD016B80BD016881B2A39
:103000001E0ED16F32EC04F00C0ECB6FEAEC04F024
:10301000178A01D01698968484B415D0960ED16F75
:1030200032EC04F0968484B40DD016BC0BD0168C10
:103030001B061E0ED16F32EC04F00C0ECB6FEAECC7
:1030400004F0178A01D0169C0B0E1B5C036A350F27
:10305000E96E000E0320EA6EEFBE01D00AD00B0E1F
:103060001B5C036A350FE96E000E0320EA6E090E41
:10307000EF6E0B0E1B5C036A350FE96E000E03202A
:10308000EA6EEFBE0CD0EF50090809E20B0E1B5C94
:10309000036A350FE96E000E0320EA6EEF6A1B50DB
:1030A0000A080FE30B0E1B6E010E186E356A366AA6
:1030B000376A386A178A0B0E1B6E0C0ECB6FEAEC60
:1030C00004F01B500E08D8B0B7D0010ECC6FCD6FF6
:1030D000B9EC04F0C40EF66E040EF76E19EC05F0B0
:1030E000010ECC6F020ECD6FB9EC04F0DA0EF66E65
:1030F000040EF76E19EC05F0010ECC6F030ECD6FC8
:10310000B9EC04F0F00EF66E040EF76E19EC05F053
:10311000010ECC6F040ECD6FB9EC04F0060EF66E06
:10312000050EF76E19EC05F0A96A35C0A8FFA69C3C
:10313000A69EA684F250006EF29E0F01550EA76E59
:10314000AA0EA76EA682A6B2FED7A6940050F212CF
:10315000140E0001D16F32EC04F0010EA96E36C0DE
:10316000A8FFA69CA69EA684F250006EF29E0F01B8
:10317000550EA76EAA0EA76EA682A6B2FED7A6947B
:103180000050F212140E0001D16F32EC04F0020E66
:10319000A96E37C0A8FFA69CA69EA684F250006E1A
:1031A000F29E0F01550EA76EAA0EA76EA682A6B2BA
:1031B000FED7A6940050F212140E0001D16F32EC2B
:1031C00004F0030EA96E38C0A8FFA69CA69EA68494
:1031D000F250006EF29E0F01550EA76EAA0EA76E5A
:1031E000A682A6B2FED7A6940050F212140E0001D9
:1031F000D16F32EC04F0020EBA6FFA0ED16F32ECDE
:1032000004F0BA2FFAD7010E186E316A020E1C6E46
:103210001E6E35C039F036C03AF037C03BF038C0CA
:103220003CF0356A366A376A386A178A0B0E1B6EAD
:103230000C0ECB6FEAEC04F018500408D8A409D1A6
:1032400002EC00F0010ECC6FCD6FB9EC04F01C0E57
:10325000F66E050EF76E19EC05F0010ECC6F020E3E
:10326000CD6FB9EC04F0320EF66E050EF76E0B0E54
:10327000BE6F6BEC08F0080EE96E41C0BBF040C0B9
:10328000BAF092EF09F0200ECB6FEAEC04F0200EBA
:10329000CB6FEAEC04F0200ECB6FEAEC04F0010EE9
:1032A000CC6F040ECD6FB9EC04F0460EF66E050E31
:1032B000F76E19EC05F0179A928A80BAA8D0968218
:1032C00084B2A5D0140ED16F32EC04F0928A80BA89
:1032D0009ED0968284B29BD0C80ED16F32EC04F09F
:1032E0000C0ECB6FEAEC04F0010ECC6F020ECD6F2A
:1032F000B9EC04F05C0EF66E050EF76E19EC05F0F5
:10330000010ECC6F030ECD6FB9EC04F06E0EF66EAD
:10331000050EF76E19EC05F0070EA96EA86AA69CBB
:10332000A69EA684F250006EF29E0F01550EA76E67
:10333000AA0EA76EA682A6B2FED7A6940050F212DD
:10334000140E0001D16F32EC04F0080EA96EA86AC9
:10335000A69CA69EA684F250006EF29E0F01550E0A
:10336000A76EAA0EA76EA682A6B2FED7A69400509C
:10337000F212140E0001D16F32EC04F0090EA96EA6
:10338000A86AA69CA69EA684F250006EF29E0F012B
:10339000550EA76EAA0EA76EA682A6B2FED7A69459
:1033A0000050F212140E0001D16F32EC04F00A0E3C
:1033B000A96EA86AA69CA69EA684F250006EF29EF4
:1033C0000F01550EA76EAA0EA76EA682A6B2FED753
:1033D000A6940050F212040E0001BA6FAF0ED16F26
:1033E00032EC04F0BA2FFAD7216A226A416A406AA5
:1033F0001E0ED16F32EC04F0010E186E316A020E0F
:103400001C6E1E6E0C0ECB6FEAEC04F0178A9684CD
:1034100084B41ED0140ED16F32EC04F0968484B4C0
:1034200016D016BC14D0168C020EBA6FFA0ED16FDD
:1034300032EC04F0BA2FFAD7010E186E316A020E80
:103440001C6E1E6E0C0ECB6FEAEC04F0178A01D0D6
:10345000169C18500508D8A42AD102EC00F0010EE1
:10346000CC6FCD6FB9EC04F0800EF66E050EF76EE2
:1034700019EC05F0010ECC6F020ECD6FB9EC04F023
:10348000050EBA6F73EC0CF000C0BAF001C0BBF0CF
:1034900002C0BCF003C0BDF003C0D1F002C0D0F048
:1034A00001C0CFF000C0CEF0D70ED56FA30ED46F01
:1034B000D36B810ED26F18EC0AF000C0BAF001C0D5
:1034C000BBF002C0BCF003C0BDF0960EF66E050E58
:1034D000F76E090EBE6F6BEC08F0020EE96EBDC010
:1034E000C1F0BCC0C0F0BBC0BFF0BAC0BEF0C26F7C
:1034F000F7EC0DF0A40EF66E050EF76E070EBE6F1C
:103500006BEC08F0010ECC6F030ECD6FB9EC04F03C
:10351000CB6BEDEC09F000C0BAF001C0BBF002C00B
:10352000BCF003C0BDF0AC0EF66E050EF76E080ED3
:10353000BE6F6BEC08F0010EE96EBDC0C1F0BCC0FF
:10354000C0F0BBC0BFF0BAC0BEF0C26BF7EC0DF06C
:10355000010ECC6F040ECD6FB9EC04F0BA0EF66E0E
:10356000050EF76E070EBE6F6BEC08F0010EE96EEC
:10357000A7C0C1F0A6C0C0F0A5C0BFF0A4C0BEF0F7
:10358000C26BF7EC0DF0179A968284B270D0140ECD
:10359000D16F32EC04F0968284B268D016B866D04F
:1035A000010E186E316A020E1C6E1E6E0B0E1B6E23
:1035B000020EBA6FFA0ED16F32EC04F0BA2FFAD7BE
:1035C0000C0ECB6FEAEC04F0CB6BEDEC09F003C012
:1035D000A7F002C0A6F001C0A5F000C0A4F0A7C0EB
:1035E000D1F0A6C0D0F0A5C0CFF0A4C0CEF0BAEC08
:1035F0000EF002C043F001C042F042C025F043C0CB
:1036000026F00B0EA96E25C0A8FFA69CA69EA68438
:10361000F250006EF29E0F01550EA76EAA0EA76E15
:10362000A682A6B2FED7A6940050F212140E000194
:10363000D16F32EC04F00C0EA96E26C0A8FFA69C38
:10364000A69EA684F250006EF29E0F01550EA76E44
:10365000AA0EA76EA682A6B2FED7A6940050F212BA
:10366000140E0001D16F32EC04F0178A01D01698C5
:10367000968484B41BD0140ED16F32EC04F096847F
:1036800084B413D016BC11D0010E186E316A020E2C
:103690001C6E1E6E0B0E1B6E1E0ED16F32EC04F0F4
:1036A0000C0ECB6FEAEC04F0178A01D0169C185070
:1036B0000608D8A493D017781688010E186E316AC0
:1036C00017A830D01788010ECC6FCD6FB9EC04F07D
:1036D000C80EF66E050EF76E19EC05F0010ECC6FF4
:1036E000020ECD6FB9EC04F0DE0EF66E050EF76E2D
:1036F00019EC05F0010ECC6F030ECD6FB9EC04F0A0
:10370000F40EF66E050EF76E19EC05F0010ECC6F97
:10371000040ECD6FB9EC04F00A0EF66E060EF76ECD
:1037200019EC05F017B830D01798010ECC6FCD6F9B
:10373000B9EC04F0200EF66E060EF76E19EC05F0EB
:10374000010ECC6F020ECD6FB9EC04F0360EF66EA2
:10375000060EF76E19EC05F0010ECC6F030ECD6F5F
:10376000B9EC04F04C0EF66E060EF76E19EC05F08F
:10377000010ECC6F040ECD6FB9EC04F0620EF66E44
:10378000060EF76E19EC05F0000E17B8010EBA6FB1
:10379000040EA96EBAC0A8FFA69CA69EA684F250ED
:1037A000006EF29E0F01550EA76EAA0EA76EA6829E
:1037B000A6B2FED7A6940050F212040E0001BA6F12
:1037C000FA0ED16F32EC04F0BA2FFAD7020E1C6E4B
:1037D0001E6E0C0ECB6FEAEC04F0178A1850070827
:1037E000D8A4CCD0B051060802E2060EB06FB05398
:1037F00002E1010EB06F010ECC6FCD6FB9EC04F099
:10380000780EF66E060EF76E19EC05F0010ECC6F11
:10381000020ECD6FB9EC04F08E0EF66E060EF76E4A
:1038200019EC05F0010ECC6F030ECD6FB9EC04F06E
:10383000A40EF66E060EF76E0A0EBE6F6BEC08F065
:10384000B0C0BAF01B0EBB6F5CEC09F0B00EF66EA8
:10385000060EF76E070EBE6F6BEC08F0010ECC6F14
:10386000040ECD6FB9EC04F0B80EF66E060EF76ECE
:1038700019EC05F0928A80BA08D0B051050805E32A
:10388000640ED16F32EC04F0B02B968084B007D078
:10389000B05305E0640ED16F32EC04F0B0079682AD
:1038A00084B204D0B0C0BAF0F0EC03F0968484B4D3
:1038B00065D0640ED16F32EC04F0020E1C6E1E6EE9
:1038C0000C0ECB6FEAEC04F00D0EA96EB0C0A8FF91
:1038D000A69CA69EA684F250006EF29E0F01550E85
:1038E000A76EAA0EA76EA682A6B2FED7A694005017
:1038F000F212140E0001D16F32EC04F0010ECC6F05
:10390000CD6FB9EC04F0CE0EF66E060EF76E19EC24
:1039100005F0010ECC6F020ECD6FB9EC04F0E40E91
:10392000F66E060EF76E19EC05F0010ECC6F030E65
:10393000CD6FB9EC04F0FA0EF66E060EF76E19ECC8
:1039400005F0010ECC6F040ECD6FB9EC04F0100E33
:10395000F66E070EF76E19EC05F0040EBA6FFA0E4C
:10396000D16F32EC04F0BA2FFAD70C0ECB6FEAEC21
:1039700004F07AEC04F0010E186E316A1850320827
:10398000D8A406D317A02BD11790050EBA6F73ECED
:103990000CF003C0A3F002C0A2F001C0A1F000C06F
:1039A000A0F0010ECC6FCD6FB9EC04F0A3C0D1F044
:1039B000A2C0D0F0A1C0CFF0A0C0CEF0D70ED56F7E
:1039C000A30ED46FD36B810ED26F18EC0AF000C037
:1039D000BAF001C0BBF002C0BCF003C0BDF0260EBF
:1039E000F66E070EF76E080EBE6F6BEC08F0020E57
:1039F000E96EBDC0C1F0BCC0C0F0BBC0BFF0BAC072
:103A0000BEF0C26FF7EC0DF0330EF66E070EF76ED8
:103A1000070EBE6F6BEC08F0D882A3C0D5F0A2C031
:103A2000D4F0A1C0D3F0A0C0D2F0D96B910ED86F62
:103A30007E0ED76F7B0ED66F3EEC0BF000C0BAF057
:103A400001C0BBF002C0BCF003C0BDF003C0D2F0A7
:103A500002C0D1F001C0D0F000C0CFF0E10ED66FAF
:103A60007A0ED56F140ED46F7D0ED36F91EC0AF0E1
:103A700000C0BAF001C0BBF002C0BCF003C0BDF092
:103A800003C0D1F002C0D0F001C0CFF000C0CEF032
:103A9000D56BD46B200ED36F830ED26F18EC0AF067
:103AA00003C09FF002C09EF001C09DF000C09CF0DA
:103AB000D16BD06B300ECF6F820ECE6F9FC0D5F022
:103AC0009EC0D4F09DC0D3F09CC0D2F066EC06F04E
:103AD00006E39F6B9E6B300E9D6F820E9C6F2D6A6E
:103AE0009FC0BDF09EC0BCF09DC0BBF09CC0BAF0B2
:103AF00075EC10F000C0BAF001C0BBF002C0BCF021
:103B000003C0BDF0D36B2DC0D2F05CEC05F003C058
:103B1000D1F002C0D0F001C0CFF000C0CEF0BDC0E7
:103B2000D5F0BCC0D4F0BBC0D3F0BAC0D2F066ECC4
:103B300006F00EE3080E2D24BA6FCC6F020ECD6F87
:103B4000B9EC04F0D10ECB6FEAEC04F02D2AC8D703
:103B50009FC0BDF09EC0BCF09DC0BBF09CC0BAF041
:103B600075EC10F003C0D1F002C0D0F001C0CFF06E
:103B700000C0CEF0BAEC0EF001C02DF02D500A08B6
:103B80000EE3080E2D24BA6FCC6F020ECD6FB9EC88
:103B900004F0200ECB6FEAEC04F02D2AEFD7090ECB
:103BA000CC6F030ECD6FB9EC04F03C0EF66E070E31
:103BB000F76E060EBE6F6BEC08F027C0BAF0030E6E
:103BC000BB6F5CEC09F03A0ECB6FEAEC04F028C056
:103BD000BAF0010EBB6F5CEC09F002EC00F016AE1F
:103BE0004CD017A845D00C0ECB6FEAEC04F0010EB8
:103BF000CC6F020ECD6FB9EC04F04C0EF66E070ED2
:103C0000F76E19EC05F0010ECC6F030ECD6FB9EC19
:103C100004F0620EF66E070EF76E19EC05F0010E59
:103C2000CC6F040ECD6FB9EC04F0780EF66E070E73
:103C3000F76E19EC05F0010ECC6FCD6FB9EC04F006
:103C40008E0EF66E070EF76E19EC05F02D6A2D50EC
:103C500004080EE38B809490C80ED16F32EC04F010
:103C60008B909490C80ED16F32EC04F02D2AEFD7D0
:103C7000169E0C0ECB6FEAEC04F0850ED16FEB0EA6
:103C8000D06F110ECF6F7D0ECE6FA3C0D5F0A2C046
:103C9000D4F0A1C0D3F0A0C0D2F066EC06F001E2EF
:103CA00003E1010E3D6E03D03D6A8B909490010EAE
:103CB000CC6F020ECD6FB9EC04F0A40EF66E070EB9
:103CC000F76E19EC05F016A40DD0010ECC6F040EA2
:103CD000CD6FB9EC04F0AC0EF66E070EF76E19EC72
:103CE00005F00CD0010ECC6F040ECD6FB9EC04F0D2
:103CF000B60EF66E070EF76E19EC05F016A00DD095
:103D00000D0ECC6F040ECD6FB9EC04F0C00EF66E44
:103D1000070EF76E19EC05F00CD00D0ECC6F040EEB
:103D2000CD6FB9EC04F0C80EF66E070EF76E19EC05
:103D300005F016A20DD0010ECC6F030ECD6FB9ECBD
:103D400004F0D00EF66E070EF76E19EC05F00CD0ED
:103D5000010ECC6F030ECD6FB9EC04F0D80EF66EE9
:103D6000070EF76E19EC05F0179A16A415D017BCBC
:103D70000ED0060EBA6FF0EC03F07AEC04F0C80E29
:103D8000D16F32EC04F07AEC04F0178C178AB0C0D3
:103D9000BAF0F0EC03F00FD0BA6BF0EC03F017AC14
:103DA0000AD07AEC04F0C80ED16F32EC04F07AEC51
:103DB00004F0179C178A16A20FD08A98939817B40C
:103DC0000AD07AEC04F0C80ED16F32EC04F07AEC31
:103DD00004F01784178A0ED08A88939817A40AD003
:103DE0007AEC04F0C80ED16F32EC04F07AEC04F0F7
:103DF0001794178A968084B015D0140ED16F32ECC8
:103E000004F0968084B00DD016B60BD016721686CC
:103E1000020EBA6F960ED16F32EC04F0BA2FFAD7B9
:103E2000178A01D01696968284B215D0140ED16FDF
:103E300032EC04F0968284B20DD016B80BD0167412
:103E40001688020EBA6F960ED16F32EC04F0BA2FBC
:103E5000FAD7178A01D01698968484B40DD0140E20
:103E6000D16F32EC04F0968484B406D0960ED16FF4
:103E700032EC04F01670178A928A80BA1AD0140EA7
:103E8000D16F32EC04F0928A80BA13D00C0ECB6F53
:103E9000EAEC04F0020EBA6F960ED16F32EC04F029
:103EA000BA2FFAD7010E186E316A020E1C6E1E6E02
:103EB000178A302C61D0070EA96E21C0A8FFA69CDE
:103EC000A69EA684F250006EF29E0F01550EA76EBC
:103ED000AA0EA76EA682A6B2FED7A6940050F21232
:103EE000080EA96E22C0A8FFA69CA69EA684F2502A
:103EF000006EF29E550EA76EAA0EA76EA682A6B2FF
:103F0000FED7A6940050F21240C023F041C024F026
:103F1000090EA96E23C0A8FFA69CA69EA684F2CF78
:103F200000F0F29E550EA76EAA0EA76EA682A6B24C
:103F3000FED7A6940050F212140E0001D16F32EC9D
:103F400004F00A0EA96E24C0A8FFA69CA69EA68413
:103F5000F250006EF29E0F01550EA76EAA0EA76ECC
:103F6000A682A6B2FED7A6940050F212140E00014B
:103F7000D16F32EC04F0306A21503B0802E2216A32
:103F8000222A22503C0804E1226A402AD8B4412A5D
:103F90002F503B080AE27AEC04F0C80ED16F32ECE5
:103FA00004F07AEC04F02F6A178A5CEF11F003003A
:020000040030CA
:0E0000003CCE3F1E000781000FC00FE00F40F6
:00000001FF
;PIC18F4550
;CRC=8C22  CREATED="01-sept.-20 09:28"
