:060000003DEF14F0000CBE
:0800080053EF00F000000000BE
:100010000000000000000000046ED8CF05F0E0CF23
:1000200006F00001E9CF0CF0EACF07F0E1CF08F0CD
:10003000E2CF09F0D9CF0AF0DACF0BF0F3CF12F00C
:10004000F4CF13F0FACF14F000C00EF001C00FF09F
:1000500002C010F003C011F09DA032EF00F09EB07E
:1000600079EF01F00EC000F00FC001F010C002F0F7
:1000700011C003F00CC0E9FF07C0EAFF078E08C0FB
:10008000E1FF09C0E2FF0AC0D9FF0BC0DAFF12C0CE
:10009000F3FF13C0F4FF14C0FAFF045006C0E0FFE2
:1000A00005C0D8FF1000166ED8CF17F0E0CF18F0BB
:1000B0000001E9CF1EF0EACF19F0E1CF1AF0E2CF4C
:1000C0001BF0D9CF1CF0DACF1DF0F3CF24F0F4CF22
:1000D00025F0FACF26F000C020F001C021F002C0C8
:1000E00022F003C023F0F2AA79EF00F0F2B460EF3F
:1000F00001F0F2A87FEF00F0F2B224EF01F020C08F
:1001000000F021C001F022C002F023C003F01EC0A5
:10011000E9FF19C0EAFF198E1AC0E1FF1BC0E2FF18
:100120001CC0D9FF1DC0DAFF24C0F3FF25C0F4FFB7
:1001300026C0FAFF165018C0E0FF17C0D8FF100005
:10014000F2CF0DF0F29CF29EF76A600FF66E010E90
:10015000F7220900F5500DBCF28C0DBEF28E120094
:10016000280C010654656D706F72697A61646F7254
:10017000205556202020200043616D62696F204386
:100180006F6E7472617365F1612020005469656D52
:10019000706F2054726162616A6F202020202000FD
:1001A00050756E746F204365726F202020202020D0
:1001B00020202000416C61726D61202020202020D1
:1001C000202020204F464600416C61726D61202046
:1001D0002020202020202020204F4E0056656C6FCC
:1001E00063696461642020202020202020202000DA
:1001F000202020202020204D4F44554C4F202020EF
:10020000202020200000202020464C554A4F204C22
:10021000414D494E41522020202000002020202026
:100220004A502020494E474C4F42414C202020202C
:1002300000002020205245463A4A504D4F44343861
:100240002D524420202000002B8ACE51050808E1C1
:10025000D76AE40ED66E8B9494948B9294922AD0A3
:10026000CE51040808E1D76AC90ED66E8B949494D7
:100270008B9294921FD0CE51030808E1D76AC40E26
:10028000D66E8B9494948B92949214D0CE51020893
:1002900008E1D76ABC0ED66E8B9494948B9294929C
:1002A00009D0CE2D07D0D76AB40ED66E8B94949415
:1002B0008B929492C32BD8B4C42BF2927FEF00F0B0
:1002C000CE5314E0CE51050811E32BAA09D08B843C
:1002D00094948B829492D76AFD0ED66E2B9A06D098
:1002E0008B9494948B929492D76AD66AF2947FEF0F
:1002F00000F09E0ECF6E580ECE6E592AD8B45A2AF0
:100300005A5203E15950C7082EE2929689765A6AEA
:10031000596A432A2A80532C0AD02AB603D08B90DC
:10032000949004D02AA802D08B8094902A7629A495
:1003300003D0C72BD8B4C82B29A015D0352A29BE85
:1003400012D03C5202E03C060ED03B5204E03B0689
:100350003B0E3C6E08D0298E29908A8693963DC02C
:100360003BF03EC03CF09E9032EF00F02020202079
:1003700020496E6772657365202020202020202090
:10038000000020202020436F6E7472617365F1615C
:10039000202020202020000020202020434C4156F7
:1003A000453D256925692569256920200000202013
:1003B000202020202020202020202020202020203D
:1003C00020002020202020436F6E7472617365F13D
:1003D000612020202000202020202020436F7272E6
:1003E0006563746120202020200020202020202010
:1003F000202020202020202020202020200020201D
:10040000202020436F6E7472617365F1612020209B
:1004100020002020202020496E636F727265637473
:1004200061202020200020202020202020202020AB
:10043000202020202020202020002D2D2D4D454E35
:1004400055205052494E434950414C2D2D2D00000E
:100450002020202054656D706F72697A61646F721C
:10046000202020202000202020202020204C757AD1
:1004700020555620202020202020200025303375B4
:100480003A2530327520284D3A53292020005469EE
:10049000656D706F20416C6D6163656E61646F00A6
:1004A0002020436F7272656374616D656E746520A0
:1004B00020002020202020496E677265736520206F
:1004C000202020202020000020202020436F6E7458
:1004D00072617365F161202020202020000020201F
:1004E0002020434C4156453D2569256925692569EC
:1004F000202000002020202020202020202020203C
:100500002020202020202020000020202020204308
:100510006F6E7472617365F16120202020200000ED
:10052000202020202020436F727265637461202098
:1005300020202020000020202020202020202020FB
:1005400020202020202020202020000020202020EB
:10055000202020202020202020202020202020209B
:1005600000002020202020436F6E7472617365F1BB
:1005700061202020202000002020202020496E63C0
:100580006F7272656374612020202020000020209B
:10059000202020202020202020202020202020205B
:1005A00020200000202020496E6772657365204E70
:1005B0007565766120202020000020202020204327
:1005C0006F6E7472617365F161202020202000003D
:1005D00020202020434C4156453D25692569256949
:1005E00025692020000020202020202020202020FD
:1005F000202020202020202020200000202020203B
:1006000020436F6E7472617365F161202020202099
:1006100000002020202020416C6D6163656E6164C4
:1006200061202020202000002020202020202020C9
:1006300020202020202020202020202000002020FA
:100640005469656D706F2064652054726162616ADF
:100650006F2000002020205469656D706F3D2025BB
:1006600030354C75202020002052455345543D2004
:100670004F7072696D61205E2079203E200020520B
:1006800065736574206465207469656D706F200002
:100690002020202020457869746F736F202020204F
:1006A000200020205A65726F20506F696E742043BD
:1006B0006F6E66696720000050726573696F6E3DEA
:1006C0002025332E326620696E48324F20002020CC
:1006D00020204144433D25322E306600202020203A
:1006E0005A463D25322E3066000020202020202052
:1006F000202020202020202020202020202000003A
:10070000202020202020202041637469766F202043
:100710002020202000002020202020202020416CAC
:1007200061726D61202020202020000020202020E8
:1007300020202020202020202020202020202020B9
:1007400000002020202020202020202020202020E9
:100750002020202020200000202020202020446570
:100760007361637469766F202020202000002020B0
:100770002020202020416C61726D612020202020EB
:1007800020200000202020202020202020202020A9
:100790002020202020202020000053656C6563630A
:1007A000696F6E652056656C6F63696461640000F3
:1007B00020202064656C2056656E74696C61646FDE
:1007C000722020200000202020202056656C3A2036
:1007D00025752020202020202000202020202020DF
:1007E0002020202020202020202020202020000049
:1007F00020202020202020202020202020202020F9
:10080000202020200000202020202056656C6F63CF
:100810006964616420202020202000002020202006
:100820002020416C6D6163656E6164612020202031
:1008300000002020202020202020202020202020F8
:1008400020202020202000004A5043522044503ACB
:1008500025332E326620696E48324F200000215623
:10086000657269666971756520466C756A6F2120CD
:100870000000215665726966697175652046696C6C
:1008800074726F21000054656D706F3A25303375B6
:100890003A253032750046696C74726F3A004D6FBC
:1008A000746F723A4F4E20004D6F746F723A4F461C
:1008B000460055563A4F4E20000055563A4F464690
:1008C00000004C757A3A4F4E20004C757A3A4F46EC
:1008D0004600202054656D706F72697A61646F7292
:1008E0002020646520200000204C757A2055562079
:1008F0002046696E616C697A61646F200000202077
:1009000020202020202020202020202020202020E7
:100910002020000020202020202020202020202017
:1009200020202020202020200000EA6AFC0EE96E12
:10093000EF500DE0060E016E006A002EFED7012E6C
:10094000FBD77B0E006E002EFED7EF2EF3D7000CE8
:10095000FE39F00B006E0F0E83140010836E090E2B
:10096000006E002EFED700D083865B0E006E002E38
:10097000FED700008396000CF00E956E8384090E5E
:10098000006E002EFED700D08386090E006E002E6A
:10099000FED700D083380F0BFE6F8396090E006ED2
:1009A000002EFED700D08386310E006E002EFED7BB
:1009B00000D083380F0BFD6F8396000E956EFE39C5
:1009C000006EF00E00160050FD11016EEAEF04F00B
:1009D0008392D2D701C0FDF001BEFBD7FBA1839269
:1009E000FBB18382090E006E002EFED700D08394E7
:1009F000090E006E002EFED700D08396FC39FD6FE5
:100A00000F0EFD17FDC0FEF0A3DFFC510F0BFD6FB5
:100A1000FE6F9EDF000C000E956E8392839483968A
:100A20000F0EFC6F82DF010EE66FE651030808E34C
:100A3000030EFE6F8DDF050EFC6F77DFE62BF5D71B
:100A4000020EFE6F85DFE66BE651030812E3036AD0
:100A5000E651F2CFE7F0F29CF29EA0EC00F0E7BD89
:100A6000F28CE7BFF28EE76FFB6BFC6FB1DFE62B1A
:100A7000EBD7000CC80EFC6F58DFCDDFFF0E926E77
:100A80009682968296829682C00EF212F288F18C3D
:100A9000D180C70ED56EF28A850ECD6E9D80C15075
:100AA000C00B0E09C16EC050C00B0209C06EC08ED3
:100AB000C280C00EF2121FEF15F08E0E006EFFC046
:100AC00001F0FEC002F0036A015209E102C001F028
:100AD000026A080E005E015202E1006A08D0D89056
:100AE00001BE04D0023601360006F9D7019E000C83
:100AF000F2CFE6F0F29CF29EA96AA69CA69EA68082
:100B0000A850E6BDF28CE6BFF28E4F6E140EFC6F5D
:100B10000CDFF2CFE6F0F29CF29E010EA96EA69CCD
:100B2000A69EA680A850E6BDF28CE6BFF28E506E5F
:100B3000140EFC6FFADEF2CFE6F0F29CF29E020E8B
:100B4000A96EA69CA69EA680A850E6BDF28CE6BF24
:100B5000F28E516E140EFC6FE8DEF2CFE6F0F29CDE
:100B6000F29E030EA96EA69CA69EA680A850E6BD86
:100B7000F28CE6BFF28E526E140EFC6FD6DEF2CF10
:100B8000E6F0F29CF29E040EA96EA69CA69EA6809C
:100B9000A850E6BDF28CE6BFF28E016E2A9801B035
:100BA0002A88140EFC6FC1DEF2CFE6F0F29CF29EB2
:100BB000050EA96EA69CA69EA680A850E6BDF28C46
:100BC000E6BFF28E3B6E140EFC6FAFDEF2CFE6F0A6
:100BD000F29CF29E060EA96EA69CA69EA680A85028
:100BE000E6BDF28CE6BFF28E3C6E140EFC6F9DDE0D
:100BF000F2CFE6F0F29CF29E070EA96EA69CA69E8E
:100C0000A680A850E6BDF28CE6BFF28E356E140EBB
:100C1000FC6F8BDEF2CFE6F0F29CF29E080EA96E1E
:100C2000A69CA69EA680A850E6BDF28CE6BFF28EDA
:100C3000366E140EFC6F79DEF2CFE6F0F29CF29E77
:100C4000090EA96EA69CA69EA680A850E6BDF28CB1
:100C5000E6BFF28E376E140EFC6F67DEF2CFE6F061
:100C6000F29CF29E0A0EA96EA69CA69EA680A85093
:100C7000E6BDF28CE6BFF28E386E140EFC6F55DEC8
:100C8000F2CFE6F0F29CF29E0B0EA96EA69CA69EF9
:100C9000A680A850E6BDF28CE6BFF28E396E140E27
:100CA000FC6F43DEF2CFE6F0F29CF29E0C0EA96ED2
:100CB000A69CA69EA680A850E6BDF28CE6BFF28E4A
:100CC0003A6E140EFC6F31DEF2CFE6F0F29CF29E2B
:100CD0000D0EA96EA69CA69EA680A850E6BDF28C1D
:100CE000E6BFF28E586E140EFC6F1FDEF2CFE6F0F8
:100CF000F29CF29E0F0EA96EA69CA69EA680A850FE
:100D0000E6BDF28CE6BFF28E546E140EFC6F0DDE63
:100D1000F2CFE6F0F29CF29E100EA96EA69CA69E63
:100D2000A680A850E6BDF28CE6BFF28E556E140E7A
:100D3000FC6FFBDDF2CFE6F0F29CF29E110EA96E85
:100D4000A69CA69EA680A850E6BDF28CE6BFF28EB9
:100D5000566E140EFC6FE9DD3AC05EF039C05DF0EE
:100D60005EC0FFF05DC0FEF0A8DE03C0C2F002C0AE
:100D7000C1F001C0C0F000C0BFF0F2CFE6F0F29CBD
:100D8000F29E130EA96EA69CA69EA680A850E6BD54
:100D9000F28CE6BFF28EE76FF2CFE8F0F29CF29EA3
:100DA000120EA96EA69CA69EA680A850E8BDF28C45
:100DB000E8BFF28EE96FE7C0CAF0E9C0C9F0140ECF
:100DC000FC6FB3DDF2CFE6F0F29CF29E150EA96E39
:100DD000A69CA69EA680A850E6BDF28CE6BFF28E29
:100DE000E76FF2CFE8F0F29CF29E140EA96EA69C7B
:100DF000A69EA680A850E8BDF28CE8BFF28EE96FEF
:100E0000E7C0C8F0E9C0C7F0140EFC6F8EDDF2CF6A
:100E1000E6F0F29CF29E160EA96EA69CA69EA680F7
:100E2000A850E6BDF28CE6BFF28E456E140EFC6F44
:100E30007CDDF2CFE6F0F29CF29E170EA96EA69C26
:100E4000A69EA680A850E6BDF28CE6BFF28E466E46
:100E5000140EFC6F6ADD38C05CF037C05BF03BC03D
:100E60003DF03CC03EF021EF15F0FBC002F1FF5118
:100E70000101021B02AF06D0D894D8900001FBBF3D
:100E8000D88044D0FBC002F1FEC003F10001FA514A
:100E90000101035F09E002BF02D0000137D0D85042
:100EA000010AD86E000132D0FFC003F10001FB51EE
:100EB0000101035F09E002BF02D0000127D0D85032
:100EC000010AD86E000122D000C103F10001FC51DB
:100ED0000101035F09E002BF02D0000117D0D85022
:100EE000010AD86E000112D001C103F10001FD51C9
:100EF0000101035F0AE002BF02D0000107D0D85011
:100F0000010AD86E000102D00101D8900001000C46
:100F10004FBE03D04F50090802E34FAE19D04F6ABD
:100F2000A96AA86AA69CA69EA684F250006EF29CAE
:100F3000F29E0F01550EA76EAA0EA76EA682A6B24C
:100F4000FED7A6940050F212140E0001FC6FEDDCE7
:100F500050BE03D05050090803E350BE01D01AD050
:100F6000506A010EA96EA86AA69CA69EA684F2509D
:100F7000006EF29CF29E0F01550EA76EAA0EA76E90
:100F8000A682A6B2FED7A6940050F212140E00015B
:100F9000FC6FCBDC51BE03D05150090803E351BEB6
:100FA00001D01AD0516A020EA96EA86AA69CA69E0C
:100FB000A684F250006EF29CF29E0F01550EA76EB1
:100FC000AA0EA76EA682A6B2FED7A6940050F21271
:100FD000140E0001FC6FA9DC52BE03D05250090868
:100FE00003E352BE01D01AD0526A030EA96EA86A5A
:100FF000A69CA69EA684F250006EF29CF29E0F0163
:10100000550EA76EAA0EA76EA682A6B2FED7A6940C
:101010000050F212140E0001FC6F87DC000E2AB89B
:10102000010E01081BE22A88040EA96E010EA86EAB
:10103000A69CA69EA684F250006EF29CF29E0F0122
:10104000550EA76EAA0EA76EA682A6B2FED7A694CC
:101050000050F212140E0001FC6F67DC3B50C80810
:101060001CE2140E3B6E050EA96E140EA86EA69C13
:10107000A69EA684F250006EF29CF29E0F01550EC1
:10108000A76EAA0EA76EA682A6B2FED7A69400509F
:10109000F212140E0001FC6F48DC3C503B081AE2CF
:1010A0003C6A060EA96EA86AA69CA69EA684F2506B
:1010B000006EF29CF29E0F01550EA76EAA0EA76E4F
:1010C000A682A6B2FED7A6940050F212140E00011A
:1010D000FC6F2BDC35503C081AE2356A070EA96E0E
:1010E000A86AA69CA69EA684F250006EF29CF29E70
:1010F0000F01550EA76EAA0EA76EA682A6B2FED746
:10110000A6940050F212140E0001FC6F0EDC365053
:101110003C081BE2366A080EA96EA86AA69CA69E29
:10112000A684F250006EF29CF29E0F01550EA76E3F
:10113000AA0EA76EA682A6B2FED7A6940050F212FF
:10114000140E0001FC6F95EC04F05C5026083CE2A4
:10115000FF0A03E15B50100837E25C6A5B6A090E24
:10116000A96E0A0EA86EA69CA69EA684F250006EDA
:10117000F29CF29E0F01550EA76EAA0EA76EA682D4
:10118000A6B2FED7A6940050F212140E0001FC6F16
:1011900095EC04F00A0EA96EA86AA69CA69EA684E9
:1011A000F250006EF29CF29E0F01550EA76EAA0E31
:1011B000A76EA682A6B2FED7A6940050F212140E15
:1011C0000001FC6F95EC04F0C2C0FDF0C1C0FCF062
:1011D000C0C0FBF0BFC0FAF00101016B006B610EF3
:1011E0000001FF6F870EFE6F40DE10E2FD6BFC6BAF
:1011F000160EFB6F880EFA6FC2C001F1C1C000F17C
:10120000C0C0FFF0BFC0FEF030DE3DE3C26B800E19
:10121000C16F7F0EC06F870EBF6F0B0EA96EFF0EE2
:10122000A86EA69CA69EA684F250006EF29CF29E2A
:101230000F01550EA76EAA0EA76EA682A6B2FED704
:10124000A6940050F212140E0001FC6F95EC04F00D
:101250000C0EA96E010EA86EA69CA69EA684F25046
:10126000006EF29CF29E0F01550EA76EAA0EA76E9D
:10127000A682A6B2FED7A6940050F212140E000168
:10128000FC6F95EC04F0585006081DE2040E586EF1
:101290000D0EA96E040EA86EA69CA69EA684F25002
:1012A000006EF29CF29E0F01550EA76EAA0EA76E5D
:1012B000A682A6B2FED7A6940050F212140E000128
:1012C000FC6F95EC04F0CA51E9083BE2FF0A03E128
:1012D000C951600836E2CA6BC96B130EA96EA86AC1
:1012E000A69CA69EA684F250006EF29CF29E0F0170
:1012F000550EA76EAA0EA76EA682A6B2FED7A6941A
:101300000050F212140E0001FC6F95EC04F0120E66
:10131000A96EA86AA69CA69EA684F250006EF29CB6
:10132000F29E0F01550EA76EAA0EA76EA682A6B258
:10133000FED7A6940050F212140E0001FC6F95EC3B
:1013400004F0C8510D083BE2FF0A03E1C751100841
:1013500036E2C86BC76B140EA96EA86AA69CA69E3F
:10136000A684F250006EF29CF29E0F01550EA76EFD
:10137000AA0EA76EA682A6B2FED7A6940050F212BD
:10138000140E0001FC6F95EC04F0150EA96EA86A0E
:10139000A69CA69EA684F250006EF29CF29E0F01BF
:1013A000550EA76EAA0EA76EA682A6B2FED7A69469
:1013B0000050F212140E0001FC6F95EC04F0455041
:1013C00001081DE2010E456E160EA96E010EA86EF3
:1013D000A69CA69EA684F250006EF29CF29E0F017F
:1013E000550EA76EAA0EA76EA682A6B2FED7A69429
:1013F0000050F212140E0001FC6F95EC04F0465000
:1014000001081DE2010E466E170EA96E010EA86EB0
:10141000A69CA69EA684F250006EF29CF29E0F013E
:10142000550EA76EAA0EA76EA682A6B2FED7A694E8
:101430000050F212140E0001FC6F95EC04F023EF43
:1014400015F0010EF95DFC0F0FE2040F3DEF0AF0FD
:10145000800EFA6F09D0C00EFA6F06D0940EFA6FA4
:1014600003D0D40EFA6F00D0010EF85DFA27FB6BA3
:10147000FAC0FCF0E8EC04F0000CF2CF0DF0F29CA6
:10148000F29EE824F76AF736A50FF66E140EF722DF
:101490000A00F550FA6E0800F5500DBCF28C0DBE36
:1014A000F28EF96E501456145C146214F751F10860
:1014B00002E1EE0EF76FF751D10802E1FF0EF76F70
:1014C000F7510C0A05E0060A0FE0020A14E019D0F1
:1014D000FB6B010EFC6FE8EC04F0010E286E020EAF
:1014E000FC6F95EC04F014D0282A010EF86F28C088
:1014F000F9F0A7DF0DD0FB6B100EFC6FE8EC04F0E9
:1015000007D0010EFB6FF7C0FCF0E8EC04F000D050
:10151000000C0900F5520CE0F6CFE9F0F7CFEAF045
:10152000F5CFF7F0C3DFE9C0F6FFEAC0F7FFF1D768
:10153000000C010EF86FF96F84DFF00EF66E010EED
:10154000F76EE7DF010EF86F020EF96F7ADF060E15
:10155000F66E020EF76EDDDF010EF86F030EF96F07
:1015600070DF1C0EF66E020EF76ED3DF010EF86F01
:10157000040EF96F66DF320EF66E020EF76EC9DFEB
:10158000080EE66FFA0EFC6F95EC04F0E62FFAD722
:101590000C0EF76F8BDF28EF15F0C8510D08D8B08F
:1015A00084D0FF0A04E1C7510F08D8B07ED0C86BC1
:1015B000C76BC7C0E6F0140EA96EE6C0A8FFA69CD4
:1015C000A69EA684F250006EF29CF29E0F01550E6C
:1015D000A76EAA0EA76EA682A6B2FED7A69400504A
:1015E000F212140E0001FC6F95EC04F0C8C0E6F096
:1015F000150EA96EE6C0A8FFA69CA69EA684F25072
:10160000006EF29CF29E0F01550EA76EAA0EA76EF9
:10161000A682A6B2FED7A6940050F212140E0001C4
:10162000FC6F95EC04F0C92BD8B4CA2BC9C0E6F006
:10163000120EA96EE6C0A8FFA69CA69EA684F25034
:10164000006EF29CF29E0F01550EA76EAA0EA76EB9
:10165000A682A6B2FED7A6940050F212140E000184
:10166000FC6F95EC04F0CAC0E6F0130EA96EE6C05C
:10167000A8FFA69CA69EA684F250006EF29CF29E45
:101680000F01550EA76EAA0EA76EA682A6B2FED7B0
:10169000A6940050F212140E0001FC6F95EC04F0B9
:1016A000140EFC6F95EC04F04CD0C751840803E194
:1016B000C85103080CE0C751080803E1C8510708E6
:1016C00006E0C7518C083DE1C8510A083AE1C7C09D
:1016D000E6F0140EA96EE6C0A8FFA69CA69EA684FE
:1016E000F250006EF29CF29E0F01550EA76EAA0EEC
:1016F000A76EA682A6B2FED7A6940050F212140ED0
:101700000001FC6F95EC04F0C8C0E6F0150EA96E60
:10171000E6C0A8FFA69CA69EA684F250006EF29C8E
:10172000F29E0F01550EA76EAA0EA76EA682A6B254
:10173000FED7A6940050F212140E0001FC6F95EC37
:1017400004F038EF15F00900F6CFEBF0F7CFECF02E
:10175000F5CFF7F0ABDEEBC0F6FFECC0F7FFEA2FFA
:10176000F2D7000CED51016AEC5D03E2ECC000F031
:101770000CD0006A080EEE6FEC370036ED51005CBD
:10178000D8B0006E0136EE2FF7D7000C200EE7A977
:10179000300EE86FE6C000F0E6AF07D0001E002A6A
:1017A00000C0E6F02D0EE86FE78F0150E6C0ECF0C8
:1017B000640EED6FD7DF00C0E6F0300E0124E96F54
:1017C000E6C0ECF00A0EED6FCDDF300E0024EB6FBB
:1017D000300E0124EA6FE8C000F0E7A702D0E7AFBF
:1017E000E795E7B90BD0E7AF22D0E7B520D000C02E
:1017F000E9F0E7B31CD000C0EAF019D0300EE95D83
:1018000016E100C0E9F0200EE86FE7A704D0E795E5
:10181000E783E7AFE793300EEA5D09E100C0EAF045
:10182000200EE96FE7A7F7D7E793E7AFE791E7A5C2
:1018300003D0E8C0F7F03ADEE7A303D0E9C0F7F041
:1018400035DEE7A103D0EAC0F7F030DEEBC0F7F0F9
:101850002DDE000CE72D0AD0020EF86FE8C0F9F07B
:10186000F0DD640EF66E010EF76E53DEE7510208EE
:101870000AE1020EF86FE8C0F9F0E3DD780EF66ECB
:10188000010EF76E46DEE75103080AE1020EF86F1B
:10189000E8C0F9F0D6DD8C0EF66E010EF76E39DE7B
:1018A000E75104080AE1020EF86FE8C0F9F0C9DD5B
:1018B000A00EF66E010EF76E2CDEE751050818E15A
:1018C0002AB80AD0020EF86FE8C0F9F0BADDB40EFB
:1018D000F66E010EF76E1DDE2AA80AD0020EF86F12
:1018E000E8C0F9F0AEDDC80EF66E010EF76E11DE3F
:1018F000E75106080AE1020EF86FE8C0F9F0A1DD31
:10190000DC0EF66E010EF76E04DE000C0150E6C030
:10191000ECF0640EED6F26DF00C0E6F00150300EF3
:1019200007E1E7A30CD0E7B70AD0E7B9200E03D050
:10193000E797E799E781012601C0F7F0B7DDE6C038
:10194000ECF00A0EED6F0EDF00C0E6F00150300E35
:1019500006E1E7B708D0E7A106D0E7B9200E0126D7
:1019600001C0F7F0A3DD300EE627E6C0F7F09EDDFC
:10197000000CEACFEEF0E9CFEDF0E739F009E96FBE
:10198000E927E20FEA6F320FEC6FE7510F0BEA27FE
:10199000EA27EC27E90FEB6FEB27EB27E6390F0B74
:1019A000EB27EC27EB37EC37EC1FEC37E6510F0B4E
:1019B000EC27E937070EE86F0A0EEB07EC27FDE38B
:1019C000EA07EB27FDE3E907EA27FDE3E807E92754
:1019D000FDE3EA6AE80EE96E070EED15ED9DE926D6
:1019E000EC0EE95CD8B4ED8DEF50006E08E1EDBD72
:1019F00006D0EDB913D0EDB702D0200E03D0ED879D
:101A0000ED99300E0026EACFE7F0E9CFE6F000C00E
:101A1000F7F04CDDE7C0EAFFE6C0E9FFEE50EDADC0
:101A2000DFD73BEF1DF0F735006E0036FC0E0016D9
:101A300000C001F0C250C30B0010C26E0A0EFC6F52
:101A400095EC04F0C282C2B2FED7C4CF03F0C3CF7C
:101A5000FEF0C4CFFFF05DEC05F003C0FBF002C068
:101A6000FAF001C0F9F000C0F8F0F8C000F0F9C0D9
:101A700001F0FAC002F0FBC003F0000CFA51D8B438
:101A800084D0006EFE51D8B480D0002605E3810ECC
:101A90000026D8B07AD005D07F0E005ED8A075D0D1
:101AA00074E0FBC002F1FF510101021B0001FB8F3A
:101AB000FF8FFD5101010103F4CF04F10001FC513E
:101AC00001010003F4CF03F0F3CF03F10103F3505E
:101AD0000427F4500323000E03220001FD510101ED
:101AE0000003F3500427F4500323000E026A03227C
:101AF00002220001FB5101010103F3500327F450BE
:101B00000322000E02220001FB5101010003F350E9
:101B10000326F4500222000E016A01220001FD5149
:101B2000FF03F35001010327F4500322000E0222A9
:101B300001220001FC51FF03F3500326F45002225E
:101B4000000E0122FB51FF03F3500226F450012244
:101B5000002A01BE06D001010337033602360136E2
:101B60000006000E010103AF0AD0032A022201225F
:101B7000015005E1025003E1035001E1002A02BFD8
:101B8000018E02AF019E06D00001006A016A026A5E
:101B9000036A01010001000CFB51D8B4B4D001016B
:101BA000076F0001FF51D8B4AED00101075F07E312
:101BB0007F0E0727D8A002D00001A5D00AD0810E41
:101BC000075FD8B002D000019ED0D8A402D0000197
:101BD0009AD007C100F0016A026A036A066BFCC072
:101BE00005F1058FFDC004F1FEC003F1190E076F6A
:101BF0000251035F0DE2010E045F0AE2055F08E295
:101C0000065F06E2062B052B042B0251032728D082
:101C10000151045F12E2010E055F0FE2065F0DE263
:101C2000062B052B015104270251032719E3042B2E
:101C300017E1052B15E1062B13D000518009055F34
:101C40000EE2010E065F0BE2062B0051800905270C
:101C500001510427E9E3052BE7E1062BE5D70380D3
:101C6000072F01D00BD0D89003370437053706373C
:101C7000D8900336023601360837BAD708A106D005
:101C8000D890013202320332083304D0002E02D041
:101C9000000139D008BF1ED0D8900337043705376C
:101CA00006370251035F07E2010E045F04E2055F9D
:101CB00002E2065F1DE30151045F05E2010E055FCC
:101CC00002E2065F15E300518009055F03E2010EA1
:101CD000065F0EE3032A0CE1022A0AE1012A08E169
:101CE000002AD8A402D000010ED001320232033201
:101CF000FCC007F10051071B07AF02D0018E08D0CE
:101D0000019E06D00001006A016A026A036A0101AD
:101D10000001000C800ED8A202D00101031B0101BA
:101D2000086B096BFFC007F10351071B0001FE514F
:101D3000D8B4E0D00101066F006E0251D8B4E4D0EF
:101D4000065FD8B484D03DE303C10CF10C8F04C10D
:101D50000BF105C10AF1096BD8900C330B330A3330
:101D60000933062FF8D707AF03D00881E1D00891D7
:101D700006910889010EEA6EE96EEDD0089907BF59
:101D80000AD006A113D00C330B330A330933002ACF
:101D9000D8B4C9D00BD00CBF0CD0D89009370A37B3
:101DA0000B370C370006D8B4BED0F5D7088D6ED0EF
:101DB000089DFFC007F107AF02D00C8FADD00C9F7C
:101DC000ABD002C106F102C100F00001FE510101D9
:101DD000065FFFC00CF10C8F00C10BF101C10AF1CD
:101DE000096BD8900C330B330A330933062FF8D71D
:101DF00007AF03D008839CD008930691088B010E8F
:101E0000EA6E050EE96EA7D0089B07BF0AD006A1AF
:101E100013D00C330B330A330933002AD8B483D0E0
:101E20000BD00CBF0CD0D89009370A370B370C37C2
:101E30000006D8B478D0F5D7088F28D0089F03C102
:101E400007F103AF02D00C8F67D00C9F65D003C1A0
:101E50000CF10C8F04C10BF105C10AF107AF04D0DE
:101E60000C9F088565D00895096B0691010EEA6EF6
:101E7000E96E71D007BF1CD0FFC007F106A106D0E4
:101E80000C330B330A330933002A4DE009AF0BD072
:101E90000A2B09E10B2B07E10C2B05E10C330B336B
:101EA0000A33002A40E008BD83D708BFC7D71CD03B
:101EB000800E0C1B0CAF04D03BD003C107F10AD03D
:101EC000FFC007F10C5306E10B5304E10A5302E192
:101ED000006A22D00CBF08D0D89009370A370B37D8
:101EE0000C37002EF7D71FD007AF02D00C8F14D0BD
:101EF0000C9F12D002C100F003C10CF104C10BF120
:101F000005C10AF1010108D0FEC000F0FFC00CF1CC
:101F100000C10BF101C10AF10CC101F00BC102F0CB
:101F20000AC103F034D0006A016A026A036A2FD042
:101F3000096B0A1F0B1F0C1F091F092B05E10A2B38
:101F400003E10B2B01E10C2B08B111D708B354D7D7
:101F500008B589D7B2D7EF500A2705E30B2B03E169
:101F60000C2BD8B40681ED52EF500B2703E30C2B5A
:101F7000D8B40681ED52EF50EFBE01D0800A0C2795
:101F8000D8B0068108B9FAD608BB3ED773D700018E
:101F9000000CEA6BE96BE86BE76BEE6BED6BEC6BDF
:101FA000EB6BF26BF16BF06BEF6BF66BF56BF46B4D
:101FB000F36BF76B38DD03C0B2F002C0B1F001C0C3
:101FC000B0F000C0AFF0B2C0FDF0B1C0FCF0B0C0E6
:101FD000FBF0AFC0FAF00101016B006B200E0001B5
:101FE000FF6F810EFE6F4ADD00C0F7F001C0F8F010
:101FF00002C0F9F003C0FAF003C0FEF002C0FDF029
:1020000001C0FCF000C0FBF00101026BC00E016FCB
:102010007F0E006F880E0001FF6FBEDD03C0F2F07F
:1020200002C0F1F001C0F0F000C0EFF0C2C0F6F065
:10203000C1C0F5F0C0C0F4F0BFC0F3F0F6C0FDF0D1
:10204000F5C0FCF0F4C0FBF0F3C0FAF00101016B45
:10205000006B200E0001FF6F810EFE6F0FDD00C0D0
:10206000F7F001C0F8F002C0F9F003C0FAF003C0C5
:10207000FEF002C0FDF001C0FCF000C0FBF0010169
:10208000026BC00E016F7F0E006F880E0001FF6FA4
:1020900083DD03C0EEF002C0EDF001C0ECF000C043
:1020A000EBF0D882F2C001F1F1C000F1F0C0FFF016
:1020B000EFC0FEF0EEC005F1EDC004F1ECC003F19D
:1020C000EBC002F127DE03C0B6F002C0B5F001C0DC
:1020D000B4F000C0B3F0B6C0FDF0B5C0FCF0B4C0C1
:1020E000FBF0B3C0FAF00101016B006B0001FF6B64
:1020F000FE6B35EC07F004E3B66BB56BB46BB36BFA
:10210000010EE65D3F5C02E001E33F6A3F50040DD3
:10211000F350036A5F0FE96E000E0320EA6EB3C04E
:10212000EFFFB4C0ECFFB5C0ECFFB6C0ECFF3F2A38
:10213000406A010EE65D405C01E035E24050040D6E
:10214000F350036A5F0FE96E000E0320EA6EEFCFD3
:1021500000F0ECCF01F0ECCF02F0ECCF03F0EACFCF
:10216000F8F0E9CFF7F0D892EAC001F1E9C000F148
:10217000E8C0FFF0E7C0FEF003C005F102C004F1C3
:1021800001C003F100C002F1C5DDF8C0EAFFF7C0ED
:10219000E9FF03C0EAF002C0E9F001C0E8F000C0C6
:1021A000E7F0402AC6D7FF6BE6C0FEF05DEC05F015
:1021B000EAC0FEF0E9C0FDF0E8C0FCF0E7C0FBF0CB
:1021C00003C002F102C001F101C000F100C0FFF044
:1021D000E3DC03C0EAF002C0E9F001C0E8F000C0AF
:1021E000E7F0E7C000F0E8C001F0E9C002F0EAC0A3
:1021F00003F0000CF751B608F76F036AF8C0FBF064
:10220000F88FD890F833F933FA33033202320132BF
:102210000032F72FF6D7FBAF0BD0001E011E021EB7
:10222000031E002AD8B4012AD8B4022AD8B4032A3B
:102230009DEF11F0006A016A026A036AFF6B0101F7
:10224000006B016B026B0001FE51FD11FC11FB11D3
:1022500046E0200E0101036FD8900001F737F837F0
:10226000F937FA37FF37010100370137023700012C
:10227000FE510101025D0EE10001FD510101015D10
:1022800009E10001FC510101005D04E10001FB5185
:10229000FF5D01011DE30001FB51FF5FFC51D8A070
:1022A000FC3D01D003D00101005F0001FD51D8A029
:1022B000FD3D01D003D00101015F0001FE51D8A016
:1022C000FE3D01D003D00101025F0001D880010171
:1022D0000036013602360336032FBED70001EA6A04
:1022E000FF0EE96E000CE950EF6FEE51F16F1CE04C
:1022F000EDC0FDF0ECC0FCF0EBC0FBF0EAC0FAF082
:102300000101016B006B200E0001FF6F820EFE6F5A
:102310003EEC0DF003C0EDF002C0ECF001C0EBF0BC
:1023200000C0EAF0F12FE4D7EDC0FAF0ECC0F9F00C
:10233000EBC0F8F0EAC0F7F05DD703C0EDF002C0E3
:10234000ECF001C0EBF000C0EAF0EDAF0DD0EF070C
:10235000EF8BEA1FEB1FEC1FED1FEA2BD8B4EB2B22
:10236000D8B4EC2BD8B4ED2B3B0EF66F9A0EF56F6C
:10237000CA0EF46FF36B0A0EF16FEE51D8B4EF2B67
:10238000EDC0FAF0ECC0F9F0EBC0F8F0EAC0F7F0FD
:10239000F6C0FEF0F5C0FDF0F4C0FCF0F3C0FBF0B9
:1023A00049DF0150EFCFEAF0ECCFEBF0ECCFECF0EF
:1023B000ECCFEDF000520FE1EE29F15D0CE0EF51B2
:1023C0000CE00F0BF15D01E03BE2EFBF39D0EFBD58
:1023D00004D0200E30D0200EEF17EFAB0DD0EF9BC6
:1023E000EE51D8A4EF070050EF6F2D0EF76F56ECAB
:1023F0000AF0EF51006EEF6BEE51F15D0BE1005012
:10240000EF6F2E0EF76F56EC0AF0EF51006E200EB4
:10241000EF17000E300EEFAB0ED0EF9BEE51D8A4AD
:10242000EF070050EF6F2D0EF76F56EC0AF0EF51EB
:10243000006EEF6B300E002600C0F7F056EC0AF08D
:10244000F6C0FAF0F5C0F9F0F4C0F8F0F3C0F7F018
:10245000FE6BFD6BFC6B0A0EFB6FECDE03C0F6F04F
:1024600002C0F5F001C0F4F000C0F3F0F12F88D7FE
:10247000000C8E0E006EFA51005EFBC002F0FCC034
:1024800001F0028E005209E0D890025202E101529E
:1024900004E002320132002EF7D7FBAF05D0011E57
:1024A000021E012AD8B4022A000CF991EDC0F2F004
:1024B000ECC0F1F0EBC0F0F0EAC0EFF0EDC0FDF0E1
:1024C000ECC0FCF0EBC0FBF0EAC0FAF00101016BDC
:1024D000006B0001FF6BFE6B35EC07F004E3F98144
:1024E000F051800AF06FF2C0FDF0F1C0FCF0F0C0D6
:1024F000FBF0EFC0FAF00101016B006B0001FF6B14
:102500008E0EFE6F35EC07F001E218E1F2C0FDF02F
:10251000F1C0FCF0F0C0FBF0EFC0FAF0AADF02C09F
:10252000FFF001C0FEF05DEC05F003C0F6F002C064
:10253000F5F001C0F4F000C0F3F0CDD0F2C0FDF032
:10254000F1C0FCF0F0C0FBF0EFC0FAF0800E01012A
:10255000016F960E006F180E0001FF6F960EFE6F52
:1025600035EC07F0D8A0AFD0F2C0FEF0F1C0FDF01E
:10257000F0C0FCF0EFC0FBF00101026B016B006BDF
:102580008E0E0001FF6FCCEC0DF003C0FDF002C019
:10259000FCF001C0FBF000C0FAF06BDF02C0F8F005
:1025A00001C0F7F0F2C0FEF0F1C0FDF0F0C0FCF0A9
:1025B000EFC0FBF00101026B016B006B8E0E00019E
:1025C000FF6FCCEC0DF000C0FAF001C0FBF002C0D0
:1025D000FCF003C0FDF0F8C0FFF0F7C0FEF05DECCA
:1025E00005F0D882FDC001F1FCC000F1FBC0FFF096
:1025F000FAC0FEF003C005F102C004F101C003F10E
:1026000000C002F18AEC0EF0FD6BFC6BFB6B8E0ED2
:10261000FA6F03C001F102C000F101C0FFF000C079
:10262000FEF03EEC0DF003C0F2F002C0F1F001C08C
:10263000F0F000C0EFF0F8C0FFF0F7C0FEF05DEC86
:1026400005F0FD6BFC6BFB6B8E0EFA6F03C001F1A6
:1026500002C000F101C0FFF000C0FEF03EEC0DF042
:1026600003C0F6F002C0F5F001C0F4F000C0F3F0D2
:10267000F2C0FDF0F1C0FCF0F0C0FBF0EFC0FAF0EA
:10268000F8DE02C0FFF001C0FEF05DEC05F0D8926C
:10269000F6C001F1F5C000F1F4C0FFF0F3C0FEF0A8
:1026A00003C005F102C004F101C003F100C002F152
:1026B0008AEC0EF003C0F6F002C0F5F001C0F4F0B1
:1026C00000C0F3F008D0F2C0F6F0F1C0F5F0F0C0B1
:1026D000F4F0EFC0F3F0F2C0FDF0F1C0FCF0F0C098
:1026E000FBF0EFC0FAF0C5DE02C0FFF001C0FEF063
:1026F0005DEC05F0D882F2C001F1F1C000F1F0C04C
:10270000FFF0EFC0FEF003C005F102C004F101C00C
:1027100003F100C002F18AEC0EF003C0F2F002C037
:10272000F1F001C0F0F000C0EFF0F9A103D0F451D6
:10273000800AF46FF2C0FDF0F1C0FCF0F0C0FBF0D5
:10274000EFC0FAF00101016B006B0001FF6BFE6B43
:1027500035EC07F03CE0F9A11CD0EE531AE1D88229
:10276000F6C001F1F5C000F1F4C0FFF0F3C0FEF0D7
:102770000101056B046B036B7F0E026F00018AEC95
:102780000EF003C0F6F002C0F5F001C0F4F000C096
:10279000F3F0F9B11CD0EE2D1AD0D892F6C001F1A9
:1027A000F5C000F1F4C0FFF0F3C0FEF00101056BCD
:1027B000046B036B7F0E026F00018AEC0EF003C006
:1027C000F6F002C0F5F001C0F4F000C0F3F0EDC087
:1027D000FDF0ECC0FCF0EBC0FBF0EAC0FAF0010148
:1027E000016B006B0001FF6BFE6B35EC07F004E141
:1027F000F66BF56BF46BF36BF3C000F0F4C001F013
:10280000F5C002F0F6C003F010EF14F0E9C0EDF0EF
:10281000E8C0ECF0E7C0EBF0E6C0EAF0EE6B45D6BE
:10282000000C2A9C928280B203D0928480B405D09E
:102830008A9C939C8A8E939E05D08A9C939C8A9EA8
:10284000939E2A9A1BEF24F02A9A928280A203D0A8
:10285000928480A405D08A8C939C8A9E939E05D0F6
:102860008A9C939C8A9E939E2A9C20EF24F08A9CAB
:10287000939C8A9E939E23EF24F0F86AF1849F90A4
:10288000D08E078EEA6AE96A2990299229942996BE
:102890002998299A299C299E2A902A922A942A9634
:1028A0002A982A9A2A9C2A9E2B902B922B942C6A47
:1028B000070E2D6E020E2E6E0B0E2F6E020E306E58
:1028C000030E316E020E326E336E040E346E356AB4
:1028D000366A376A386A396A3A6A3B6A3C6A3D6ADC
:1028E0003E6A3F6A406A416A010E426E436A446A28
:1028F000456A466A476A536A546A556A566A576A0D
:10290000040E586E5C6A5B6A5E6A5D6AB26BB16B9C
:10291000B06BAF6BB66BB56BB46BB36BBA6BB96BBB
:10292000B86BB76BBE6BBD6BBC6BBB6BC26BC16B6B
:10293000C06B800EBF6F2B862B98C46BC36BC66BAE
:10294000C56BC86BC76BCA6BC96B2B9A2B9CCC6BC6
:10295000CB6BCD6BCE6BD26BD16BD06BCF6BD66BA1
:10296000D56BD46BD36BE06BDF6BC150C00B0F0921
:10297000C16E070EB46E3E0E486E200E496E5E0E9E
:102980004A6E4B6A4C6A4D6A4E6A4F6A506A516A87
:10299000526A5F6A606A616A626A636A646A656AE7
:1029A000666A676A686A696A6A6A6B6A6C6A6D6A8B
:1029B0006E6A6F6A706A716A726A736A746A756A3B
:1029C000766A776A786A796A7A6A7B6A7C6A7D6AEB
:1029D0007E6A7F6A806B816B826B836B846B856B95
:1029E000866B876B886B896B8A6B8B6B8C6B8D6B43
:1029F0008E6B8F6B906B916B926B936B946B956BF3
:102A0000966B976B986B996B9A6B9B6B9C6B9D6BA2
:102A10009E6B9F6BA06BA16BA26BA36BA46BA56B52
:102A2000A66BA76BA86BA96BAA6BAB6BAC6BAD6B02
:102A3000AE6B8B9494948B9294923AEF05F078EF6E
:102A400005F088EF07F0452C01D003D099EF0AF08C
:102A500009D0462C01D02982465201E129922984CD
:102A6000320E2C6E8B9494948B929492CDEF0AF04C
:102A70000400CE51060806E18B8494948B829492D4
:102A8000D76AD66ACE5306E18B9494948B92949233
:102A9000D76AD66A2C52D8A405D2010EF86FF96F06
:102AA00021EC0AF06C0EF66E030EF76E89EC0AF05C
:102AB000010EF86F020EF96F21EC0AF0820EF66E2D
:102AC000030EF76E89EC0AF0010EF86F030EF96F32
:102AD00021EC0AF0980EF66E030EF76E0A0EEA6FFE
:102AE000A3EC0BF04BC0E6F01F0EE76FC6EC0BF04B
:102AF0004CC0E6F01F0EE76FC6EC0BF04DC0E6F0E1
:102B00001F0EE76FC6EC0BF04EC0E6F01F0EE76F2E
:102B1000C6EC0BF0200EF76F56EC0AF0200EF76FA4
:102B200056EC0AF02FC0F8F0040EF96F21EC0AF011
:102B30004AC0F7F056EC0AF02F500B080FE22F5066
:102B40000D080CE3010E2F5CE66FF86F040EF96FB1
:102B500021EC0AF049C0F7F056EC0AF02B96928A65
:102B600080BA19D0140EFC6F95EC04F0928A80BAEA
:102B700011D029B60FD00B0E2F5C036A4B0FE96EF4
:102B8000000E0320EA6EEF2A29861E0EFC6F95ECDC
:102B900004F02B8601D02996968084B019D0140EAB
:102BA000FC6F95EC04F0968084B011D029BA0FD058
:102BB0000B0E2F5C036A4B0FE96E000E0320EA6ECA
:102BC000EF06298A1E0EFC6F95EC04F02B8601D0CF
:102BD000299A968284B215D0140EFC6F95EC04F0FD
:102BE000968284B20DD029B80BD029882F2A1E0EC8
:102BF000FC6F95EC04F00C0EF76F56EC0AF02B8688
:102C000001D02998968484B415D0960EFC6F95EC6B
:102C100004F0968484B40DD029BC0BD0298C2F06E7
:102C20001E0EFC6F95EC04F00C0EF76F56EC0AF0DC
:102C30002B8601D0299C0B0E2F5C036A4B0FE96E8B
:102C4000000E0320EA6EEFBE01D00AD00B0E2F5CFF
:102C5000036A4B0FE96E000E0320EA6E090EEF6E59
:102C60000B0E2F5C036A4B0FE96E000E0320EA6E19
:102C7000EFBE0CD0EF50090809E20B0E2F5C036A7F
:102C80004B0FE96E000E0320EA6EEF6A2F500A0820
:102C900002E30B0E2F6E2F500E08D8B003D14B500D
:102CA000030871E14C5008086EE14D5009086BE1D2
:102CB0004E50020868E1A96AA86AA69CA69EA6844E
:102CC000F250006EF29CF29E0F01550EA76EAA0EF6
:102CD000A76EA682A6B2FED7A6940050F212140EDA
:102CE0000001FC6F95EC04F0010EA96EA86AA69C89
:102CF000A69EA684F250006EF29CF29E0F01550E25
:102D0000A76EAA0EA76EA682A6B2FED7A694005002
:102D1000F212140E0001FC6F95EC04F0020EA96E85
:102D2000A86AA69CA69EA684F250006EF29CF29E13
:102D30000F01550EA76EAA0EA76EA682A6B2FED7E9
:102D4000A6940050F212140E0001FC6F95EC04F0F2
:102D5000030EA96EA86AA69CA69EA684F250006ED9
:102D6000F29CF29E0F01550EA76EAA0EA76EA682C8
:102D7000A6B2FED7A6940050F212140E0001FC6F0A
:102D800095EC04F0FF004F504B5C4FE150504C5C11
:102D90004CE151504D5C49E152504E5C46E1010E10
:102DA000F86FF96F21EC0AF0AE0EF66E030EF76EB7
:102DB00089EC0AF0010EF86F020EF96F21EC0AF0AF
:102DC000C20EF66E030EF76E89EC0AF0010EF86F74
:102DD000030EF96F21EC0AF0D60EF66E030EF76EB5
:102DE00089EC0AF0010EF86F040EF96F21EC0AF07D
:102DF000EA0EF66E030EF76E89EC0AF0040EE66F2B
:102E0000FA0EFC6F95EC04F0E62FFAD7320E2C6E1A
:102E10000B0E2F6E0C0EF76F56EC0AF02B864B6ADA
:102E20004C6A4D6A4E6A2B863DD0010EF86FF96FE1
:102E300021EC0AF0010EF86F020EF96F21EC0AF096
:102E4000FE0EF66E030EF76E89EC0AF0010EF86FB7
:102E5000030EF96F21EC0AF0120EF66E040EF76EF7
:102E600089EC0AF0010EF86F040EF96F21EC0AF0FC
:102E7000260EF66E040EF76E89EC0AF0040EE66F6D
:102E8000FA0EFC6F95EC04F0E62FFAD70B0E2F6EBE
:102E90000C0EF76F56EC0AF02B864B6A4C6A4D6AA3
:102EA0004E6A2B862C2C1BD102EC00F0010EF86F21
:102EB000F96F21EC0AF03A0EF66E040EF76E89EC0B
:102EC0000AF0010E4724E66FE76F020EE86F2AEC66
:102ED0000CF0020E4724E66FE76F030EE86F2AEC52
:102EE0000CF0030E4724E66FE76F040EE86F2AEC40
:102EF0000CF0010EF86F30C0F9F021EC0AF048C078
:102F0000F7F056EC0AF03050020814E1010EF86FA9
:102F1000040EF96F21EC0AF049C0F7F056EC0AF004
:102F2000010EF86F030EF96F21EC0AF049C0F7F0BB
:102F300056EC0AF03050040814E1010EF86F020E4E
:102F4000F96F21EC0AF049C0F7F056EC0AF0010ED7
:102F5000F86F030EF96F21EC0AF049C0F7F056EC58
:102F60000AF03050030814E1010EF86F040EF96FF7
:102F700021EC0AF049C0F7F056EC0AF0010EF86FA8
:102F8000020EF96F21EC0AF049C0F7F056EC0AF096
:102F90002B96928A80BA15D0140EFC6F95EC04F033
:102FA000928A80BA0DD029B60BD032063006010EB7
:102FB0003024316E29861E0EFC6F95EC04F02B86B2
:102FC00001D02996968084B015D0140EFC6F95EC34
:102FD00004F0968084B00DD029BA0BD0322A302A62
:102FE000010E305C316E298A1E0EFC6F95EC04F0E8
:102FF0002B8601D0299A3250345C08E2472A32C02D
:1030000034F0020E345C336E040E306E3350325C9A
:1030100008E2470632C033F0020E3324346E020E4B
:10302000306E32502D5C09E22EC032F0020E306E4E
:10303000476A32C033F03324346E2E50325C0BE2D8
:103040002DC032F0040E306E2D5C476E32C034F06D
:10305000020E345C336E47BE01D001D0476A9682BF
:1030600084B223D0140EFC6F95EC04F0968284B2E7
:103070001AD029B818D0298832C02CF0030E306E2F
:10308000020EE66F960EFC6F95EC04F0E62FFAD771
:103090000C0EF76F56EC0AF02C50060804E14B6A50
:1030A0004C6A4D6A4E6A2B8601D02998968484B466
:1030B00016D0140EFC6F95EC04F0968484B40FD0F7
:1030C000020EE66FFA0EFC6F95EC04F0E62FFAD7CD
:1030D000320E2C6E0C0EF76F56EC0AF02B862C502D
:1030E0000208D8A42CD102EC00F0010EF86FF96FA1
:1030F00021EC0AF0500EF66E040EF76E89EC0AF021
:10310000010EF86F020EF96F21EC0AF0660EF66EF2
:10311000040EF76E89EC0AF0060EF86F030EF96FD5
:1031200021EC0AF03DC0E6F0030EE76F86EC0CF0F0
:103130003A0EF76F56EC0AF03EC0E6F0010EE76F6C
:1031400086EC0CF0850EF66E040EF76E080EEA6F34
:10315000A3EC0BF0060E4224E66FF86F040EF96F35
:1031600021EC0AF04AC0F7F056EC0AF02B96928A4E
:1031700080BA26D0140EFC6F95EC04F0928A80BAC7
:103180001FD0422C0DD03D50EF080AE3050E3D261E
:10319000020EE66F960EFC6F95EC04F0E62FFAD760
:1031A000425004080CE13E503A0809E33E2A020E60
:1031B000E66F960EFC6F95EC04F0E62FFAD72B869F
:1031C000968084B024D0140EFC6F95EC04F09680A9
:1031D00084B01DD0422C0CD03D520AE0050E3D5E5D
:1031E000020EE66F960EFC6F95EC04F0E62FFAD710
:1031F000425004080BE13E5209E03E06020EE66F23
:10320000960EFC6F95EC04F0E62FFAD72B8696828B
:1032100084B21ED0140EFC6F95EC04F0968284B23A
:1032200017D0422C03D0040E426E05D04250040841
:1032300002E1010E426E020EE66FFA0EFC6F95EC93
:1032400004F0E62FFAD70C0EF76F56EC0AF02B8637
:10325000968484B474D0968484B471D0C80EFC6F04
:1032600095EC04F00C0EF76F56EC0AF0010EF86FB7
:10327000020EF96F21EC0AF08E0EF66E040EF76E58
:1032800089EC0AF0010EF86F030EF96F21EC0AF0D9
:10329000A00EF66E040EF76E89EC0AF0050EA96E0C
:1032A0003DC0A8FFA69CA69EA684F250006EF29C8C
:1032B000F29E0F01550EA76EAA0EA76EA682A6B2A9
:1032C000FED7A6940050F212140E0001FC6F95EC8C
:1032D00004F0060EA96E3EC0A8FFA69CA69EA6847A
:1032E000F250006EF29CF29E0F01550EA76EAA0ED0
:1032F000A76EA682A6B2FED7A6940050F212140EB4
:103300000001FC6F95EC04F03DC03BF03EC03CF08A
:10331000040EE66FAF0EFC6F95EC04F0E62FFAD7C3
:103320001E0EFC6F95EC04F0010E2C6E476A020E27
:10333000306E326E0C0EF76F56EC0AF02B862C5066
:103340000308D8A4A5D102EC00F0010EF86FF96FC4
:1033500021EC0AF0B20EF66E040EF76E89EC0AF05C
:10336000010EF86F020EF96F21EC0AF0C80EF66E2E
:10337000040EF76E89EC0AF0010EF86F030EF96F78
:1033800021EC0AF0DE0EF66E040EF76E0A0EEA6FFE
:10339000A3EC0BF04BC0E6F01F0EE76FC6EC0BF092
:1033A0004CC0E6F01F0EE76FC6EC0BF04DC0E6F028
:1033B0001F0EE76FC6EC0BF04EC0E6F01F0EE76F76
:1033C000C6EC0BF0200EF76F56EC0AF0200EF76FEC
:1033D00056EC0AF02FC0F8F0040EF96F21EC0AF059
:1033E0004AC0F7F056EC0AF02F500B080FE22F50AE
:1033F0000D080CE3010E2F5CE66FF86F040EF96FF9
:1034000021EC0AF049C0F7F056EC0AF02B96928AAC
:1034100080BA19D0140EFC6F95EC04F0928A80BA31
:1034200011D029B60FD00B0E2F5C036A4B0FE96E3B
:10343000000E0320EA6EEF2A29861E0EFC6F95EC23
:1034400004F02B8601D02996968084B019D0140EF2
:10345000FC6F95EC04F0968084B011D029BA0FD09F
:103460000B0E2F5C036A4B0FE96E000E0320EA6E11
:10347000EF06298A1E0EFC6F95EC04F02B8601D016
:10348000299A968284B215D0140EFC6F95EC04F044
:10349000968284B20DD029B80BD029882F2A1E0E0F
:1034A000FC6F95EC04F00C0EF76F56EC0AF02B86CF
:1034B00001D02998968484B415D0960EFC6F95ECB3
:1034C00004F0968484B40DD029BC0BD0298C2F062F
:1034D0001E0EFC6F95EC04F00C0EF76F56EC0AF024
:1034E0002B8601D0299C0B0E2F5C036A4B0FE96ED3
:1034F000000E0320EA6EEFBE01D00AD00B0E2F5C47
:10350000036A4B0FE96E000E0320EA6E090EEF6EA0
:103510000B0E2F5C036A4B0FE96E000E0320EA6E60
:10352000EFBE0CD0EF50090809E20B0E2F5C036AC6
:103530004B0FE96E000E0320EA6EEF6A2F500A0867
:1035400010E30B0E2F6E010E2C6E476A4B6A4C6A0D
:103550004D6A4E6A2B860B0E2F6E0C0EF76F56ECD3
:103560000AF02F500E08D8B093D04F504B5C4EE16C
:1035700050504C5C4BE151504D5C48E152504E5C18
:1035800045E1010EF86FF96F21EC0AF0F40EF66ECA
:10359000040EF76E89EC0AF0010EF86F020EF96F57
:1035A00021EC0AF00A0EF66E050EF76E89EC0AF0B1
:1035B000010EF86F030EF96F21EC0AF0200EF66E83
:1035C000050EF76E89EC0AF0010EF86F040EF96F24
:1035D00021EC0AF0360EF66E050EF76E89EC0AF055
:1035E000020EE66FFA0EFC6F95EC04F0E62FFAD7A8
:1035F0003D0E2C6E0B0E2F6E0C0EF76F56EC0AF074
:103600004B6A4C6A4D6A4E6A2B8642D0010EF86FA7
:10361000F96F21EC0AF04C0EF66E050EF76E89EC90
:103620000AF0010EF86F020EF96F21EC0AF0620E3B
:10363000F66E050EF76E89EC0AF0010EF86F030EB8
:10364000F96F21EC0AF0780EF66E050EF76E89EC34
:103650000AF0010EF86F040EF96F21EC0AF08E0EDD
:10366000F66E050EF76E89EC0AF0020EE66FFA0EA2
:10367000FC6F95EC04F0E62FFAD70B0E2F6E0C0EB4
:10368000F76F56EC0AF02B864B6A4C6A4D6A4E6A0D
:103690002C503D08D8A4C8D102EC00F0010EF86F00
:1036A000F96F21EC0AF0A40EF66E050EF76E89ECA8
:1036B0000AF0010EF86F020EF96F21EC0AF0BA0E53
:1036C000F66E050EF76E89EC0AF0010EF86F030E28
:1036D000F96F21EC0AF0D00EF66E050EF76E0A0EA9
:1036E000EA6FA3EC0BF04BC0E6F01F0EE76FC6ECE1
:1036F0000BF04CC0E6F01F0EE76FC6EC0BF04DC0B0
:10370000E6F01F0EE76FC6EC0BF04EC0E6F01F0EA2
:10371000E76FC6EC0BF0200EF76F56EC0AF0200EA8
:10372000F76F56EC0AF02FC0F8F0040EF96F21EC99
:103730000AF04AC0F7F056EC0AF02F500B080FE2DF
:103740002F500D080CE3010E2F5CE66FF86F040E8E
:10375000F96F21EC0AF049C0F7F056EC0AF02B960D
:10376000928A80BA19D0140EFC6F95EC04F0928AFC
:1037700080BA11D029B60FD00B0E2F5C036A4B0F05
:10378000E96E000E0320EA6EEF2A29861E0EFC6FFA
:1037900095EC04F02B8601D02996968084B019D040
:1037A000140EFC6F95EC04F0968084B011D029BA09
:1037B0000FD00B0E2F5C036A4B0FE96E000E032037
:1037C000EA6EEF06298A1E0EFC6F95EC04F02B863C
:1037D00001D0299A968284B211D0968284B20DD0FB
:1037E00029B80BD029882F2A1E0EFC6F95EC04F007
:1037F0000C0EF76F56EC0AF02B8601D029989684B0
:1038000084B415D0960EFC6F95EC04F0968484B4C5
:103810000DD029BC0BD0298C2F061E0EFC6F95EC09
:1038200004F00C0EF76F56EC0AF02B8601D0299CA1
:103830000B0E2F5C036A4B0FE96E000E0320EA6E3D
:10384000EFBE01D00AD00B0E2F5C036A4B0FE96E5E
:10385000000E0320EA6E090EEF6E0B0E2F5C036A5A
:103860004B0FE96E000E0320EA6EEFBE0CD0EF5056
:10387000090809E20B0E2F5C036A4B0FE96E000E7C
:103880000320EA6EEF6A2F500A080FE30B0E2F6E2B
:10389000010E2C6E4B6A4C6A4D6A4E6A2B860B0EDB
:1038A0002F6E0C0EF76F56EC0AF02F500E08D8B0A2
:1038B000BBD0010EF86FF96F21EC0AF0E60EF66E40
:1038C000050EF76E89EC0AF0010EF86F020EF96F23
:1038D00021EC0AF0FC0EF66E050EF76E89EC0AF08C
:1038E000010EF86F030EF96F21EC0AF0120EF66E5E
:1038F000060EF76E89EC0AF0010EF86F040EF96FF0
:1039000021EC0AF0280EF66E060EF76E89EC0AF02E
:10391000A96A4BC0A8FFA69CA69EA684F250006E82
:10392000F29CF29E0F01550EA76EAA0EA76EA682FC
:10393000A6B2FED7A6940050F212140E0001FC6F3E
:1039400095EC04F0010EA96E4CC0A8FFA69CA69EA3
:10395000A684F250006EF29CF29E0F01550EA76EE7
:10396000AA0EA76EA682A6B2FED7A6940050F212A7
:10397000140E0001FC6F95EC04F0020EA96E4DC010
:10398000A8FFA69CA69EA684F250006EF29CF29E12
:103990000F01550EA76EAA0EA76EA682A6B2FED77D
:1039A000A6940050F212140E0001FC6F95EC04F086
:1039B000030EA96E4EC0A8FFA69CA69EA684F25038
:1039C000006EF29CF29E0F01550EA76EAA0EA76E16
:1039D000A682A6B2FED7A6940050F212140E0001E1
:1039E000FC6F95EC04F0020EE66FFA0EFC6F95EC9E
:1039F00004F0E62FFAD7010E2C6E476A020E306EE5
:103A0000326E4BC04FF04CC050F04DC051F04EC024
:103A100052F04B6A4C6A4D6A4E6A2B860B0E2F6E23
:103A20000C0EF76F56EC0AF02C500408D8A4D7D02F
:103A300002EC00F0010EF86FF96F21EC0AF03E0E77
:103A4000F66E060EF76E89EC0AF0010EF86F020EA4
:103A5000F96F21EC0AF0540EF66E060EF76E0B0E9F
:103A6000EA6FA3EC0BF0080EE96ECAC0E7F0C9C01C
:103A7000E6F0B9EF0CF0200EF76F56EC0AF0200ECE
:103A8000F76F56EC0AF0200EF76F56EC0AF0010EB5
:103A9000F86F040EF96F21EC0AF0680EF66E060E50
:103AA000F76E89EC0AF02B96928A80BA76D09682CD
:103AB00084B273D0140EFC6F95EC04F0928A80BA35
:103AC0006CD0968284B269D0C80EFC6F95EC04F07D
:103AD0000C0EF76F56EC0AF0010EF86F020EF96F3C
:103AE00021EC0AF07E0EF66E060EF76E89EC0AF0F7
:103AF000010EF86F030EF96F21EC0AF0900EF66ECE
:103B0000060EF76E89EC0AF0CA6BC96B130EA96E2C
:103B1000A86AA69CA69EA684F250006EF29CF29E15
:103B20000F01550EA76EAA0EA76EA682A6B2FED7EB
:103B3000A6940050F212140E0001FC6F95EC04F0F4
:103B4000120EA96EA86AA69CA69EA684F250006ECC
:103B5000F29CF29E0F01550EA76EAA0EA76EA682CA
:103B6000A6B2FED7A6940050F212140E0001FC6F0C
:103B700095EC04F0356A366A5C6A5B6A1E0EFC6F6F
:103B800095EC04F0010E2C6E476A020E306E326E18
:103B90000C0EF76F56EC0AF02B86968484B41ED078
:103BA000140EFC6F95EC04F0968484B416D029BCF6
:103BB00014D0298C020EE66FFA0EFC6F95EC04F01F
:103BC000E62FFAD7010E2C6E476A020E306E326E67
:103BD0000C0EF76F56EC0AF02B8601D0299C2C5066
:103BE0000508D8A42ED102EC00F0010EF86FF96F91
:103BF00021EC0AF0A20EF66E060EF76E89EC0AF0C2
:103C0000010EF86F020EF96F21EC0AF0050EE66F57
:103C1000C9EC0FF000C0E6F001C0E7F002C0E8F028
:103C200003C0E9F003C0FDF002C0FCF001C0FBF0EE
:103C300000C0FAF0D70E0101016FA30E006F000162
:103C4000FF6B810EFE6F3EEC0DF000C0E6F001C090
:103C5000E7F002C0E8F003C0E9F0B80EF66E060E19
:103C6000F76E090EEA6FA3EC0BF0020EE96EE9C0E5
:103C7000EDF0E8C0ECF0E7C0EBF0E6C0EAF0EE6F84
:103C800073EC11F0C60EF66E060EF76E070EEA6FB5
:103C9000A3EC0BF0010EF86F030EF96F21EC0AF0A4
:103CA000F76B13EC0DF000C0E6F001C0E7F002C0C6
:103CB000E8F003C0E9F0CE0EF66E060EF76E080EC1
:103CC000EA6FA3EC0BF0010EE96EE9C0EDF0E8C07D
:103CD000ECF0E7C0EBF0E6C0EAF0EE6B73EC11F04D
:103CE000010EF86F040EF96F21EC0AF0DC0EF66E8F
:103CF000060EF76E070EEA6FA3EC0BF0010EE96EED
:103D0000C2C0EDF0C1C0ECF0C0C0EBF0BFC0EAF043
:103D1000EE6B73EC11F02B96968284B272D0140E77
:103D2000FC6F95EC04F0968284B26AD029B868D012
:103D3000010E2C6E476A020E306E326E0B0E2F6E25
:103D4000020EE66FFA0EFC6F95EC04F0E62FFAD740
:103D50000C0EF76F56EC0AF0F76B13EC0DF003C086
:103D6000C2F002C0C1F001C0C0F000C0BFF0C2C0CC
:103D7000FDF0C1C0FCF0C0C0FBF0BFC0FAF039ECF0
:103D800012F002C05EF001C05DF05DC039F05EC0AF
:103D90003AF00B0EA96E39C0A8FFA69CA69EA68479
:103DA000F250006EF29CF29E0F01550EA76EAA0E05
:103DB000A76EA682A6B2FED7A6940050F212140EE9
:103DC0000001FC6F95EC04F00C0EA96E3AC0A8FF40
:103DD000A69CA69EA684F250006EF29CF29E0F0155
:103DE000550EA76EAA0EA76EA682A6B2FED7A694FF
:103DF0000050F212140E0001FC6F95EC04F02B86BB
:103E000001D02998968484B41BD0140EFC6F95ECD5
:103E100004F0968484B413D029BC11D0010E2C6E0A
:103E2000476A020E306E326E0B0E2F6E1E0EFC6F46
:103E300095EC04F00C0EF76F56EC0AF02B8601D0CF
:103E4000299C2C500608D8A494D02A782988010EE1
:103E50002C6E476A2AA830D02A88010EF86FF96FB5
:103E600021EC0AF0EA0EF66E060EF76E89EC0AF007
:103E7000010EF86F020EF96F21EC0AF0000EF66EDB
:103E8000070EF76E89EC0AF0010EF86F030EF96F5A
:103E900021EC0AF0160EF66E070EF76E89EC0AF0AA
:103EA000010EF86F040EF96F21EC0AF02C0EF66E7D
:103EB000070EF76E89EC0AF02AB830D02A98010E66
:103EC000F86FF96F21EC0AF0420EF66E070EF76EEE
:103ED00089EC0AF0010EF86F020EF96F21EC0AF07E
:103EE000580EF66E070EF76E89EC0AF0010EF86FA9
:103EF000030EF96F21EC0AF06E0EF66E070EF76EE8
:103F000089EC0AF0010EF86F040EF96F21EC0AF04B
:103F1000840EF66E070EF76E89EC0AF0000E2AB8D2
:103F2000010EE66F040EA96EE6C0A8FFA69CA69E31
:103F3000A684F250006EF29CF29E0F01550EA76E01
:103F4000AA0EA76EA682A6B2FED7A6940050F212C1
:103F5000040E0001E66FFA0EFC6F95EC04F0E62FFC
:103F6000FAD7020E306E326E0C0EF76F56EC0AF076
:103F70002B862C500708D8A4CBD05850060802E254
:103F8000060E586E585202E1010E586E010EF86F7F
:103F9000F96F21EC0AF09A0EF66E070EF76E89ECB7
:103FA0000AF0010EF86F020EF96F21EC0AF0B00E64
:103FB000F66E070EF76E89EC0AF0010EF86F030E2D
:103FC000F96F21EC0AF0C60EF66E070EF76E0A0EB8
:103FD000EA6FA3EC0BF058C0E6F01B0EE76F86EC1F
:103FE0000CF0D20EF66E070EF76E070EEA6FA3EC1A
:103FF0000BF0010EF86F040EF96F21EC0AF0DA0EE7
:10400000F66E070EF76E89EC0AF0928A80BA08D035
:104010005850050805E3C80EFC6F95EC04F0582ACB
:10402000968084B007D0585205E0C80EFC6F95EC1E
:1040300004F05806968284B202D058C0CEF096841E
:1040400084B466D0640EFC6F95EC04F0020E306E02
:10405000326E0C0EF76F56EC0AF00D0EA96E58C0BA
:10406000A8FFA69CA69EA684F250006EF29CF29E2B
:104070000F01550EA76EAA0EA76EA682A6B2FED796
:10408000A6940050F212140E0001FC6F95EC04F09F
:10409000010EF86FF96F21EC0AF0F00EF66E070EC4
:1040A000F76E89EC0AF0010EF86F020EF96F21EC41
:1040B0000AF0060EF66E080EF76E89EC0AF0010E95
:1040C000F86F030EF96F21EC0AF01C0EF66E080E65
:1040D000F76E89EC0AF0010EF86F040EF96F21EC0F
:1040E0000AF0320EF66E080EF76E89EC0AF0040E36
:1040F000E66FFA0EFC6F95EC04F0E62FFAD70C0E83
:10410000F76F56EC0AF00BEC05F0010E2C6E476AC7
:104110002C503208D8A496EF24F02AA01FD22A905F
:10412000080EE66FC9EC0FF003C0BEF002C0BDF090
:1041300001C0BCF000C0BBF0BEC0FDF0BDC0FCF0D3
:10414000BCC0FBF0BBC0FAF0D70E0101016FA30E9B
:10415000006F0001FF6B810EFE6F3EEC0DF000C0A2
:10416000E6F001C0E7F002C0E8F003C0E9F0CD0ED0
:10417000FD6FCC0EFC6F4C0EFB6F7B0EFA6F03C015
:1041800001F102C000F101C0FFF000C0FEF035EC0B
:1041900007F015E3BEC0FDF0BDC0FCF0BCC0FBF0F5
:1041A000BBC0FAF01F0E0101016F850E006F6B0E90
:1041B0000001FF6F7C0EFE6F35EC07F002E229B4C0
:1041C00041D0010EF86FF96F21EC0AF0BEC0FDF08E
:1041D000BDC0FCF0BCC0FBF0BBC0FAF0D70E0101C3
:1041E000016FA30E006F0001FF6B810EFE6F3EECAE
:1041F0000DF000C0E6F001C0E7F002C0E8F003C037
:10420000E9F0480EF66E080EF76E080EEA6FA3ECA2
:104210000BF0020EE96EE9C0EDF0E8C0ECF0E7C08B
:10422000EBF0E6C0EAF0EE6F73EC11F0550EF66EAF
:10423000080EF76E070EEA6FA3EC0BF0536A8B9033
:10424000949062D0BEC0FDF0BDC0FCF0BCC0FBF0DD
:10425000BBC0FAF0D70E0101016FA30E006F000181
:10426000FF6B810EFE6F3EEC0DF000C0E6F001C06A
:10427000E7F002C0E8F003C0E9F003C0FDF002C0BF
:10428000FCF001C0FBF000C0FAF0CD0E0101016F9F
:10429000CC0E006F4C0E0001FF6F7B0EFE6F35ECF5
:1042A00007F001E210E129A40ED0010EF86FF96FBA
:1042B00021EC0AF05E0EF66E080EF76E89EC0AF03D
:1042C000010E536E21D01F0EFD6F850EFC6F6B0E1D
:1042D000FB6F7C0EFA6FBEC001F1BDC000F1BCC027
:1042E000FFF0BBC0FEF035EC07F001E20DE1010E7E
:1042F000F86FF96F21EC0AF0720EF66E080EF76E89
:1043000089EC0AF0010E536EBEC0FEF0BDC0FDF098
:10431000BCC0FCF0BBC0FBF08F0E0101026FC20EEF
:10432000016F750E006F7C0E0001FF6FCCEC0DF07D
:1043300000C0E6F001C0E7F002C0E8F003C0E9F019
:1043400003C0FDF002C0FCF001C0FBF000C0FAF0B9
:104350000101016B006B300E0001FF6F820EFE6FDA
:104360003EEC0DF003C0BAF002C0B9F001C0B8F0E5
:1043700000C0B7F0FD6BFC6B300EFB6F820EFA6F66
:10438000BAC001F1B9C000F1B8C0FFF0B7C0FEF08B
:1043900035EC07F006E3BA6BB96B300EB86F820EDE
:1043A000B76F416ABAC0E9F0B9C0E8F0B8C0E7F049
:1043B000B7C0E6F006EC14F000C0E6F001C0E7F08C
:1043C00002C0E8F003C0E9F0FF6B41C0FEF05DEC15
:1043D00005F003C0FDF002C0FCF001C0FBF000C01E
:1043E000FAF0E9C001F1E8C000F1E7C0FFF0E6C073
:1043F000FEF035EC07F00EE3080E4124E66FF86F8F
:10440000020EF96F21EC0AF0D10EF76F56EC0AF0AC
:10441000412AC8D7BAC0E9F0B9C0E8F0B8C0E7F09F
:10442000B7C0E6F006EC14F003C0FDF002C0FCF0EB
:1044300001C0FBF000C0FAF039EC12F001C041F00D
:1044400041500A080EE3080E4124E66FF86F020E91
:10445000F96F21EC0AF0200EF76F56EC0AF0412AB2
:10446000EFD7090EF86F030EF96F21EC0AF0860EF4
:10447000F66E080EF76E060EEA6FA3EC0BF03BC06B
:10448000E6F0030EE76F86EC0CF03A0EF76F56EC91
:104490000AF03CC0E6F0010EE76F86EC0CF002EC8F
:1044A00000F0010EF86F020EF96F21EC0AF0960E83
:1044B000F66E080EF76E89EC0AF029A40DD0010EF5
:1044C000F86F040EF96F21EC0AF09E0EF66E080EDE
:1044D000F76E89EC0AF00CD0010EF86F040EF96F3C
:1044E00021EC0AF0A80EF66E080EF76E89EC0AF0C1
:1044F00029A00DD00D0EF86F040EF96F21EC0AF013
:10450000B20EF66E080EF76E89EC0AF00CD00D0EA6
:10451000F86F040EF96F21EC0AF0BA0EF66E080E71
:10452000F76E89EC0AF029A20DD0010EF86F030E88
:10453000F96F21EC0AF0C20EF66E080EF76E89ECE8
:104540000AF00CD0010EF86F030EF96F21EC0AF09F
:10455000CA0EF66E080EF76E89EC0AF029AE4CD042
:104560002AA845D00C0EF76F56EC0AF0010EF86F32
:10457000020EF96F21EC0AF0D20EF66E080EF76EFD
:1045800089EC0AF0010EF86F030EF96F21EC0AF0C6
:10459000E80EF66E080EF76E89EC0AF0010EF86F61
:1045A000040EF96F21EC0AF0FE0EF66E080EF76E9F
:1045B00089EC0AF0010EF86FF96F21EC0AF0140E85
:1045C000F66E090EF76E89EC0AF0416A4150040854
:1045D0000EE38B809490C80EFC6F95EC04F08B90EA
:1045E0009490C80EFC6F95EC04F0412AEFD7299EF9
:1045F0000C0EF76F56EC0AF029A415D02BB810D08A
:10460000060ECE6F0BEC05F0C80EFC6F95EC04F0B7
:104610000BEC05F02B882B86C80EFC6F95EC04F094
:1046200058C0CEF00DD0CE6B2BA80AD00BEC05F005
:10463000C80EFC6F95EC04F00BEC05F02B982B8664
:1046400029A20FD08A9893982AB40AD00BEC05F0CF
:10465000C80EFC6F95EC04F00BEC05F02A842B8659
:104660000ED08A8893982AA40AD00BEC05F0C80EC5
:10467000FC6F95EC04F00BEC05F02A942B8629A036
:1046800017D08A969396299E2994CE6B29928A8870
:1046900093982AB20CD00BEC05F0C80EFC6F95EC89
:1046A00004F00BEC05F02A82010E446E2B8611D02B
:1046B00029908A8693962AA20CD00BEC05F0C80E9E
:1046C000FC6F95EC04F00BEC05F02A92010E446EA1
:1046D0002B86968084B038D0140EFC6F95EC04F0D5
:1046E000968084B030D029B62ED029722986020E49
:1046F000E66F960EFC6F95EC04F0E62FFAD72B864A
:10470000000E29B4010EE66F170EA96EE6C0A8FFD1
:10471000A69CA69EA684F250006EF29CF29E0F010B
:10472000550EA76EAA0EA76EA682A6B2FED7A694B5
:104730000050F212020E0001E66F960EFC6F95EC2F
:1047400004F0E62FFAD702D02B922996968284B2F3
:1047500030D0140EFC6F95EC04F0968284B228D011
:1047600029BA26D02974298A2B86000E29B4010E75
:10477000E66F160EA96EE6C0A8FFA69CA69EA684AC
:10478000F250006EF29CF29E0F01550EA76EAA0E1B
:10479000A76EA682A6B2FED7A6940050F212020E11
:1047A0000001E66F960EFC6F95EC04F0E62FFAD749
:1047B00001D0299A968484B40DD0140EFC6F95EC28
:1047C00004F0968484B406D0960EFC6F95EC04F049
:1047D00029902B86928A80BA28D029882BB424D09D
:1047E000020EE66FFA0EFC6F95EC04F0E62FFAD796
:1047F000928A80BA02D02B8417D0C80EFC6F95EC39
:1048000004F00C0EF76F56EC0AF0020EE66F960EEF
:10481000FC6F95EC04F0E62FFAD7010E2C6E476A78
:10482000020E306E326E2B8602D02B9429982BA468
:1048300003D011EF14F007D02BA203D024EF14F013
:1048400002D037EF14F0442C65D0070EA96E35C0A6
:10485000A8FFA69CA69EA684F250006EF29CF29E33
:104860000F01550EA76EAA0EA76EA682A6B2FED79E
:10487000A6940050F212080EA96E36C0A8FFA69C9E
:10488000A69EA684F250006EF29CF29E550EA76E74
:10489000AA0EA76EA682A6B2FED7A6940050F21268
:1048A0005BC037F05CC038F0090EA96E37C0A8FFB6
:1048B000A69CA69EA684F2CF00F0F29CF29E550E16
:1048C000A76EAA0EA76EA682A6B2FED7A694005027
:1048D000F212140E0001FC6F95EC04F00A0EA96EA2
:1048E00038C0A8FFA69CA69EA684F250006EF29C3B
:1048F000F29E0F01550EA76EAA0EA76EA682A6B253
:10490000FED7A6940050F212140E0001FC6F95EC35
:1049100004F0446A35503B0802E2356A362A3650C4
:104920003B0804E2366A5B2AD8B45C2A43503B0851
:104930000CE20C0EF76F56EC0AF00BEC05F0C80E0B
:10494000FC6F95EC04F0436A2B8636EF15F00300FC
:020000040030CA
:0E00000000021F1B000180000FC00FE00F4028
:00000001FF
;PIC18F4520
;CRC=378A  CREATED="22-sept.-20 16:31"
